:100000000C9434000C9446000C9446000C9446006A
:100010000C9446000C9446000C9446000C94460048
:100020000C9446000C9446000C9446000C94E50099
:100030000C9446000C9446000C9446000C94460028
:100040000C9446000C9446000C9446000C94460018
:100050000C9446000C9446000C9446000C94460008
:100060000C9446000C94460011241FBECFEFD8E03C
:10007000DEBFCDBF11E0A0E0B1E001C01D92A13014
:10008000B107E1F70E94BC000C94F9000C94000049
:10009000F894E1E8F0E080818360808388E09DE36C
:1000A0009093890080938800808188608083EFE648
:1000B000F0E080818260808378940895682F81E0E9
:1000C0008BB92EE130E04AEF50E003C0CA0101973E
:1000D000F1F7215030408FEF2F3F3807B9F721E07B
:1000E0004AEF50E020C0220F2BB98EE190E003C010
:1000F000FA013197F1F701973FEF8F3F9307C1F76F
:1001000027FFF1CF0DC026952BB98EE190E003C0FB
:10011000FA013197F1F701973FEF8F3F9307C1F74E
:10012000223088F76150662359F70895482F8AEAEC
:100130008BB92EE630E06AEF70E003C0CB01019787
:10014000F1F7215030408FEF2F3F3807B9F72AEAF7
:100150006AEF70E00EC020952BB98EE690E003C0E8
:10016000FB013197F1F701973FEF8F3F9307C1F7FD
:100170004150442381F708958AB18FEF8AB99BB12A
:100180008BB928EE33E04AEF50E003C0CA01019773
:10019000F1F7215030408FEF2F3F3807B9F78AE051
:1001A0000E945E0088EC0E9496001BB8109200012D
:1001B0000E944800809100018031E0F3809181002D
:1001C000887F809381001BB8EACF1F920F920FB6F1
:1001D0000F9211248F93809100018F5F8093000113
:1001E000809100018BB98F910F900FBE0F901F90DF
:0601F0001895F894FFCF02
:00000001FF
