:100000000C9463000C948B000C948B000C948B006C
:100010000C948B000C948B000C948B000C948B0034
:100020000C948B000C948B000C948B000C948B0024
:100030000C948B000C948B000C948B000C948B0014
:100040000C943C070C948B000C94FE030C944C0411
:100050000C948B000C948B000C948B000C948B00F4
:100060000C944E020C948B0000000000240027002A
:100070002A0000000000250028002B0000000000DE
:1000800023002600290004040404040404040202DA
:100090000202020203030303030301020408102007
:1000A0004080010204081020010204081020000012
:1000B0000007000201000003040600000000000029
:1000C00000004401B80511241FBECFEFD8E0DEBF09
:1000D000CDBF11E0A0E0B1E0E8E6F1E102C005909B
:1000E0000D92A639B107D9F713E0A6E9B1E001C036
:1000F0001D92A930B107E1F710E0C6ECD0E004C0D2
:100100002297FE010E94AE08C23CD107C9F70E94A7
:100110000E060C94B2080C9400001F93CF93DF934B
:100120008EED92E060E071E00E94290711E0C0E0EE
:10013000D0E08CED91E0612F0E940A018CED91E0FE
:100140000E94CF018823E9F48EED92E06CE071E02B
:100150000E942607103130F48EED92E06BE271E0E0
:100160000E9426078EED92E0612F40E150E00E9450
:10017000F6068EED92E06DE271E00E94290721966D
:1001800017C08430A9F48EED92E061E371E00E9423
:100190002607103130F48EED92E06BE271E00E94A0
:1001A00026078EED92E0612F40E150E00E940807A3
:1001B0001F5F1F3709F0BDCFCD2B29F48EED92E0E4
:1001C0006CE471E004C08EED92E062E671E00E94A2
:1001D000290768E873E180E090E00E94AA07DF91B8
:1001E000CF911F9108950F931F938CED91E00E9482
:1001F000D3010EED12E0C80140E855E260E070E086
:100200000E948704C80168E671E00E9429071F91D7
:100210000F91089581E08093DB016093B801109203
:10022000D9011092DA0108952091B70130E0809150
:10023000B601281B3109C90108954091B60180918A
:10024000B701481718F02FEF3FEF0AC0E42FF0E096
:10025000EA56FE4F8081282F30E04F5F4093B60171
:10026000C9010895E091B6018091B701E81718F02F
:10027000EFEFFFEF06C0F0E0EA56FE4F8081E82F77
:10028000F0E0CF01089508951092DF011092DE0191
:1002900088EE93E0A0E0B0E08093E0019093E1016C
:1002A000A093E201B093E30189E791E09093DD012F
:1002B0008093DC010895CF92DF92EF92FF920F932B
:1002C0001F93CF93DF937C016B018A018091DB0147
:1002D0008823A1F0C0E0D0E00DC0D701ED91FC91E2
:1002E000D601AC0FBD1F0190F081E02DC7016C91CC
:1002F00009952196C017D10780F304C0CB01642F64
:100300000E943302C801DF91CF911F910F91FF909E
:10031000EF90DF90CF900895DF93CF930F92CDB7FA
:10032000DEB7FC0169838091DB018823C9F08091ED
:10033000DA01803238F081E090E09383828320E01C
:1003400030E015C08091D901E82FF0E0E754FE4F6E
:10035000998190838F5F8093D9018093DA0105C0E2
:10036000CE01019661E00E94330221E030E0C90134
:100370000F90CF91DF9108950F93062F8091B801D0
:1003800069EB71E04091DA0121E00E94DE011092F8
:10039000D9011092DA011092DB010F91089561E00A
:1003A0000E94BC0108951092B6011092B7011092FC
:1003B000D9011092DA010E94DF0308950F931F9371
:1003C000582F122F413210F081E04AC08091E8018D
:1003D0008823E1F782E08093E8010093EA018FEF40
:1003E000809355021092100240931102A0EFB1E0E9
:1003F000FB0102C081918D938E2F861B8417D0F351
:100400001092E9018091E901550F852B8093E90154
:100410008091EB01813041F41092EB018091E90170
:100420008093BB0085EC01C085EE8093BC00112356
:1004300021F08091E8018230E1F3809155028F3FF5
:1004400011F480E00DC080915502803211F482E0F9
:1004500007C080915502803311F084E001C083E031
:100460001F910F910895482F613210F081E0089597
:100470008091E801843011F082E0089560933302A6
:10048000A2E1B2E0842F9C01F90102C081918D9319
:100490008E2F841B8617D0F380E008951F920F9251
:1004A0000FB60F9211242F933F934F935F936F9347
:1004B0007F938F939F93AF93BF93EF93FF9380911D
:1004C000B90090E0887F90708036910509F4F2C001
:1004D00081369105CCF58832910509F47BC08932CB
:1004E0009105B4F48031910509F46FC08131910513
:1004F0003CF4009709F447C1089709F04FC165C063
:100500008831910509F466C0809709F047C182C01F
:100510008034910509F4A4C08134910544F48033FA
:10052000910509F482C0C89709F038C189C08035A7
:10053000910509F489C08835910509F496C088347D
:10054000910509F02BC1AEC08839910509F413C19A
:1005500089399105ECF48837910509F4ABC08937E6
:1005600091054CF48836910509F4A4C080379105B3
:1005700009F014C19FC08838910509F4FCC0803986
:10058000910509F49DC08038910509F007C198C014
:10059000803B910509F4C6C0813B91054CF4803A3B
:1005A000910509F49FC0883A910509F0F7C0BAC0D7
:1005B000803C910509F4E3C0883C910509F4DFC053
:1005C000883B910509F0EAC0C2C08091E90180939F
:1005D000BB00CFC09091100280911102981768F46F
:1005E00090911002E92FF0E0E051FE4F808180935E
:1005F000BB009F5F90931002BCC08091EA018823EA
:1006000009F44BC085ED8093BC008091BC0084FD53
:10061000FCCFC2C080E28093550285ED8093BC0080
:100620008091BC0084FDFCCFB7C080E3809355026D
:1006300085ED8093BC008091BC0084FDFCCFACC0F4
:1006400088E3809355029BC0809110029091BB007B
:10065000E82FF0E0E051FE4F90838F5F809310020F
:10066000909110028091110282C0809110029091AD
:10067000BB00E82FF0E0E051FE4F90838F5F809346
:1006800010028091EA01882341F085ED8093BC003F
:100690008091BC0084FDFCCF7FC081E08093EB01A2
:1006A00084EA6EC085ED8093BC008091BC0084FD1F
:1006B000FCCF72C083E08093E8011092540259C0CD
:1006C00080915402803208F056C08091540290917B
:1006D000BB00E82FF0E0EC5CFD4F90838F5F8093D0
:1006E000540247C080915402803230F4E0915402A9
:1006F000F0E0EC5CFD4F108285ED8093BC008091B2
:10070000BC0084FDFCCF1092E80160915402E0919E
:10071000EE01F091EF0184E392E070E00995109210
:1007200054022DC084E08093E801109232021092AE
:100730003302E091EC01F091ED01099580913302D3
:10074000882329F481E08093330210921202909161
:100750003202E92FF0E0EE5EFD4F80818093BB0016
:100760009F5F9093320290913202809133029817EA
:1007700010F485EC01C085E88093BC000FC085ECC7
:100780008093BC0009C01092550285ED8093BC0097
:100790008091BC0084FDFCCF1092E801FF91EF91A5
:1007A000BF91AF919F918F917F916F915F914F9189
:1007B0003F912F910F900FBE0F901F9018951092A0
:1007C000E80181E08093EA011092EB0182E161E0AF
:1007D0000E94380883E161E00E943808E9EBF0E00C
:1007E00080818E7F808380818D7F808388E4809369
:1007F000B80085E48093BC00089508951F920F927D
:100800000FB60F9211242F933F934F938F939F9383
:10081000EF93FF938091C00082FD1DC04091C60000
:1008200020919602309197022F5F3F4F2F733070C7
:1008300080919802909199022817390771F0E09100
:100840009602F0919702EA5AFD4F40833093970247
:100850002093960202C08091C600FF91EF919F9174
:100860008F914F913F912F910F900FBE0F901F903E
:100870001895E091EA02F091EB02E05CFF4F819164
:10088000919120813181821B930B8F739070892B02
:1008900011F00E94FD0308951F920F920FB60F9260
:1008A00011242F933F938F939F93EF93FF93209166
:1008B000DA023091DB028091DC029091DD02281790
:1008C000390731F48091C1008F7D8093C10014C03D
:1008D000E091DC02F091DD02E656FD4F208180912F
:1008E000DC029091DD0201968F7390709093DD028F
:1008F0008093DC022093C600FF91EF919F918F912E
:100900003F912F910F900FBE0F901F901895AF92AF
:10091000BF92DF92EF92FF920F931F93CF93DF93DB
:10092000EC017A018B01DD24403081EE580780E034
:10093000680780E0780711F0DD24D39491E0A92EB8
:10094000B12CEC89FD89DD2069F0C50108A002C049
:10095000880F991F0A94E2F7808360E079E08DE3C5
:1009600090E005C0108260E874E88EE190E0A80194
:1009700097010E948A0821503040404050405695CF
:1009800047953795279580E12030380720F0DD2006
:1009900011F0DD24D6CFE889F9893083EA89FB8913
:1009A000208319A2EE89FF89408121E030E0C9014E
:1009B0000C8C02C0880F991F0A94E2F7482B4083E1
:1009C000EE89FF894081C9010D8C02C0880F991FF3
:1009D0000A94E2F7482B4083EE89FF894081C901E0
:1009E0000E8C02C0880F991F0A94E2F7482B4083AF
:1009F000EE89FF8980810F8C02C0220F331F0A9479
:100A0000E2F7209528232083DF91CF911F910F914A
:100A1000FF90EF90DF90BF90AF900895DC011C969F
:100A2000ED91FC911D97E05CFF4F21913191808108
:100A30009181281B390B2F733070C9010895DC0197
:100A40001C96ED91FC911D97E05CFF4F2081318158
:100A5000E054F040DF01AE5BBF4F8D919C91119748
:100A60002817390719F42FEF3FEF07C08D919C919C
:100A7000E80FF91F8081282F30E0C9010895DC01BB
:100A80001C96ED91FC911D97E05CFF4F2081318118
:100A9000E054F040DF01AE5BBF4F8D919C91119708
:100AA0002817390719F42FEF3FEF10C08D919C9153
:100AB0001197E80FF91F20818D919C911197019654
:100AC0008F73907011969C938E9330E0C9010895B6
:100AD000DC0191968C919197882339F05496ED9191
:100AE000FC915597808186FFF9CF91961C920895CD
:100AF000CF93DF93EC01EE85FF85E05CFF4F208113
:100B00003181E054F0402F5F3F4F2F733070DF0191
:100B1000AE5BBF4F8D919C91119728173907D1F388
:100B2000E05CFF4F80819181E054F040E80FF91FB5
:100B30006083EE85FF85E05CFF4F31832083EE8983
:100B4000FF89208181E090E00F8C02C0880F991FFF
:100B50000A94E2F7282B208381E089A3EC89FD89A0
:100B600080818064808381E090E0DF91CF9108955F
:100B70001092E1021092E00288EE93E0A0E0B0E073
:100B80008093E2029093E302A093E402B093E50223
:100B900089E891E09093DF028093DE0286E592E09F
:100BA0009093EB028093EA028AE992E09093ED023F
:100BB0008093EC0285EC90E09093EF028093EE023C
:100BC00084EC90E09093F1028093F00280EC90E04E
:100BD0009093F3028093F20281EC90E09093F502FF
:100BE0008093F40282EC90E09093F7028093F602F7
:100BF00086EC90E09093F9028093F80284E0809371
:100C0000FA0283E08093FB0287E08093FC0285E098
:100C10008093FD0281E08093FE020895CF93DF93DD
:100C20000E94D0070E94F300C9E3D4E00E948D0027
:100C30002097E1F30E943904F9CFCF92DF92EF922F
:100C4000FF920F931F93CF93DF937C016B018A0177
:100C5000C0E0D0E00FC0D6016D916D01D701ED91DC
:100C6000FC910190F081E02DC7010995C80FD91FB3
:100C7000015010400115110571F7CE01DF91CF91A0
:100C80001F910F91FF90EF90DF90CF900895EF921A
:100C9000FF920F931F938C01DC01ED91FC91019069
:100CA000F081E02D6DE009957C01D801ED91FC917A
:100CB0000190F081E02DC8016AE009959C012E0D9C
:100CC0003F1DC9011F910F91FF90EF900895CF93A1
:100CD000DF93EC016115710519F420E030E00FC0DD
:100CE000DB010D900020E9F71197A61BB70BE881F7
:100CF000F9810280F381E02DAD0109959C01C901C4
:100D0000DF91CF9108954F925F927F928F929F9241
:100D1000AF92BF92CF92DF92EF92FF920F931F9309
:100D2000DF93CF93CDB7DEB7A1970FB6F894DEBFB0
:100D30000FBECDBF2C01742ECB01223008F42AE067
:100D400019A231E2C32ED12CCC0EDD1E822E9924A5
:100D5000AA24BB24672D752FA50194010E948A083F
:100D600079018A01C801B701A50194010E946B08AD
:100D7000472D461B0894C108D1084A3014F4405D41
:100D800001C0495CF6014083E114F104010511053D
:100D900021F07E2C5F2DC801DDCFC201B6010E947B
:100DA0006706A1960FB6F894DEBF0FBECDBFCF91F8
:100DB000DF911F910F91FF90EF90DF90CF90BF9048
:100DC000AF909F908F907F905F904F900895DC013F
:100DD0002115310541F4ED91FC910190F081E02D58
:100DE000642F099508950E9483060895EF92FF925B
:100DF0000F931F939A01E62EFF2400E010E0B80144
:100E0000A7010E94E7061F910F91FF90EF900895B0
:100E1000CF92DF92EF92FF920F931F936C01E62E19
:100E20009A01FF2400E010E0B801A7010E94E70644
:100E30008C01C6010E944706080F191FC8011F91A7
:100E40000F91FF90EF90DF90CF9008950E9467067A
:100E50000895EF92FF920F931F937C010E94670603
:100E60008C01C7010E944706080F191FC8011F9176
:100E70000F91FF90EF9008951F920F920FB60F926F
:100E800011242F933F938F939F93AF93BF938091A0
:100E9000040390910503A0910603B09107033091DC
:100EA00008030196A11DB11D232F2D5F2D3720F0C2
:100EB0002D570196A11DB11D2093080380930403B3
:100EC00090930503A0930603B0930703809100035A
:100ED00090910103A0910203B09103030196A11D1B
:100EE000B11D8093000390930103A0930203B0937C
:100EF0000303BF91AF919F918F913F912F910F90DD
:100F00000FBE0F901F9018959FB7F8942091000383
:100F100030910103409102035091030386B5A89BD1
:100F200006C08F3F21F02F5F3F4F4F4F5F4F9FBF56
:100F3000542F432F322F2227280F311D411D511DC1
:100F400082E0220F331F441F551F8A95D1F7B90144
:100F5000CA010895EF92FF920F931F93CF93DF93EF
:100F60007B018C010E948407EB010EC00E94840764
:100F70006C1B7D0B685E7340C8F30894E108F108B0
:100F800001091109C851DC4FE114F10401051105F3
:100F900069F7DF91CF911F910F91FF90EF90089526
:100FA000789484B5826084BD84B5816084BD85B544
:100FB000826085BD85B5816085BDEEE6F0E080810B
:100FC00081608083E1E8F0E010828081826080832C
:100FD000808181608083E0E8F0E0808181608083AF
:100FE000E1EBF0E0808184608083E0EBF0E08081E1
:100FF00081608083EAE7F0E0808184608083808183
:10100000826080838081816080838081806880832A
:101010001092C1000895833071F0843028F481303B
:10102000A1F0823021F514C08630B1F08730D1F0C4
:101030008430E9F404C0809180008F7703C08091F0
:1010400080008F7D80938000089584B58F7702C0E3
:1010500084B58F7D84BD08958091B0008F77809393
:10106000B00008958091B0008F7D8093B000089506
:10107000FF920F931F93F62E482F50E0CA0182551E
:101080009F4FFC012491CA0186569F4FFC01149189
:101090004A575F4FFA0104910023C9F0222319F047
:1010A000822F0E940B08E02FF0E0EE0FFF1FEE589A
:1010B000FF4FA591B4919FB7F894FF2021F48C9134
:1010C0001095812302C08C91812B8C939FBF1F911F
:1010D0000F91FF900895629FD001739FF001829F4E
:1010E000E00DF11D649FE00DF11D929FF00D839FB7
:1010F000F00D749FF00D659FF00D9927729FB00D54
:10110000E11DF91F639FB00DE11DF91FBD01CF0166
:1011100011240895A1E21A2EAA1BBB1BFD010DC0CC
:10112000AA1FBB1FEE1FFF1FA217B307E407F50797
:1011300020F0A21BB30BE40BF50B661F771F881F73
:10114000991F1A9469F760957095809590959B0109
:10115000AC01BD01CF010895EE0FFF1F0590F49182
:08116000E02D0994F894FFCF83
:101168005363616E6E696E672E2E2E0049324320DE
:1011780064657669636520666F756E6420617420A6
:101188006164647265737320307800300020202118
:1011980000556E6B6E6F77206572726F7220617486
:1011A8002061646472657373203078004E6F204943
:1011B8003243206465766963657320666F756E6473
:1011C8000A00646F6E650A000A493243205363615E
:1011D8006E6E657200000000008C015B0114011D39
:1011E80001320143010000000078051D060E053F8D
:0611F800051F056805005B
:00000001FF
