:100000000C9462000C948A000C948A000C948A0070
:100010000C948A000C948A000C948A000C948A0038
:100020000C948A000C948A000C948A000C948A0028
:100030000C948A000C948A000C948A000C948A0018
:100040000C94E4100C948A000C948A000C948A009E
:100050000C948A000C948A000C948A000C948A00F8
:100060000C948A000C948A000000000024002700F1
:100070002A0000000000250028002B0000000000DE
:1000800023002600290004040404040404040202DA
:100090000202020203030303030301020408102007
:1000A0004080010204081020010204081020000012
:1000B0000007000201000003040600000000000029
:1000C00000008C0011241FBECFEFD8E0DEBFCDBFF3
:1000D00012E0A0E0B1E0E0E1FBE202C005900D9289
:1000E000A236B107D9F712E0A2E6B2E001C01D9234
:1000F000A33FB107E1F710E0C4ECD0E004C02297C1
:10010000FE010E948215C23CD107C9F70E94DF0E92
:100110000C9486150C940000AF92BF92CF92DF92A0
:10012000EF92FF920F931F9300D000D000D080E099
:1001300090E0A0E8BFE3EDB7FEB781839283A3838D
:10014000B483168215828EE692E066E672E04AE695
:1001500052E022E632E00F2EF0E0EF2EF0E0FF2E2C
:10016000F0E00F2FF0E41F2FF02D0F2EF0E0AF2E58
:10017000F0E0BF2EF0EACF2EF0E4DF2EF02D0E944B
:1001800029078DB79EB706960FB6F8949EBF0FBE8F
:100190008DBF0FEA12E0C80162E00E94890782EC7D
:1001A00092E0B8010E94C00985ED92E067E048E066
:1001B00029E00AE055E0E52E36E0C32E0E94A60EA7
:1001C0001F910F91FF90EF90DF90CF90BF90AF9075
:1001D00008956F927F928F929F92AF92BF92CF922B
:1001E000DF92EF92FF920F931F938091AB02909159
:1001F000AC02A091AD02B091AE020196A11DB11D5D
:100200008093AB029093AC02A093AD02B093AE0288
:1002100082EC92E00E94850B85ED92E060E040E088
:100220000E94B90D85ED92E060E071E00E94FA0F46
:1002300082EC92E060E00E945F0CAB01BC0185EDB6
:1002400092E022E030E00E94E11085ED92E060E073
:1002500041E00E94B90D85ED92E063E071E00E94FB
:10026000FA0F82EC92E061E00E945F0CAB01BC01EE
:1002700085ED92E022E030E00E94E11085ED92E011
:1002800060E042E00E94B90D85ED92E066E071E029
:100290000E94FA0F82EC92E062E00E945F0C3B0148
:1002A0004C0185ED92E0B401A30122E030E00E9410
:1002B000E1106091AB027091AC028091AD0290911F
:1002C000AE0225E030E040E050E00E9443156115A9
:1002D000710581059105D1F18FE00E94CB1100D00D
:1002E00000D0AA2797FDA095BA2F23E630E040E082
:1002F00050E0EDB7FEB72183328343835483BC01C2
:10030000CD0120E030E040E050E0FFEFEF2EF3E0E1
:10031000FF2E012D112DE4E1AE2EB12CC12CD12CDC
:100320000E94BC122AE030E040E050E00E94241518
:100330000E940914609362027093630280936402C6
:10034000909365020F900F900F900F9085ED92E0C3
:1003500061E141E00E94B90D409162025091630257
:10036000609164027091650285ED92E022E030E0D8
:100370000E94E110C401B30120E030E040E251E40A
:100380000E94BD140E94D613882777FD8095982F70
:100390000E9409149B01AC0160936602709367028E
:1003A0008093680290936902609162027091630287
:1003B00080916402909165020E9405134B015C01DB
:1003C00020E030E040E050E00E94B914181624F01C
:1003D000B7FAB094B7F8B094C501B40120E030E0AA
:1003E00040E251E40E946A138823CCF440913E011C
:1003F00050913F0160914001709141010091420193
:10040000109143012091440130914501C090460173
:10041000D0904701E0904801F090490118C0409108
:100420003201509133016091340170913501009196
:100430003601109137012091380130913901C09077
:100440003A01D0903B01E0903C01F0903D018EE6F6
:1004500092E00E94BE038EE692E060E971E00E94A5
:100460008A048EE692E00E940B068823A1F085EDB7
:1004700092E061E142E00E94B90D4091AB025091DF
:10048000AC026091AD027091AE0285ED92E02AE07F
:1004900030E00E94980F85ED92E060E043E00E941A
:1004A000B90D0E942C11AB01BC018091A702909163
:1004B000A802A091A902B091AA02481B590B6A0B8D
:1004C0007B0B85ED92E02AE030E00E94980F85EDED
:1004D00092E069E071E00E94FA0F8EE692E00E94DD
:1004E000EF05AB01BC0185ED92E020E030E00E9419
:1004F000E11085ED92E06BE071E00E94FA0F8EE66C
:1005000092E00E94F705AB01BC0185ED92E021E08D
:1005100030E00E94E11085ED92E06DE071E00E9414
:10052000FA0F8EE692E00E94FF05AB01BC0185ED5B
:1005300092E021E030E00E94E11085ED92E06DE074
:1005400071E00E94FA0F8EE692E00E940706BC015D
:1005500085ED92E040E050E00E94E70F85ED92E0EB
:100560006FE071E00E94FA0F85ED92E0B501A40101
:1005700020E030E00E94E11085ED92E06AE040E08A
:100580000E94B90D85ED92E061E171E00E94FA0FE1
:100590004091660250916702609168027091690211
:1005A00085ED92E020E030E00E94E11085ED92E0E0
:1005B0006AE041E00E94B90D85ED92E064E171E0EE
:1005C0000E94FA0F40916A0250916B0260916C0296
:1005D00070916D0285ED92E020E030E00E94E11024
:1005E00085ED92E06AE042E00E94B90D85ED92E06F
:1005F00067E171E00E94FA0F40916202509163023C
:10060000609164027091650285ED92E020E030E037
:100610000E94E1100E942C11A090A702B090A802A5
:10062000C090A902D090AA0220914A0130914B01BA
:1006300079010027F7FC0095102F6A197B098C09B6
:100640009D09E616F7060807190760F4EA0CFB1C7B
:100650000C1D1D1DE092A702F092A8020093A902B2
:100660001093AA02E0906A02F0906B0200916C0273
:1006700010916D020E942C112091A7023091A802C6
:100680004091A9025091AA02621B730B840B950B37
:100690000E9407149B01AC01C801B7010E94B91464
:1006A00018161CF483E060E002C083E061E00E9461
:1006B00059121F910F91FF90EF90DF90CF90BF9054
:1006C000AF909F908F907F906F900895EF92FF92E0
:1006D0000F931F9382EC92E00E94860C05ED12E0CE
:1006E000C80164E144E020E00E94F00DC8010E94CE
:1006F000E80DC80161E043E00E94B90DC8016AE15C
:1007000071E00E94FA0F83E061E00E94ED110E9407
:100710002C116093A7027093A8028093A902909372
:10072000AA0280E090E0A6E9B3E48093620290938D
:100730006302A0936402B0936502AEE6EA2EA2E0E3
:10074000FA2E60914A0170914B01882777FD8095C0
:10075000982F0E9409148B019C01C70140E050E0D2
:1007600060E070E00E94D804C70161E070E00E9480
:100770009A051F910F91FF90EF9008952F923F924D
:100780004F925F926F927F928F929F92AF92BF92A1
:10079000CF92DF92EF92FF920F931F93DF93CF934D
:1007A00000D000D0CDB7DEB71C0149835A836B83DC
:1007B0007C834801590126013701CB01BA0120E0B1
:1007C00030E040E050E00E946A1387FD8CC0C50114
:1007D000B40120E030E040E050E00E946A1387FD61
:1007E00082C0C701B60120E030E040E050E00E9446
:1007F0006A1387FD78C089819A81AB81BC81F10140
:1008000080839183A283B383D10114968D929D92AC
:10081000AD92BC921797C086D186E286F38664A516
:1008200075A586A597A50E94071420E030E04AE749
:1008300054E40E946E137B018C0189819A81AB8103
:10084000BC81F10184879587A687B787C501B4016C
:10085000A80197010E94BD145B016C01D101509663
:100860006D937D938D939C935397C301B201A8011F
:1008700097010E946E137B018C01F101648B758BD3
:10088000868B978B808D918D019769F560E070E084
:1008900080E090E029813A814B815C810E940513C0
:1008A000D1011C966D937D938D939C931F9760E06F
:1008B00070E080E090E0A60195010E940513F1012F
:1008C000608B718B828B938B60E070E080E090E0B6
:1008D000A80197010E940513D10154966D937D9351
:1008E0008D939C9357970F900F900F900F90CF91EF
:1008F000DF911F910F91FF90EF90DF90CF90BF900D
:10090000AF909F908F907F906F905F904F903F90AF
:100910002F900895AF92BF92CF92DF92EF92FF9205
:100920000F931F93CF93DF93EC0116161706ACF5C8
:100930005B01CC24B7FCC094DC2CC601B5010E943D
:1009400009147B018C016CA57DA58EA59FA50E9435
:1009500007149B01AC01C801B7010E946E137B0113
:100960008C01688979898A899B89A80197010E94ED
:10097000BD14688B798B8A8B9B8B6C897D898E8962
:100980009F89A80197010E946E136C8B7D8B8E8BC3
:100990009F8BACA6BDA6CEA6DFA6DF91CF911F91FF
:1009A0000F91FF90EF90DF90CF90BF90AF900895A0
:1009B0004F925F926F927F928F929F92AF92BF926F
:1009C000CF92DF92EF92FF920F931F93CF93DF931B
:1009D000EC013A014B0178018901CB01BA01A80170
:1009E00097010E94B91487FF4EC068AA79AA8AAA03
:1009F0009BAAECAAFDAA0EAB1FAB88AD882309F415
:100A000042C04C8C5D8CF201A080B180C280D3804A
:100A1000C601B501A80197010E94B914181634F453
:100A2000F201E082F182028313830DC0C601B50199
:100A3000A40193010E946A1388232CF4F2016082BE
:100A4000718282829382ACA0BDA0CEA0DFA0ECA870
:100A5000FDA80EA91FA9C601B501A80197010E9412
:100A6000B914181664F0E8A8F9A80AA91BA9C601C8
:100A7000B501A80197010E946A13882324F4ECA20F
:100A8000FDA20EA31FA3DF91CF911F910F91FF90A5
:100A9000EF90DF90CF90BF90AF909F908F907F901E
:100AA0006F905F904F900895AF92BF92CF92DF9278
:100AB000EF92FF920F931F93CF93DF93EC01EC8D96
:100AC000FD8DE080F18002811381ECA2FDA20EA3D6
:100AD0001FA3EA8DFB8D80819181A281B38188A7BC
:100AE00099A7AAA7BBA7ACA8BDA8CEA8DFA8C80194
:100AF000B701A60195010E94B914181664F0A8A8C0
:100B0000B9A8CAA8DBA8C801B701A60195010E942F
:100B10006A13882324F4ACA2BDA2CEA2DFA2DF9187
:100B2000CF911F910F91FF90EF90DF90CF90BF90EA
:100B3000AF9008951F93CF93DF93EC0110E06130E5
:100B4000710509F411E088AD91E08927181719F4AF
:100B5000CE010E94540518AFDF91CF911F910895E7
:100B60000F931F93CF93DF93EC018B0188AD882304
:100B700079F1888D998D6817790751F160E070E0FF
:100B800080E090E02C853D854E855F850E940513B1
:100B90006C877D878E879F8760E070E080E090E0C3
:100BA000288939894A895B890E940513688B798B6A
:100BB0008A8B9B8B60E070E080E090E02C893D891F
:100BC0004E895F890E9405136C8B7D8B8E8B9F8B6A
:100BD000198F088FDF91CF911F910F910895FC011C
:100BE0002081318142815381B901CA010895FC01FC
:100BF0002481358146815781B901CA010895FC01DC
:100C00002085318542855385B901CA010895FC01CB
:100C1000808D918D08952F923F924F925F926F92A7
:100C20007F928F929F92AF92BF92CF92DF92EF927C
:100C3000FF920F931F93DF93CF9300D000D000D08B
:100C4000CDB7DEB79E838D83DC01D8968C91882347
:100C500009F4E5C00E942C1169837A838B839C83FD
:100C6000ED81FE8180A191A1A2A1B3A129813A8148
:100C70004B815C81281B390B4A0B5B0B84A595A526
:100C8000A6A5B7A5281739074A075B0708F4C7C008
:100C9000028CF38DE02D2080318042805380AD8125
:100CA000BE815E96ED91FC915F976081718182813A
:100CB0009381A20191010E9405133B014C01ED813A
:100CC000FE8120893189428953890E94BD14AD81FA
:100CD000BE8194962D913D914D915C9197970E9484
:100CE00006137B018C01ED81FE8164A375A386A3AD
:100CF00097A3A4A8B5A8C6A8D7A8A60195010E9445
:100D0000B914181674F0ED81FE81A0A8B1A8C2A88C
:100D1000D3A8C801B701A60195010E946A138823D0
:100D200044F4AD81BE819496AD92BD92CD92DC9299
:100D30009797C401B301ED81FE81248535854685F1
:100D400057850E94BD14AD81BE8194962D913D9131
:100D50004D915C9197970E9406137B018C01C20113
:100D6000B101ED81FE8120A531A542A553A50E94C8
:100D70000513AD81BE8154962D913D914D915C91AD
:100D800057970E94BD149B01AC01C801B7010E9496
:100D900005137B018C01ED81FE81D4A8C5A8B6A8FE
:100DA000A7A82D2D3C2D4B2D5A2D0E94B914181695
:100DB000BCF0AD81BE81D096DC90D097D196CC901E
:100DC000D197D296BC90D297D396AC90C801B70178
:100DD0002D2D3C2D4B2D5A2D0E946A13882334F45F
:100DE0008D2D9C2DAB2DBA2D7C018D01AD81BE8149
:100DF0005C96ED91FC915D97E082F1820283138312
:100E0000FD0120A631A642A653A689819A81AB8115
:100E1000BC8180A391A3A2A3B3A381E001C080E021
:100E200026960FB6F894DEBF0FBECDBFCF91DF91EF
:100E30001F910F91FF90EF90DF90CF90BF90AF90F8
:100E40009F908F907F906F905F904F903F902F90EA
:100E500008954F925F926F927F928F929F92AF927E
:100E6000BF92CF92DF92EF92FF920F931F93DF9387
:100E7000CF93CDB7DEB74C0127013801FC01558F68
:100E8000448F738F628F378F268F10AE40E050E013
:100E900060E070E000E010E02FE733E40E94D80447
:100EA00084E690E0A0E0B0E0F40184A795A7A6A7AF
:100EB000B7A7C4016F89788D0E94B005C401B30142
:100EC000A20196018501CB88DC88ED88FE880E940E
:100ED000BE030E942C11F40124A535A546A557A5F3
:100EE000621B730B840B950B60A371A382A393A366
:100EF000CF91DF911F910F91FF90EF90DF90CF90F6
:100F0000BF90AF909F908F907F906F905F904F9029
:100F10000895DC011A966C931A97462F50E0CA0187
:100F20008A579F4FFC0124911B962C931B97465682
:100F30005F4FFA0184911C968C931C9730E0220F2E
:100F4000331FF901EE58FF4F859194911E969C93A3
:100F50008E931D97F901E458FF4F85919491509617
:100F60009C938E931F97F901E859FF4F85919491B7
:100F700052969C938E9351978FEF18968C93189757
:100F800019961C92199787E0FD01E80FF11D108258
:100F9000882311F08150F8CF0895DC018FEF189667
:100FA0008C93189719961C92199787E0FD01E80F0A
:100FB000F11D1082882311F08150F8CF0895DC01D3
:100FC00020E080E00AC0E82FF0E08D9190E0E82773
:100FD000F927E35BFE4F80812F5F2617A0F308956A
:100FE000FF920F931F938C01DC015196ED91FC91C0
:100FF000529780811C969C911C97892B80831D960B
:10100000ED91FC911E9790811C968C91809589237F
:10101000808381E090E00E948611D8015196ED9185
:10102000FC91529790811C968C91809589238083A6
:1010300085E090E00E948611D8011F96ED91FC9109
:1010400050972081FF2430E01C968C9190E028235B
:101050003923232B11F0FF24F39482E390E00E94C4
:1010600086118F2D1F910F91FF900895EF92FF929F
:101070000F931F93CF93DF937C0101E010E0C0E05A
:10108000D0E0C7010E94F0078111102B000F2196BC
:10109000C830D105B1F7812FDF91CF911F910F910A
:1010A000FF90EF900895EF92FF920F931F937C01B2
:1010B000062FDC015196ED91FC91529780811C9690
:1010C0009C911C97892B80831D96ED91FC911E9716
:1010D00090811C968C91809589238083017010E00B
:1010E000F801E15BFD4F808190E00E948611D701FD
:1010F0001D96ED91FC911E9780811C969C91892BE9
:101100008083035B1D4FF801808190E00E9486116F
:101110001F910F91FF90EF900895CF92DF92EF9281
:10112000FF920F931F93CF93DF938C01E42EFF2444
:10113000F394C0E0D0E0C62EDD2460E08F2D90E077
:101140008C219D21892B09F061E0C8010E94530880
:10115000FF0C2196C830D10581F7EE2051F4F8013B
:10116000828560E00E94ED11F801828560E00E94B6
:101170005912DF91CF911F910F91FF90EF90DF9067
:10118000CF9008956CEC40E00E948D080895EF9296
:10119000FF920F931F93CF93DF938C017B0165E543
:1011A00040E00E948D08C0E0D0E0F701EC0FFD1F89
:1011B000C801608140E00E948D082196C830D105A9
:1011C000A1F7DF91CF911F910F91FF90EF900895BC
:1011D0001F93CF93DF93EC018A8560E00E94ED11AD
:1011E0001DE7115010F410E028C082E090E00E944A
:1011F00086118A850E948C12892B99F38A8560E07A
:101200000E9459128A8561E00E94ED1184EF91E0FD
:101210000E9486118A8560E00E94ED1181E490E0D1
:101220000E9486118A850E948C1210E0892B09F495
:1012300011E08AEE91E00E948611812FDF91CF911B
:101240001F9108958F929F92AF92BF92DF92EF927B
:10125000FF920F931F93CF93DF93EC015B0189857E
:10126000882309F080C0CE010E94E808882309F491
:101270007AC0CE0160EF40E00E948D08DD24DA9450
:10128000EE24E39400E010E021E0822E912CCE01C8
:101290000E94F007F82ECE010E94F007282F502F51
:1012A000569556955695C80187709070B40102C046
:1012B000660F771F8A95E2F7462FFF2029F0222339
:1012C00009F051C09F2D21C0222339F58885992727
:1012D00087FD90950817190711F4D8860EC00817D6
:1012E00019076CF4262F30E0FE01E50FF11D808117
:1012F00090E028233923232B19F091E003C00887BD
:1013000090E0EE24D02E992341F0FE01E50FF11D6F
:101310008081842B8083F92E07C0FE01E50FF11D2B
:101320004095808148234083CE016F2D0E94530851
:101330000F5F1F4F0034110509F0A9CFEE2011F007
:1013400081E0898720E030E0F501E20FF31FDE0144
:10135000A20FB31F8C9180832F5F3F4F2830310540
:1013600099F781E001C080E0DF91CF911F910F914B
:10137000FF90EF90DF90BF90AF909F908F90089577
:10138000FC0186E89AE0928B818B768365831482D8
:10139000108289E0818381E08283838308956F9244
:1013A0007F928F929F92AF92BF92CF92DF92EF92F5
:1013B000FF920F931F93CF93DF93FB01EA01998173
:1013C00080E0288130E0282B392BE081E23231F0B7
:1013D000E83221F0E03109F084C04BC04C814F333A
:1013E00029F1403420F44F3109F07BC02FC04F3534
:1013F00079F04F3709F075C0B901882777FD8095DE
:10140000982F0E94091420E030E040E85DE32EC0F0
:1014100035952795B901882777FD8095982F0E94EB
:10142000091420E030E040E05EE320C035952795C8
:1014300035952795B901882777FD8095982F0E94CB
:10144000091420E030E040E85EE310C093E03595F9
:1014500027959A95E1F7B901882777FD8095982F10
:101460000E94091420E030E040E05FE30E94BD14D8
:1014700032C0EF8035952795B901882777FD809593
:10148000982F0E94091420E030E040E85EE30E94BB
:1014900005133B014C016E2D70E02E81621B71091A
:1014A000882777FD8095982F0E9409145B016C01B5
:1014B000FF2400E010E0C801B7010E9407149B015F
:1014C000AC01C601B5010E946E139B01AC01C401C1
:1014D000B3010E9406139B01AC01832F942F752F3B
:1014E00000C0262F382F492F572FB901CA01DF918D
:1014F000CF911F910F91FF90EF90DF90CF90BF9011
:10150000AF909F908F907F906F9008950895EF9285
:10151000FF920F931F938C017B01FC0185819681C3
:101520000E94E808F80185819681B7010E94C708EA
:10153000F8018581968164EB40E00E948D08F801F6
:10154000858196810E94F007F82EF80185819681A9
:101550000E94E80880E0FF2009F481E01F910F91CC
:10156000FF90EF900895CF92DF92EF92FF920F934A
:101570001F938C016B017A01FC01858196810E9489
:10158000E808F80185819681B6010E94C708F80134
:10159000858196816EEB40E00E948D08F80185817F
:1015A00096810E943608F7018083F8018581968133
:1015B0000E943608F7018183F801858196810E9497
:1015C0003608F7018283F801858196810E943608EA
:1015D000F7018383F801858196810E943608F7011F
:1015E0008483F801858196810E943608F7018583FE
:1015F000F801858196810E943608F7018683F801FB
:10160000858196810E943608F7018783F8018581DC
:1016100096810E943608F7018087F80185819681BE
:101620000E94E8081F910F91FF90EF90DF90CF90FC
:101630000895DF93CF93CDB7DEB729970FB6F8940F
:10164000DEBF0FBECDBFAE014F5F5F4F0E94B30A3A
:101650008981811181E029960FB6F894DEBF0FBE13
:10166000CDBFCF91DF910895CF92DF92EF92FF929D
:101670000F931F93CF93DF93EC016B01452BE1F0A8
:101680008B818823C9F088818823B1F40E942C11B2
:101690007B018C01CE0160E070E00E94190B882371
:1016A00059F40E942C116E197F09800B910B6E5E0C
:1016B00072408040904070F3F6016081693039F0EB
:1016C0006930A0F06A3041F06B3081F40AC06EE5F9
:1016D00070E080E090E00EC06CEB70E080E090E0A5
:1016E00009C067E771E080E090E004C06EEE72E050
:1016F00080E090E00E946011DF91CF911F910F91E7
:10170000FF90EF90DF90CF900895CF93DF93EC019F
:101710008D819E810E94E8088D819E810E94C20871
:101720008D819E8164E448810E948D088A8188238E
:1017300039F0CE012196BE0140E050E00E94340B0A
:10174000DF91CF9108950F931F938A010E94B30AEE
:10175000C80168E00E94DF0720E0F8019085891742
:1017600009F421E0822F1F910F910895CF92DF920B
:10177000EF92FF920F931F93DF93CF93CDB7DEB716
:1017800029970FB6F894DEBF0FBECDBF8C017B0149
:101790006E010894C11CD11CA6010E94A30B8823D2
:1017A00029F460E070E08EEF92EC05C0C801B7014B
:1017B000A6010E94CF0929960FB6F894DEBF0FBE8E
:1017C000CDBFCF91DF911F910F91FF90EF90DF90F0
:1017D000CF900895DF93CF93CDB7DEB729970FB69B
:1017E000F894DEBF0FBECDBF9C01FB01808180312C
:1017F000D9F0C901AE014F5F5F4F0E94A30B882350
:10180000A9F08D818F3371F0803418F48F3171F429
:101810000BC08F3519F08F3749F402C08BE007C039
:101820008CE005C08AE003C089E001C080E0299611
:101830000FB6F894DEBF0FBECDBFCF91DF910895F4
:101840000F931F938B01CB0167E00E94DF0720E01D
:10185000F8019781891709F421E0822F1F910F91D8
:101860000895EF92FF920F931F93CF93DF93EC01B4
:101870007B01042F8D819E810E94CD0710E007C05F
:10188000CE01B7010E94200C8823A9F00AC08D81E7
:101890009E81B7010E942209882329F0101759F46C
:1018A000EFCF81E001C080E0DF91CF911F910F91D8
:1018B000FF90EF9008951F5F0117A8F3E8CFEF9214
:1018C000FF920F931F93DF93CF93CDB7DEB7289787
:1018D0000FB6F894DEBF0FBECDBF7C01462F8E0140
:1018E0000F5F1F4FB8010E94310CC701B8010E9461
:1018F000B60B28960FB6F894DEBF0FBECDBFCF91C2
:10190000DF911F910F91FF90EF900895AF92BF92DA
:10191000CF92DF92EF92FF920F931F93DF93CF93BB
:10192000CDB7DEB761970FB6F894DEBF0FBECDBF5F
:101930007C01FC01858196810E94CD07F70114820C
:101940006E010894C11CD11C79E0A72EB12CAC0EFD
:10195000BD1E01E02BC0C701B6010E94200C8823E8
:1019600029F1F7018081882341F4C701B6010E9463
:10197000870A882311F0F7010083C701B601A5018A
:101980000E94B30AF7011181C701B6010E94EA0B58
:10199000811718F4F701818104C0C701B6010E94C4
:1019A000EA0BF701818384818F5F8483F70185814E
:1019B0009681B6010E942209882369F661960FB6C6
:1019C000F894DEBF0FBECDBFCF91DF911F910F9175
:1019D000FF90EF90DF90CF90BF90AF9008950F935E
:1019E0001F938C01FC01868160E00E94591281E006
:1019F00090E00E948611F801868161E00E945912F0
:101A000081E090E00E948611F801868160E00E94EA
:101A1000591284E690E00E9486111F910F9108955B
:101A2000CF92DF92EF92FF920F931F93CF93DF93AA
:101A3000D82EC92E282F392FC9018C01C0E0D0E043
:101A4000E62EFF24F801878161E00E94ED11B701C5
:101A50000C2E02C0759567950A94E2F76170F80143
:101A600087810E94591221960F5F1F4FC830D10500
:101A700049F78D2D9C2D0E94EF0CDF91CF911F9186
:101A80000F91FF90EF90DF90CF900895CF92DF926B
:101A9000EF92FF920F931F93CF93DF93D82EC92E0F
:101AA000282F392FC9018C01C0E0D0E0E62EFF2499
:101AB000F801878161E00E94ED11B7010C2E02C090
:101AC000759567950A94E2F76170F80187810E9425
:101AD000591221960F5F1F4FC430D10549F78D2D44
:101AE0009C2D0E94EF0CDF91CF911F910F91FF90E1
:101AF000EF90DF90CF9008951F93CF93DF93EC0189
:101B0000162F8C81642F0E9459128D818F3F19F0FE
:101B100060E00E9459128F8584FF05C0CE01612FBD
:101B20000E94100D0EC0612F70E084E075956795DE
:101B30008A95E1F7CE010E94460DCE01612F0E94E9
:101B4000460DDF91CF911F91089541E00E947C0DD9
:101B500081E090E0089540E00E947C0D0895FC0132
:101B60006089862F8460808B6C60CF010E94AB0DF2
:101B70000895DF93CF93CDB7DEB728970FB6F894CB
:101B8000DEBF0FBECDBF9C01FE013196A9E5B2E0DC
:101B900088E00D9001928150E1F7F901838948179F
:101BA00010F0482F4150E42FF0E0EE0FFF1FEC0F34
:101BB000FD1F8181680F6068C9010E94AB0D2896E6
:101BC0000FB6F894DEBF0FBECDBFCF91DF91089561
:101BD00061E00E94AB0D80ED97E00E9486110895B0
:101BE000CF93DF93EC01423018F08F8588608F87A8
:101BF0004B8B1C8A222329F0413019F48F85846095
:101C00008F8780E593EC0E9486118C8160E00E94B2
:101C100059128E8160E00E9459128D818F3F19F018
:101C200060E00E9459126F8564FD1DC0CE0163E023
:101C30000E94460D84E991E10E948611CE0163E085
:101C40000E94460D84E991E10E948611CE0163E075
:101C50000E94460D86E990E00E948611CE0162E066
:101C60000E94460D16C06062CE010E94AB0D84E951
:101C700091E10E9486116F856062CE010E94AB0DDA
:101C800086E990E00E9486116F856062CE010E9415
:101C9000AB0D6F856062CE010E94AB0D84E0888B36
:101CA000CE010E94AF0DCE010E94E80D82E0898B2B
:101CB000CE0166E00E94AB0DDF91CF9108956F9247
:101CC0007F928F92AF92CF92EF920F931F93DF93F9
:101CD000CF93CDB7DEB73C01162F842FF301448399
:101CE00025830683E782C086A18682869D859387A9
:101CF0009E8594879F8595879889968761E00E9445
:101D0000ED11F30185818F3F19F061E00E94ED1123
:101D1000F301868161E00E94ED11112319F0F301B6
:101D2000178603C080E1F3018787C30160E141E0CA
:101D300020E00E94F00DCF91DF911F910F91EF9065
:101D4000CF90AF908F907F906F9008958F92AF92C9
:101D5000CF92EF920F931F93CF93DF93DC01362F37
:101D6000542F722F102FAE2C8C2C13961C921E9277
:101D7000129785E592E011969C938E9300D000D047
:101D8000EDB7FEB73196CDB7DEB719821182128258
:101D90001382CD0161E0432F2FEF052FE72EC12ED7
:101DA0000E945F0E0F900F900F900F90DF91CF91D8
:101DB0001F910F91EF90CF90AF908F900895CF9398
:101DC000DF930E9490110E946603C0E0D0E00E9461
:101DD000E9002097E1F30E940000F9CFCF92DF9253
:101DE000EF92FF920F931F93CF93DF937C016B01D0
:101DF0008A01C0E0D0E00FC0D6016D916D01D7011E
:101E0000ED91FC910190F081E02DC7010995C80F7B
:101E1000D91F015010400115110571F7CE01DF9156
:101E2000CF911F910F91FF90EF90DF90CF90089589
:101E3000CF93DF93EC016115710519F420E030E0D8
:101E40000FC0DB010D900020E9F71197A61BB70B1F
:101E5000E881F9810280F381E02DAD0109959C01B3
:101E6000C901DF91CF9108954F925F927F928F9237
:101E70009F92AF92BF92CF92DF92EF92FF920F9319
:101E80001F93DF93CF93CDB7DEB7A1970FB6F8942A
:101E9000DEBF0FBECDBF2C01742ECB01223008F463
:101EA0002AE019A231E2C32ED12CCC0EDD1E822EE7
:101EB0009924AA24BB24672D752FA50194010E94A3
:101EC000431579018A01C801B701A50194010E9457
:101ED0002415472D461B0894C108D1084A3014F434
:101EE000405D01C0495CF6014083E114F104010545
:101EF000110521F07E2C5F2DC801DDCFC201B60196
:101F00000E94180FA1960FB6F894DEBF0FBECDBF8A
:101F1000CF91DF911F910F91FF90EF90DF90CF90C5
:101F2000BF90AF909F908F907F905F904F9008955B
:101F3000DC012115310541F4ED91FC910190F08116
:101F4000E02D642F099508950E94340F0895CF92D3
:101F5000DF92EF92FF920F931F93CF93DF93EC01E9
:101F60006A017B012115310541F4E881F981019075
:101F7000F081E02D642F09951FC02A303105D1F47E
:101F800077FF17C0E881F9810190F081E02D6DE2C3
:101F900009958C0144275527BA014C195D096E0932
:101FA0007F09CE012AE00E94340F9801280F391FC3
:101FB00004C02AE00E94340F9C01C901DF91CF9137
:101FC0001F910F91FF90EF90DF90CF900895EF92C7
:101FD000FF920F931F937B019A010027F7FC009556
:101FE000102FB801A7010E94A70F1F910F91FF901A
:101FF000EF9008950E94180F08957F928F929F92FC
:10200000AF92BF92CF92DF92EF92FF920F931F9306
:10201000CF93DF934C017A018B01722ECB01BA0171
:10202000A80197010E942015882321F0C40164E2D1
:1020300071E021C0C0E0D0E057016801E894D7F812
:10204000C601B5012FEF3FEF4FE75FE70E94201574
:10205000882351F4C601B5012FEF3FEF4FE75FE74B
:102060000E946A13181614F0C1E0D0E0219739F0ED
:10207000C40168E271E00E94180FEC0193C0C8012E
:10208000B7012FEF3FEF4FE75FE40E94B914181636
:1020900054F0C801B7012FEF3FEF4FE75FEC0E940C
:1020A0006A13882324F4C4016CE271E0E4CFC80110
:1020B000B70120E030E040E050E00E946A1387FD65
:1020C00003C0C0E0D0E00EC0D401ED91FC910190BE
:1020D000F081E02DC4016DE20995EC0117FB10952C
:1020E00017F9109520E030E040E05FE3DD240BC0FD
:1020F000CA01B90120E030E040E251E40E946E13D1
:102100009B01AC01D394D71498F3C801B7010E9486
:1021100006135B016C010E94DB137B018C01C4017F
:10212000B801A7012AE030E00E94980FC80FD91F1C
:10213000772039F0C40160E371E00E94180FC80FE6
:10214000D91FC801B7010E9407149B01AC01C60149
:10215000B5010E94051324C020E030E040E251E4C4
:102160000E94BD147B018C010E94D6135B016C019F
:10217000CC24B7FCC094DC2CC401B601A5012AE034
:1021800030E00E94A70FC80FD91FC601B5010E94F9
:1021900009149B01AC01C801B7010E9405137A9490
:1021A0007720D1F6CE01DF91CF911F910F91FF9053
:1021B000EF90DF90CF90BF90AF909F908F907F90E7
:1021C00008950E94FD0F08951F920F920FB60F926F
:1021D00011242F933F938F939F93AF93BF9380913D
:1021E000EE029091EF02A091F002B091F1023091D5
:1021F000F2020196A11DB11D232F2D5F2D3720F076
:102200002D570196A11DB11D2093F2028093EE027D
:102210009093EF02A093F002B093F1028091EA0252
:102220009091EB02A091EC02B091ED020196A11DFC
:10223000B11D8093EA029093EB02A093EC02B0935D
:10224000ED02BF91AF919F918F913F912F910F9090
:102250000FBE0F901F9018958FB7F8942091EE0243
:102260003091EF024091F0025091F1028FBFB9011D
:10227000CA0108959FB7F8942091EA023091EB02C9
:102280004091EC025091ED0286B5A89B06C08F3FAD
:1022900021F02F5F3F4F4F4F5F4F9FBF542F432F72
:1022A000322F2227280F311D411D511D82E0220FA0
:1022B000331F441F551F8A95D1F7B901CA010895EC
:1022C000EF92FF920F931F93CF93DF937B018C01CB
:1022D0000E943A11EB010EC00E943A116C1B7D0B5B
:1022E000685E7340C8F30894E108F1080109110918
:1022F000C851DC4FE114F1040105110569F7DF91C4
:10230000CF911F910F91FF90EF900895019739F0B1
:10231000880F991F880F991F02970197F1F7089569
:10232000789484B5826084BD84B5816084BD85B5B0
:10233000826085BD85B5816085BDEEE6F0E0808177
:1023400081608083E1E8F0E0108280818260808398
:10235000808181608083E0E8F0E08081816080831B
:10236000E1EBF0E0808184608083E0EBF0E080814D
:1023700081608083EAE7F0E08081846080838081EF
:102380008260808380818160808380818068808397
:102390001092C1000895982F8E3008F09E509770CB
:1023A00080914C018295880F880F807C892B8093C7
:1023B0007C0080917A00806480937A0080917A001A
:1023C00086FDFCCF2091780040917900942F80E029
:1023D00030E0282B392BC9010895CF93DF93482F84
:1023E00050E0CA0186569F4FFC0134914A575F4F17
:1023F000FA018491882369F190E0880F991FFC010C
:10240000E859FF4FA591B491FC01EE58FF4FC591DB
:10241000D491662351F42FB7F8948C91932F909513
:1024200089238C93888189230BC0623061F42FB794
:10243000F8948C91932F909589238C938881832B8A
:1024400088832FBF06C09FB7F8948C91832B8C9301
:102450009FBFDF91CF910895833071F0843028F4CD
:102460008130A1F0823021F514C08630B1F0873080
:10247000D1F08430E9F404C0809180008F7703C0EC
:10248000809180008F7D80938000089584B58F7740
:1024900002C084B58F7D84BD08958091B0008F7790
:1024A0008093B00008958091B0008F7D8093B0003C
:1024B0000895FF920F931F93F62E482F50E0CA0104
:1024C00082559F4FFC012491CA0186569F4FFC0103
:1024D00014914A575F4FFA0104910023C9F0222357
:1024E00019F0822F0E942C12E02FF0E0EE0FFF1F58
:1024F000EE58FF4FA591B4919FB7F894FF2021F4B7
:102500008C911095812302C08C91812B8C939FBF5D
:102510001F910F91FF9008950F931F93482F50E044
:10252000CA0182559F4FFC012491CA0186569F4FD4
:10253000FC0104914A575F4FFA011491112319F4D9
:1025400020E030E015C0222319F0822F0E942C12C7
:10255000812F90E0880F991F84589F4FFC01A5910F
:10256000B4918C9120E030E0802311F021E030E044
:10257000C9011F910F9108952F923F924F925F9240
:102580006F927F928F929F92AF92BF92CF92DF9283
:10259000EF92FF920F931F93DF93CF93CDB7DEB7E8
:1025A0003B014C0119012A016D897E898F89988D23
:1025B0006A197B098C099D09621A730A840A950AB3
:1025C000A40193010E942415E218F30804091509D7
:1025D000A80197010E9465152A0D3B1D4C1D5D1D2C
:1025E000B901CA01CF91DF911F910F91FF90EF9038
:1025F000DF90CF90BF90AF909F908F907F906F9023
:102600005F904F903F902F9008955058BB27AA2776
:102610000ED075C166D130F06BD120F031F49F3F00
:1026200011F41EF45BC10EF4E095E7FB51C1E92FF4
:1026300077D180F3BA17620773078407950718F0FC
:1026400071F49EF58FC10EF4E0950B2EBA2FA02DDC
:102650000B01B90190010C01CA01A0011124FF274F
:10266000591B99F0593F50F4503E68F11A16F0404A
:10267000A22F232F342F4427585FF3CF4695379549
:102680002795A795F0405395C9F77EF41F16BA0B0E
:10269000620B730B840BBAF09150A1F0FF0FBB1FBC
:1026A000661F771F881FC2F70EC0BA0F621F731F05
:1026B000841F48F4879577956795B795F7959E3F62
:1026C00008F0B3CF9395880F08F09927EE0F9795F0
:1026D00087950895D9D008F481E008950CD00FC1F2
:1026E00007D140F0FED030F021F45F3F19F0F0C088
:1026F000511139C1F3C014D198F39923C9F355236B
:10270000B1F3951B550BBB27AA27621773078407E4
:1027100038F09F5F5F4F220F331F441FAA1FA9F39A
:1027200033D00E2E3AF0E0E830D091505040E6958C
:10273000001CCAF729D0FE2F27D0660F771F881FED
:10274000BB1F261737074807AB07B0E809F0BB0BDC
:10275000802DBF01FF2793585F4F2AF09E3F510500
:1027600068F0B6C000C15F3FECF3983EDCF386959D
:1027700077956795B795F7959F5FC9F7880F911D76
:102780009695879597F90895E1E0660F771F881F62
:10279000BB1F621773078407BA0720F0621B730B15
:1027A000840BBA0BEE1F88F7E095089504D0689467
:1027B000B111D9C00895BCD088F09F5790F0B92FBF
:1027C0009927B751A0F0D1F0660F771F881F991F86
:1027D0001AF0BA95C9F712C0B13081F0C3D0B1E098
:1027E0000895C0C0672F782F8827B85F39F0B93FA8
:1027F000CCF3869577956795B395D9F73EF4909588
:102800008095709561957F4F8F4F9F4F0895E89405
:1028100009C097FB3EF490958095709561957F4F28
:102820008F4F9F4F9923A9F0F92F96E9BB279395D6
:10283000F695879577956795B795F111F8CFFAF4E6
:10284000BB0F11F460FF1BC06F5F7F4F8F4F9F4F17
:1028500016C0882311F096E911C0772321F09EE875
:10286000872F762F05C0662371F096E8862F70E0DB
:1028700060E02AF09A95660F771F881FDAF7880FB5
:102880009695879597F90895990F0008550FAA0B0B
:10289000E0E8FEEF16161706E807F907C0F0121673
:1028A0001306E407F50798F0621B730B840B950B76
:1028B00039F40A2661F0232B242B252B21F40895CB
:1028C0000A2609F4A140A6958FEF811D811D089568
:1028D00097F99F6780E870E060E008959FEF80ECD3
:1028E000089500240A941616170618060906089576
:1028F00000240A9412161306140605060895092EDC
:102900000394000C11F4882352F0BB0F40F4BF2B4A
:1029100011F460FF04C06F5F7F4F8F4F9F4F08958A
:1029200057FD9058440F551F59F05F3F71F0479580
:10293000880F97FB991F61F09F3F79F08795089565
:10294000121613061406551FF2CF4695F1DF08C084
:10295000161617061806991FF1CF869571056105A1
:1029600008940895E894BB2766277727CB0197F949
:1029700008958ADF08F48FEF08950BD0C0CFB1DF40
:1029800028F0B6DF18F0952309F0A2CFA7CF1124C5
:10299000EACFC6DFA0F3959FD1F3950F50E0551F06
:1029A000629FF001729FBB27F00DB11D639FAA27A4
:1029B000F00DB11DAA1F649F6627B00DA11D661FF3
:1029C000829F2227B00DA11D621F739FB00DA11D14
:1029D000621F839FA00D611D221F749F3327A00DCE
:1029E000611D231F849F600D211D822F762F6A2F6A
:1029F00011249F5750408AF0E1F088234AF0EE0FEF
:102A0000FF1FBB1F661F771F881F91505040A9F7FB
:102A10009E3F510570F05CCFA6CF5F3FECF3983E30
:102A2000DCF3869577956795B795F795E7959F5F62
:102A3000C1F7FE2B880F911D9695879597F90895FC
:102A400023DF880B990B0895629FD001739FF001DB
:102A5000829FE00DF11D649FE00DF11D929FF00D2E
:102A6000839FF00D749FF00D659FF00D9927729F65
:102A7000B00DE11DF91F639FB00DE11DF91FBD01F0
:102A8000CF0111240895A1E21A2EAA1BBB1BFD0140
:102A90000DC0AA1FBB1FEE1FFF1FA217B307E4073D
:102AA000F50720F0A21BB30BE40BF50B661F771F95
:102AB000881F991F1A9469F7609570958095909575
:102AC0009B01AC01BD01CF01089597FB092E05269E
:102AD0000ED057FD04D0D7DF0AD0001C38F4509533
:102AE0004095309521953F4F4F4F5F4F0895F6F732
:102AF00090958095709561957F4F8F4F9F4F08956A
:102B0000EE0FFF1F0590F491E02D0994F894FFCF8C
:102B1000303A00313A00323A0070006900640067D0
:102B2000007C69007C6F007C730073746174696E53
:102B3000672E2E006E616E00696E66006F7666000D
:102B40002E0000008040CDCC4C3E0000803F0000B5
:102B5000803FCDCC4C3D0000803E307501005EBC16
:102B6000E2613FDD83C29C7E20A3FD1F419DC32106
:102B70007FFCA2401E5F01E3BD3E6082DC237D9F9F
:102B8000C1421CFEA0E1BF5D0380DE3C62BEE002EC
:102B90005CDF81633D7C22C09E1D43A1FF4618FA85
:102BA000A427799BC584DA3866E5BB5907DB8567BE
:102BB00039BAE406581947A5FB7826C49A653BD96B
:102BC00087045AB8E6A7F91B45C6987A24F8A644A4
:102BD0001A99C7257B3A6486D85B05E7B98CD23051
:102BE0006EEDB3510F4E10F2AC2F7193CD114FAD6E
:102BF000F3702ECC92D38D6F31B2EC0E50AFF11337
:102C00004DCE90722C6D33D18F0C52B0EE326C8E53
:102C1000D0530DEFB1F0AE4C1291CF2D73CA947614
:102C200028ABF517490856B4EA6937D58B5709EB35
:102C3000B536688AD495CB2977F4AA4816E9B755F2
:102C40000B88D6346A2B7597C94A14F6A8742AC81B
:102C500096154BA9F7B6E80A54D7896B350537376F
:102C60000500000000A50DEE0E0000400014005409
:022C7000000062
:00000001FF
