:100000000C9462000C948A000C948A000C948A0070
:100010000C948A000C948A000C948A000C948A0038
:100020000C948A000C948A000C948A000C948A0028
:100030000C948A000C948A000C948A000C948A0018
:100040000C94AC140C948A000C948A000C948A00D2
:100050000C948A000C948A000C948A000C948A00F8
:100060000C948A000C948A000000000024002700F1
:100070002A0000000000250028002B0000000000DE
:1000800023002600290004040404040404040202DA
:100090000202020203030303030301020408102007
:1000A0004080010204081020010204081020000012
:1000B0000007000201000003040600000000000029
:1000C00000008C0011241FBECFEFD8E0DEBFCDBFF3
:1000D00012E0A0E0B1E0EEEEF2E302C005900D9276
:1000E000A437B107D9F713E0A4E7B2E001C01D922D
:1000F000AC32B107E1F710E0C4ECD0E004C02297C5
:10010000FE010E947119C23CD107C9F70E949612E4
:100110000C9475190C940000AF92BF92CF92DF92AD
:10012000EF92FF920F931F9300D000D000D080E099
:1001300090E0A0E8BFE3EDB7FEB781839283A3838D
:10014000B483168215828CE892E064E872E048E895
:1001500052E020E832E00F2EF0E0EF2EF0E0FF2E2C
:10016000F0E00F2FF0E41F2FF02D0F2EF0E0AF2E58
:10017000F0E0BF2EF0EACF2EF0E4DF2EF02D0E944B
:10018000EC078DB79EB706960FB6F8949EBF0FBECC
:100190008DBF0DEC12E0C80162E00E944C0880EEB9
:1001A00092E0B8010E94830A83EF92E067E048E0A2
:1001B00029E00AE055E0E52E36E0C32E0E94690FE3
:1001C0001F910F91FF90EF90DF90CF90BF90AF9075
:1001D000089580E00E9493159C0190937D02809386
:1001E0007C0283E0293E380748F52832310530F19A
:1001F0002334310518F426E030E022C02C383105D4
:1002000018F421E030E01CC02A3F310518F424E046
:1002100030E016C081E02732380718F423E030E0E0
:100220000FC081E02638380718F425E030E008C018
:100230002C51324018F422E030E002C020E030E0DF
:10024000C90108952F923F924F925F926F927F92D1
:100250008F929F92AF92BF92CF92DF92EF92FF92D6
:100260000F931F930E94F4143B014C018091C9022B
:100270009091CA02A091CB02B091CC020196A11D2F
:10028000B11D8093C9029093CA02A093CB02B09390
:10029000CC0280EE92E00E94480C83EF92E060E096
:1002A00040E00E947C0E83EF92E060E071E00E94EB
:1002B000C21380EE92E060E00E94220DAB01BC010F
:1002C00083EF92E022E030E00E94A91483EF92E0F5
:1002D00060E041E00E947C0E83EF92E063E071E019
:1002E0000E94C21380EE92E061E00E94220DAB01F9
:1002F000BC0183EF92E022E030E00E94A91483EF7A
:1003000092E060E042E00E947C0E83EF92E066E0C3
:1003100071E00E94C21380EE92E062E00E94220D22
:100320001B012C0183EF92E0B201A10122E030E039
:100330000E94A9148091740290917502A091760296
:10034000B0917702A4019301281B390B4A0B5B0B78
:10035000233331054105510508F458C00E94E900D6
:1003600090937F0280937E0283EF92E063E140E00E
:100370000E947C0E60917E0270917F0283EF92E07A
:100380004AE050E00E945E138FE00E94931500D077
:1003900000D0AA2797FDA095BA2F23E630E040E0D1
:1003A00050E0EDB7FEB72183328343835483BC0111
:1003B000CD0120E030E040E050E0FFEFEF2EF3E031
:1003C000FF2E012D112DE4E1AE2EB12CC12CD12C2C
:1003D0000E9484162AE030E040E050E00E94EC18D1
:1003E0000E94D117609380027093810280938202F1
:1003F00090938302609274027092750280927602EA
:10040000909277020F900F900F900F90809178024A
:1004100090917902A0917A02B0917B02A40193019C
:10042000281B390B4A0B5B0BDA01C901815991403A
:10043000A040B040A8F183EF92E06DE040E00E9460
:100440007C0E0E948E12BC0183EF92E04AE050E0E5
:100450000E94AF1383EF92E069E071E00E94C21343
:100460000E948612BC0183EF92E04AE050E00E94B5
:10047000AF1383EF92E069E071E00E94C2130E9423
:100480007E12BC0183EF92E04AE050E00E94AF137D
:10049000609278027092790280927A0290927B0246
:1004A00083EF92E061E141E00E947C0E4091800286
:1004B00050918102609182027091830283EF92E0F9
:1004C00022E030E00E94A914C201B10120E030E036
:1004D00040E251E40E9485180E949E17882777FD0C
:1004E0008095982F0E94D1179B01AC0160938402E4
:1004F00070938502809386029093870260918002B8
:100500007091810280918202909183020E94CD16A7
:100510004B015C0120E030E040E050E00E94811897
:10052000181624F0B7FAB094B7F8B094C501B40126
:1005300020E030E040E251E40E9432178823CCF4FE
:1005400040914001509141016091420170914301FD
:1005500000914401109145012091460130914701DD
:10056000C0904801D0904901E0904A01F0904B01C1
:1005700018C040913401509135016091360170915D
:100580003701009138011091390120913A013091E1
:100590003B01C0903C01D0903D01E0903E01F090C5
:1005A0003F018CE892E00E9481048CE892E060E9CF
:1005B00071E00E944D058CE892E00E94CE068823EF
:1005C000A1F083EF92E061E142E00E947C0E409155
:1005D000C9025091CA026091CB027091CC0283EFA4
:1005E00092E02AE030E00E944F1383EF92E060E057
:1005F00043E00E947C0E0E94F4142091C5023091C9
:10060000C6024091C7025091C802621B730B840B53
:10061000950B28EE33E040E050E00E941E1983EF76
:1006200092E0BA01A9012AE030E00E944F1383EF63
:1006300092E06BE071E00E94C2138CE892E00E94AD
:10064000B206AB01BC0183EF92E020E030E00E94F3
:10065000A91483EF92E06DE071E00E94C2138CE870
:1006600092E00E94BA06AB01BC0183EF92E021E068
:1006700030E00E94A91483EF92E06FE071E00E94E5
:10068000C2138CE892E00E94C206AB01BC0183EF6A
:1006900092E021E030E00E94A91483EF92E06FE045
:1006A00071E00E94C2138CE892E00E94CA06BC016D
:1006B00083EF92E040E050E00E94AF1383EF92E0BE
:1006C00061E171E00E94C21383EF92E0B501A401E1
:1006D00020E030E00E94A91483EF92E067E040E060
:1006E0000E947C0E83EF92E063E171E00E94C213EE
:1006F0004091840250918502609186027091870238
:1007000083EF92E020E030E00E94A91483EF92E0B2
:1007100067E041E00E947C0E83EF92E066E171E0C9
:100720000E94C213409188025091890260918A020E
:1007300070918B0283EF92E020E030E00E94A914D8
:1007400083EF92E067E042E00E947C0E83EF92E04C
:1007500069E171E00E94C2134091800250918102D0
:10076000609182027091830283EF92E020E030E09A
:100770000E94A9140E94F414A090C502B090C60271
:10078000C090C702D090C80220914C0130914D0119
:1007900079010027F7FC0095102F6A197B098C0955
:1007A0009D09E616F7060807190760F4EA0CFB1C1A
:1007B0000C1D1D1DE092C502F092C6020093C702F7
:1007C0001093C802E0908802F090890200918A029A
:1007D00010918B020E94F4142091C5023091C60240
:1007E0004091C7025091C802621B730B840B950B9A
:1007F0000E94CF179B01AC01C801B7010E9481186C
:1008000018161CF483E060E002C083E061E00E94FF
:1008100021161F910F91FF90EF90DF90CF90BF9026
:10082000AF909F908F907F906F905F904F903F9090
:100830002F900895EF92FF920F931F9380E090E026
:1008400060E070E040E050E021E030E001E010E0E6
:10085000BEE0EB2EF12C0E94CE1180EE92E00E94C1
:10086000490D03EF12E0C80164E144E020E00E947A
:10087000B30EC8010E94AB0EC80161E043E00E94C4
:100880007C0EC8016CE171E00E94C21383E061E05C
:100890000E94B5150E94F4146093C5027093C602BD
:1008A0008093C7029093C80280E090E0A6E9B3E489
:1008B0008093800290938102A0938202B09383027E
:1008C000ACE8EA2EA2E0FA2E60914C0170914D0145
:1008D000882777FD8095982F0E94D1178B019C0166
:1008E000C70140E050E060E070E00E949B05C70156
:1008F00061E070E00E945D061F910F91FF90EF9004
:1009000008952F923F924F925F926F927F928F92B3
:100910009F92AF92BF92CF92DF92EF92FF920F938E
:100920001F93DF93CF9300D000D0CDB7DEB71C016B
:1009300049835A836B837C8348015901260137011F
:10094000CB01BA0120E030E040E050E00E943217D5
:1009500087FD8CC0C501B40120E030E040E050E0EC
:100960000E94321787FD82C0C701B60120E030E047
:1009700040E050E00E94321787FD78C089819A815B
:10098000AB81BC81F10180839183A283B383D101C8
:1009900014968D929D92AD92BC921797C086D18687
:1009A000E286F38664A575A586A597A50E94CF1754
:1009B00020E030E04AE754E40E9436177B018C01C6
:1009C00089819A81AB81BC81F10184879587A68753
:1009D000B787C501B401A80197010E9485185B0182
:1009E0006C01D10150966D937D938D939C93539799
:1009F000C301B201A80197010E9436177B018C0147
:100A0000F101648B758B868B978B808D918D01970F
:100A100069F560E070E080E090E029813A814B81E7
:100A20005C810E94CD16D1011C966D937D938D93B0
:100A30009C931F9760E070E080E090E0A601950134
:100A40000E94CD16F101608B718B828B938B60E0DD
:100A500070E080E090E0A80197010E94CD16D101DE
:100A600054966D937D938D939C9357970F900F9011
:100A70000F900F90CF91DF911F910F91FF90EF900A
:100A8000DF90CF90BF90AF909F908F907F906F90AE
:100A90005F904F903F902F900895AF92BF92CF926A
:100AA000DF92EF92FF920F931F93CF93DF93EC01AE
:100AB00016161706ACF55B01CC24B7FCC094DC2CF1
:100AC000C601B5010E94D1177B018C016CA57DA5E3
:100AD0008EA59FA50E94CF179B01AC01C801B7014D
:100AE0000E9436177B018C01688979898A899B89E4
:100AF000A80197010E948518688B798B8A8B9B8B44
:100B00006C897D898E899F89A80197010E9436177B
:100B10006C8B7D8B8E8B9F8BACA6BDA6CEA6DFA6E5
:100B2000DF91CF911F910F91FF90EF90DF90CF90C9
:100B3000BF90AF9008954F925F926F927F928F9285
:100B40009F92AF92BF92CF92DF92EF92FF920F935C
:100B50001F93CF93DF93EC013A014B017801890198
:100B6000CB01BA01A80197010E94811887FF4EC0EE
:100B700068AA79AA8AAA9BAAECAAFDAA0EAB1FAB07
:100B800088AD882309F442C04C8C5D8CF201A080B2
:100B9000B180C280D380C601B501A80197010E942F
:100BA0008118181634F4F201E082F1820283138373
:100BB0000DC0C601B501A40193010E94321788231C
:100BC0002CF4F2016082718282829382ACA0BDA07B
:100BD000CEA0DFA0ECA8FDA80EA91FA9C601B501F3
:100BE000A80197010E948118181664F0E8A8F9A8D6
:100BF0000AA91BA9C601B501A80197010E943217D5
:100C0000882324F4ECA2FDA20EA31FA3DF91CF91B1
:100C10001F910F91FF90EF90DF90CF90BF90AF901A
:100C20009F908F907F906F905F904F900895AF92BC
:100C3000BF92CF92DF92EF92FF920F931F93CF93C9
:100C4000DF93EC01EC8DFD8DE080F180028113815A
:100C5000ECA2FDA20EA31FA3EA8DFB8D80819181E2
:100C6000A281B38188A799A7AAA7BBA7ACA8BDA852
:100C7000CEA8DFA8C801B701A60195010E9481187E
:100C8000181664F0A8A8B9A8CAA8DBA8C801B701BB
:100C9000A60195010E943217882324F4ACA2BDA2BC
:100CA000CEA2DFA2DF91CF911F910F91FF90EF9025
:100CB000DF90CF90BF90AF9008951F93CF93DF93B5
:100CC000EC0110E06130710509F411E088AD91E0AC
:100CD0008927181719F4CE010E94170618AFDF9163
:100CE000CF911F9108950F931F93CF93DF93EC0142
:100CF0008B0188AD882379F1888D998D68177907E4
:100D000051F160E070E080E090E02C853D854E85FB
:100D10005F850E94CD166C877D878E879F8760E0F8
:100D200070E080E090E0288939894A895B890E94D7
:100D3000CD16688B798B8A8B9B8B60E070E080E0AE
:100D400090E02C893D894E895F890E94CD166C8B7D
:100D50007D8B8E8B9F8B198F088FDF91CF911F9189
:100D60000F910895FC012081318142815381B901A5
:100D7000CA010895FC012481358146815781B9015A
:100D8000CA010895FC012085318542855385B9014A
:100D9000CA010895FC01808D918D08952F923F9294
:100DA0004F925F926F927F928F929F92AF92BF927B
:100DB000CF92DF92EF92FF920F931F93DF93CF9327
:100DC00000D000D000D0CDB7DEB79E838D83DC018C
:100DD000D8968C91882309F4E5C00E94F4146983A5
:100DE0007A838B839C83ED81FE8180A191A1A2A156
:100DF000B3A129813A814B815C81281B390B4A0BB5
:100E00005B0B84A595A5A6A5B7A5281739074A07A2
:100E10005B0708F4C7C0028CF38DE02D2080318081
:100E200042805380AD81BE815E96ED91FC915F97CB
:100E30006081718182819381A20191010E94CD160E
:100E40003B014C01ED81FE81208931894289538922
:100E50000E948518AD81BE8194962D913D914D9152
:100E60005C9197970E94CE167B018C01ED81FE81EB
:100E700064A375A386A397A3A4A8B5A8C6A8D7A85A
:100E8000A60195010E948118181674F0ED81FE816B
:100E9000A0A8B1A8C2A8D3A8C801B701A60195010E
:100EA0000E943217882344F4AD81BE819496AD929E
:100EB000BD92CD92DC929797C401B301ED81FE8182
:100EC00024853585468557850E948518AD81BE816C
:100ED00094962D913D914D915C9197970E94CE16DD
:100EE0007B018C01C201B101ED81FE8120A531A5FC
:100EF00042A553A50E94CD16AD81BE8154962D9179
:100F00003D914D915C9157970E9485189B01AC01D2
:100F1000C801B7010E94CD167B018C01ED81FE81D5
:100F2000D4A8C5A8B6A8A7A82D2D3C2D4B2D5A2D69
:100F30000E9481181816BCF0AD81BE81D096DC905D
:100F4000D097D196CC90D197D296BC90D297D39689
:100F5000AC90C801B7012D2D3C2D4B2D5A2D0E9470
:100F60003217882334F48D2D9C2DAB2DBA2D7C01A6
:100F70008D01AD81BE815C96ED91FC915D97E08223
:100F8000F18202831383FD0120A631A642A653A657
:100F900089819A81AB81BC8180A391A3A2A3B3A3D1
:100FA00081E001C080E026960FB6F894DEBF0FBE48
:100FB000CDBFCF91DF911F910F91FF90EF90DF9008
:100FC000CF90BF90AF909F908F907F906F905F90E9
:100FD0004F903F902F9008954F925F926F927F9223
:100FE0008F929F92AF92BF92CF92DF92EF92FF9239
:100FF0000F931F93DF93CF93CDB7DEB74C0127013B
:101000003801FC01558F448F738F628F378F268F85
:1010100010AE40E050E060E070E000E010E02FE74C
:1010200033E40E949B0584E690E0A0E0B0E0F40188
:1010300084A795A7A6A7B7A7C4016F89788D0E943A
:101040007306C401B301A20196018501CB88DC8837
:10105000ED88FE880E9481040E94F414F40124A506
:1010600035A546A557A5621B730B840B950B60A392
:1010700071A382A393A3CF91DF911F910F91FF9052
:10108000EF90DF90CF90BF90AF909F908F907F9028
:101090006F905F904F900895DC011A966C931A97A9
:1010A000462F50E0CA018A579F4FFC0124911B969E
:1010B0002C931B9746565F4FFA0184911C968C9394
:1010C0001C9730E0220F331FF901EE58FF4F859136
:1010D00094911E969C938E931D97F901E458FF4FAF
:1010E0008591949150969C938E931F97F901E8599E
:1010F000FF4F8591949152969C938E9351978FEFC9
:1011000018968C93189719961C92199787E0FD01F1
:10111000E80FF11D1082882311F08150F8CF089557
:10112000DC018FEF18968C93189719961C921997DB
:1011300087E0FD01E80FF11D1082882311F0815036
:10114000F8CF0895DC0120E080E00AC0E82FF0E04D
:101150008D9190E0E827F927ED5AFE4F80812F5FAF
:101160002617A0F30895FF920F931F938C01DC01C3
:101170005196ED91FC91529780811C969C911C9701
:10118000892B80831D96ED91FC911E9790811C9672
:101190008C9180958923808381E090E00E944E1598
:1011A000D8015196ED91FC91529790811C968C91AB
:1011B00080958923808385E090E00E944E15D801B8
:1011C0001F96ED91FC9150972081FF2430E01C96F2
:1011D0008C9190E028233923232B11F0FF24F394E2
:1011E00082E390E00E944E158F2D1F910F91FF908A
:1011F0000895EF92FF920F931F93CF93DF937C019B
:1012000001E010E0C0E0D0E0C7010E94B308811106
:10121000102B000F2196C830D105B1F7812FDF9137
:10122000CF911F910F91FF90EF900895EF92FF9251
:101230000F931F937C01062FDC015196ED91FC91D9
:10124000529780811C969C911C97892B80831D96B8
:10125000ED91FC911E9790811C968C91809589232D
:101260008083017010E0F801EB5AFD4F808190E01F
:101270000E944E15D7011D96ED91FC911E9780811D
:101280001C969C91892B80830D5A1D4FF8018081FB
:1012900090E00E944E151F910F91FF90EF900895DE
:1012A000CF92DF92EF92FF920F931F93CF93DF9332
:1012B0008C01E42EFF24F394C0E0D0E0C62EDD24A0
:1012C00060E08F2D90E08C219D21892B09F061E059
:1012D000C8010E941609FF0C2196C830D10581F77C
:1012E000EE2051F4F801828560E00E94B515F80106
:1012F000828560E00E942116DF91CF911F910F91AE
:10130000FF90EF90DF90CF9008956CEC40E00E944A
:1013100050090895EF92FF920F931F93CF93DF939D
:101320008C017B0165E540E00E945009C0E0D0E0FF
:10133000F701EC0FFD1FC801608140E00E945009D9
:101340002196C830D105A1F7DF91CF911F910F9160
:10135000FF90EF9008951F93CF93DF93EC018A8560
:1013600060E00E94B5151DE7115010F410E028C090
:1013700082E090E00E944E158A850E945416892BC7
:1013800099F38A8560E00E9421168A8561E00E94B7
:10139000B51584EF91E00E944E158A8560E00E94A9
:1013A000B51581E490E00E944E158A850E9454167E
:1013B00010E0892B09F411E08AEE91E00E944E15AD
:1013C000812FDF91CF911F9108958F929F92AF92BD
:1013D000BF92DF92EF92FF920F931F93CF93DF9311
:1013E000EC015B018985882309F080C0CE010E9451
:1013F000AB09882309F47AC0CE0160EF40E00E9477
:101400005009DD24DA94EE24E39400E010E021E0BA
:10141000822E912CCE010E94B308F82ECE010E949C
:10142000B308282F502F569556955695C8018770AA
:101430009070B40102C0660F771F8A95E2F7462FBD
:10144000FF2029F0222309F051C09F2D21C0222323
:1014500039F58885992787FD90950817190711F4A4
:10146000D8860EC0081719076CF4262F30E0FE014D
:10147000E50FF11D808190E028233923232B19F0FB
:1014800091E003C0088790E0EE24D02E992341F02C
:10149000FE01E50FF11D8081842B8083F92E07C0AA
:1014A000FE01E50FF11D4095808148234083CE0168
:1014B0006F2D0E9416090F5F1F4F0034110509F0B0
:1014C000A9CFEE2011F081E0898720E030E0F5011E
:1014D000E20FF31FDE01A20FB31F8C9180832F5FF9
:1014E0003F4F2830310599F781E001C080E0DF915E
:1014F000CF911F910F91FF90EF90DF90BF90AF9031
:101500009F908F900895FC0189E49BE0928B818BE2
:10151000768365831482108289E0818381E08283EF
:10152000838308956F927F928F929F92AF92BF9222
:10153000CF92DF92EF92FF920F931F93CF93DF939F
:10154000FB01EA01998180E0288130E0282B392BCA
:10155000E081E23231F0E83221F0E03109F084C07C
:101560004BC04C814F3329F1403420F44F3109F006
:101570007BC02FC04F3579F04F3709F075C0B901E6
:10158000882777FD8095982F0E94D11720E030E0C2
:1015900040E85DE32EC035952795B901882777FD92
:1015A0008095982F0E94D11720E030E040E05EE364
:1015B00020C03595279535952795B901882777FD62
:1015C0008095982F0E94D11720E030E040E85EE33C
:1015D00010C093E0359527959A95E1F7B9018827D2
:1015E00077FD8095982F0E94D11720E030E040E0F1
:1015F0005FE30E94851832C0EF8035952795B901C9
:10160000882777FD8095982F0E94D11720E030E041
:1016100040E85EE30E94CD163B014C016E2D70E068
:101620002E81621B7109882777FD8095982F0E9473
:10163000D1175B016C01FF2400E010E0C801B70185
:101640000E94CF179B01AC01C601B5010E9436175D
:101650009B01AC01C401B3010E94CE169B01AC01F9
:10166000832F942F752F00C0262F382F492F572FE7
:10167000B901CA01DF91CF911F910F91FF90EF90B7
:10168000DF90CF90BF90AF909F908F907F906F90A2
:1016900008950895EF92FF920F931F938C017B01A1
:1016A000FC01858196810E94AB09F80185819681B4
:1016B000B7010E948A09F8018581968164EB40E0B8
:1016C0000E945009F801858196810E94B308F82E86
:1016D000F801858196810E94AB0980E0FF2009F422
:1016E00081E01F910F91FF90EF900895CF92DF92CC
:1016F000EF92FF920F931F938C016B017A01FC0113
:10170000858196810E94AB09F80185819681B60199
:101710000E948A09F801858196816EEB40E00E9463
:101720005009F801858196810E94F908F7018083AC
:10173000F801858196810E94F908F7018183F801FB
:10174000858196810E94F908F7018283F8018581DD
:1017500096810E94F908F7018383F80185819681BB
:101760000E94F908F7018483F801858196810E941F
:10177000F908F7018583F801858196810E94F908AF
:10178000F7018683F801858196810E94F908F701A7
:101790008783F801858196810E94F908F701808787
:1017A000F801858196810E94AB091F910F91FF90EE
:1017B000EF90DF90CF900895DF93CF93CDB7DEB752
:1017C00029970FB6F894DEBF0FBECDBFAE014F5FB5
:1017D0005F4F0E94760B8981811181E029960FB6B7
:1017E000F894DEBF0FBECDBFCF91DF910895CF92A9
:1017F000DF92EF92FF920F931F93CF93DF93EC0151
:101800006B01452BE1F08B818823C9F08881882307
:10181000B1F40E94F4147B018C01CE0160E070E011
:101820000E94DC0B882359F40E94F4146E197F097E
:10183000800B910B6E5E72408040904070F3F60119
:101840006081693039F06930A0F06A3041F06B3066
:1018500081F40AC06EE570E080E090E00EC06CEBB1
:1018600070E080E090E009C067E771E080E090E020
:1018700004C06EEE72E080E090E00E942815DF91D7
:10188000CF911F910F91FF90EF90DF90CF9008952F
:10189000CF93DF93EC018D819E810E94AB098D81F6
:1018A0009E810E9485098D819E8164E448810E9409
:1018B00050098A81882339F0CE012196BE0140E08B
:1018C00050E00E94F70BDF91CF9108950F931F9383
:1018D0008A010E94760BC80168E00E94A20820E0FD
:1018E000F8019085891709F421E0822F1F910F914B
:1018F0000895CF92DF92EF92FF920F931F93DF93A1
:10190000CF93CDB7DEB729970FB6F894DEBF0FBEE1
:10191000CDBF8C017B016E010894C11CD11CA601B6
:101920000E94660C882329F460E070E08EEF92EC50
:1019300005C0C801B701A6010E94920A29960FB6F8
:10194000F894DEBF0FBECDBFCF91DF911F910F91F5
:10195000FF90EF90DF90CF900895DF93CF93CDB7B6
:10196000DEB729970FB6F894DEBF0FBECDBF9C013E
:10197000FB0180818031D9F0C901AE014F5F5F4F1B
:101980000E94660C8823A9F08D818F3371F080341A
:1019900018F48F3171F40BC08F3519F08F3749F47B
:1019A00002C08BE007C08CE005C08AE003C089E07C
:1019B00001C080E029960FB6F894DEBF0FBECDBF00
:1019C000CF91DF9108950F931F938B01CB0167E0B7
:1019D0000E94A20820E0F8019781891709F421E00C
:1019E000822F1F910F910895EF92FF920F931F93F3
:1019F000CF93DF93EC017B01042F8D819E810E94A8
:101A0000900810E007C0CE01B7010E94E30C8823C4
:101A1000A9F00AC08D819E81B7010E94E509882343
:101A200029F0101759F4EFCF81E001C080E0DF9179
:101A3000CF911F910F91FF90EF9008951F5F0117B5
:101A4000A8F3E8CFEF92FF920F931F93DF93CF930A
:101A5000CDB7DEB728970FB6F894DEBF0FBECDBF67
:101A60007C01462F8E010F5F1F4FB8010E94F40CBE
:101A7000C701B8010E94790C28960FB6F894DEBF12
:101A80000FBECDBFCF91DF911F910F91FF90EF90CF
:101A90000895AF92BF92CF92DF92EF92FF920F9391
:101AA0001F93DF93CF93CDB7DEB761970FB6F8944E
:101AB000DEBF0FBECDBF7C01FC01858196810E94F7
:101AC0009008F70114826E010894C11CD11C79E0C2
:101AD000A72EB12CAC0EBD1E01E02BC0C701B60174
:101AE0000E94E30C882329F1F7018081882341F4C7
:101AF000C701B6010E944A0B882311F0F701008349
:101B0000C701B601A5010E94760BF7011181C7013B
:101B1000B6010E94AD0C811718F4F701818104C051
:101B2000C701B6010E94AD0CF701818384818F5FEC
:101B30008483F70185819681B6010E94E509882397
:101B400069F661960FB6F894DEBF0FBECDBFCF9198
:101B5000DF911F910F91FF90EF90DF90CF90BF909A
:101B6000AF9008950F931F938C01FC01868160E074
:101B70000E94211681E090E00E944E15F8018681B6
:101B800061E00E94211681E090E00E944E15F8016C
:101B9000868160E00E94211684E690E00E944E1546
:101BA0001F910F910895CF92DF92EF92FF920F93C2
:101BB0001F93CF93DF93D82EC92E282F392FC90119
:101BC0008C01C0E0D0E0E62EFF24F801878161E0BF
:101BD0000E94B515B7010C2E02C0759567950A9441
:101BE000E2F76170F80187810E94211621960F5F4C
:101BF0001F4FC830D10549F78D2D9C2D0E94B20D85
:101C0000DF91CF911F910F91FF90EF90DF90CF90D8
:101C10000895CF92DF92EF92FF920F931F93CF938D
:101C2000DF93D82EC92E282F392FC9018C01C0E08F
:101C3000D0E0E62EFF24F801878161E00E94B5150F
:101C4000B7010C2E02C0759567950A94E2F7617092
:101C5000F80187810E94211621960F5F1F4FC43023
:101C6000D10549F78D2D9C2D0E94B20DDF91CF91AA
:101C70001F910F91FF90EF90DF90CF9008951F93E9
:101C8000CF93DF93EC01162F8C81642F0E942116D5
:101C90008D818F3F19F060E00E9421168F8584FFAF
:101CA00005C0CE01612F0E94D30D0EC0612F70E0E0
:101CB00084E0759567958A95E1F7CE010E94090E3B
:101CC000CE01612F0E94090EDF91CF911F910895DF
:101CD00041E00E943F0E81E090E0089540E00E94C4
:101CE0003F0E0895FC016089862F8460808B6C60B4
:101CF000CF010E946E0E0895DF93CF93CDB7DEB76C
:101D000028970FB6F894DEBF0FBECDBF9C01FE0131
:101D10003196AFE5B2E088E00D9001928150E1F795
:101D2000F9018389481710F0482F4150E42FF0E063
:101D3000EE0FFF1FEC0FFD1F8181680F6068C90166
:101D40000E946E0E28960FB6F894DEBF0FBECDBF70
:101D5000CF91DF91089561E00E946E0E80ED97E0D3
:101D60000E944E150895CF93DF93EC01423018F096
:101D70008F8588608F874B8B1C8A222329F0413006
:101D800019F48F8584608F8780E593EC0E944E154F
:101D90008C8160E00E9421168E8160E00E942116F5
:101DA0008D818F3F19F060E00E9421166F8564FDE0
:101DB0001DC0CE0163E00E94090E84E991E10E94FA
:101DC0004E15CE0163E00E94090E84E991E10E9464
:101DD0004E15CE0163E00E94090E86E990E00E9454
:101DE0004E15CE0162E00E94090E16C06062CE015F
:101DF0000E946E0E84E991E10E944E156F8560622B
:101E0000CE010E946E0E86E990E00E944E156F850D
:101E10006062CE010E946E0E6F856062CE010E94EC
:101E20006E0E84E0888BCE010E94720ECE010E945D
:101E3000AB0E82E0898BCE0166E00E946E0EDF91D0
:101E4000CF9108956F927F928F92AF92CF92EF923F
:101E50000F931F93DF93CF93CDB7DEB73C01162FBF
:101E6000842FF301448325830683E782C086A186FD
:101E700082869D8593879E8594879F85958798897F
:101E8000968761E00E94B515F30185818F3F19F0B7
:101E900061E00E94B515F301868161E00E94B515ED
:101EA000112319F0F301178603C080E1F30187873E
:101EB000C30160E141E020E00E94B30ECF91DF91C9
:101EC0001F910F91EF90CF90AF908F907F906F9078
:101ED00008958F92AF92CF92EF920F931F93CF936B
:101EE000DF93DC01362F542F722F102FAE2C8C2C49
:101EF00013961C921E9212978BE592E011969C937A
:101F00008E9300D000D0EDB7FEB73196CDB7DEB7D7
:101F10001982118212821382CD0161E0432F2FEFCB
:101F2000052FE72EC12E0E94220F0F900F900F90C9
:101F30000F90DF91CF911F910F91EF90CF90AF90C5
:101F40008F9008958F929F92AF92BF92CF92DF921F
:101F5000EF92FF920F931F93CF93DF937B018C013E
:101F6000EA012CE330E040E050E00E941E19688353
:101F7000C801B7012CE330E040E050E00E941E1998
:101F8000122F032FF42EE52E622F732F842F952FFF
:101F90002CE330E040E050E00E941E196983612F7D
:101FA000702F8F2D9E2D2CE330E040E050E00E94FA
:101FB0001E19122F032FF42EE52E622F732F842F5C
:101FC000952F28E130E040E050E00E941E196A831E
:101FD000612F702F8F2D9E2D28E130E040E050E0E2
:101FE0000E941E1979018A01C801B7016C5F7F4FF9
:101FF0008F4F9F4F27E030E040E050E00E941E19D5
:102000006F5F6B8320E0AA24BB24650101C02F5FB2
:10201000822E9924F401EE54F84FCF018370907012
:10202000892B99F4CF0164E670E00E940B19892B8B
:1020300039F4CF0160E971E00E940B19892B29F472
:102040008EE691E0A0E0B0E004C08DE691E0A0E073
:10205000B0E0A80EB91ECA1EDB1EC501A0E0B0E0AC
:10206000E816F9060A071B0790F62E83F401EE54D2
:10207000F84F83E0882E912C8E229F2281149104A8
:1020800099F4CF0164E670E00E940B19892B39F4B2
:10209000CF0160E971E00E940B19892B29F48EE6CB
:1020A00091E0A0E0B0E004C08DE691E0A0E0B0E0F7
:1020B000A81AB90ACA0ADB0A980187010A191B097A
:1020C0002C093D09CF0164E670E00E940B197C01E8
:1020D000CF0160E971E00E940B19AC01E7E6F2E084
:1020E00060E0613051F48114910449F4E114F10489
:1020F00041F44115510529F002C0808103C08CE1F3
:1021000001C08DE190E0A0E0B0E0081719072A07B0
:102110003B0740F0081B190B2A0B3B0B6F5F3196F6
:102120006C30F9F66F5F6D83802F8F5F8C83DF914A
:10213000CF911F910F91FF90EF90DF90CF90BF90C4
:10214000AF909F908F900895EF92FF920F931F93FF
:102150007B018C0180911F0390912003A0912103AA
:10216000B0912203E816F9060A071B0771F0C801AF
:10217000B70144E153E00E94A20FE0921F03F092E6
:10218000200300932103109322031F910F91FF90CE
:10219000EF9008954F925F926F927F928F929F92ED
:1021A000AF92BF92CF92DF92EF92FF920F931F9365
:1021B000CF93DF934C01DC0116961C91612F70E0E8
:1021C00080E090E020E833E341EE51E00E94EC181B
:1021D0005B016C0122EB37E0E12FF0E0EE54F84FA9
:1021E0001DC0C90183709070892BB1F4C90164E6E8
:1021F00070E00E940B19892B39F4C90160E971E084
:102200000E940B19892B41F480E891E5A1E0B0E030
:10221000A80EB91ECA1EDB1E2F5F3F4F2E173F07A9
:1022200001F7D40115968C91482E5524C90164E616
:1022300070E00E940B197C01C90160E971E00E9405
:102240000B198C01C1E0D0E093E0692E712C622261
:10225000732227C0C230D10591F46114710479F45E
:10226000E114F10419F40115110549F480E89BE328
:10227000A6E2B0E0A80EB91ECA1EDB1E11C0FE0108
:10228000EA59FD4F608170E080E090E020E831E5A0
:1022900041E050E00E94EC18A60EB71EC81ED91EE1
:1022A0002196C415D505B4F2D40112966C9170E054
:1022B00080E090E020E13EE040E050E00E94EC1839
:1022C0007B018C01F401618170E080E090E02CE3FF
:1022D00030E040E050E00E94EC18E60EF71E081FC8
:1022E000191FD4018C91E80EF11C011D111D1496CB
:1022F0006C9170E061507040882777FD8095982F31
:1023000020E831E541E050E00E94EC18E60EF71EAF
:10231000081F191FEA0CFB1C0C1D1D1DB701C8016D
:10232000DF91CF911F910F91FF90EF90DF90CF90B1
:10233000BF90AF909F908F907F906F905F904F90E5
:10234000089560930A0370930B0380930C0390939A
:102350000D0320914E0130914F0140915001509159
:102360005101260F371F481F591F20930E0330932A
:102370000F03409310035093110382E090E0909379
:102380001303809312030E94F41460931B03709351
:102390001C0380931D0390931E030895EF92FF92F8
:1023A0000F93F701E436F1051CF0E25BF74001C042
:1023B0007E96E0931A0300931903209318038093E9
:1023C0001603609315034093140384E193E00E9485
:1023D000CA100E94A1110F91FF90EF900895EF9203
:1023E000FF920F931F931CC02F5F3F4F4F4F5F4FC4
:1023F00020930A0330930B0340930C0350930D0377
:1024000088EE93E0A0E0B0E0E80EF91E0A1F1B1F63
:10241000E0921B03F0921C0300931D0310931E0314
:102420000E94F414E0901B03F0901C0300911D0324
:1024300010911E036E197F09800B910B20910A03E6
:1024400030910B0340910C0350910D03685E734073
:102450008040904048F680910E0390910F03A09128
:102460001003B0911103281739074A075B07C8F119
:10247000E0910803F0910903309799F109956115EE
:1024800071058105910519F00E94A1112AC0809162
:102490004E0190914F01A0915001B09151012091B6
:1024A0000A0330910B0340910C0350910D03820FEE
:1024B000931FA41FB51F80930E0390930F03A09347
:1024C0001003B093110320E030E08091120390914B
:1024D0001303892B11F021E030E030931303209394
:1024E000120360910A0370910B0380910C03909189
:1024F0000D031F910F91FF90EF9008950E94EF112F
:102500000E94A4108091140390E008950E94EF119E
:102510000E94A4108091150390E008950E94EF118D
:102520000E94A4108091160390E00895CF93DF934A
:102530000E9458150E941A04C0E0D0E00E942201B7
:102540002097E1F30E940000F9CFCF92DF92EF9243
:10255000FF920F931F93CF93DF937C016B018A014E
:10256000C0E0D0E00FC0D6016D916D01D701ED91B3
:10257000FC910190F081E02DC7010995C80FD91F8A
:10258000015010400115110571F7CE01DF91CF9177
:102590001F910F91FF90EF90DF90CF900895CF9310
:1025A000DF93EC016115710519F420E030E00FC0F4
:1025B000DB010D900020E9F71197A61BB70BE8810E
:1025C000F9810280F381E02DAD0109959C01C901DB
:1025D000DF91CF9108954F925F927F928F929F9259
:1025E000AF92BF92CF92DF92EF92FF920F931F9321
:1025F000DF93CF93CDB7DEB7A1970FB6F894DEBFC8
:102600000FBECDBF2C01742ECB01223008F42AE07E
:1026100019A231E2C32ED12CCC0EDD1E822E9924BC
:10262000AA24BB24672D752FA50194010E941E19B1
:1026300079018A01C801B701A50194010E94EC1833
:10264000472D461B0894C108D1084A3014F4405D58
:1026500001C0495CF6014083E114F1040105110554
:1026600021F07E2C5F2DC801DDCFC201B6010E9492
:10267000CF12A1960FB6F894DEBF0FBECDBFCF919B
:10268000DF911F910F91FF90EF90DF90CF90BF905F
:10269000AF909F908F907F905F904F900895DC0156
:1026A0002115310541F4ED91FC910190F081E02D6F
:1026B000642F099508950E94EB120895EF92FF92FE
:1026C0000F931F939A017B0100E010E0B801A7016E
:1026D0000E944F131F910F91FF90EF900895CF929A
:1026E000DF92EF92FF920F931F93CF93DF93EC0152
:1026F0006A017B012115310541F4E881F9810190DE
:10270000F081E02D642F09951FC02A303105D1F4E6
:1027100077FF17C0E881F9810190F081E02D6DE22B
:1027200009958C0144275527BA014C195D096E099A
:102730007F09CE012AE00E94EB129801280F391F71
:1027400004C02AE00E94EB129C01C901DF91CF91E5
:102750001F910F91FF90EF90DF90CF900895EF922F
:10276000FF920F931F937B019A010027F7FC0095BE
:10277000102FB801A7010E946F131F910F91FF90B6
:10278000EF9008950E94CF1208957F928F929F92AA
:10279000AF92BF92CF92DF92EF92FF920F931F936F
:1027A000CF93DF934C017A018B01722ECB01BA01DA
:1027B000A80197010E94E818882321F0C40166E26D
:1027C00071E021C0C0E0D0E057016801E894D7F87B
:1027D000C601B5012FEF3FEF4FE75FE70E94E81812
:1027E000882351F4C601B5012FEF3FEF4FE75FE7B4
:1027F0000E943217181614F0C1E0D0E0219739F08A
:10280000C4016AE271E00E94CF12EC0193C0C801DA
:10281000B7012FEF3FEF4FE75FE40E9481181816D2
:1028200054F0C801B7012FEF3FEF4FE75FEC0E9474
:102830003217882324F4C4016EE271E0E4CFC801AA
:10284000B70120E030E040E050E00E94321787FD01
:1028500003C0C0E0D0E00EC0D401ED91FC91019026
:10286000F081E02DC4016DE20995EC0117FB109594
:1028700017F9109520E030E040E05FE3DD240BC065
:10288000CA01B90120E030E040E251E40E9436176D
:102890009B01AC01D394D71498F3C801B7010E94EF
:1028A000CE165B016C010E94A3177B018C01C40151
:1028B000B801A7012AE030E00E944F13C80FD91FCA
:1028C000772039F0C40162E371E00E94CF12C80F93
:1028D000D91FC801B7010E94CF179B01AC01C601E7
:1028E000B5010E94CD1624C020E030E040E251E462
:1028F0000E9485187B018C010E949E175B016C0170
:10290000CC24B7FCC094DC2CC401B601A5012AE09C
:1029100030E00E946F13C80FD91FC601B5010E9495
:10292000D1179B01AC01C801B7010E94CD167A9462
:102930007720D1F6CE01DF91CF911F910F91FF90BB
:10294000EF90DF90CF90BF90AF909F908F907F904F
:1029500008950E94C51308951F920F920FB60F920B
:1029600011242F933F938F939F93AF93BF938091A5
:10297000270390912803A0912903B0912A03309155
:102980002B030196A11DB11D232F2D5F2D3720F0A4
:102990002D570196A11DB11D20932B038093270372
:1029A00090932803A0932903B0932A0380912303D3
:1029B00090912403A0912503B09126030196A11DB7
:1029C000B11D8093230390932403A0932503B09318
:1029D0002603BF91AF919F918F913F912F910F90BF
:1029E0000FBE0F901F9018958FB7F8942091270372
:1029F000309128034091290350912A038FBFB901D8
:102A0000CA0108959FB7F8942091230330912403BD
:102A1000409125035091260386B5A89B06C08F3FA1
:102A200021F02F5F3F4F4F4F5F4F9FBF542F432FDA
:102A3000322F2227280F311D411D511D82E0220F08
:102A4000331F441F551F8A95D1F7B901CA01089554
:102A5000EF92FF920F931F93CF93DF937B018C0133
:102A60000E940215EB010EC00E9402156C1B7D0B2B
:102A7000685E7340C8F30894E108F1080109110980
:102A8000C851DC4FE114F1040105110569F7DF912C
:102A9000CF911F910F91FF90EF900895019739F01A
:102AA000880F991F880F991F02970197F1F70895D2
:102AB000789484B5826084BD84B5816084BD85B519
:102AC000826085BD85B5816085BDEEE6F0E08081E0
:102AD00081608083E1E8F0E0108280818260808301
:102AE000808181608083E0E8F0E080818160808384
:102AF000E1EBF0E0808184608083E0EBF0E08081B6
:102B000081608083EAE7F0E0808184608083808157
:102B100082608083808181608083808180688083FF
:102B20001092C1000895982F8E3008F09E50977033
:102B3000809152018295880F880F807C892B809329
:102B40007C0080917A00806480937A0080917A0082
:102B500086FDFCCF2091780040917900942F80E091
:102B600030E0282B392BC9010895CF93DF93482FEC
:102B700050E0CA0186569F4FFC0134914A575F4F7F
:102B8000FA018491882369F190E0880F991FFC0174
:102B9000E859FF4FA591B491FC01EE58FF4FC59144
:102BA000D491662351F42FB7F8948C91932F90957C
:102BB00089238C93888189230BC0623061F42FB7FD
:102BC000F8948C91932F909589238C938881832BF3
:102BD00088832FBF06C09FB7F8948C91832B8C936A
:102BE0009FBFDF91CF910895833071F0843028F436
:102BF0008130A1F0823021F514C08630B1F08730E9
:102C0000D1F08430E9F404C0809180008F7703C054
:102C1000809180008F7D80938000089584B58F77A8
:102C200002C084B58F7D84BD08958091B0008F77F8
:102C30008093B00008958091B0008F7D8093B000A4
:102C40000895FF920F931F93F62E482F50E0CA016C
:102C500082559F4FFC012491CA0186569F4FFC016B
:102C600014914A575F4FFA0104910023C9F02223BF
:102C700019F0822F0E94F415E02FF0E0EE0FFF1FF5
:102C8000EE58FF4FA591B4919FB7F894FF2021F41F
:102C90008C911095812302C08C91812B8C939FBFC6
:102CA0001F910F91FF9008950F931F93482F50E0AD
:102CB000CA0182559F4FFC012491CA0186569F4F3D
:102CC000FC0104914A575F4FFA011491112319F442
:102CD00020E030E015C0222319F0822F0E94F41565
:102CE000812F90E0880F991F84589F4FFC01A59178
:102CF000B4918C9120E030E0802311F021E030E0AD
:102D0000C9011F910F9108952F923F924F925F92A8
:102D10006F927F928F929F92AF92BF92CF92DF92EB
:102D2000EF92FF920F931F93DF93CF93CDB7DEB750
:102D30003B014C0119012A016D897E898F89988D8B
:102D40006A197B098C099D09621A730A840A950A1B
:102D5000A40193010E94EC18E218F3080409150974
:102D6000A80197010E9440192A0D3B1D4C1D5D1DB5
:102D7000B901CA01CF91DF911F910F91FF90EF90A0
:102D8000DF90CF90BF90AF909F908F907F906F908B
:102D90005F904F903F902F9008955058BB27AA27DF
:102DA0000ED075C166D130F06BD120F031F49F3F69
:102DB00011F41EF45BC10EF4E095E7FB51C1E92F5D
:102DC00077D180F3BA17620773078407950718F065
:102DD00071F49EF58FC10EF4E0950B2EBA2FA02D45
:102DE0000B01B90190010C01CA01A0011124FF27B8
:102DF000591B99F0593F50F4503E68F11A16F040B3
:102E0000A22F232F342F4427585FF3CF46953795B1
:102E10002795A795F0405395C9F77EF41F16BA0B76
:102E2000620B730B840BBAF09150A1F0FF0FBB1F24
:102E3000661F771F881FC2F70EC0BA0F621F731F6D
:102E4000841F48F4879577956795B795F7959E3FCA
:102E500008F0B3CF9395880F08F09927EE0F979558
:102E600087950895D9D008F481E008950CD00FC15A
:102E700007D140F0FED030F021F45F3F19F0F0C0F0
:102E8000511139C1F3C014D198F39923C9F35523D3
:102E9000B1F3951B550BBB27AA276217730784074D
:102EA00038F09F5F5F4F220F331F441FAA1FA9F303
:102EB00033D00E2E3AF0E0E830D091505040E695F5
:102EC000001CCAF729D0FE2F27D0660F771F881F56
:102ED000BB1F261737074807AB07B0E809F0BB0B45
:102EE000802DBF01FF2793585F4F2AF09E3F510569
:102EF00068F0B6C000C15F3FECF3983EDCF3869506
:102F000077956795B795F7959F5FC9F7880F911DDE
:102F10009695879597F90895E1E0660F771F881FCA
:102F2000BB1F621773078407BA0720F0621B730B7D
:102F3000840BBA0BEE1F88F7E095089504D06894CF
:102F4000B111D9C00895BCD088F09F5790F0B92F27
:102F50009927B751A0F0D1F0660F771F881F991FEE
:102F60001AF0BA95C9F712C0B13081F0C3D0B1E000
:102F70000895C0C0672F782F8827B85F39F0B93F10
:102F8000CCF3869577956795B395D9F73EF49095F0
:102F90008095709561957F4F8F4F9F4F0895E8946E
:102FA00009C097FB3EF490958095709561957F4F91
:102FB0008F4F9F4F9923A9F0F92F96E9BB2793953F
:102FC000F695879577956795B795F111F8CFFAF44F
:102FD000BB0F11F460FF1BC06F5F7F4F8F4F9F4F80
:102FE00016C0882311F096E911C0772321F09EE8DE
:102FF000872F762F05C0662371F096E8862F70E044
:1030000060E02AF09A95660F771F881FDAF7880F1D
:103010009695879597F90895990F0008550FAA0B73
:10302000E0E8FEEF16161706E807F907C0F01216DB
:103030001306E407F50798F0621B730B840B950BDE
:1030400039F40A2661F0232B242B252B21F4089533
:103050000A2609F4A140A6958FEF811D811D0895D0
:1030600097F99F6780E870E060E008959FEF80EC3B
:10307000089500240A9416161706180609060895DE
:1030800000240A9412161306140605060895092E44
:103090000394000C11F4882352F0BB0F40F4BF2BB3
:1030A00011F460FF04C06F5F7F4F8F4F9F4F0895F3
:1030B00057FD9058440F551F59F05F3F71F04795E9
:1030C000880F97FB991F61F09F3F79F087950895CE
:1030D000121613061406551FF2CF4695F1DF08C0ED
:1030E000161617061806991FF1CF8695710561050A
:1030F00008940895E894BB2766277727CB0197F9B2
:1031000008958ADF08F48FEF08950BD0C0CFB1DFA8
:1031100028F0B6DF18F0952309F0A2CFA7CF11242D
:10312000EACFC6DFA0F3959FD1F3950F50E0551F6E
:10313000629FF001729FBB27F00DB11D639FAA270C
:10314000F00DB11DAA1F649F6627B00DA11D661F5B
:10315000829F2227B00DA11D621F739FB00DA11D7C
:10316000621F839FA00D611D221F749F3327A00D36
:10317000611D231F849F600D211D822F762F6A2FD2
:1031800011249F5750408AF0E1F088234AF0EE0F57
:10319000FF1FBB1F661F771F881F91505040A9F764
:1031A0009E3F510570F05CCFA6CF5F3FECF3983E99
:1031B000DCF3869577956795B795F795E7959F5FCB
:1031C000C1F7FE2B880F911D9695879597F9089565
:1031D00023DF880B990B0895629FD001739FF00144
:1031E000829FE00DF11D649FE00DF11D929FF00D97
:1031F000839FF00D749FF00D659FF00D9927729FCE
:10320000B00DE11DF91F639FB00DE11DF91FBD0158
:10321000CF011124089597FB092E07260AD077FDC8
:1032200004D049D006D000201AF4709561957F4FE4
:103230000895F6F7909581959F4F0895A1E21A2E73
:10324000AA1BBB1BFD010DC0AA1FBB1FEE1FFF1F4A
:10325000A217B307E407F50720F0A21BB30BE40B9A
:10326000F50B661F771F881F991F1A9469F76095E1
:103270007095809590959B01AC01BD01CF0108959B
:1032800097FB092E05260ED057FD04D0D7DF0AD0B4
:10329000001C38F450954095309521953F4F4F4F85
:1032A0005F4F0895F6F790958095709561957F4FE3
:1032B0008F4F9F4F0895AA1BBB1B51E107C0AA1F48
:1032C000BB1FA617B70710F0A61BB70B881F991FC7
:1032D0005A95A9F780959095BC01CD010895EE0F00
:0E32E000FF1F0590F491E02D0994F894FFCFA4
:1032EE00303A00313A00323A003A00700069006418
:1032FE000067007C69007C6F007C730073746174DE
:10330E00696E672E2E006E616E00696E66006F76B6
:10331E0066002E0000008040CDCC4C3E0000803F69
:10332E000000803FCDCC4C3D0000803E30752C011E
:10333E00000001005EBCE2613FDD83C29C7E20A3E3
:10334E00FD1F419DC3217FFCA2401E5F01E3BD3ED8
:10335E006082DC237D9FC1421CFEA0E1BF5D038025
:10336E00DE3C62BEE0025CDF81633D7C22C09E1DBE
:10337E0043A1FF4618FAA427799BC584DA3866E57F
:10338E00BB5907DB856739BAE406581947A5FB78A0
:10339E0026C49A653BD987045AB8E6A7F91B45C6D9
:1033AE00987A24F8A6441A99C7257B3A6486D85B86
:1033BE0005E7B98CD2306EEDB3510F4E10F2AC2F33
:1033CE007193CD114FADF3702ECC92D38D6F31B270
:1033DE00EC0E50AFF1134DCE90722C6D33D18F0C8D
:1033EE0052B0EE326C8ED0530DEFB1F0AE4C129156
:1033FE00CF2D73CA947628ABF517490856B4EA69EF
:10340E0037D58B5709EBB536688AD495CB2977F427
:10341E00AA4816E9B7550B88D6346A2B7597C94A50
:10342E0014F6A8742AC896154BA9F7B6E80A54D70D
:10343E00896B350537370500000000680EA51200B0
:10344E00004000140054001F1C1F1E1F1E1F1F1EB5
:04345E001F1E1F000E
:00000001FF
