:100000000C9462000C948A000C948A000C948A0070
:100010000C948A000C948A000C948A000C948A0038
:100020000C948A000C948A000C948A000C948A0028
:100030000C948A000C948A000C948A000C948A0018
:100040000C94FC030C948A000C94B4000C940201F0
:100050000C948A000C948A000C948A000C948A00F8
:100060000C948A000C948A000000000024002700F1
:100070002A0000000000250028002B0000000000DE
:1000800023002600290004040404040404040202DA
:100090000202020203030303030301020408102007
:1000A0004080010204081020010204081020000012
:1000B0000007000201000003040600000000000029
:1000C00000006E0211241FBECFEFD8E0DEBFCDBF0F
:1000D00011E0A0E0B1E0E0E2FCE002C005900D928A
:1000E000A231B107D9F711E0A2E1B1E001C01D9240
:1000F000A73CB107E1F710E0C4ECD0E004C02297C0
:10010000FE010E940A06C23CD107C9F70E94C40240
:100110000C940E060C9400008EE00E947F04BC013B
:1001200090931301809312018CE991E04AE050E032
:100130000E94DD03809112019091130164E070E050
:100140000E94BF058DE00E94A10408958CE991E012
:1001500040E855E260E070E00E943D018DE061E022
:100160000E940105089508951F920F920FB60F92F5
:1001700011242F933F934F938F939F93EF93FF936C
:100180008091C00082FD1DC04091C60020915401A5
:10019000309155012F5F3F4F2F7330708091560182
:1001A000909157012817390771F0E0915401F091AF
:1001B0005501EC5EFE4F408330935501209354016E
:1001C00002C08091C600FF91EF919F918F914F9156
:1001D0003F912F910F900FBE0F901F901895E091B7
:1001E000A801F091A901E05CFF4F819191912081DC
:1001F0003181821B930B8F739070892B11F00E94B9
:10020000B30008951F920F920FB60F9211242F93EF
:100210003F938F939F93EF93FF9320919801309199
:10022000990180919A0190919B012817390731F427
:100230008091C1008F7D8093C10014C0E0919A012C
:10024000F0919B01E85AFE4F208180919A01909194
:100250009B0101968F73907090939B0180939A01FC
:100260002093C600FF91EF919F918F913F912F9125
:100270000F900FBE0F901F901895AF92BF92DF9214
:10028000EF92FF920F931F93CF93DF93EC017A01CC
:100290008B01DD24403081EE580780E0680780E064
:1002A000780711F0DD24D39491E0A92EB12CEC89CC
:1002B000FD89DD2069F0C50108A002C0880F991FE3
:1002C0000A94E2F7808360E079E08DE390E005C076
:1002D000108260E874E88EE190E0A80197010E9426
:1002E000D2052150304040405040569547953795B3
:1002F000279580E12030380720F0DD2011F0DD2443
:10030000D6CFE889F9893083EA89FB89208319A24D
:10031000EE89FF89408121E030E0C9010C8C02C0E8
:10032000880F991F0A94E2F7482B4083EE89FF89D2
:100330004081C9010D8C02C0880F991F0A94E2F711
:10034000482B4083EE89FF894081C9010E8C02C091
:10035000880F991F0A94E2F7482B4083EE89FF89A2
:1003600080810F8C02C0220F331F0A94E2F7209580
:1003700028232083DF91CF911F910F91FF90EF9061
:10038000DF90BF90AF900895DC011C96ED91FC9139
:100390001D97E05CFF4F2191319180819181281B55
:1003A000390B2F733070C9010895DC011C96ED9153
:1003B000FC911D97E05CFF4F20813181E054F040BB
:1003C000DF01AE5BBF4F8D919C91119728173907C4
:1003D00019F42FEF3FEF07C08D919C91E80FF91FA3
:1003E0008081282F30E0C9010895DC011C96ED9131
:1003F000FC911D97E05CFF4F20813181E054F0407B
:10040000DF01AE5BBF4F8D919C9111972817390783
:1004100019F42FEF3FEF10C08D919C911197E80FC9
:10042000F91F20818D919C91119701968F73907087
:1004300011969C938E9330E0C9010895DC0191964A
:100440008C919197882339F05496ED91FC915597B2
:10045000808186FFF9CF91961C920895CF93DF9308
:10046000EC01EE85FF85E05CFF4F20813181E05497
:10047000F0402F5F3F4F2F733070DF01AE5BBF4FF7
:100480008D919C91119728173907D1F3E05CFF4FAC
:1004900080819181E054F040E80FF91F6083EE8580
:1004A000FF85E05CFF4F31832083EE89FF89208147
:1004B00081E090E00F8C02C0880F991F0A94E2F748
:1004C000282B208381E089A3EC89FD8980818064C9
:1004D000808381E090E0DF91CF91089510929F0199
:1004E00010929E0188EE93E0A0E0B0E08093A0011E
:1004F0009093A101A093A201B093A30185E091E0A4
:1005000090939D0180939C0184E191E09093A901D7
:100510008093A80188E591E09093AB018093AA01B4
:1005200085EC90E09093AD018093AC0184EC90E079
:100530009093AF018093AE0180EC90E09093B10175
:100540008093B00181EC90E09093B3018093B2016D
:1005500082EC90E09093B5018093B40186EC90E03A
:100560009093B7018093B60184E08093B80183E053
:100570008093B90187E08093BA0185E08093BB0145
:1005800081E08093BC010895CF93DF930E944404DF
:100590000E94A600CFEED0E00E948C002097E1F3ED
:1005A0000E94EF00F9CFCF92DF92EF92FF920F936C
:1005B0001F93CF93DF937C016B018A01C0E0D0E0F1
:1005C0000FC0D6016D916D01D701ED91FC910190A5
:1005D000F081E02DC7010995C80FD91F01501040C7
:1005E0000115110571F7CE01DF91CF911F910F9188
:1005F000FF90EF90DF90CF900895EF92FF920F93CE
:100600001F938C01DC01ED91FC910190F081E02DB4
:100610006DE009957C01D801ED91FC910190F0818C
:10062000E02DC8016AE009959C012E0D3F1DC9010E
:100630001F910F91FF90EF900895CF93DF93EC01FE
:100640006115710519F420E030E00FC0DB010D9059
:100650000020E9F71197A61BB70BE881F98102800A
:10066000F381E02DAD0109959C01C901DF91CF9186
:1006700008954F925F927F928F929F92AF92BF9216
:10068000CF92DF92EF92FF920F931F93DF93CF935E
:10069000CDB7DEB7A1970FB6F894DEBF0FBECDBFC2
:1006A0002C01742ECB01223008F42AE019A231E289
:1006B000C32ED12CCC0EDD1E822E9924AA24BB245D
:1006C000672D752FA50194010E94D20579018A0139
:1006D000C801B701A50194010E94A005472D461B42
:1006E0000894C108D1084A3014F4405D01C0495C47
:1006F000F6014083E114F1040105110521F07E2C7F
:100700005F2DC801DDCFC201B6010E941D03A19675
:100710000FB6F894DEBF0FBECDBFCF91DF911F9112
:100720000F91FF90EF90DF90CF90BF90AF909F9090
:100730008F907F905F904F900895CF92DF92EF92CD
:10074000FF920F931F93CF93DF93EC016A017B011C
:100750002115310541F4E881F9810190F081E02D06
:10076000642F09951FC02A303105D1F477FF17C0D7
:10077000E881F9810190F081E02D6DE209958C010D
:1007800044275527BA014C195D096E097F09CE012E
:100790002AE00E9439039801280F391F04C02AE07B
:1007A0000E9439039C01C901DF91CF911F910F91E4
:1007B000FF90EF90DF90CF900895CF92DF92EF926D
:1007C000FF920F931F936C017B019A010027F7FCA6
:1007D0000095102FB801A7010E949D038C01C6014E
:1007E0000E94FD02080F191FC8011F910F91FF9071
:1007F000EF90DF90CF9008951F920F920FB60F9257
:1008000011242F933F938F939F93AF93BF93809126
:10081000C2019091C301A091C401B091C501309172
:10082000C6010196A11DB11D232F2D5F2D3720F08C
:100830002D570196A11DB11D2093C6018093C201C1
:100840009093C301A093C401B093C5018091BE01F0
:100850009091BF01A091C001B091C1010196A11D6D
:10086000B11D8093BE019093BF01A093C001B093CE
:10087000C101BF91AF919F918F913F912F910F90A7
:100880000FBE0F901F901895789484B5826084BD38
:1008900084B5816084BD85B5826085BD85B5816084
:1008A00085BDEEE6F0E0808181608083E1E8F0E0E4
:1008B0001082808182608083808181608083E0E813
:1008C000F0E0808181608083E1EBF0E080818460F2
:1008D0008083E0EBF0E0808181608083EAE7F0E0F4
:1008E0008081846080838081826080838081816058
:1008F00080838081806880831092C1000895982F42
:100900008E3008F09E509770809100018295880F7C
:10091000880F807C892B80937C0080917A00806492
:1009200080937A0080917A0086FDFCCF2091780038
:1009300040917900942F80E030E0282B392BC901B9
:1009400008951F93CF93DF93182FEB0161E00E946E
:100950000105209709F44AC0CF3FD10509F449C0E9
:10096000E12FF0E0E255FF4F84918330C1F08430F5
:1009700028F4813051F08230B1F50CC0863019F185
:10098000873049F1843079F514C084B5806884BD1E
:10099000C7BD33C084B5806284BDC8BD2EC0809100
:1009A0008000806880938000D0938900C093880085
:1009B00024C080918000806280938000D0938B005F
:1009C000C0938A001AC08091B00080688093B00004
:1009D000C093B30012C08091B00080628093B000D9
:1009E000C093B4000AC0C038D1051CF4812F60E068
:1009F00002C0812F61E00E946D05DF91CF911F91B0
:100A00000895CF93DF93482F50E0CA0186569F4F39
:100A1000FC0134914A575F4FFA018491882369F1B0
:100A200090E0880F991FFC01E859FF4FA591B49100
:100A3000FC01EE58FF4FC591D491662351F42FB7B6
:100A4000F8948C91932F909589238C938881892396
:100A50000BC0623061F42FB7F8948C91932F90956E
:100A600089238C938881832B88832FBF06C09FB7EF
:100A7000F8948C91832B8C939FBFDF91CF91089535
:100A8000833071F0843028F48130A1F0823021F578
:100A900014C08630B1F08730D1F08430E9F404C05E
:100AA000809180008F7703C0809180008F7D80933C
:100AB0008000089584B58F7702C084B58F7D84BD92
:100AC00008958091B0008F778093B0000895809151
:100AD000B0008F7D8093B0000895FF920F931F9315
:100AE000F62E482F50E0CA0182559F4FFC012491F9
:100AF000CA0186569F4FFC0114914A575F4FFA0175
:100B000004910023C9F0222319F0822F0E9440058E
:100B1000E02FF0E0EE0FFF1FEE58FF4FA591B491CC
:100B20009FB7F894FF2021F48C911095812302C087
:100B30008C91812B8C939FBF1F910F91FF900895F3
:100B4000629FD001739FF001829FE00DF11D649FB1
:100B5000E00DF11D929FF00D839FF00D749FF00D3D
:100B6000659FF00D9927729FB00DE11DF91F639FDE
:100B7000B00DE11DF91FBD01CF011124089597FBB0
:100B8000092E07260AD077FD04D02ED006D00020EB
:100B90001AF4709561957F4F0895F6F790958195B9
:100BA0009F4F0895A1E21A2EAA1BBB1BFD010DC089
:100BB000AA1FBB1FEE1FFF1FA217B307E407F5070D
:100BC00020F0A21BB30BE40BF50B661F771F881FE9
:100BD000991F1A9469F760957095809590959B017F
:100BE000AC01BD01CF010895AA1BBB1B51E107C099
:100BF000AA1FBB1FA617B70710F0A61BB70B881FAD
:100C0000991F5A95A9F780959095BC01CD0108953B
:100C1000EE0FFF1F0590F491E02D0994F894FFCF9B
:100C200001000000002E02D302C401F501D5011E0F
:020C30000200C0
:00000001FF
