:100000000C9461000C9473000C9473000C947300B6
:100010000C9473000C9473000C9473000C94730094
:100020000C9473000C9473000C9473000C94730084
:100030000C9473000C9473000C9473000C94730074
:100040000C94A2000C9473000C9473000C94730035
:100050000C9473000C9473000C9473000C94730054
:100060000C9473000C94730000000000240027001F
:100070002A0000000000250028002B0000000000DE
:1000800023002600290004040404040404040202DA
:100090000202020203030303030301020408102007
:1000A0004080010204081020010204081020000012
:1000B0000007000201000003040600000000000029
:1000C000000011241FBECFEFD8E0DEBFCDBF11E08E
:1000D000A0E0B1E001C01D92AB30B107E1F70E9492
:1000E00093000C94F4010C94000082E00E94C4017F
:1000F0009093010180930001892B19F48DE061E058
:1001000002C08DE060E00E94910108958DE061E001
:100110000E94250182E060E00E94250182E061E00A
:100120000E9491010895CF93DF930E94EA000E94FC
:100130008600C0E0D0E00E9475002097E1F30E94A5
:100140000000F9CF1F920F920FB60F9211242F9338
:100150003F938F939F93AF93BF93809106019091AC
:100160000701A0910801B091090130910A0101969F
:10017000A11DB11D232F2D5F2D3720F02D57019686
:10018000A11DB11D20930A018093060190930701E0
:10019000A0930801B093090180910201909103019D
:1001A000A0910401B09105010196A11DB11D80939C
:1001B000020190930301A0930401B0930501BF9144
:1001C000AF919F918F913F912F910F900FBE0F9004
:1001D0001F901895789484B5826084BD84B5816041
:1001E00084BD85B5826085BD85B5816085BDEEE63F
:1001F000F0E0808181608083E1E8F0E0108280811E
:1002000082608083808181608083E0E8F0E080818B
:1002100081608083E1EBF0E0808184608083E0EBAB
:10022000F0E0808181608083EAE7F0E08081846093
:1002300080838081826080838081816080838081EF
:10024000806880831092C1000895CF93DF93482F78
:1002500050E0CA0186569F4FFC0134914A575F4FC8
:10026000FA018491882369F190E0880F991FFC01BD
:10027000E859FF4FA591B491FC01EE58FF4FC5918D
:10028000D491662351F42FB7F8948C91932F9095C5
:1002900089238C93888189230BC0623061F42FB746
:1002A000F8948C91932F909589238C938881832B3C
:1002B00088832FBF06C09FB7F8948C91832B8C93B3
:1002C0009FBFDF91CF910895833071F0843028F47F
:1002D0008130A1F0823021F514C08630B1F0873032
:1002E000D1F08430E9F404C0809180008F7703C09E
:1002F000809180008F7D80938000089584B58F77F2
:1003000002C084B58F7D84BD08958091B0008F7741
:100310008093B00008958091B0008F7D8093B000ED
:100320000895FF920F931F93F62E482F50E0CA01B5
:1003300082559F4FFC012491CA0186569F4FFC01B4
:1003400014914A575F4FFA0104910023C9F0222308
:1003500019F0822F0E946401E02FF0E0EE0FFF1FE2
:10036000EE58FF4FA591B4919FB7F894FF2021F468
:100370008C911095812302C08C91812B8C939FBF0F
:100380001F910F91FF9008950F931F93482F50E0F6
:10039000CA0182559F4FFC012491CA0186569F4F86
:1003A000FC0104914A575F4FFA011491112319F48B
:1003B00020E030E015C0222319F0822F0E94640152
:1003C000812F90E0880F991F84589F4FFC01A591C1
:1003D000B4918C9120E030E0802311F021E030E0F6
:0C03E000C9011F910F910895F894FFCF00
:00000001FF
