:100000000C9464000C948C000C948C000C948C0068
:100010000C948C000C948C000C948C000C948C0030
:100020000C948C000C948C000C948C000C948C0020
:100030000C948C000C948C000C948C000C948C0010
:100040000C94BD080C948C000C9471060C94BF06A3
:100050000C948C000C948C000C948C000C948C00F0
:100060000C948C000C948C000000000024002700ED
:100070002A0000000000250028002B0000000000DE
:1000800023002600290004040404040404040202DA
:100090000202020203030303030301020408102007
:1000A0004080010204081020010204081020000012
:1000B0000007000201000003040600000000000029
:1000C0000000B9022B08B20211241FBECFEFD8E006
:1000D000DEBFCDBF11E0A0E0B1E0E4EBF6E102C08D
:1000E00005900D92A839B107D9F712E0A8E9B1E05F
:1000F00001C01D92AD38B107E1F710E0C6ECD0E0C9
:1001000004C02297FE010E94120BC23CD107C9F71E
:100110000E9481080C944D0B0C940000CF93DF9348
:10012000BC018230910510F462E070E0A0918B0276
:10013000B0918C02ED01E0E0F0E040E050E021C041
:10014000888199818617970769F48A819B81309706
:1001500019F09383828304C090938C0280938B0266
:10016000FE0134C06817790738F44115510519F0BC
:100170008417950708F4AC01FE018A819B819C01DC
:10018000E9012097E9F641155105A9F1CA01861B3D
:10019000970B049708F4BA01E0E0F0E02AC08D91D3
:1001A0009C91119784179507F9F46417750781F4EA
:1001B00012968D919C911397309719F093838283B7
:1001C00004C090938C0280938B02FD0132964CC048
:1001D000CA01861B970BFD01E80FF91F619371930C
:1001E00002978D939C9340C0FD01828193819C0175
:1001F000D9011097A1F68091890290918A02892BEA
:1002000041F4809173019091740190938A028093DC
:10021000890240917501509176014115510541F4D3
:100220004DB75EB78091710190917201481B590BD7
:100230002091890230918A02CA01821B930B861792
:10024000970780F0AB014E5F5F4F8417950750F022
:10025000420F531F50938A0240938902F901619320
:10026000719302C0E0E0F0E0CF01DF91CF910895FB
:10027000CF93DF93009709F450C0EC0122971B82C3
:100280001A82A0918B02B0918C02109709F140E084
:1002900050E0AC17BD0708F1BB83AA83FE01219192
:1002A0003191E20FF31FAE17BF0779F48D919C9146
:1002B0001197280F391F2E5F3F4F398328831296DD
:1002C0008D919C9113979B838A834115510571F4FD
:1002D000D0938C02C0938B0220C012968D919C917A
:1002E0001397AD01009711F0DC01D3CFFA01D3834E
:1002F000C28321913191E20FF31FCE17DF0769F41A
:1003000088819981280F391F2E5F3F4FFA01318371
:1003100020838A819B8193838283DF91CF9108958B
:10032000A0E0B0E0E6E9F1E00C94180B6C01009756
:1003300029F4CB010E948E006C01C1C08EEF882E83
:100340008FEF982E8C0C9D1C8601060F171F081529
:10035000190508F4B2C0F401A081B181A617B7074E
:10036000B8F0A530B10508F4AAC0CD0104978617EE
:10037000970708F4A4C01297A61BB70BF801A19326
:10038000B193D4016D937C93CF010E94380197C043
:100390007B01EA1AFB0AEEEFFFEFEE0EFF1E3601BD
:1003A0006A0E7B1EC0918B02D0918C02442455248E
:1003B000AA24BB244AC0C615D705E1F54881598156
:1003C0004E155F05B8F1CA0104978E159F05B0F46C
:1003D0001296A40FB51FF401B183A0832A813B813B
:1003E0004114510431F0D20113963C932E9312978D
:1003F00066C030938C0220938B0261C08A819B81FE
:10040000F80193838283425050404E195F09518313
:1004100040834114510431F0D20113961C930E9382
:10042000129704C010938C0200938B02F401718325
:10043000608345C088819981A816B90608F45C01DB
:100440002E018A819B819C01E901209709F0B3CF9D
:100450008091890290918A0286159705E9F4A61683
:10046000B706D0F420917501309176012115310540
:1004700041F42DB73EB78091710190917201281B14
:10048000390B02171307C8F410938A0200938902EC
:10049000D4016D937C9313C0CB010E948E00EC01BC
:1004A000009759F0F40140815181B6010E94650224
:1004B000C6010E9438016E0102C0CC24DD24C601B1
:1004C000CDB7DEB7E0E10C94340BFB01DC0102C0D8
:1004D00001900D9241505040D8F70895FB01DC0186
:1004E00001900D920020E1F70895CF92EF920F93C3
:1004F0008130910511F56F5F7F4F81F584EA91E0BE
:1005000068E049E024E005E056E0E52E37E0C32E40
:100510000E94370689EB91E060E071E00E94CE0A0C
:1005200080EC91E061E271E00E94CE0A87EC91E0FC
:1005300061E271E00E94CE0A11C0892B79F46F5FED
:100540007F4F61F487EC91E00E94E80A80EC91E033
:100550000E94E80A89EB91E00E94E80A0F91EF906F
:10056000CF90089580E090E06FEF7FEF0E947502DA
:10057000089581E090E06FEF7FEF0E94750208958B
:10058000CF93DF93EC016115710519F420E030E0A1
:100590000FC0DB010D900020E9F71197A61BB70BE8
:1005A000E881F9810280F381E02DAD0109959C017C
:1005B000C901DF91CF91089580E00E94A409909332
:1005C0009F0180939E0127E0893092073CF582339A
:1005D00091051CF420E030E023C08A3F91051CF413
:1005E00021E030E01DC021E0823C92071CF422E0B3
:1005F00030E016C022E08A3892071CF423E030E095
:100600000FC023E0823592071CF424E030E008C0DC
:100610008C5494401CF426E030E002C025E030E029
:10062000C9010895EF92FF920F931F93CF93DF9329
:100630000E9405097B018C0180919801909199019C
:10064000A0919A01B0919B01A8019701281B390B39
:100650004A0B5B0B293C31054105510508F47BC071
:100660008EE592E00E948107892B09F46CC08EE52B
:1006700092E00E9481079093CF018093CE01C1E068
:10068000D0E053C08091D0019091D1010196909318
:10069000D1018093D0018091D4019091D501019630
:1006A0009093D5018093D4018F709070892BB1F411
:1006B0008091D2019091D30101969093D3018093C0
:1006C000D201029724F01092D3011092D20184EA51
:1006D00091E060E04091D2010E944A058EE592E0EF
:1006E0000E94B207682F8D3059F484EA91E060E0EF
:1006F00040E00E944A051092D5011092D40115C025
:100700008C3079F484EA91E060E041E00E944A058F
:100710001092D5011092D401D093D301C093D2018D
:1007200004C084EA91E00E9412058EE592E00E94E6
:100730008107181619060CF4A5CF62E370E080E07B
:1007400090E00E943909E0929801F092990100939B
:100750009A0110939B010E9405092091A0013091FC
:10076000A1014091A2015091A301621B730B840B64
:10077000950B6B3F71058105910588F00E94DC02A5
:1007800090939D0180939C010E9405096093A001B4
:100790007093A1018093A2019093A30106C083E608
:1007A00090E090939D0180939C0180919C01909199
:1007B0009D018230910569F18330910534F40097F1
:1007C00069F0019709F041C01BC08430910551F1D7
:1007D0008430910564F00697C1F52DC084EA91E05C
:1007E0000E9426058EE592E064E271E02CC084EA66
:1007F00091E00E941C058EE592E06AE271E023C060
:1008000084EA91E00E942E058EE592E06FE271E0AD
:100810001AC084EA91E00E9438058EE592E061E317
:1008200071E011C084EA91E00E941C058EE592E01F
:1008300063E371E008C084EA91E00E941C058EE544
:1008400092E065E371E00E94C002DF91CF911F91B9
:100850000F91FF90EF9008950F931F9304EA11E01A
:10086000C80160E142E020E00E948105C80160E02B
:1008700040E00E944A05C80167E371E00E94BA089F
:10088000C8010E942E0564EF71E080E090E00E94B4
:100890003909C8010E947905C80160E040E00E9462
:1008A0004A058EE592E040E052EC61E070E00E9483
:1008B000FA061F910F9108950F931F938C01FC016D
:1008C000868160E00E94320A81E090E00E945F0928
:1008D000F801868161E00E94320A81E090E00E9486
:1008E0005F09F801868160E00E94320A84E690E0A8
:1008F0000E945F091F910F910895CF92DF92EF92AE
:10090000FF920F931F93CF93DF93D82EC92E282FDA
:10091000392FC9018C01C0E0D0E0E62EFF24F80198
:10092000878161E00E94C609B7010C2E02C075954F
:1009300067950A94E2F76170F80187810E94320A94
:1009400021960F5F1F4FC830D10549F78D2D9C2D83
:100950000E945C04DF91CF911F910F91FF90EF9067
:10096000DF90CF900895CF92DF92EF92FF920F9396
:100970001F93CF93DF93D82EC92E282F392FC9016B
:100980008C01C0E0D0E0E62EFF24F801878161E011
:100990000E94C609B7010C2E02C0759567950A948E
:1009A000E2F76170F80187810E94320A21960F5F99
:1009B0001F4FC430D10549F78D2D9C2D0E945C043A
:1009C000DF91CF911F910F91FF90EF90DF90CF902B
:1009D00008951F93CF93DF93EC01162F8C81642F22
:1009E0000E94320A8D818F3F19F060E00E94320A26
:1009F0008F8584FF05C0CE01612F0E947D040EC04B
:100A0000612F70E084E0759567958A95E1F7CE01D6
:100A10000E94B304CE01612F0E94B304DF91CF91F5
:100A20001F91089541E00E94E90481E090E008955B
:100A300040E00E94E9040895FC016089862F8160EE
:100A4000808B6960CF010E9418050895FC016089C0
:100A50006E7F608B68600E9418050895FC016089B4
:100A6000862F8260808B6A60CF010E9418050895EE
:100A7000FC0160896D7F608B68600E941805089595
:100A8000FC016089862F8460808B6C60CF010E949E
:100A900018050895DF93CF93CDB7DEB728970FB62B
:100AA000F894DEBF0FBECDBF9C01FE013196A0E8D9
:100AB000B1E088E00D9001928150E1F7F90183895E
:100AC000481710F0482F4150E42FF0E0EE0FFF1FC1
:100AD000EC0FFD1F8181680F6068C9010E94180535
:100AE00028960FB6F894DEBF0FBECDBFCF91DF9131
:100AF000089561E00E94180580ED97E00E945F096B
:100B00000895CF93DF93EC01423018F08F85886011
:100B10008F874B8B1C8A222329F0413019F48F8553
:100B200084608F8780E593EC0E945F098C8160E090
:100B30000E94320A8E8160E00E94320A8D818F3FCE
:100B400019F060E00E94320A6F8564FD1DC0CE017D
:100B500063E00E94B30484E991E10E945F09CE0141
:100B600063E00E94B30484E991E10E945F09CE0131
:100B700063E00E94B30486E990E00E945F09CE0121
:100B800062E00E94B30416C06062CE010E941805A4
:100B900084E991E10E945F096F856062CE010E9445
:100BA000180586E990E00E945F096F856062CE01BA
:100BB0000E9418056F856062CE010E94180584E0CE
:100BC000888BCE010E944005CE010E94790582E00B
:100BD000898BCE0166E00E941805DF91CF910895C0
:100BE0006F927F928F92AF92CF92EF920F931F935B
:100BF000DF93CF93CDB7DEB73C01162F842FF301DF
:100C0000448325830683E782C086A18682869D85EC
:100C100093879E8594879F8595879889968761E0BD
:100C20000E94C609F30185818F3F19F061E00E949F
:100C3000C609F301868161E00E94C609112319F0FB
:100C4000F301178603C080E1F3018787C30160E1E8
:100C500041E020E00E948105CF91DF911F910F912B
:100C6000EF90CF90AF908F907F906F9008958F927C
:100C7000AF92CF92EF920F931F93CF93DF93DC014C
:100C8000362F542F722F102FAE2C8C2C13961C92B3
:100C90001E9212978CE791E011969C938E9300D050
:100CA00000D0EDB7FEB73196CDB7DEB7198211820D
:100CB00012821382CD0161E0432F2FEF052FE72E23
:100CC000C12E0E94F0050F900F900F900F90DF91B2
:100CD000CF911F910F91EF90CF90AF908F9008958B
:100CE00008951F920F920FB60F9211242F933F93E6
:100CF0004F938F939F93EF93FF938091C00082FD5A
:100D00001DC04091C60020911602309117022F5F3E
:100D10003F4F2F733070809118029091190228175D
:100D2000390771F0E0911602F0911702EA52FE4F76
:100D30004083309317022093160202C08091C600B0
:100D4000FF91EF919F918F914F913F912F910F9034
:100D50000FBE0F901F901895E0916A02F0916B0200
:100D6000E05CFF4F8191919120813181821B930B37
:100D70008F739070892B11F00E94700608951F9256
:100D80000F920FB60F9211242F933F938F939F933F
:100D9000EF93FF9320915A0230915B0280915C02A5
:100DA00090915D022817390731F48091C1008F7D41
:100DB0008093C10014C0E0915C02F0915D02E65E98
:100DC000FD4F208180915C0290915D0201968F73AE
:100DD000907090935D0280935C022093C600FF9117
:100DE000EF919F918F913F912F910F900FBE0F9098
:100DF0001F901895AF92BF92DF92EF92FF920F93E0
:100E00001F93CF93DF93EC017A018B01DD244030F7
:100E100081EE580780E0680780E0780711F0DD2454
:100E2000D39491E0A92EB12CEC89FD89DD2069F0E5
:100E3000C50108A002C0880F991F0A94E2F78083B9
:100E400060E079E08DE390E005C0108260E874E82E
:100E50008EE190E0A80197010E94EE0A21503040F7
:100E600040405040569547953795279580E1203072
:100E7000380720F0DD2011F0DD24D6CFE889F9898C
:100E80003083EA89FB89208319A2EE89FF8940819A
:100E900021E030E0C9010C8C02C0880F991F0A9430
:100EA000E2F7482B4083EE89FF894081C9010D8C10
:100EB00002C0880F991F0A94E2F7482B4083EE89FD
:100EC000FF894081C9010E8C02C0880F991F0A94C6
:100ED000E2F7482B4083EE89FF8980810F8C02C0A6
:100EE000220F331F0A94E2F7209528232083DF91F5
:100EF000CF911F910F91FF90EF90DF90BF90AF9037
:100F00000895DC011C96ED91FC911D97E05CFF4F6C
:100F10002191319180819181281B390B2F73307081
:100F2000C9010895DC011C96ED91FC911D97E05CD0
:100F3000FF4F20813181E054F040DF01AE5BBF4FB5
:100F40008D919C9111972817390719F42FEF3FEFD6
:100F500007C08D919C91E80FF91F8081282F30E008
:100F6000C9010895DC011C96ED91FC911D97E05C90
:100F7000FF4F20813181E054F040DF01AE5BBF4F75
:100F80008D919C9111972817390719F42FEF3FEF96
:100F900010C08D919C911197E80FF91F20818D91C0
:100FA0009C91119701968F73907011969C938E93DC
:100FB00030E0C9010895DC0191968C9191978823C6
:100FC00039F05496ED91FC915597808186FFF9CFC9
:100FD00091961C920895CF93DF93EC01EE85FF85E7
:100FE000E05CFF4F20813181E054F0402F5F3F4FA4
:100FF0002F733070DF01AE5BBF4F8D919C911197C5
:1010000028173907D1F3E05CFF4F80819181E054CC
:10101000F040E80FF91F6083EE85FF85E05CFF4F2D
:1010200031832083EE89FF89208181E090E00F8C5D
:1010300002C0880F991F0A94E2F7282B208381E0D1
:1010400089A3EC89FD8980818064808381E090E0C0
:10105000DF91CF910895109261021092600288EEA4
:1010600093E0A0E0B0E08093620290936302A093CB
:101070006402B09365028CE891E090935F028093E4
:101080005E0286ED91E090936B0280936A028AE1A2
:1010900092E090936D0280936C0285EC90E09093C7
:1010A0006F0280936E0284EC90E0909371028093C3
:1010B000700280EC90E0909373028093720281EC56
:1010C00090E0909375028093740282EC90E090938C
:1010D00077028093760286EC90E090937902809379
:1010E000780284E080937A0283E080937B0287E039
:1010F00080937C0285E080937D0281E080937E0274
:101100000895CF93DF930E9469090E942C04CCEAD2
:10111000D6E00E9412032097E1F30E94AC06F9CFBB
:10112000CF92DF92EF92FF920F931F93CF93DF93B3
:101130007C016B018A01C0E0D0E00FC0D6016D9147
:101140006D01D701ED91FC910190F081E02DC70177
:101150000995C80FD91F015010400115110571F7ED
:10116000CE01DF91CF911F910F91FF90EF90DF9013
:10117000CF9008950E94C00208951F920F920FB65B
:101180000F9211242F933F938F939F93AF93BF930D
:101190008091840290918502A0918602B09187028D
:1011A000309188020196A11DB11D232F2D5F2D378F
:1011B00020F02D570196A11DB11D20938802809328
:1011C000840290938502A0938602B0938702809157
:1011D000800290918102A0918202B09183020196D7
:1011E000A11DB11D8093800290938102A093820281
:1011F000B0938302BF91AF919F918F913F912F91B7
:101200000F900FBE0F901F9018958FB7F8942091F4
:1012100084023091850240918602509187028FBFEF
:10122000B901CA0108959FB7F894209180023091C6
:101230008102409182025091830286B5A89B06C02C
:101240008F3F21F02F5F3F4F4F4F5F4F9FBF542F76
:10125000432F322F2227280F311D411D511D82E0BF
:10126000220F331F441F551F8A95D1F7B901CA01B8
:101270000895EF92FF920F931F93CF93DF937B011B
:101280008C010E941309EB010EC00E9413096C1B14
:101290007D0B685E7340C8F30894E108F10801090A
:1012A0001109C851DC4FE114F1040105110569F77A
:1012B000DF91CF911F910F91FF90EF9008950197CB
:1012C00039F0880F991F880F991F02970197F1F73E
:1012D0000895789484B5826084BD84B5816084BDAE
:1012E00085B5826085BD85B5816085BDEEE6F0E09F
:1012F000808181608083E1E8F0E0108280818260FB
:101300008083808181608083E0E8F0E0808181607B
:101310008083E1EBF0E0808184608083E0EBF0E0AB
:10132000808181608083EAE7F0E08081846080834F
:1013300080818260808380818160808380818068F9
:1013400080831092C1000895982F8E3008F09E502F
:101350009770809177018295880F880F807C892B08
:1013600080937C0080917A00806480937A008091E1
:101370007A0086FDFCCF2091780040917900942F6F
:1013800080E030E0282B392BC9010895CF93DF93FB
:10139000482F50E0CA0186569F4FFC0134914A57AE
:1013A0005F4FFA018491882369F190E0880F991FBB
:1013B000FC01E859FF4FA591B491FC01EE58FF4F95
:1013C000C591D491662351F42FB7F8948C91932F43
:1013D000909589238C93888189230BC0623061F4B6
:1013E0002FB7F8948C91932F909589238C938881B3
:1013F000832B88832FBF06C09FB7F8948C91832BD3
:101400008C939FBFDF91CF910895833071F084302A
:1014100028F48130A1F0823021F514C08630B1F07B
:101420008730D1F08430E9F404C0809180008F7758
:1014300003C0809180008F7D80938000089584B5E3
:101440008F7702C084B58F7D84BD08958091B000F0
:101450008F778093B00008958091B0008F7D809346
:10146000B0000895FF920F931F93F62E482F50E07F
:10147000CA0182559F4FFC012491CA0186569F4F95
:10148000FC0114914A575F4FFA0104910023C9F0FF
:10149000222319F0822F0E94050AE02FF0E0EE0FC0
:1014A000FF1FEE58FF4FA591B4919FB7F894FF200E
:1014B00021F48C911095812302C08C91812B8C9307
:1014C0009FBF1F910F91FF9008950F931F93CF938C
:1014D000DF93EC018B016F5F7F4F888199810E94C0
:1014E0009001009711F480E005C0998388831B83E5
:1014F0000A8381E0DF91CF911F910F910895CF93DF
:10150000DF93EC0188819981892B29F08A819B8165
:101510008617970760F4CE010E94650A882341F080
:101520008C819D81892B19F4E881F981108281E0F9
:10153000DF91CF910895CF93DF93EC01888199815A
:10154000009711F00E943801198218821D821C82B6
:101550001B821A82DF91CF910895EF92FF920F9331
:101560001F93CF93DF93EC017B018A01BA010E94A4
:101570007F0A882321F4CE010E949B0A07C01D83A5
:101580000C8388819981B7010E946E02CE01DF91A0
:10159000CF911F910F91FF90EF900895CF93DF931C
:1015A000EC01198218821B821A821D821C821E8203
:1015B0006115710551F0DB010D900020E9F71197DD
:1015C000A61BB70BAD010E94AD0ADF91CF91089524
:1015D000FC01808191810E9438010895A1E21A2EB8
:1015E000AA1BBB1BFD010DC0AA1FBB1FEE1FFF1FC7
:1015F000A217B307E407F50720F0A21BB30BE40B17
:10160000F50B661F771F881F991F1A9469F760955D
:101610007095809590959B01AC01BD01CF01089517
:10162000EE0FFF1F0590F491E02D09942F923F9249
:101630004F925F926F927F928F929F92AF92BF92E2
:10164000CF92DF92EF92FF920F931F93CF93DF938E
:10165000CDB7DEB7CA1BDB0B0FB6F894DEBF0FBEEB
:10166000CDBF09942A88398848885F846E847D8438
:101670008C849B84AA84B984C884DF80EE80FD803A
:101680000C811B81AA81B981CE0FD11D0FB6F894B0
:10169000DEBF0FBECDBFED01089510E0C6ECD0E077
:1016A00004C0FE010E94120B2296C83CD107C9F764
:0416B000F894FFCFDC
:1016B4002020202020202020202020202020202026
:1016C4002020202020202020202020202020202016
:1016D400000030005249474854004C4546540055D8
:1016E4000044005300490053657269616C204D6FDA
:1016F4006E69746F7220353736303020206279205D
:101704004D65746F64204E6F76616B2066726F6DE9
:1017140020536C6F76656E696120616E642061315F
:101724000020008D02000001000000001205900856
:10173400000040001400540000000000EB07900873
:081744008107B2079207DB07E1
:00000001FF
