:100000000C9464000C948C000C948C000C948C0068
:100010000C948C000C948C000C948C000C948C0030
:100020000C948C000C948C000C948C000C948C0020
:100030000C948C000C948C000C948C000C948C0010
:100040000C94CA080C948C000C9462060C94B006B4
:100050000C948C000C948C000C948C000C948C00F0
:100060000C948C000C948C000000000024002700ED
:100070002A0000000000250028002B0000000000DE
:1000800023002600290004040404040404040202DA
:100090000202020203030303030301020408102007
:1000A0004080010204081020010204081020000012
:1000B0000007000201000003040600000000000029
:1000C0000000BD021C08B60211241FBECFEFD8E00D
:1000D000DEBFCDBF11E0A0E0B1E0EEECF6E102C082
:1000E00005900D92A639B107D9F712E0A6E9B1E063
:1000F00001C01D92A738B107E1F710E0C6ECD0E0CF
:1001000004C02297FE010E941F0BC23CD107C9F711
:100110000E9472080C945A0B0C940000CF93DF934A
:10012000BC018230910510F462E070E0A09185027C
:10013000B0918602ED01E0E0F0E040E050E021C047
:10014000888199818617970769F48A819B81309706
:1001500019F09383828304C0909386028093850272
:10016000FE0134C06817790738F44115510519F0BC
:100170008417950708F4AC01FE018A819B819C01DC
:10018000E9012097E9F641155105A9F1CA01861B3D
:10019000970B049708F4BA01E0E0F0E02AC08D91D3
:1001A0009C91119784179507F9F46417750781F4EA
:1001B00012968D919C911397309719F093838283B7
:1001C00004C09093860280938502FD0132964CC054
:1001D000CA01861B970BFD01E80FF91F619371930C
:1001E00002978D939C9340C0FD01828193819C0175
:1001F000D9011097A1F68091830290918402892BF6
:1002000041F48091710190917201909384028093E6
:10021000830240917301509174014115510541F4DD
:100220004DB75EB780916F0190917001481B590BDB
:100230002091830230918402CA01821B930B86179E
:10024000970780F0AB014E5F5F4F8417950750F022
:10025000420F531F5093840240938302F90161932C
:10026000719302C0E0E0F0E0CF01DF91CF910895FB
:10027000CF93DF93009709F450C0EC0122971B82C3
:100280001A82A0918502B0918602109709F140E090
:1002900050E0AC17BD0708F1BB83AA83FE01219192
:1002A0003191E20FF31FAE17BF0779F48D919C9146
:1002B0001197280F391F2E5F3F4F398328831296DD
:1002C0008D919C9113979B838A834115510571F4FD
:1002D000D0938602C093850220C012968D919C9186
:1002E0001397AD01009711F0DC01D3CFFA01D3834E
:1002F000C28321913191E20FF31FCE17DF0769F41A
:1003000088819981280F391F2E5F3F4FFA01318371
:1003100020838A819B8193838283DF91CF9108958B
:10032000A0E0B0E0E6E9F1E00C94250B6C01009749
:1003300029F4CB010E948E006C01C1C08EEF882E83
:100340008FEF982E8C0C9D1C8601060F171F081529
:10035000190508F4B2C0F401A081B181A617B7074E
:10036000B8F0A530B10508F4AAC0CD0104978617EE
:10037000970708F4A4C01297A61BB70BF801A19326
:10038000B193D4016D937C93CF010E94380197C043
:100390007B01EA1AFB0AEEEFFFEFEE0EFF1E3601BD
:1003A0006A0E7B1EC0918502D0918602442455249A
:1003B000AA24BB244AC0C615D705E1F54881598156
:1003C0004E155F05B8F1CA0104978E159F05B0F46C
:1003D0001296A40FB51FF401B183A0832A813B813B
:1003E0004114510431F0D20113963C932E9312978D
:1003F00066C0309386022093850261C08A819B810A
:10040000F80193838283425050404E195F09518313
:1004100040834114510431F0D20113961C930E9382
:10042000129704C01093860200938502F401718331
:10043000608345C088819981A816B90608F45C01DB
:100440002E018A819B819C01E901209709F0B3CF9D
:10045000809183029091840286159705E9F4A6168F
:10046000B706D0F420917301309174012115310544
:1004700041F42DB73EB780916F0190917001281B18
:10048000390B02171307C8F41093840200938302F8
:10049000D4016D937C9313C0CB010E948E00EC01BC
:1004A000009759F0F40140815181B6010E94650224
:1004B000C6010E9438016E0102C0CC24DD24C601B1
:1004C000CDB7DEB7E0E10C94410BFB01DC0102C0CB
:1004D00001900D9241505040D8F70895FB01DC0186
:1004E00001900D920020E1F70895CF92EF920F93C3
:1004F0008130910549F0892B19F46F5F7F4F31F1FD
:100500000F91EF90CF9008956F5F7F4FC9F78EE9FD
:1005100091E068E049E024E005E056E0E52E37E0B0
:10052000C32E0E94280683EB91E060E071E00E94F8
:10053000DB0A8AEB91E061E271E00E94DB0A81EC68
:1005400091E061E271E00E94DB0ADACF81EC91E098
:100550000E94F50A8AEB91E00E94F50A83EB91E094
:100560000E94F50A0F91EF90CF90089580E090E0FF
:100570006FEF7FEF0E947502089581E090E06FEFCA
:100580007FEF0E947502089580E00E94B109909368
:1005900099018093980123E0893E92078CF482337D
:1005A000910594F08A3F91059CF021E0823C9207EE
:1005B00094F022E08A389207A4F08255934074F0B8
:1005C00025E030E0C901089520E030E0C901089538
:1005D00021E030E0F7CF22E030E0F4CF24E030E05B
:1005E000F1CF23E030E0EECF0F931F930EE911E03F
:1005F000C80160E142E020E00E947205C80160E0AD
:1006000040E00E943B05C80164E271E00E94C70817
:10061000C8010E941F0564EF71E080E090E00E9435
:100620004609C8010E946A05C80160E040E00E94D6
:100630003B0588E592E040E051EE60E070E00E940A
:10064000EB061F910F910895CF93DF9388E592E019
:100650000E947207892BE9F40E94120920919A01E5
:1006600030919B0140919C0150919D01621B730B45
:10067000840B950B6D5271408040904008F07DC016
:1006800083E690E09093970180939601DF91CF915C
:10069000089588E592E00E9472079093C9018093C3
:1006A000C801C1E0D0E088E592E00E947207181608
:1006B00019060CF041C08091CA019091CB010196BE
:1006C0009093CB018093CA018091CE019091CF018C
:1006D00001969093CF018093CE018F709070892BFB
:1006E000B1F48091CC019091CD0101969093CD0110
:1006F0008093CC01029724F01092CD011092CC018E
:100700008EE991E060E04091CC010E943B0588E5D4
:1007100092E00E94A307682F8D3021F18C3099F070
:100720008EE991E00E94030588E592E00E9472073D
:10073000181619060CF4BFCF62E370E080E090E079
:100740000E94460989CF8EE991E060E041E00E9475
:100750003B051092CF011092CE01D093CD01C093F2
:10076000CC01A1CF8EE991E060E040E00E943B0522
:100770001092CF011092CE0196CF0E94C4029093A6
:100780009701809396010E94120960939A017093D9
:100790009B0180939C0190939D0180919601909183
:1007A00097018230910509F463C083309105E4F02C
:1007B0008330910509F447C0049709F067CF8EE9AB
:1007C00091E00E940D05E0915802F09159020280DB
:1007D000F381E02D88E592E06DE671E041E050E0C4
:1007E0000995DF91CF9108950097C1F0019709F025
:1007F0004DCF8EE991E00E941F05E0915802F091E3
:1008000059020280F381E02D88E592E069E671E00B
:1008100041E050E00995DF91CF9108958EE991E094
:100820000E941705E0915802F09159020280F3816D
:10083000E02D88E592E06EE571E045E050E0099535
:10084000DF91CF9108958EE991E00E940D05E0912E
:100850005802F09159020280F381E02D88E592E080
:1008600064E671E044E050E00995DF91CF9108958E
:100870008EE991E00E942905E0915802F091590219
:100880000280F381E02D88E592E06BE671E041E0C3
:1008900050E00995DF91CF9108950F931F938C013C
:1008A000FC01868160E00E943F0A81E090E00E94A6
:1008B0006C09F801868161E00E943F0A81E090E0C6
:1008C0000E946C09F801868160E00E943F0A84E67C
:1008D00090E00E946C091F910F910895CF92DF92D2
:1008E000EF92FF920F931F93CF93DF93D82EC92ED1
:1008F000282F392FC9018C01C0E0D0E0E62EFF245B
:10090000F801878161E00E94D309B7010C2E02C073
:10091000759567950A94E2F76170F80187810E94E6
:100920003F0A21960F5F1F4FC830D10549F78D2D23
:100930009C2D0E944D04DF91CF911F910F91FF904C
:10094000EF90DF90CF900895CF92DF92EF92FF92D9
:100950000F931F93CF93DF93D82EC92E282F392FB3
:10096000C9018C01C0E0D0E0E62EFF24F8018781A8
:1009700061E00E94D309B7010C2E02C075956795FE
:100980000A94E2F76170F80187810E943F0A21967C
:100990000F5F1F4FC430D10549F78D2D9C2D0E944C
:1009A0004D04DF91CF911F910F91FF90EF90DF9059
:1009B000CF9008951F93CF93DF93EC01162F8C8176
:1009C000642F0E943F0A8D818F3F19F060E00E94E2
:1009D0003F0A8F8584FF05C0CE01612F0E946E04FF
:1009E0000EC0612F70E084E0759567958A95E1F7F8
:1009F000CE010E94A404CE01612F0E94A404DF91C5
:100A0000CF911F91089541E00E94DA0481E090E0C7
:100A1000089540E00E94DA040895FC016089862F61
:100A20008160808B6960CF010E9409050895FC01F7
:100A300060896E7F608B68600E9409050895FC01E3
:100A40006089862F8260808B6A60CF010E940905D1
:100A50000895FC0160896D7F608B68600E940905C4
:100A60000895FC016089862F8460808B6C60CF01C3
:100A70000E9409050895DF93CF93CDB7DEB728977D
:100A80000FB6F894DEBF0FBECDBF9C01FE013196BC
:100A9000AEE7B1E088E00D9001928150E1F7F901F5
:100AA0008389481710F0482F4150E42FF0E0EE0FF3
:100AB000FF1FEC0FFD1F8181680F6068C9010E9454
:100AC000090528960FB6F894DEBF0FBECDBFCF91B3
:100AD000DF91089561E00E94090580ED97E00E9492
:100AE0006C090895CF93DF93EC01423018F08F85A5
:100AF00088608F874B8B1C8A222329F0413019F4A0
:100B00008F8584608F8780E593EC0E946C098C81CF
:100B100060E00E943F0A8E8160E00E943F0A8D8162
:100B20008F3F19F060E00E943F0A6F8564FD1DC091
:100B3000CE0163E00E94A40484E991E10E946C0963
:100B4000CE0163E00E94A40484E991E10E946C0953
:100B5000CE0163E00E94A40486E990E00E946C0943
:100B6000CE0162E00E94A40416C06062CE010E9421
:100B7000090584E991E10E946C096F856062CE01EC
:100B80000E94090586E990E00E946C096F85606209
:100B9000CE010E9409056F856062CE010E940905A1
:100BA00084E0888BCE010E943105CE010E946A0547
:100BB00082E0898BCE0166E00E940905DF91CF912A
:100BC00008956F927F928F92AF92CF92EF920F9390
:100BD0001F93DF93CF93CDB7DEB73C01162F842F41
:100BE000F301448325830683E782C086A18682863B
:100BF0009D8593879E8594879F85958798899687FD
:100C000061E00E94D309F30185818F3F19F061E013
:100C10000E94D309F301868161E00E94D309112368
:100C200019F0F301178603C080E1F3018787C30140
:100C300060E141E020E00E947205CF91DF911F91B9
:100C40000F91EF90CF90AF908F907F906F9008951D
:100C50008F92AF92CF92EF920F931F93CF93DF9328
:100C6000DC01362F542F722F102FAE2C8C2C1396A4
:100C70001C921E9212978AE791E011969C938E9394
:100C800000D000D0EDB7FEB73196CDB7DEB71982F0
:100C9000118212821382CD0161E0432F2FEF052FC5
:100CA000E72EC12E0E94E1050F900F900F900F903C
:100CB000DF91CF911F910F91EF90CF90AF908F90D8
:100CC000089508951F920F920FB60F9211242F933B
:100CD0003F934F938F939F93EF93FF938091C00027
:100CE00082FD1DC04091C60020911002309111027A
:100CF0002F5F3F4F2F73307080911202909113023B
:100D00002817390771F0E0911002F0911102E053B9
:100D1000FE4F4083309311022093100202C0809155
:100D2000C600FF91EF919F918F914F913F912F912D
:100D30000F900FBE0F901F901895E0916402F091F4
:100D40006502E05CFF4F8191919120813181821B8E
:100D5000930B8F739070892B11F00E946106089598
:100D60001F920F920FB60F9211242F933F938F93E0
:100D70009F93EF93FF9320915402309155028091FD
:100D80005602909157022817390731F48091C1001B
:100D90008F7D8093C10014C0E0915602F0915702FC
:100DA000EC5EFD4F20818091560290915702019692
:100DB0008F73907090935702809356022093C600D1
:100DC000FF91EF919F918F913F912F910F900FBEC7
:100DD0000F901F901895AF92BF92DF92EF92FF9203
:100DE0000F931F93CF93DF93EC017A018B01DD24E6
:100DF000403081EE580780E0680780E0780711F006
:100E0000DD24D39491E0A92EB12CEC89FD89DD205D
:100E100069F0C50108A002C0880F991F0A94E2F783
:100E2000808360E079E08DE390E005C0108260E8A7
:100E300074E88EE190E0A80197010E94FB0A21501E
:100E4000304040405040569547953795279580E172
:100E50002030380720F0DD2011F0DD24D6CFE889DE
:100E6000F9893083EA89FB89208319A2EE89FF89F9
:100E7000408121E030E0C9010C8C02C0880F991F2D
:100E80000A94E2F7482B4083EE89FF894081C9012B
:100E90000D8C02C0880F991F0A94E2F7482B4083FB
:100EA000EE89FF894081C9010E8C02C0880F991F0D
:100EB0000A94E2F7482B4083EE89FF8980810F8CEA
:100EC00002C0220F331F0A94E2F7209528232083C3
:100ED000DF91CF911F910F91FF90EF90DF90BF9026
:100EE000AF900895DC011C96ED91FC911D97E05C9C
:100EF000FF4F2191319180819181281B390B2F73F4
:100F00003070C9010895DC011C96ED91FC911D978C
:100F1000E05CFF4F20813181E054F040DF01AE5BA7
:100F2000BF4F8D919C9111972817390719F42FEF16
:100F30003FEF07C08D919C91E80FF91F8081282F0A
:100F400030E0C9010895DC011C96ED91FC911D97DC
:100F5000E05CFF4F20813181E054F040DF01AE5B67
:100F6000BF4F8D919C9111972817390719F42FEFD6
:100F70003FEF10C08D919C911197E80FF91F2081D0
:100F80008D919C91119701968F73907011969C93FF
:100F90008E9330E0C9010895DC0191968C91919770
:100FA000882339F05496ED91FC915597808186FF06
:100FB000F9CF91961C920895CF93DF93EC01EE85C3
:100FC000FF85E05CFF4F20813181E054F0402F5FCE
:100FD0003F4F2F733070DF01AE5BBF4F8D919C91FF
:100FE000119728173907D1F3E05CFF4F8081918179
:100FF000E054F040E80FF91F6083EE85FF85E05C68
:10100000FF4F31832083EE89FF89208181E090E0CA
:101010000F8C02C0880F991F0A94E2F7282B2083B7
:1010200081E089A3EC89FD8980818064808381E0EF
:1010300090E0DF91CF91089510925B0210925A02D6
:1010400088EE93E0A0E0B0E080935C0290935D02B4
:10105000A0935E02B0935F028AE891E090935902F8
:101060008093580280ED91E0909365028093640232
:1010700084E192E0909367028093660285EC90E0B1
:10108000909369028093680284EC90E090936B02E5
:1010900080936A0280EC90E090936D0280936C02E2
:1010A00081EC90E090936F0280936E0282EC90E06E
:1010B000909371028093700286EC90E0909373029B
:1010C0008093720284E08093740283E080937502BF
:1010D00087E08093760285E08093770281E08093B9
:1010E00078020895CF93DF930E9476090E94F4025C
:1010F000CDE9D6E00E9424032097E1F30E949D06EB
:10110000F9CFCF92DF92EF92FF920F931F93CF937D
:10111000DF937C016B018A01C0E0D0E00FC0D601F3
:101120006D916D01D701ED91FC910190F081E02D61
:10113000C7010995C80FD91F0150104001151105AD
:1011400071F7CE01DF91CF911F910F91FF90EF903A
:10115000DF90CF900895CF93DF93EC016115710577
:1011600019F420E030E00FC0DB010D900020E9F71A
:101170001197A61BB70BE881F9810280F381E02D5E
:10118000AD0109959C01C901DF91CF9108950E949D
:10119000AB0808951F920F920FB60F9211242F9350
:1011A0003F938F939F93AF93BF9380917E029091D3
:1011B0007F02A0918002B09181023091820201965B
:1011C000A11DB11D232F2D5F2D3720F02D57019626
:1011D000A11DB11D2093820280937E0290937F0215
:1011E000A0938002B093810280917A0290917B0259
:1011F000A0917C02B0917D020196A11DB11D80934A
:101200007A0290937B02A0937C02B0937D02BF91FF
:10121000AF919F918F913F912F910F900FBE0F90A3
:101220001F9018958FB7F89420917E0230917F021D
:1012300040918002509181028FBFB901CA01089587
:101240009FB7F89420917A0230917B0240917C0202
:1012500050917D0286B5A89B06C08F3F21F02F5F7D
:101260003F4F4F4F5F4F9FBF542F432F322F2227A7
:10127000280F311D411D511D82E0220F331F441FD5
:10128000551F8A95D1F7B901CA010895EF92FF92CF
:101290000F931F93CF93DF937B018C010E94200952
:1012A000EB010EC00E9420096C1B7D0B685E734031
:1012B000C8F30894E108F10801091109C851DC4F8D
:1012C000E114F1040105110569F7DF91CF911F9138
:1012D0000F91FF90EF900895019739F0880F991FB3
:1012E000880F991F02970197F1F70895789484B5B4
:1012F000826084BD84B5816084BD85B5826085BD12
:1013000085B5816085BDEEE6F0E0808181608083F7
:10131000E1E8F0E0108280818260808380818160DA
:101320008083E0E8F0E0808181608083E1EBF0E0A1
:10133000808184608083E0EBF0E080818160808345
:10134000EAE7F0E08081846080838081826080832E
:101350008081816080838081806880831092C10059
:101360000895982F8E3008F09E50977080917501E7
:101370008295880F880F807C892B80937C008091D8
:101380007A00806480937A0080917A0086FDFCCF99
:101390002091780040917900942F80E030E0282B54
:1013A000392BC9010895CF93DF93482F50E0CA012C
:1013B00086569F4FFC0134914A575F4FFA01849142
:1013C000882369F190E0880F991FFC01E859FF4FCD
:1013D000A591B491FC01EE58FF4FC591D4916623BD
:1013E00051F42FB7F8948C91932F909589238C9377
:1013F000888189230BC0623061F42FB7F8948C91F7
:10140000932F909589238C938881832B88832FBF7A
:1014100006C09FB7F8948C91832B8C939FBFDF916C
:10142000CF910895833071F0843028F48130A1F099
:10143000823021F514C08630B1F08730D1F084308D
:10144000E9F404C0809180008F7703C08091800010
:101450008F7D80938000089584B58F7702C084B516
:101460008F7D84BD08958091B0008F778093B00008
:1014700008958091B0008F7D8093B0000895FF9211
:101480000F931F93F62E482F50E0CA0182559F4FAD
:10149000FC012491CA0186569F4FFC0114914A57C2
:1014A0005F4FFA0104910023C9F0222319F0822F23
:1014B0000E94120AE02FF0E0EE0FFF1FEE58FF4FE0
:1014C000A591B4919FB7F894FF2021F48C911095C9
:1014D000812302C08C91812B8C939FBF1F910F9110
:1014E000FF9008950F931F93CF93DF93EC018B012F
:1014F0006F5F7F4F888199810E949001009711F45E
:1015000080E005C0998388831B830A8381E0DF9193
:10151000CF911F910F910895CF93DF93EC018881B4
:101520009981892B29F08A819B818617970760F41E
:10153000CE010E94720A882341F08C819D81892B03
:1015400019F4E881F981108281E0DF91CF9108954B
:10155000CF93DF93EC0188819981009711F00E946D
:101560003801198218821D821C821B821A82DF9127
:10157000CF910895EF92FF920F931F93CF93DF9334
:10158000EC017B018A01BA010E948C0A882321F4B4
:10159000CE010E94A80A07C01D830C83888199810F
:1015A000B7010E946E02CE01DF91CF911F910F9182
:1015B000FF90EF900895CF93DF93EC01198218828A
:1015C0001B821A821D821C821E826115710551F0D8
:1015D000DB010D900020E9F71197A61BB70BAD01B9
:1015E0000E94BA0ADF91CF910895FC018081918118
:1015F0000E9438010895A1E21A2EAA1BBB1BFD010F
:101600000DC0AA1FBB1FEE1FFF1FA217B307E407E1
:10161000F50720F0A21BB30BE40BF50B661F771F39
:10162000881F991F1A9469F7609570958095909519
:101630009B01AC01BD01CF010895EE0FFF1F059086
:10164000F491E02D09942F923F924F925F926F9206
:101650007F928F929F92AF92BF92CF92DF92EF9242
:10166000FF920F931F93CF93DF93CDB7DEB7CA1BC3
:10167000DB0B0FB6F894DEBF0FBECDBF09942A88EE
:10168000398848885F846E847D848C849B84AA8496
:10169000B984C884DF80EE80FD800C811B81AA8123
:1016A000B981CE0FD11D0FB6F894DEBF0FBECDBFEE
:1016B000ED01089510E0C6ECD0E004C0FE010E94E8
:0E16C0001F0B2296C83CD107C9F7F894FFCF44
:1016CE00202020202020202020202020202020200C
:1016DE0020202020202020202020202020202020FC
:1016EE000000300053657269616C204D6F6E697435
:1016FE006F7220353736303020206279204D657478
:10170E006F64204E6F76616B2066726F6D20536C26
:10171E006F76656E696120616E6420613100524999
:10172E00474854004C454654005500440053002091
:10173E000087020000010000000003058108000080
:10174E0040001400540000000000DC0781087207FE
:06175E00A3078307CC077E
:00000001FF
