:100000000C9464000C948C000C948C000C948C0068
:100010000C948C000C948C000C948C000C948C0030
:100020000C948C000C948C000C948C000C948C0020
:100030000C948C000C948C000C948C000C948C0010
:100040000C9434090C948C000C94CC060C941A0774
:100050000C948C000C948C000C948C000C948C00F0
:100060000C948C000C948C000000000024002700ED
:100070002A0000000000250028002B0000000000DE
:1000800023002600290004040404040404040202DA
:100090000202020203030303030301020408102007
:1000A0004080010204081020010204081020000012
:1000B0000007000201000003040600000000000029
:1000C0000000BD028608B60211241FBECFEFD8E0A3
:1000D000DEBFCDBF11E0A0E0B1E0E2EAF7E102C08F
:1000E00005900D92AC39B107D9F712E0ACE9B1E057
:1000F00001C01D92A139B107E1F710E0C6ECD0E0D4
:1001000004C02297FE010E94890BC23CD107C9F7A7
:100110000E94DC080C94C40B0C940000CF93DF9376
:10012000BC018230910510F462E070E0A0918F0272
:10013000B0919002ED01E0E0F0E040E050E021C03D
:10014000888199818617970769F48A819B81309706
:1001500019F09383828304C09093900280938F025E
:10016000FE0134C06817790738F44115510519F0BC
:100170008417950708F4AC01FE018A819B819C01DC
:10018000E9012097E9F641155105A9F1CA01861B3D
:10019000970B049708F4BA01E0E0F0E02AC08D91D3
:1001A0009C91119784179507F9F46417750781F4EA
:1001B00012968D919C911397309719F093838283B7
:1001C00004C09093900280938F02FD0132964CC040
:1001D000CA01861B970BFD01E80FF91F619371930C
:1001E00002978D939C9340C0FD01828193819C0175
:1001F000D9011097A1F680918D0290918E02892BE2
:1002000041F4809176019091770190938E028093D2
:100210008D0240917801509179014115510541F4C9
:100220004DB75EB78091740190917501481B590BD1
:1002300020918D0230918E02CA01821B930B86178A
:10024000970780F0AB014E5F5F4F8417950750F022
:10025000420F531F50938E0240938D02F901619318
:10026000719302C0E0E0F0E0CF01DF91CF910895FB
:10027000CF93DF93009709F450C0EC0122971B82C3
:100280001A82A0918F02B0919002109709F140E07C
:1002900050E0AC17BD0708F1BB83AA83FE01219192
:1002A0003191E20FF31FAE17BF0779F48D919C9146
:1002B0001197280F391F2E5F3F4F398328831296DD
:1002C0008D919C9113979B838A834115510571F4FD
:1002D000D0939002C0938F0220C012968D919C9172
:1002E0001397AD01009711F0DC01D3CFFA01D3834E
:1002F000C28321913191E20FF31FCE17DF0769F41A
:1003000088819981280F391F2E5F3F4FFA01318371
:1003100020838A819B8193838283DF91CF9108958B
:10032000A0E0B0E0E6E9F1E00C948F0B6C010097DF
:1003300029F4CB010E948E006C01C1C08EEF882E83
:100340008FEF982E8C0C9D1C8601060F171F081529
:10035000190508F4B2C0F401A081B181A617B7074E
:10036000B8F0A530B10508F4AAC0CD0104978617EE
:10037000970708F4A4C01297A61BB70BF801A19326
:10038000B193D4016D937C93CF010E94380197C043
:100390007B01EA1AFB0AEEEFFFEFEE0EFF1E3601BD
:1003A0006A0E7B1EC0918F02D09190024424552486
:1003B000AA24BB244AC0C615D705E1F54881598156
:1003C0004E155F05B8F1CA0104978E159F05B0F46C
:1003D0001296A40FB51FF401B183A0832A813B813B
:1003E0004114510431F0D20113963C932E9312978D
:1003F00066C03093900220938F0261C08A819B81F6
:10040000F80193838283425050404E195F09518313
:1004100040834114510431F0D20113961C930E9382
:10042000129704C01093900200938F02F40171831D
:10043000608345C088819981A816B90608F45C01DB
:100440002E018A819B819C01E901209709F0B3CF9D
:1004500080918D0290918E0286159705E9F4A6167B
:10046000B706D0F42091780130917901211531053A
:1004700041F42DB73EB78091740190917501281B0E
:10048000390B02171307C8F410938E0200938D02E4
:10049000D4016D937C9313C0CB010E948E00EC01BC
:1004A000009759F0F40140815181B6010E94650224
:1004B000C6010E9438016E0102C0CC24DD24C601B1
:1004C000CDB7DEB7E0E10C94AB0BFB01DC0102C061
:1004D00001900D9241505040D8F70895FB01DC0186
:1004E00001900D920020E1F70895CF92EF920F93C3
:1004F0008130910549F0892B19F46F5F7F4F31F1FD
:100500000F91EF90CF9008956F5F7F4FC9F788EA02
:1005100091E068E049E024E005E056E0E52E37E0B0
:10052000C32E0E9492068DEB91E060E071E00E9484
:10053000450B84EC91E061E271E00E94450B8BEC8D
:1005400091E061E271E00E94450BDACF8BEC91E023
:100550000E945F0B84EC91E00E945F0B8DEB91E0B9
:100560000E945F0B0F91EF90CF90089580E090E094
:100570006FEF7FEF0E947502089581E090E06FEFCA
:100580007FEF0E947502089580E00E941B0A9093FD
:10059000A3018093A20127E0893092078CF4823373
:1005A000910594F08A3F91059CF021E0823C9207EE
:1005B00094F022E08A389207A4F08255934074F0B8
:1005C00025E030E0C901089520E030E0C901089538
:1005D00021E030E0F7CF22E030E0F4CF24E030E05B
:1005E000F1CF23E030E0EECF0F931F9308EA11E044
:1005F000C80160E142E020E00E94DC05C80160E043
:1006000040E00E94A505C80164E271E00E94310942
:10061000C8010E94890564EF71E080E090E00E94CB
:10062000B009C8010E94D405C80160E040E00E9402
:10063000A50582E692E040E052EC61E070E00E94A5
:1006400055071F910F910895EF92FF920F931F93FB
:10065000CF93DF930E947C097B018C0180919C01E8
:1006600090919D01A0919E01B0919F01A8019701D9
:10067000281B390B4A0B5B0B293C31054105510501
:1006800000F50E947C092091A4013091A5014091C0
:10069000A6015091A701621B730B840B950B6B3F56
:1006A000710581059105E8F483E690E09093A1013E
:1006B0008093A001DF91CF911F910F91FF90EF9058
:1006C000089582E692E00E94DC07892B09F0C1C000
:1006D000E0929C01F0929D0100939E0110939F0176
:1006E000D0CF0E94C4029093A1018093A0010E94E8
:1006F0007C096093A4017093A5018093A601909357
:10070000A7018091A0019091A1018330910509F486
:1007100083C0843091054CF18630910509F45EC0A8
:100720008730910509F441C0049721F688EA91E0E9
:100730000E94D40588EA91E066E671E00E943109E2
:10074000E0916202F09163020280F381E02D82E683
:1007500092E060E771E041E050E00995DF91CF91D0
:100760001F910F91FF90EF90089581309105D9F17D
:10077000823091050CF4DBC088EA91E00E94930579
:10078000E0916202F09163020280F381E02D82E643
:1007900092E064E671E041E050E00995DF91CF918D
:1007A0001F910F91FF90EF90089588EA91E00E94C9
:1007B0007705E0916202F09163020280F381E02DFF
:1007C00082E692E062E771E041E050E00995DF9156
:1007D000CF911F910F91FF90EF90089588EA91E0DB
:1007E0000E947705ADCF88EA91E00E948905E091EB
:1007F0006202F09163020280F381E02D82E692E0D2
:1008000062E671E041E050E00995DF91CF911F91E0
:100810000F91FF90EF90089588EA91E00E9477058C
:1008200088EA91E00E94D405E0916202F0916302AF
:100830000280F381E02D82E692E060E671E041E023
:1008400050E00995DF91CF911F910F91FF90EF90AC
:10085000089582E692E00E94DC079093D301809392
:10086000D201C1E0D0E082E692E00E94DC071816D7
:1008700019060CF02DCF8091D4019091D5010196ED
:100880009093D5018093D4018091D8019091D901A2
:1008900001969093D9018093D8018F709070892B25
:1008A000B1F48091D6019091D70101969093D70130
:1008B0008093D601029724F01092D7011092D601AE
:1008C00088EA91E060E04091D6010E94A50582E6A9
:1008D00092E00E940D08682F8D30F1F08C3069F0A5
:1008E00088EA91E00E946D0582E692E00E94DC07B2
:1008F000181619060CF4BFCFEBCE88EA91E060E041
:1009000041E00E94A5051092D9011092D801D09320
:10091000D701C093D601A7CF88EA91E060E040E01C
:100920000E94A5051092D9011092D8019CCF892B65
:1009300009F0C0CE88EA91E00E94810588EA91E042
:100940000E94D405E0916202F09163020280F3817B
:10095000E02D82E692E06EE571E041E050E009951D
:10096000DF91CF911F910F91FF90EF9008950F931A
:100970001F938C01FC01868160E00E94A90A81E03E
:1009800090E00E94D609F801868161E00E94A90AE0
:1009900081E090E00E94D609F801868160E00E9423
:1009A000A90A84E690E00E94D6091F910F9108954C
:1009B000CF92DF92EF92FF920F931F93CF93DF932B
:1009C000D82EC92E282F392FC9018C01C0E0D0E0C4
:1009D000E62EFF24F801878161E00E943D0AB701FD
:1009E0000C2E02C0759567950A94E2F76170F801C4
:1009F00087810E94A90A21960F5F1F4FC830D10539
:100A000049F78D2D9C2D0E94B704DF91CF911F9146
:100A10000F91FF90EF90DF90CF900895CF92DF92EB
:100A2000EF92FF920F931F93CF93DF93D82EC92E8F
:100A3000282F392FC9018C01C0E0D0E0E62EFF2419
:100A4000F801878161E00E943D0AB7010C2E02C0C7
:100A5000759567950A94E2F76170F80187810E94A5
:100A6000A90A21960F5F1F4FC430D10549F78D2D7C
:100A70009C2D0E94B704DF91CF911F910F91FF90A1
:100A8000EF90DF90CF9008951F93CF93DF93EC0109
:100A9000162F8C81642F0E94A90A8D818F3F19F037
:100AA00060E00E94A90A8F8584FF05C0CE01612FF6
:100AB0000E94D8040EC0612F70E084E075956795A0
:100AC0008A95E1F7CE010E940E05CE01612F0E94AA
:100AD0000E05DF91CF911F91089541E00E944405DA
:100AE00081E090E0089540E00E9444050895FC01F3
:100AF0006089862F8160808B6960CF010E947305B9
:100B00000895FC0160896E7F608B68600E947305A8
:100B10000895FC016089862F8260808B6A60CF0116
:100B20000E9473050895FC0160896D7F608B686089
:100B30000E9473050895FC016089862F8460808B74
:100B40006C60CF010E9473050895DF93CF93CDB7FA
:100B5000DEB728970FB6F894DEBF0FBECDBF9C015D
:100B6000FE013196A3E8B1E088E00D90019281503A
:100B7000E1F7F9018389481710F0482F4150E42F1D
:100B8000F0E0EE0FFF1FEC0FFD1F8181680F606822
:100B9000C9010E94730528960FB6F894DEBF0FBEF8
:100BA000CDBFCF91DF91089561E00E94730580ED84
:100BB00097E00E94D6090895CF93DF93EC0142306D
:100BC00018F08F8588608F874B8B1C8A222329F031
:100BD000413019F48F8584608F8780E593EC0E9403
:100BE000D6098C8160E00E94A90A8E8160E00E9493
:100BF000A90A8D818F3F19F060E00E94A90A6F85D4
:100C000064FD1DC0CE0163E00E940E0584E991E100
:100C10000E94D609CE0163E00E940E0584E991E1AD
:100C20000E94D609CE0163E00E940E0586E990E09D
:100C30000E94D609CE0162E00E940E0516C06062D5
:100C4000CE010E94730584E991E10E94D6096F8567
:100C50006062CE010E94730586E990E00E94D60989
:100C60006F856062CE010E9473056F856062CE0160
:100C70000E94730584E0888BCE010E949B05CE0103
:100C80000E94D40582E0898BCE0166E00E94730544
:100C9000DF91CF9108956F927F928F92AF92CF9212
:100CA000EF920F931F93DF93CF93CDB7DEB73C0145
:100CB000162F842FF301448325830683E782C086A1
:100CC000A18682869D8593879E8594879F8595873B
:100CD0009889968761E00E943D0AF30185818F3FE4
:100CE00019F061E00E943D0AF301868161E00E94F3
:100CF0003D0A112319F0F301178603C080E1F301C7
:100D00008787C30160E141E020E00E94DC05CF91CC
:100D1000DF911F910F91EF90CF90AF908F907F90C8
:100D20006F9008958F92AF92CF92EF920F931F938F
:100D3000CF93DF93DC01362F542F722F102FAE2C60
:100D40008C2C13961C921E9212978FE791E01196AD
:100D50009C938E9300D000D0EDB7FEB73196CDB7FF
:100D6000DEB71982118212821382CD0161E0432F16
:100D70002FEF052FE72EC12E0E944B060F900F90EC
:100D80000F900F90DF91CF911F910F91EF90CF9027
:100D9000AF908F90089508951F920F920FB60F9203
:100DA00011242F933F934F938F939F93EF93FF9330
:100DB0008091C00082FD1DC04091C60020911A02A2
:100DC00030911B022F5F3F4F2F73307080911C02B8
:100DD00090911D022817390771F0E0911A02F091E5
:100DE0001B02E652FE4F408330931B0220931A02EF
:100DF00002C08091C600FF91EF919F918F914F911A
:100E00003F912F910F900FBE0F901F901895E0917A
:100E10006E02F0916F02E05CFF4F81919191208111
:100E20003181821B930B8F739070892B11F00E947C
:100E3000CB0608951F920F920FB60F9211242F9395
:100E40003F938F939F93EF93FF9320915E02309196
:100E50005F0280916002909161022817390731F496
:100E60008091C1008F7D8093C10014C0E091600229
:100E7000F0916102E25EFD4F2081809160029091CD
:100E8000610201968F73907090936102809360026B
:100E90002093C600FF91EF919F918F913F912F91E9
:100EA0000F900FBE0F901F901895AF92BF92DF92D8
:100EB000EF92FF920F931F93CF93DF93EC017A0190
:100EC0008B01DD24403081EE580780E0680780E028
:100ED000780711F0DD24D39491E0A92EB12CEC8990
:100EE000FD89DD2069F0C50108A002C0880F991FA7
:100EF0000A94E2F7808360E079E08DE390E005C03A
:100F0000108260E874E88EE190E0A80197010E94E9
:100F1000650B2150304040405040569547953795DD
:100F2000279580E12030380720F0DD2011F0DD2406
:100F3000D6CFE889F9893083EA89FB89208319A211
:100F4000EE89FF89408121E030E0C9010C8C02C0AC
:100F5000880F991F0A94E2F7482B4083EE89FF8996
:100F60004081C9010D8C02C0880F991F0A94E2F7D5
:100F7000482B4083EE89FF894081C9010E8C02C055
:100F8000880F991F0A94E2F7482B4083EE89FF8966
:100F900080810F8C02C0220F331F0A94E2F7209544
:100FA00028232083DF91CF911F910F91FF90EF9025
:100FB000DF90BF90AF900895DC011C96ED91FC91FD
:100FC0001D97E05CFF4F2191319180819181281B19
:100FD000390B2F733070C9010895DC011C96ED9117
:100FE000FC911D97E05CFF4F20813181E054F0407F
:100FF000DF01AE5BBF4F8D919C9111972817390788
:1010000019F42FEF3FEF07C08D919C91E80FF91F66
:101010008081282F30E0C9010895DC011C96ED91F4
:10102000FC911D97E05CFF4F20813181E054F0403E
:10103000DF01AE5BBF4F8D919C9111972817390747
:1010400019F42FEF3FEF10C08D919C911197E80F8D
:10105000F91F20818D919C91119701968F7390704B
:1010600011969C938E9330E0C9010895DC0191960E
:101070008C919197882339F05496ED91FC91559776
:10108000808186FFF9CF91961C920895CF93DF93CC
:10109000EC01EE85FF85E05CFF4F20813181E0545B
:1010A000F0402F5F3F4F2F733070DF01AE5BBF4FBB
:1010B0008D919C91119728173907D1F3E05CFF4F70
:1010C00080819181E054F040E80FF91F6083EE8544
:1010D000FF85E05CFF4F31832083EE89FF8920810B
:1010E00081E090E00F8C02C0880F991F0A94E2F70C
:1010F000282B208381E089A3EC89FD89808180648D
:10110000808381E090E0DF91CF9108951092650295
:101110001092640288EE93E0A0E0B0E08093660253
:1011200090936702A0936802B09369028FE891E000
:1011300090936302809362028AED91E090936F0234
:1011400080936E028EE192E0909371028093700220
:1011500085EC90E0909373028093720284EC90E0AF
:10116000909375028093740280EC90E090937702E4
:101170008093760281EC90E09093790280937802DC
:1011800082EC90E090937B0280937A0286EC90E070
:1011900090937D0280937C0284E080937E0283E0C2
:1011A00080937F0287E08093800285E080938102B4
:1011B00081E0809382020895CF93DF930E94E0093B
:1011C0000E94F402C7E0D7E00E9424032097E1F3D5
:1011D0000E940707F9CFCF92DF92EF92FF920F9311
:1011E0001F93CF93DF937C016B018A01C0E0D0E0B5
:1011F0000FC0D6016D916D01D701ED91FC91019069
:10120000F081E02DC7010995C80FD91F015010408A
:101210000115110571F7CE01DF91CF911F910F914B
:10122000FF90EF90DF90CF900895CF93DF93EC0184
:101230006115710519F420E030E00FC0DB010D905D
:101240000020E9F71197A61BB70BE881F98102800E
:10125000F381E02DAD0109959C01C901DF91CF918A
:1012600008950E94150908951F920F920FB60F92CC
:1012700011242F933F938F939F93AF93BF938091AC
:10128000880290918902A0918A02B0918B023091DC
:101290008C020196A11DB11D232F2D5F2D3720F04B
:1012A0002D570196A11DB11D20938C0280938802B9
:1012B00090938902A0938A02B0938B02809184025A
:1012C00090918502A0918602B09187020196A11D9E
:1012D000B11D8093840290938502A0938602B093FF
:1012E0008702BF91AF919F918F913F912F910F9066
:1012F0000FBE0F901F9018958FB7F8942091880219
:101300003091890240918A0250918B028FBFB901BE
:10131000CA0108959FB7F894209184023091850204
:10132000409186025091870286B5A89B06C08F3FE8
:1013300021F02F5F3F4F4F4F5F4F9FBF542F432FE1
:10134000322F2227280F311D411D511D82E0220F0F
:10135000331F441F551F8A95D1F7B901CA0108955B
:10136000EF92FF920F931F93CF93DF937B018C013A
:101370000E948A09EB010EC00E948A096C1B7D0B3A
:10138000685E7340C8F30894E108F1080109110987
:10139000C851DC4FE114F1040105110569F7DF9133
:1013A000CF911F910F91FF90EF900895019739F021
:1013B000880F991F880F991F02970197F1F70895D9
:1013C000789484B5826084BD84B5816084BD85B520
:1013D000826085BD85B5816085BDEEE6F0E08081E7
:1013E00081608083E1E8F0E0108280818260808308
:1013F000808181608083E0E8F0E08081816080838B
:10140000E1EBF0E0808184608083E0EBF0E08081BC
:1014100081608083EAE7F0E080818460808380815E
:101420008260808380818160808380818068808306
:101430001092C1000895982F8E3008F09E5097703A
:1014400080917A018295880F880F807C892B809308
:101450007C0080917A00806480937A0080917A0089
:1014600086FDFCCF2091780040917900942F80E098
:1014700030E0282B392BC9010895CF93DF93482FF3
:1014800050E0CA0186569F4FFC0134914A575F4F86
:10149000FA018491882369F190E0880F991FFC017B
:1014A000E859FF4FA591B491FC01EE58FF4FC5914B
:1014B000D491662351F42FB7F8948C91932F909583
:1014C00089238C93888189230BC0623061F42FB704
:1014D000F8948C91932F909589238C938881832BFA
:1014E00088832FBF06C09FB7F8948C91832B8C9371
:1014F0009FBFDF91CF910895833071F0843028F43D
:101500008130A1F0823021F514C08630B1F08730EF
:10151000D1F08430E9F404C0809180008F7703C05B
:10152000809180008F7D80938000089584B58F77AF
:1015300002C084B58F7D84BD08958091B0008F77FF
:101540008093B00008958091B0008F7D8093B000AB
:101550000895FF920F931F93F62E482F50E0CA0173
:1015600082559F4FFC012491CA0186569F4FFC0172
:1015700014914A575F4FFA0104910023C9F02223C6
:1015800019F0822F0E947C0AE02FF0E0EE0FFF1F7F
:10159000EE58FF4FA591B4919FB7F894FF2021F426
:1015A0008C911095812302C08C91812B8C939FBFCD
:1015B0001F910F91FF9008950F931F93CF93DF9387
:1015C000EC018B016F5F7F4F888199810E949001B0
:1015D000009711F480E005C0998388831B830A83F8
:1015E00081E0DF91CF911F910F910895CF93DF9309
:1015F000EC0188819981892B29F08A819B8186174A
:10160000970760F4CE010E94DC0A882341F08C81A8
:101610009D81892B19F4E881F981108281E0DF91A5
:10162000CF910895CF93DF93EC0188819981009742
:1016300011F00E943801198218821D821C821B82BF
:101640001A82DF91CF910895EF92FF920F931F932B
:10165000CF93DF93EC017B018A01BA010E94F60A65
:10166000882321F4CE010E94120B07C01D830C8336
:1016700088819981B7010E946E02CE01DF91CF91DE
:101680001F910F91FF90EF900895CF93DF93EC019E
:10169000198218821B821A821D821C821E82611589
:1016A000710551F0DB010D900020E9F71197A61BA1
:1016B000B70BAD010E94240BDF91CF910895FC017F
:1016C000808191810E9438010895A1E21A2EAA1BFF
:1016D000BB1BFD010DC0AA1FBB1FEE1FFF1FA217E2
:1016E000B307E407F50720F0A21BB30BE40BF50BDF
:1016F000661F771F881F991F1A9469F76095709568
:10170000809590959B01AC01BD01CF010895EE0F2E
:10171000FF1F0590F491E02D09942F923F924F9274
:101720005F926F927F928F929F92AF92BF92CF9271
:10173000DF92EF92FF920F931F93CF93DF93CDB77A
:10174000DEB7CA1BDB0B0FB6F894DEBF0FBECDBFF2
:1017500009942A88398848885F846E847D848C84C3
:101760009B84AA84B984C884DF80EE80FD800C81CC
:101770001B81AA81B981CE0FD11D0FB6F894DEBFAF
:101780000FBECDBFED01089510E0C6ECD0E004C05F
:10179000FE010E94890B2296C83CD107C9F7F89434
:0217A000FFCF79
:1017A2002020202020202020202020202020202037
:1017B2002020202020202020202020202020202027
:1017C2000000300053657269616C204D6F6E697460
:1017D2006F7220353736303020206279204D6574A3
:1017E2006F64204E6F76616B2066726F6D20536C52
:1017F2006F76656E696120616E642061310052000E
:101802004C0055004400444952454354494F4E0050
:101812004900460020009102000001000000006D16
:1018220005EB0800004000140054000000000046D0
:0C18320008EB08DC070D08ED0736080085
:00000001FF
