:100000000C9462000C948A000C948A000C948A0070
:100010000C948A000C948A000C948A000C948A0038
:100020000C948A000C948A000C948A000C948A0028
:100030000C948A000C948A000C948A000C948A0018
:100040000C94EC0C0C948A000C9479080C94C7085E
:100050000C948A000C948A000C948A000C948A00F8
:100060000C948A000C948A000000000024002700F1
:100070002A0000000000250028002B0000000000DE
:1000800023002600290004040404040404040202DA
:100090000202020203030303030301020408102007
:1000A0004080010204081020010204081020000012
:1000B0000007000201000003040600000000000029
:1000C0000000330A11241FBECFEFD8E0DEBFCDBF42
:1000D00011E0A0E0B1E0E8EAF5E202C005900D927F
:1000E000AA3DB107D9F712E0AAEDB1E001C01D9217
:1000F000AD3CB107E1F710E0C4ECD0E004C02297BA
:10010000FE010E949712C23CD107C9F70E94890ADA
:100110000C94D2120C940000CF93DF93BC01823078
:10012000910510F462E070E0A091CB02B091CC0296
:10013000ED01E0E0F0E040E050E021C088819981ED
:100140008617970769F48A819B81309719F093830A
:10015000828304C09093CC028093CB02FE0134C012
:100160006817790738F44115510519F08417950778
:1001700008F4AC01FE018A819B819C01E901209772
:10018000E9F641155105A9F1CA01861B970B0497A1
:1001900008F4BA01E0E0F0E02AC08D919C9111973B
:1001A00084179507F9F46417750781F412968D91F9
:1001B0009C911397309719F09383828304C0909396
:1001C000CC028093CB02FD0132964CC0CA01861B43
:1001D000970BFD01E80FF91F6193719302978D93BF
:1001E0009C9340C0FD01828193819C01D9011097AD
:1001F000A1F68091C9029091CA02892B41F48091A5
:10020000BA019091BB019093CA028093C9024091B8
:10021000BC015091BD014115510541F44DB75EB788
:100220008091B8019091B901481B590B2091C902E6
:100230003091CA02CA01821B930B8617970780F080
:10024000AB014E5F5F4F8417950750F0420F531F6D
:100250005093CA024093C902F9016193719302C09D
:10026000E0E0F0E0CF01DF91CF910895CF93DF93ED
:10027000009709F450C0EC0122971B821A82A091CA
:10028000CB02B091CC02109709F140E050E0AC17DE
:10029000BD0708F1BB83AA83FE0121913191E20FD2
:1002A000F31FAE17BF0779F48D919C911197280F1A
:1002B000391F2E5F3F4F3983288312968D919C9171
:1002C00013979B838A834115510571F4D093CC0217
:1002D000C093CB0220C012968D919C911397AD01D3
:1002E000009711F0DC01D3CFFA01D383C2832191AF
:1002F0003191E20FF31FCE17DF0769F488819981EE
:10030000280F391F2E5F3F4FFA01318320838A81E6
:100310009B8193838283DF91CF910895A0E0B0E029
:10032000E4E9F1E00C949D126C01009729F4CB01F3
:100330000E948C006C01C1C08EEF882E8FEF982E2A
:100340008C0C9D1C8601060F171F0815190508F453
:10035000B2C0F401A081B181A617B707B8F0A530EB
:10036000B10508F4AAC0CD0104978617970708F4D1
:10037000A4C01297A61BB70BF801A193B193D401A7
:100380006D937C93CF010E94360197C07B01EA1ADE
:10039000FB0AEEEFFFEFEE0EFF1E36016A0E7B1E2C
:1003A000C091CB02D091CC0244245524AA24BB2472
:1003B0004AC0C615D705E1F5488159814E155F053C
:1003C000B8F1CA0104978E159F05B0F41296A40FD8
:1003D000B51FF401B183A0832A813B8141145104EC
:1003E00031F0D20113963C932E93129766C030934E
:1003F000CC022093CB0261C08A819B81F801938358
:100400008283425050404E195F095183408341140A
:10041000510431F0D20113961C930E93129704C02D
:100420001093CC020093CB02F4017183608345C02A
:1004300088819981A816B90608F45C012E018A8189
:100440009B819C01E901209709F0B3CF8091C902FB
:100450009091CA0286159705E9F4A616B706D0F45E
:100460002091BC013091BD012115310541F42DB71A
:100470003EB78091B8019091B901281B390B021742
:100480001307C8F41093CA020093C902D4016D93F4
:100490007C9313C0CB010E948C00EC01009759F0B3
:1004A000F40140815181B6010E946302C6010E949D
:1004B00036016E0102C0CC24DD24C601CDB7DEB703
:1004C000E0E10C94B912FB01DC0102C001900D9235
:1004D00041505040D8F70895FB01DC018D91019007
:1004E00080190110D9F3990B0895FB01DC010190EB
:1004F0000D920020E1F708955F926F927F928F92A4
:100500009F92AF92BF92CF92DF92EF92FF920F93A2
:100510001F93582E79018A010E94420D3B014C0124
:100520008091DE019091DF01A091E001B091E101A5
:1005300064015301A81AB90ACA0ADB0AC801B70143
:1005400024E630E040E050E00E9439126A157B0555
:100550008C059D0510F080E028C0852D61E00E948B
:100560003E0E82E090E00E94680D852D60E00E94C2
:100570003E0E80910C0290910D02A0910E02B0915E
:100580000F020196A11DB11D80930C0290930D02E4
:10059000A0930E02B0930F026092DE017092DF0111
:1005A0008092E0019092E10181E01F910F91FF9014
:1005B000EF90DF90CF90BF90AF909F908F907F9003
:1005C0006F905F900895CF92DF92EF92FF920F931A
:1005D0001F930EE912E0C80160E071E00E94CF0BAA
:1005E00095E1E92E92E0F92EC70161E070E00E94EA
:1005F0006508682F70E068537F4FC8014AE050E0FB
:100600000E94BC0B82E0C82E81E0D82EC801B60142
:100610000E94CF0BC70162E070E00E946508682F5E
:10062000C8014AE050E00E946A0BC801B6010E946E
:10063000CF0BC70163E070E00E946508682FC80116
:100640004AE050E00E946A0BC80164E071E00E9439
:10065000CF0B1F910F91FF90EF90DF90CF900895F7
:100660006F927F928F929F92AF92BF92CF92DF92C2
:10067000EF92FF920F931F93DF93CF93CDB7DEB727
:10068000C256D0400FB6F894DEBF0FBECDBF0E9459
:10069000340D3B014C0189E060E00E943E0E8091E8
:1006A000E6019091E701A091E801B091E901A40170
:1006B0009301281B390B4A0B5B0B25313105410592
:1006C000510508F485C26092E6017092E7018092BC
:1006D000E8019092E9018E010F5F1F4FC80167E0AA
:1006E00071E00E94FA0F08C08EE992E00E94BA09F8
:1006F000682FC8010E94B40F8EE992E00E94890918
:10070000892B91F7C80167E071E00E94FB0E8823F6
:1007100029F48EE992E0B8010E94B90C8E01085FBD
:100720001F4FC80168E071E00E94FA0F7E01089433
:10073000E11CF11CC701B8010E941E0F892B11F4A6
:1007400011E014C08E01015F1F4FC8016EE071E01F
:100750000E94FA0FC701B8010E941E0F10E0892BFA
:1007600009F411E0CE010F960E941410CE010896F4
:100770000E941410112309F44DC08EE992E060E14B
:1007800071E00E94CF0B85E192E061E070E00E9491
:10079000650890E088539F4F9093C5018093C401F2
:1007A00085E192E062E070E00E94650890E0A0E0E0
:1007B000B0E08093080290930902A0930A02B093DC
:1007C0000B0285E192E063E070E00E94650890E032
:1007D0009093BF018093BE01019721F484E061E012
:1007E0000E943E0E8091BE019091BF01892B21F4A1
:1007F00084E060E00E943E0E0E94E3028EE992E0F7
:1008000064E071E00E94CF0B8091060291E089279D
:10081000809306028E010A5E1F4FC8016EE171E0EF
:100820000E94FA0F7E010894E11CF11CC701B80177
:100830000E941E0F892B11F411E028C08E01035E67
:100840001F4FC80163E271E00E94FA0FC701B801AF
:100850000E941E0F892B11F411E014C08E010C5D53
:100860001F4FC80165E271E00E94FA0FC701B8018D
:100870000E941E0F10E0892B09F411E0CE0184962E
:100880000E941410CE014D960E941410CE0146967F
:100890000E941410112339F18EE992E067E271E0B1
:1008A0000E94CF0B4091C401485C85E192E061E079
:1008B00070E00E946C0885E192E062E070E0409197
:1008C00008020E946C0885E192E063E070E04091CC
:1008D000BE010E946C080E94E3028EE992E064E08F
:1008E00071E00E94CF0B8E01055D1F4FC80166E3CA
:1008F00071E00E94FA0FCE010196B8010E941E0F0E
:100900007C01C8010E941410EF2859F58091C401A0
:100910009091C5012091C6013091C701821B930BB4
:100920009093C5018093C4010B9730F48AE090E066
:100930009093C5018093C4018EE992E06CE00E941F
:10094000C20A6091C4017091C5018EE992E04AE04B
:1009500050E00E94590B8EE992E068E371E00E943A
:10096000CF0B8E010E5C1F4FC8016AE371E00E943D
:10097000FA0FCE010196B8010E941E0F7C01C8013A
:100980000E941410EF2861F58091C6019091C70173
:100990002091C4013091C501820F931F9093C5012E
:1009A0008093C4018057974130F080E797E190939E
:1009B000C5018093C4018EE992E06CE00E94C20AF6
:1009C0006091C4017091C5018EE992E04AE050E067
:1009D0000E94590B8EE992E068E371E00E94CF0B10
:1009E0008E01075C1F4FC8016CE371E00E94FA0F93
:1009F000CE010196B8010E941E0F7C01C8010E9421
:100A00001410EF2871F58EE992E06EE371E00E9418
:100A1000CF0B90E080911402882309F491E0909329
:100A20001402992331F480E293E09093C101809302
:100A3000C00180911402813021F41092C101109202
:100A4000C00185E00E94710E60E0892B09F461E02D
:100A500085E00E943E0E8EE992E068E371E00E941C
:100A6000CF0B8E01005C1F4FC80163E471E00E9450
:100A7000FA0FCE010196B8010E941E0F7C01C80139
:100A80000E941410EF2881F58091BE019091BF0162
:100A90008130910539F41092BF011092BE0184E0BB
:100AA00060E00AC0892B51F481E090E09093BF018F
:100AB0008093BE0184E061E00E943E0E8EE992E0E8
:100AC00065E471E00E94CF0B6091BE017091BF019F
:100AD0008EE992E04AE050E00E94BC0B8EE992E081
:100AE00068E371E00E94CF0B8E01095B1F4FC801C4
:100AF00060E571E00E94FA0FCE010196B8010E94F4
:100B00001E0F7C01C8010E941410EF2811F40E94EE
:100B1000E3028E01025B1F4FC80162E571E00E9493
:100B2000FA0FCE010196B8010E941E0F7C01C80188
:100B30000E941410EF2819F481E0809307028E01BF
:100B40000B5A1F4FC80164E571E00E94FA0FCE01F5
:100B50000196B8010E941E0F7C01C8010E9414106A
:100B6000EF2831F48091060291E0892780930602F4
:100B70008E01045A1F4FC80166E571E00E94FA0F0A
:100B8000CE010196B8010E941E0F7C01C8010E948F
:100B90001410EF28C9F48091C6019091C701019704
:100BA00019F48AE090E002C081E090E09093C701E0
:100BB0008093C6016091C6017091C7018EE992E0F1
:100BC0004AE050E00E94590BCE0101960E94141099
:100BD00080910602882309F485C08091E2019091FA
:100BE000E301A091E401B091E501A4019301281B68
:100BF000390B4A0B5B0BDA01C90189559240A040C1
:100C0000B04008F46FC081E00E94AD0D8FE00E94FB
:100C1000B00D9C019093C3018093C20100D000D01D
:100C200040E050E085E090E0A0E0B0E0EDB7FEB736
:100C300081839283A383B483CA01B90120E030E0A9
:100C400040E050E0FFEFEF2EF3E0FF2E012D112DDD
:100C5000E1E0AE2EB12CC12CD12C0E94A10E9B0143
:100C6000AC0120930202309303024093040250939C
:100C70000502DA01C90162E0880F991FAA1FBB1F94
:100C80006A95D1F7820F931FA41FB51F9093C701D8
:100C90008093C6010F900F900F900F908EE992E015
:100CA00068E571E00E94CF0B6091C6017091C701A9
:100CB0008EE992E04AE050E00E94590B8EE992E002
:100CC00069E671E00E94CF0B8EE992E06BE671E07D
:100CD0000E94CF0B6092E2017092E3018092E401E6
:100CE0009092E5016091C4017091C50180E090E0AF
:100CF0000E941C1120E030E040E752E40E94831083
:100D00002CE636EC42E95EE30E9483109B01AC01C5
:100D100060E070E48CE196E40E9483106B017C013A
:100D20000E94420D2091EE013091EF014091F001BF
:100D30005091F101621B730B840B950B6093F201D0
:100D40007093F3018093F4019093F5010E94420D9A
:100D50006093EA017093EB018093EC019093ED01B5
:100D6000C701B6010E94F0109B01AC010091BE01C9
:100D70001091BF0183E090E064E070E00E947C028B
:100D8000182F0E94420D2091EA013091EB01409111
:100D9000EC015091ED01621B730B840B950B60937A
:100DA000F6017093F7018093F8019093F9011123F4
:100DB00009F463C00E94420D6093EE017093EF014D
:100DC0008093F0019093F10180910702882309F448
:100DD00054C08EE992E06EE671E00E94CF0B8EE97E
:100DE00092E0B701A60122E030E00E94B60C8EE945
:100DF00092E06BE771E00E94CF0B6091C4017091AB
:100E0000C5018EE992E04AE050E00E94590B8EE95C
:100E100092E062E871E00E94CF0B4091F6015091A0
:100E2000F7016091F8017091F9018EE992E02AE0F2
:100E300030E00E944A0B8EE992E067E871E00E9480
:100E4000CF0B4091F2015091F3016091F401709148
:100E5000F5018EE992E02AE030E00E944A0B8EE92B
:100E600092E06DE871E00E94CF0B8EE992E068E3BA
:100E700071E00E94CF0B109207028091DA019091ED
:100E8000DB01A091DC01B091DD01A4019301281BDD
:100E9000390B4A0B5B0BDA01C9018A5E9340A04013
:100EA000B04008F481C089E061E00E943E0E8EE906
:100EB00092E063E971E00E94CF0B8EE992E0B70106
:100EC000A60120E030E00E94B60C8EE992E067E9CE
:100ED00071E00E94CF0B80910C0290910D02A091C5
:100EE0000E02B0910F0220911002309111027C018C
:100EF000E21AF30A8093100290931102A093120257
:100F0000B09313028EE992E06BE971E00E94CF0B7F
:100F10008EE992E0B7014AE050E00E94590B8EE959
:100F200092E067E071E00E94CF0B8EE992E06CE006
:100F30000E94C20A8EE992E06EE971E00E94CF0B36
:100F400000E010E0C801B7010E941C112CE636EC4D
:100F500042E95EE30E94D21120E030E040E752E433
:100F60000E94D21120E030E040E251E40E94831060
:100F7000AB01BC018EE992E021E030E00E94B60CAA
:100F80008EE992E063EA71E00E94CF0B8EE992E075
:100F900068E371E00E94CF0B6092DA017092DB018E
:100FA0008092DC019092DD01CE59DF4F0FB6F894AC
:100FB000DEBF0FBECDBFCF91DF911F910F91FF908C
:100FC000EF90DF90CF90BF90AF909F908F907F90E9
:100FD0006F90089583E061E00E94D20D84E061E0AB
:100FE0000E94D20D85E061E00E94D20D89E061E0AF
:100FF0000E94D20D82E061E00E94D20D87E060E0A5
:101000000E94D20D88E060E00E94D20D85E060E091
:101010000E943E0E8EE992E040E052EC61E070E00A
:101020000E9402090E94340D6093FA017093FB0143
:101030008093FC019093FD011092FE011092FF013C
:10104000109200021092010285E192E061E070E0EE
:101050000E94650890E088539F4F9093C50180934C
:10106000C40185E192E062E070E00E94650890E0D2
:10107000A0E0B0E08093080290930902A0930A02D6
:10108000B0930B0285E192E063E070E00E94650896
:1010900090E09093BF018093BE01019721F484E01A
:1010A00061E00E943E0E8091BE019091BF01892BAC
:1010B00021F484E060E00E943E0E84E06091BE0175
:1010C0000E943E0E0E94E3020895F999FECF72BD80
:1010D00061BDF89A80B50895F999FECF1FBA72BD27
:1010E00061BD40BD0FB6F894FA9AF99A0FBE089503
:1010F00008951F920F920FB60F9211242F933F93D2
:101100004F938F939F93EF93FF938091C00082FD45
:101110001DC04091C60020915602309157022F5FAA
:101120003F4F2F73307080915802909159022817C9
:10113000390771F0E0915602F0915702EA5EFD4FD7
:101140004083309357022093560202C08091C6001C
:10115000FF91EF919F918F914F913F912F910F9020
:101160000FBE0F901F901895E091AA02F091AB026C
:10117000E05CFF4F8191919120813181821B930B23
:101180008F739070892B11F00E94780808951F9238
:101190000F920FB60F9211242F933F938F939F932B
:1011A000EF93FF9320919A0230919B0280919C02D1
:1011B00090919D022817390731F48091C1008F7DED
:1011C0008093C10014C0E0919C02F0919D02E65A08
:1011D000FD4F208180919C0290919D0201968F731A
:1011E000907090939D0280939C022093C600FF9183
:1011F000EF919F918F913F912F910F900FBE0F9084
:101200001F901895AF92BF92DF92EF92FF920F93CB
:101210001F93CF93DF93EC017A018B01DD244030E3
:1012200081EE580780E0680780E0780711F0DD2440
:10123000D39491E0A92EB12CEC89FD89DD2069F0D1
:10124000C50108A002C0880F991F0A94E2F78083A5
:1012500060E079E08DE390E005C0108260E874E81A
:101260008EE190E0A80197010E9458122150304071
:1012700040405040569547953795279580E120305E
:10128000380720F0DD2011F0DD24D6CFE889F98978
:101290003083EA89FB89208319A2EE89FF89408186
:1012A00021E030E0C9010C8C02C0880F991F0A941C
:1012B000E2F7482B4083EE89FF894081C9010D8CFC
:1012C00002C0880F991F0A94E2F7482B4083EE89E9
:1012D000FF894081C9010E8C02C0880F991F0A94B2
:1012E000E2F7482B4083EE89FF8980810F8C02C092
:1012F000220F331F0A94E2F7209528232083DF91E1
:10130000CF911F910F91FF90EF90DF90BF90AF9022
:101310000895DC011C96ED91FC911D97E05CFF4F58
:101320002191319180819181281B390B2F7330706D
:10133000C9010895DC011C96ED91FC911D97E05CBC
:10134000FF4F20813181E054F040DF01AE5BBF4FA1
:101350008D919C9111972817390719F42FEF3FEFC2
:1013600007C08D919C91E80FF91F8081282F30E0F4
:10137000C9010895DC011C96ED91FC911D97E05C7C
:10138000FF4F20813181E054F040DF01AE5BBF4F61
:101390008D919C9111972817390719F42FEF3FEF82
:1013A00010C08D919C911197E80FF91F20818D91AC
:1013B0009C91119701968F73907011969C938E93C8
:1013C00030E0C9010895DC0191968C9191978823B2
:1013D00039F05496ED91FC915597808186FFF9CFB5
:1013E00091961C920895CF93DF93EC01EE85FF85D3
:1013F000E05CFF4F20813181E054F0402F5F3F4F90
:101400002F733070DF01AE5BBF4F8D919C911197B0
:1014100028173907D1F3E05CFF4F80819181E054B8
:10142000F040E80FF91F6083EE85FF85E05CFF4F19
:1014300031832083EE89FF89208181E090E00F8C49
:1014400002C0880F991F0A94E2F7282B208381E0BD
:1014500089A3EC89FD8980818064808381E090E0AC
:10146000DF91CF9108951092A1021092A00288EE10
:1014700093E0A0E0B0E08093A2029093A302A09337
:10148000A402B093A5028DEC91E090939F0280930B
:101490009E0286E192E09093AB028093AA028AE5D5
:1014A00092E09093AD028093AC0285EC90E0909333
:1014B000AF028093AE0284EC90E09093B1028093EF
:1014C000B00280EC90E09093B3028093B20281EC82
:1014D00090E09093B5028093B40282EC90E09093F8
:1014E000B7028093B60286EC90E09093B9028093A5
:1014F000B80284E08093BA0283E08093BB0287E065
:101500008093BC0285E08093BD0281E08093BE029F
:101510000895CF93DF930E94720D0E94EA07C4EBF7
:10152000D8E00E9430032097E1F30E94B408F9CF7D
:10153000CF92DF92EF92FF920F931F93CF93DF939F
:101540007C016B018A01C0E0D0E00FC0D6016D9133
:101550006D01D701ED91FC910190F081E02DC70163
:101560000995C80FD91F015010400115110571F7D9
:10157000CE01DF91CF911F910F91FF90EF90DF90FF
:10158000CF900895DC01ED91FC910190F081E02D68
:1015900009950895CF93DF93EC016115710519F456
:1015A00020E030E00FC0DB010D900020E9F711973B
:1015B000A61BB70BE881F9810280F381E02DAD0114
:1015C00009959C01C901DF91CF9108954F925F92D7
:1015D0007F928F929F92AF92BF92CF92DF92EF92C3
:1015E000FF920F931F93DF93CF93CDB7DEB7A197F1
:1015F0000FB6F894DEBF0FBECDBF2C01742ECB0109
:10160000223008F42AE019A231E2C32ED12CCC0EEC
:10161000DD1E822E9924AA24BB24672D752FA501D7
:1016200094010E94581279018A01C801B701A501ED
:1016300094010E943912472D461B0894C108D10815
:101640004A3014F4405D01C0495CF6014083E11466
:10165000F1040105110521F07E2C5F2DC801DDCFBD
:10166000C201B6010E94CA0AA1960FB6F894DEBF65
:101670000FBECDBFCF91DF911F910F91FF90EF90E3
:10168000DF90CF90BF90AF909F908F907F905F90B2
:101690004F900895DC012115310541F4ED91FC9145
:1016A0000190F081E02D642F099508950E94E60ACB
:1016B0000895EF92FF920F931F939A017B0100E030
:1016C00010E0B801A7010E944A0B1F910F91FF90F3
:1016D000EF900895EF92FF920F931F939A01E62ED9
:1016E000FF2400E010E0B801A7010E944A0B1F91FF
:1016F0000F91FF90EF900895CF92DF92EF92FF92BB
:101700000F931F93CF93DF93EC016A017B012115A7
:10171000310541F4E881F9810190F081E02D642FD9
:1017200009951FC02A303105D1F477FF17C0E88131
:10173000F9810190F081E02D6DE209958C0144273B
:101740005527BA014C195D096E097F09CE012AE0BF
:101750000E94E60A9801280F391F04C02AE00E945F
:10176000E60A9C01C901DF91CF911F910F91FF9073
:10177000EF90DF90CF900895EF92FF920F931F9319
:101780007B019A010027F7FC0095102FB801A701F3
:101790000E947C0B1F910F91FF90EF9008950E9483
:1017A000CA0A08957F928F929F92AF92BF92CF9272
:1017B000DF92EF92FF920F931F93CF93DF934C0131
:1017C0007A018B01722ECB01BA01A80197010E9408
:1017D0003512882321F0C4016AEA71E021C0C0E01B
:1017E000D0E057016801E894D7F8C601B5012FEFA2
:1017F0003FEF4FE75FE70E943512882351F4C6019F
:10180000B5012FEF3FEF4FE75FE70E947F101816FB
:1018100014F0C1E0D0E0219739F0C4016EEA71E024
:101820000E94CA0AEC0193C0C801B7012FEF3FEF35
:101830004FE75FE40E94CE11181654F0C801B701BB
:101840002FEF3FEF4FE75FEC0E947F10882324F4D7
:10185000C40162EB71E0E4CFC801B70120E030E0E1
:1018600040E050E00E947F1087FD03C0C0E0D0E060
:101870000EC0D401ED91FC910190F081E02DC401E6
:101880006DE20995EC0117FB109517F9109520E012
:1018900030E040E05FE3DD240BC0CA01B90120E085
:1018A00030E040E251E40E9483109B01AC01D394EC
:1018B000D71498F3C801B7010E941B105B016C019B
:1018C0000E94F0107B018C01C401B801A7012AE03D
:1018D00030E00E944A0BC80FD91F772039F0C401AD
:1018E00066EB71E00E94CA0AC80FD91FC801B70190
:1018F0000E941C119B01AC01C601B5010E941A1087
:1019000024C020E030E040E251E40E94D2117B018B
:101910008C010E94EB105B016C01CC24B7FCC094DD
:10192000DC2CC401B601A5012AE030E00E947C0B4A
:10193000C80FD91FC601B5010E941E119B01AC0141
:10194000C801B7010E941A107A947720D1F6CE010F
:10195000DF91CF911F910F91FF90EF90DF90CF908B
:10196000BF90AF909F908F907F9008950E94D20B70
:101970000895AF92BF92CF92DF92EF92FF920F93B2
:101980001F93CF93DF935C016B01EE24FF24C0E033
:10199000D0E010C0D501ED91FC9100811181C6010C
:1019A000BE010E94EA0E682FC501F8010995E80EF4
:1019B000F91E2196F60184819581C817D90750F345
:1019C000C701DF91CF911F910F91FF90EF90DF90B2
:1019D000CF90BF90AF9008951F920F920FB60F92C5
:1019E00011242F933F938F939F93AF93BF93809135
:1019F000C4029091C502A091C602B091C702309175
:101A0000C8020196A11DB11D232F2D5F2D3720F097
:101A10002D570196A11DB11D2093C8028093C402C9
:101A20009093C502A093C602B093C7028091C002F2
:101A30009091C102A091C202B091C3020196A11D72
:101A4000B11D8093C0029093C102A093C202B093D3
:101A5000C302BF91AF919F918F913F912F910F90B2
:101A60000FBE0F901F9018958FB7F8942091C40265
:101A70003091C5024091C6025091C7028FBFB90193
:101A8000CA0108959FB7F8942091C0023091C10215
:101A90004091C2025091C30286B5A89B06C08F3FF9
:101AA00021F02F5F3F4F4F4F5F4F9FBF542F432F6A
:101AB000322F2227280F311D411D511D82E0220F98
:101AC000331F441F551F8A95D1F7B901CA010895E4
:101AD000019739F0880F991F880F991F0297019776
:101AE000F1F70895789484B5826084BD84B58160EF
:101AF00084BD85B5826085BD85B5816085BDEEE616
:101B0000F0E0808181608083E1E8F0E010828081F4
:101B100082608083808181608083E0E8F0E0808162
:101B200081608083E1EBF0E0808184608083E0EB82
:101B3000F0E0808181608083EAE7F0E0808184606A
:101B400080838081826080838081816080838081C6
:101B5000806880831092C10008958093C801089521
:101B6000982F8E3008F09E5097708091C801829512
:101B7000880F880F807C892B80937C0080917A006D
:101B8000806480937A0080917A0086FDFCCF20915A
:101B9000780040917900942F80E030E0282B392B99
:101BA000C9010895CF93DF93482F50E0CA018656AC
:101BB0009F4FFC0134914A575F4FFA01849188236B
:101BC00069F190E0880F991FFC01E859FF4FA5913A
:101BD000B491FC01EE58FF4FC591D491662351F4A6
:101BE0002FB7F8948C91932F909589238C938881AB
:101BF00089230BC0623061F42FB7F8948C91932F36
:101C0000909589238C938881832B88832FBF06C06E
:101C10009FB7F8948C91832B8C939FBFDF91CF91CA
:101C20000895833071F0843028F48130A1F082303F
:101C300021F514C08630B1F08730D1F08430E9F45A
:101C400004C0809180008F7703C0809180008F7DD9
:101C500080938000089584B58F7702C084B58F7D0E
:101C600084BD08958091B0008F778093B00008956F
:101C70008091B0008F7D8093B0000895FF920F9304
:101C80001F93F62E482F50E0CA0182559F4FFC014A
:101C90002491CA0186569F4FFC0114914A575F4F09
:101CA000FA0104910023C9F0222319F0822F0E9427
:101CB000110EE02FF0E0EE0FFF1FEE58FF4FA59141
:101CC000B4919FB7F894FF2021F48C911095812353
:101CD00002C08C91812B8C939FBF1F910F91FF901D
:101CE00008950F931F93482F50E0CA0182559F4FCC
:101CF000FC012491CA0186569F4FFC0104914A576A
:101D00005F4FFA011491112319F420E030E015C05F
:101D1000222319F0822F0E94110E812F90E0880F4C
:101D2000991F84589F4FFC01A591B4918C9120E09C
:101D300030E0802311F021E030E0C9011F910F91C4
:101D400008952F923F924F925F926F927F928F925F
:101D50009F92AF92BF92CF92DF92EF92FF920F933A
:101D60001F93DF93CF93CDB7DEB73B014C01190131
:101D70002A016D897E898F89988D6A197B098C0962
:101D80009D09621A730A840A950AA40193010E94AC
:101D90003912E218F30804091509A80197010E94F5
:101DA0007A122A0D3B1D4C1D5D1DB901CA01CF9150
:101DB000DF911F910F91FF90EF90DF90CF90BF9038
:101DC000AF909F908F907F906F905F904F903F90DB
:101DD0002F900895FC01848195816817790748F454
:101DE0000190F081E02D309721F0E60FF71F808100
:101DF000089580E00895DC01FB0114968D919C917B
:101E00001597892B31F461157105A9F090E0808157
:101E100008C00D90BC91A02D6115710529F490E0CA
:101E20008C91882349F407C0CD010E946C029C016B
:101E300090E0232B09F491E0892F0895CF93DF934D
:101E40009C01FB01EC01A881B981109729F0608108
:101E5000718161157105D1F4C081D181209759F04C
:101E600084819581892B39F0888190E0222733275E
:101E7000281B390B12C0109771F0F90184819581EC
:101E8000892B49F08C91282F30E007C0CD010E94AA
:101E90006C029C0102C020E030E0C901DF91CF91CB
:101EA00008950F931F93CF93DF93EC018B016F5F26
:101EB0007F4F888199810E948E01009711F480E004
:101EC00005C0998388831B830A8381E0DF91CF91CA
:101ED0001F910F910895CF93DF93EC018881998131
:101EE000892B29F08A819B818617970760F4CE01A0
:101EF0000E94510F882341F08C819D81892B19F418
:101F0000E881F981108281E0DF91CF910895EF920D
:101F1000FF920F931F93CF93DF93EC017B016C81B2
:101F20007D81E114F104C1F04115510599F08A0158
:101F3000060F171FB8010E946B0F882369F0888174
:101F400099812C813D81820F931FB7010E947502F8
:101F50001D830C8381E001C080E0DF91CF911F9150
:101F60000F91FF90EF900895DF93CF9300D0CDB7FE
:101F7000DEB769831A82BE016F5F7F4F41E050E098
:101F80000E94870F0F900F90CF91DF910895CF930C
:101F9000DF93EC0188819981009711F00E9436014E
:101FA000198218821D821C821B821A82DF91CF91B6
:101FB0000895EF92FF920F931F93CF93DF93EC015D
:101FC0007B018A01BA010E946B0F882321F4CE01A4
:101FD0000E94C70F07C01D830C8388819981B701B8
:101FE0000E947502CE01DF91CF911F910F91FF905A
:101FF000EF900895CF93DF93EC01198218821B8232
:102000001A821D821C821E826115710551F0DB014E
:102010000D900020E9F71197A61BB70BAD010E94A8
:10202000D90FDF91CF910895FC01808191810E94A9
:10203000360108955058BB27AA270ED075C166D126
:1020400030F06BD120F031F49F3F11F41EF45BC1EE
:102050000EF4E095E7FB51C1E92F77D180F3BA1771
:10206000620773078407950718F071F49EF58FC116
:102070000EF4E0950B2EBA2FA02D0B01B9019001A3
:102080000C01CA01A0011124FF27591B99F0593FE7
:1020900050F4503E68F11A16F040A22F232F342F2F
:1020A0004427585FF3CF469537952795A795F0407D
:1020B0005395C9F77EF41F16BA0B620B730B840B92
:1020C000BAF09150A1F0FF0FBB1F661F771F881F4A
:1020D000C2F70EC0BA0F621F731F841F48F48795A2
:1020E00077956795B795F7959E3F08F0B3CF939591
:1020F000880F08F09927EE0F979587950895D9D006
:1021000008F481E008950CD00FC107D140F0FED053
:1021100030F021F45F3F19F0F0C0511139C1F3C024
:1021200014D198F39923C9F35523B1F3951B550B9B
:10213000BB27AA2762177307840738F09F5F5F4F9A
:10214000220F331F441FAA1FA9F333D00E2E3AF0DB
:10215000E0E830D091505040E695001CCAF729D0F5
:10216000FE2F27D0660F771F881FBB1F2617370744
:102170004807AB07B0E809F0BB0B802DBF01FF2774
:1021800093585F4F2AF09E3F510568F0B6C000C1DA
:102190005F3FECF3983EDCF3869577956795B795AE
:1021A000F7959F5FC9F7880F911D9695879597F9C9
:1021B0000895E1E0660F771F881FBB1F6217730742
:1021C0008407BA0720F0621B730B840BBA0BEE1F57
:1021D00088F7E095089504D06894B111D9C00895A6
:1021E000BCD088F09F5790F0B92F9927B751A0F035
:1021F000D1F0660F771F881F991F1AF0BA95C9F79B
:1022000012C0B13081F0C3D0B1E00895C0C0672FD3
:10221000782F8827B85F39F0B93FCCF3869577954A
:102220006795B395D9F73EF4909580957095619533
:102230007F4F8F4F9F4F0895E89409C097FB3EF45E
:1022400090958095709561957F4F8F4F9F4F992303
:10225000A9F0F92F96E9BB279395F6958795779581
:102260006795B795F111F8CFFAF4BB0F11F460FF41
:102270001BC06F5F7F4F8F4F9F4F16C0882311F099
:1022800096E911C0772321F09EE8872F762F05C0AD
:10229000662371F096E8862F70E060E02AF09A9548
:1022A000660F771F881FDAF7880F9695879597F93D
:1022B0000895990F0008550FAA0BE0E8FEEF1616D7
:1022C0001706E807F907C0F012161306E407F5072A
:1022D00098F0621B730B840B950B39F40A2661F09E
:1022E000232B242B252B21F408950A2609F4A14041
:1022F000A6958FEF811D811D089597F99F6780E84E
:1023000070E060E008959FEF80EC089500240A9447
:102310001616170618060906089500240A941216C0
:102320001306140605060895092E0394000C11F4F3
:10233000882352F0BB0F40F4BF2B11F460FF04C0A0
:102340006F5F7F4F8F4F9F4F089557FD9058440FF9
:10235000551F59F05F3F71F04795880F97FB991F04
:1023600061F09F3F79F087950895121613061406C1
:10237000551FF2CF4695F1DF08C01616170618064E
:10238000991FF1CF86957105610508940895E89429
:10239000BB2766277727CB0197F908958ADF08F4D2
:1023A0008FEF08950BD0C0CFB1DF28F0B6DF18F063
:1023B000952309F0A2CFA7CF1124EACFC6DFA0F35F
:1023C000959FD1F3950F50E0551F629FF001729FCA
:1023D000BB27F00DB11D639FAA27F00DB11DAA1FE9
:1023E000649F6627B00DA11D661F829F2227B00D36
:1023F000A11D621F739FB00DA11D621F839FA00DC1
:10240000611D221F749F3327A00D611D231F849F10
:10241000600D211D822F762F6A2F11249F57504067
:102420008AF0E1F088234AF0EE0FFF1FBB1F661F02
:10243000771F881F91505040A9F79E3F510570F0BB
:102440005CCFA6CF5F3FECF3983EDCF386957795A3
:102450006795B795F795E7959F5FC1F7FE2B880FB6
:10246000911D9695879597F9089523DF880B990B11
:102470000895629FD001739FF001829FE00DF11DCE
:10248000649FE00DF11D929FF00D839FF00D749FEE
:10249000F00D659FF00D9927729FB00DE11DF91F9A
:1024A000639FB00DE11DF91FBD01CF0111240895F7
:1024B000A1E21A2EAA1BBB1BFD010DC0AA1FBB1F48
:1024C000EE1FFF1FA217B307E407F50720F0A21BBA
:1024D000B30BE40BF50B661F771F881F991F1A9427
:1024E00069F760957095809590959B01AC01BD0151
:1024F000CF01089597FB092E05260ED057FD04D075
:10250000D7DF0AD0001C38F45095409530952195BE
:102510003F4F4F4F5F4F0895F6F790958095709518
:1025200061957F4F8F4F9F4F0895EE0FFF1F0590CE
:10253000F491E02D09942F923F924F925F926F9207
:102540007F928F929F92AF92BF92CF92DF92EF9243
:10255000FF920F931F93CF93DF93CDB7DEB7CA1BC4
:10256000DB0B0FB6F894DEBF0FBECDBF09942A88EF
:10257000398848885F846E847D848C849B84AA8497
:10258000B984C884DF80EE80FD800C811B81AA8124
:10259000B981CE0FD11D0FB6F894DEBF0FBECDBFEF
:0825A000ED010895F894FFCF4E
:1025A8005B002C005D0D0000524947485400520062
:1025B8002045452D524541442D2121205B004C45A5
:1025C8004654004C0057002045452D575249544564
:1025D8002D2121205B0044000D0055005300535469
:1025E8004F50004900446972656374696F6E20003A
:1025F8004F004100500046000D205370656420666E
:102608006163746F723D3D3E003C00200D000D205B
:102618006D6F742073706565643A00203A73706456
:102628002000203A200D0075504C207C0075444550
:10263800207C0064653A006D735D00503A002020EC
:102648002020006D6D2F6D6920006E616E00696E2F
:1026580066006F7666002E002000CD0200000100A3
:102668002003F4014A0101000100000000F3099869
:0A2678000A8909BA099A09E309006A
:00000001FF
