:100000000C9462000C948A000C948A000C948A0070
:100010000C948A000C948A000C948A000C948A0038
:100020000C948A000C948A000C948A000C948A0028
:100030000C948A000C948A000C948A000C948A0018
:100040000C94E80C0C948A000C9475080C94C3086A
:100050000C948A000C948A000C948A000C948A00F8
:100060000C948A000C948A000000000024002700F1
:100070002A0000000000250028002B0000000000DE
:1000800023002600290004040404040404040202DA
:100090000202020203030303030301020408102007
:1000A0004080010204081020010204081020000012
:1000B0000007000201000003040600000000000029
:1000C00000002F0A11241FBECFEFD8E0DEBFCDBF46
:1000D00011E0A0E0B1E0E8ECF5E202C005900D927D
:1000E000AC3DB107D9F712E0ACEDB1E001C01D9213
:1000F000AC3CB107E1F710E0C4ECD0E004C02297BB
:10010000FE010E94A712C23CD107C9F70E94850ACE
:100110000C94E2120C940000CF93DF93BC01823068
:10012000910510F462E070E0A091CA02B091CB0298
:10013000ED01E0E0F0E040E050E021C088819981ED
:100140008617970769F48A819B81309719F093830A
:10015000828304C09093CB028093CA02FE0134C014
:100160006817790738F44115510519F08417950778
:1001700008F4AC01FE018A819B819C01E901209772
:10018000E9F641155105A9F1CA01861B970B0497A1
:1001900008F4BA01E0E0F0E02AC08D919C9111973B
:1001A00084179507F9F46417750781F412968D91F9
:1001B0009C911397309719F09383828304C0909396
:1001C000CB028093CA02FD0132964CC0CA01861B45
:1001D000970BFD01E80FF91F6193719302978D93BF
:1001E0009C9340C0FD01828193819C01D9011097AD
:1001F000A1F68091C8029091C902892B41F48091A7
:10020000BC019091BD019093C9028093C8024091B6
:10021000BE015091BF014115510541F44DB75EB784
:100220008091BA019091BB01481B590B2091C802E3
:100230003091C902CA01821B930B8617970780F081
:10024000AB014E5F5F4F8417950750F0420F531F6D
:100250005093C9024093C802F9016193719302C09F
:10026000E0E0F0E0CF01DF91CF910895CF93DF93ED
:10027000009709F450C0EC0122971B821A82A091CA
:10028000CA02B091CB02109709F140E050E0AC17E0
:10029000BD0708F1BB83AA83FE0121913191E20FD2
:1002A000F31FAE17BF0779F48D919C911197280F1A
:1002B000391F2E5F3F4F3983288312968D919C9171
:1002C00013979B838A834115510571F4D093CB0218
:1002D000C093CA0220C012968D919C911397AD01D4
:1002E000009711F0DC01D3CFFA01D383C2832191AF
:1002F0003191E20FF31FCE17DF0769F488819981EE
:10030000280F391F2E5F3F4FFA01318320838A81E6
:100310009B8193838283DF91CF910895A0E0B0E029
:10032000E4E9F1E00C94AD126C01009729F4CB01E3
:100330000E948C006C01C1C08EEF882E8FEF982E2A
:100340008C0C9D1C8601060F171F0815190508F453
:10035000B2C0F401A081B181A617B707B8F0A530EB
:10036000B10508F4AAC0CD0104978617970708F4D1
:10037000A4C01297A61BB70BF801A193B193D401A7
:100380006D937C93CF010E94360197C07B01EA1ADE
:10039000FB0AEEEFFFEFEE0EFF1E36016A0E7B1E2C
:1003A000C091CA02D091CB0244245524AA24BB2474
:1003B0004AC0C615D705E1F5488159814E155F053C
:1003C000B8F1CA0104978E159F05B0F41296A40FD8
:1003D000B51FF401B183A0832A813B8141145104EC
:1003E00031F0D20113963C932E93129766C030934E
:1003F000CB022093CA0261C08A819B81F80193835A
:100400008283425050404E195F095183408341140A
:10041000510431F0D20113961C930E93129704C02D
:100420001093CB020093CA02F4017183608345C02C
:1004300088819981A816B90608F45C012E018A8189
:100440009B819C01E901209709F0B3CF8091C802FC
:100450009091C90286159705E9F4A616B706D0F45F
:100460002091BE013091BF012115310541F42DB716
:100470003EB78091BA019091BB01281B390B02173E
:100480001307C8F41093C9020093C802D4016D93F6
:100490007C9313C0CB010E948C00EC01009759F0B3
:1004A000F40140815181B6010E946302C6010E949D
:1004B00036016E0102C0CC24DD24C601CDB7DEB703
:1004C000E0E10C94C912FB01DC0102C001900D9225
:1004D00041505040D8F70895FB01DC018D91019007
:1004E00080190110D9F3990B0895FB01DC010190EB
:1004F0000D920020E1F708955F926F927F928F92A4
:100500009F92AF92BF92CF92DF92EF92FF920F93A2
:100510001F93582E79018A010E943E0D3B014C0128
:100520008091E0019091E101A091E201B091E3019D
:1005300064015301A81AB90ACA0ADB0AC801B70143
:1005400024E630E040E050E00E9435126A157B0559
:100550008C059D0510F080E028C0852D61E00E948B
:100560003A0E82E090E00E94640D852D60E00E94CA
:100570003A0E80910B0290910C02A0910D02B09165
:100580000E020196A11DB11D80930B0290930C02E7
:10059000A0930D02B0930E026092E0017092E1010F
:1005A0008092E2019092E30181E01F910F91FF9010
:1005B000EF90DF90CF90BF90AF909F908F907F9003
:1005C0006F905F900895EF92FF920F931F930091A9
:1005D000C6011091C70184E1E82E82E0F82EC8011F
:1005E0006FEF70E00E945412462FC70161E070E087
:1005F0000E946808C8016FEF70E00E945412482FF3
:10060000C70162E070E00E946808C70163E070E023
:100610004091C0010E946808C70161E070E00E943B
:100620006108682F0DE912E0C8014AE050E00E941D
:10063000660BC80160E071E00E94CB0BC70162E06D
:1006400070E00E946108682FC8014AE050E00E94F3
:10065000660BC80162E071E00E94CB0BC70163E04A
:1006600070E00E946108682FC8014AE050E00E94D3
:10067000660B1F910F91FF90EF900895CF92DF923C
:10068000EF92FF920F931F930DE912E0C80164E00F
:1006900071E00E94CB0B6091C6017091C701C80147
:1006A0004AE050E00E94550B22E0E22E21E0F22EBB
:1006B000C801B7010E94CB0B94E1C92E92E0D92E5C
:1006C000C60161E070E00E946108682FC8014AE03D
:1006D00050E00E94660BC801B7010E94CB0BC60117
:1006E00062E070E00E946108682FC8014AE050E0B3
:1006F0000E94660BC801B7010E94CB0BC60163E0E4
:1007000070E00E946108682FC8014AE050E00E9432
:10071000660BC80166E071E00E94CB0BC60161E088
:1007200070E00E946108082FC60162E070E00E943C
:1007300061089FEF099F80011124080F111D10937C
:10074000C7010093C601C60163E070E00E94610822
:10075000682F8093C0011092C10184E00E943A0E7C
:100760001F910F91FF90EF90DF90CF9008956F92BF
:100770007F928F929F92AF92BF92CF92DF92EF9231
:10078000FF920F931F93DF93CF93CDB7DEB7C2567F
:10079000D0400FB6F894DEBF0FBECDBF0E94300D23
:1007A0003B014C018091E8019091E901A091EA019F
:1007B000B091EB01A4019301281B390B4A0B5B0B91
:1007C000253131054105510508F43CC26092E8012C
:1007D0007092E9018092EA019092EB018E010F5F25
:1007E0001F4FC80169E071E00E94F60F08C08DE953
:1007F00092E00E94B609682FC8010E94B00F8DE9EF
:1008000092E00E948509892B91F7C80169E071E0A7
:100810000E94F70E882359F48DE992E0B8010E94F6
:10082000B50C8091FC0191E089278093FC018DE05B
:100830006091FC010E943A0E8E01085F1F4FC801B3
:100840006AE071E00E94F60F7E010894E11CF11C41
:10085000C701B8010E941A0F892B11F411E014C0CE
:100860008E01015F1F4FC80160E171E00E94F60F29
:10087000C701B8010E941A0F10E0892B09F411E09A
:10088000CE010F960E941010CE0108960E94101003
:10089000112381F08DE992E062E171E00E94CB0BBF
:1008A0000E943E03109209028DE992E066E071E039
:1008B0000E94CB0B8E010A5E1F4FC80160E271E0FF
:1008C0000E94F60F7E010894E11CF11CC701B801DB
:1008D0000E941A0F892B11F411E028C08E01035ECB
:1008E0001F4FC80165E271E00E94F60FC701B80111
:1008F0000E941A0F892B11F411E014C08E010C5DB7
:100900001F4FC80167E271E00E94F60FC701B801EE
:100910000E941A0F10E0892B09F411E0CE01849691
:100920000E941010CE014D960E941010CE014696E6
:100930000E941010112389F08DE992E069E271E0C4
:100940000E94CB0B0E94E30281E0809309028DE9B3
:1009500092E066E071E00E94CB0B8E01055D1F4FB7
:10096000C80168E371E00E94F60FCE010196B8015C
:100970000E941A0F7C01C8010E941010EF2859F53F
:100980008091C6019091C7012091C8013091C901A1
:10099000821B930B9093C7018093C601069730F496
:1009A00085E090E09093C7018093C6018DE992E0C5
:1009B0006CE00E94BE0A6091C6017091C7018DE98A
:1009C00092E04AE050E00E94550B8DE992E06AE324
:1009D00071E00E94CB0B8E010E5C1F4FC8016CE3CF
:1009E00071E00E94F60FCE010196B8010E941A0F25
:1009F0007C01C8010E941010EF2861F58091C801A8
:100A00009091C9012091C6013091C701820F931FB7
:100A10009093C7018093C6018051974230F088EED1
:100A200093E09093C7018093C6018DE992E06CE05A
:100A30000E94BE0A6091C6017091C7018DE992E0E3
:100A40004AE050E00E94550B8DE992E06AE371E0C4
:100A50000E94CB0B8E01075C1F4FC8016EE371E053
:100A60000E94F60FCE010196B8010E941A0F7C0178
:100A7000C8010E941010EF2871F58DE992E060E442
:100A800071E00E94CB0B90E080911302882309F45F
:100A900091E090931302992331F480E293E09093D4
:100AA000C3018093C20180911302813021F410921E
:100AB000C3011092C20185E00E946D0E60E0892B97
:100AC00009F461E085E00E943A0E8DE992E06AE364
:100AD00071E00E94CB0B8E01005C1F4FC80165E4E2
:100AE00071E00E94F60FCE010196B8010E941A0F24
:100AF0007C01C8010E941010EF2881F58091C0018F
:100B00009091C1018130910539F41092C101109288
:100B1000C00184E060E00AC0892B51F481E090E0DC
:100B20009093C1018093C00184E061E00E943A0E7D
:100B30008DE992E067E471E00E94CB0B6091C00107
:100B40007091C1018DE992E04AE050E00E94B80B3B
:100B50008DE992E06AE371E00E94CB0B8E01095BA4
:100B60001F4FC80162E571E00E94F60FCE010196A9
:100B7000B8010E941A0F7C01C8010E941010EF28D2
:100B800011F40E943E038E01025B1F4FC80164E511
:100B900071E00E94F60FCE010196B8010E941A0F73
:100BA0007C01C8010E941010EF2819F481E08093A5
:100BB0000A028E010B5A1F4FC80166E571E00E94C0
:100BC000F60FCE010196B8010E941A0F7C01C801F0
:100BD0000E941010EF2831F48091090291E08927DA
:100BE000809309028E01045A1F4FC80168E571E025
:100BF0000E94F60FCE010196B8010E941A0F7C01E7
:100C0000C8010E941010EF28C9F48091C80190918A
:100C1000C901019719F48AE090E002C081E090E0F8
:100C20009093C9018093C8016091C8017091C90176
:100C30008DE992E04AE050E00E94550BCE0101960A
:100C40000E94101080910902882309F485C08091C8
:100C5000E4019091E501A091E601B091E701A401C2
:100C60009301281B390B4A0B5B0BDA01C90189552B
:100C70009240A040B04008F46FC081E00E94A90DEE
:100C80008FE00E94AC0D9C019093C5018093C4013C
:100C900000D000D040E050E085E090E0A0E0B0E07F
:100CA000EDB7FEB781839283A383B483CA01B901F0
:100CB00020E030E040E050E0FFEFEF2EF3E0FF2EC9
:100CC000012D112DE1E0AE2EB12CC12CD12C0E94B2
:100CD0009D0E9B01AC0120930502309306024093C8
:100CE000070250930802DA01C90162E0880F991FD8
:100CF000AA1FBB1F6A95D1F7820F931FA41FB51FB0
:100D00009093C9018093C8010F900F900F900F909E
:100D10008DE992E06AE571E00E94CB0B6091C80119
:100D20007091C9018DE992E04AE050E00E94550BB4
:100D30008DE992E06BE671E00E94CB0B8DE992E0C9
:100D40006DE671E00E94CB0B6092E4017092E501C8
:100D50008092E6019092E7016091C6017091C7010F
:100D600080E090E00E94181120E030E040E752E47B
:100D70000E947F102CE636EC42E95EE30E947F1071
:100D80009B01AC0160E070E48CE196E40E947F106E
:100D90006B017C010E943E0D2091F0013091F10128
:100DA0004091F2015091F301621B730B840B950B80
:100DB0006093F4017093F5018093F6019093F7012D
:100DC0000E943E0D6093EC017093ED018093EE0163
:100DD0009093EF01C701B6010E94EC109B01AC019A
:100DE0000091C0011091C10183E090E064E070E0E7
:100DF0000E947C02182F0E943E0D2091EC01309140
:100E0000ED014091EE015091EF01621B730B840BD9
:100E1000950B6093F8017093F9018093FA01909318
:100E2000FB01112309F463C00E943E0D6093F001A1
:100E30007093F1018093F2019093F30180910A0283
:100E4000882309F454C08DE992E060E771E00E94C4
:100E5000CB0B8DE992E0B701A60122E030E00E94C1
:100E6000B20C8DE992E06DE771E00E94CB0B6091CE
:100E7000C6017091C7018DE992E04AE050E00E94FE
:100E8000550B8DE992E064E871E00E94CB0B409134
:100E9000F8015091F9016091FA017091FB018DE91F
:100EA00092E02AE030E00E94460B8DE992E069E88A
:100EB00071E00E94CB0B4091F4015091F5016091DB
:100EC000F6017091F7018DE992E02AE030E00E948E
:100ED000460B8DE992E06FE871E00E94CB0B8DE943
:100EE00092E06AE371E00E94CB0B10920A028091BB
:100EF000DC019091DD01A091DE01B091DF01A40140
:100F00009301281B390B4A0B5B0BDA01C901895E7F
:100F10009340A040B04008F481C08DE060E00E94A2
:100F20003A0E8DE992E065E971E00E94CB0B8DE904
:100F300092E0B701A60120E030E00E94B20C8DE9FA
:100F400092E069E971E00E94CB0B80910B029091D5
:100F50000C02A0910D02B0910E0220910F0230916F
:100F600010027C01E21AF30A80930F0290931002A0
:100F7000A0931102B09312028DE992E06DE971E045
:100F80000E94CB0B8DE992E0B7014AE050E00E944D
:100F9000550B8DE992E069E071E00E94CB0B8DE981
:100FA00092E06CE00E94BE0A8DE992E060EA71E096
:100FB0000E94CB0B00E010E0C801B7010E9418119D
:100FC0002CE636EC42E95EE30E94CE1120E030E0F0
:100FD00040E752E40E94CE1120E030E040E251E4CC
:100FE0000E947F10AB01BC018DE992E020E030E06F
:100FF0000E94B20C8DE992E065EA71E00E94CB0B91
:101000008DE992E06AE371E00E94CB0B6092DC0113
:101010007092DD018092DE019092DF01CE59DF4FA8
:101020000FB6F894DEBF0FBECDBFCF91DF911F91F9
:101030000F91FF90EF90DF90CF90BF90AF909F9077
:101040008F907F906F90089583E061E00E94CE0DB5
:1010500084E061E00E94CE0D85E061E00E94CE0D4B
:101060008DE061E00E94CE0D82E061E00E94CE0D35
:1010700087E060E00E94CE0D88E060E00E94CE0D27
:1010800085E060E00E943A0E8DE992E040E052EC8B
:1010900061E070E00E94FE080E94300D6093FD0147
:1010A0007093FE018093FF01909300021092010261
:1010B0001092020210920302109204020E943E0358
:1010C0000895F999FECF72BD61BDF89A80B5089573
:1010D000F999FECF1FBA72BD61BD40BD0FB6F8943D
:1010E000FA9AF99A0FBE089508951F920F920FB6BB
:1010F0000F9211242F933F934F938F939F93EF93CE
:10110000FF938091C00082FD1DC04091C6002091D8
:101110005502309156022F5F3F4F2F7330708091F0
:101120005702909158022817390771F0E091550243
:10113000F0915602EB5EFD4F4083309356022093B0
:10114000550202C08091C600FF91EF919F918F914F
:101150004F913F912F910F900FBE0F901F901895B8
:10116000E091A902F091AA02E05CFF4F8191919178
:1011700020813181821B930B8F739070892B11F02A
:101180000E94740808951F920F920FB60F921124B7
:101190002F933F938F939F93EF93FF932091990207
:1011A00030919A0280919B0290919C0228173907F6
:1011B00031F48091C1008F7D8093C10014C0E09113
:1011C0009B02F0919C02E75AFD4F208180919B0287
:1011D00090919C0201968F73907090939C028093E3
:1011E0009B022093C600FF91EF919F918F913F91B9
:1011F0002F910F900FBE0F901F901895AF92BF9236
:10120000DF92EF92FF920F931F93CF93DF93EC0146
:101210007A018B01DD24403081EE580780E06807B9
:1012200080E0780711F0DD24D39491E0A92EB12C51
:10123000EC89FD89DD2069F0C50108A002C0880F96
:10124000991F0A94E2F7808360E079E08DE390E0F3
:1012500005C0108260E874E88EE190E0A801970173
:101260000E946812215030404040504056954795AA
:101270003795279580E12030380720F0DD2011F0E8
:10128000DD24D6CFE889F9893083EA89FB89208378
:1012900019A2EE89FF89408121E030E0C9010C8C60
:1012A00002C0880F991F0A94E2F7482B4083EE8909
:1012B000FF894081C9010D8C02C0880F991F0A94D3
:1012C000E2F7482B4083EE89FF894081C9010E8CEB
:1012D00002C0880F991F0A94E2F7482B4083EE89D9
:1012E000FF8980810F8C02C0220F331F0A94E2F71E
:1012F000209528232083DF91CF911F910F91FF909C
:10130000EF90DF90BF90AF900895DC011C96ED91B7
:10131000FC911D97E05CFF4F21913191808191817B
:10132000281B390B2F733070C9010895DC011C96FE
:10133000ED91FC911D97E05CFF4F20813181E054DD
:10134000F040DF01AE5BBF4F8D919C911197281744
:10135000390719F42FEF3FEF07C08D919C91E80FEB
:10136000F91F8081282F30E0C9010895DC011C9607
:10137000ED91FC911D97E05CFF4F20813181E0549D
:10138000F040DF01AE5BBF4F8D919C911197281704
:10139000390719F42FEF3FEF10C08D919C911197F1
:1013A000E80FF91F20818D919C91119701968F7301
:1013B000907011969C938E9330E0C9010895DC01E2
:1013C00091968C919197882339F05496ED91FC91E8
:1013D0005597808186FFF9CF91961C920895CF93FF
:1013E000DF93EC01EE85FF85E05CFF4F20813181CA
:1013F000E054F0402F5F3F4F2F733070DF01AE5B42
:10140000BF4F8D919C91119728173907D1F3E05C5C
:10141000FF4F80819181E054F040E80FF91F608315
:10142000EE85FF85E05CFF4F31832083EE89FF89E5
:10143000208181E090E00F8C02C0880F991F0A94F0
:10144000E2F7282B208381E089A3EC89FD89808144
:101450008064808381E090E0DF91CF9108951092C5
:10146000A00210929F0288EE93E0A0E0B0E080938B
:10147000A1029093A202A093A302B093A4028FECC6
:1014800091E090939E0280939D0285E192E090937B
:10149000AA028093A90289E592E09093AC0280931E
:1014A000AB0285EC90E09093AE028093AD0284ECA9
:1014B00090E09093B0028093AF0280EC90E0909324
:1014C000B2028093B10281EC90E09093B4028093D9
:1014D000B30282EC90E09093B6028093B50286EC62
:1014E00090E09093B8028093B70284E08093B902B1
:1014F00083E08093BA0287E08093BB0285E080930B
:10150000BC0281E08093BD020895CF93DF930E94D7
:101510006E0D0E942408C0EBD8E00E94B70320970C
:10152000E1F30E94B008F9CFCF92DF92EF92FF92E1
:101530000F931F93CF93DF937C016B018A01C0E06F
:10154000D0E00FC0D6016D916D01D701ED91FC91F6
:101550000190F081E02DC7010995C80FD91F0150F6
:1015600010400115110571F7CE01DF91CF911F9148
:101570000F91FF90EF90DF90CF900895DC01ED91F7
:10158000FC910190F081E02D09950895CF93DF93B0
:10159000EC016115710519F420E030E00FC0DB01AA
:1015A0000D900020E9F71197A61BB70BE881F98190
:1015B0000280F381E02DAD0109959C01C901DF9105
:1015C000CF9108954F925F927F928F929F92AF92A8
:1015D000BF92CF92DF92EF92FF920F931F93DF9310
:1015E000CF93CDB7DEB7A1970FB6F894DEBF0FBE8D
:1015F000CDBF2C01742ECB01223008F42AE019A2B1
:1016000031E2C32ED12CCC0EDD1E822E9924AA24C9
:10161000BB24672D752FA50194010E9468127901E2
:101620008A01C801B701A50194010E943512472D16
:10163000461B0894C108D1084A3014F4405D01C02B
:10164000495CF6014083E114F1040105110521F024
:101650007E2C5F2DC801DDCFC201B6010E94C60AF3
:10166000A1960FB6F894DEBF0FBECDBFCF91DF912C
:101670001F910F91FF90EF90DF90CF90BF90AF90B0
:101680009F908F907F905F904F900895DC0121157F
:10169000310541F4ED91FC910190F081E02D642F32
:1016A000099508950E94E20A0895EF92FF920F9320
:1016B0001F939A017B0100E010E0B801A7010E948E
:1016C000460B1F910F91FF90EF900895EF92FF92BC
:1016D0000F931F939A01E62EFF2400E010E0B8015B
:1016E000A7010E94460B1F910F91FF90EF90089564
:1016F000CF92DF92EF92FF920F931F93CF93DF93DE
:10170000EC016A017B012115310541F4E881F98181
:101710000190F081E02D642F09951FC02A3031051A
:10172000D1F477FF17C0E881F9810190F081E02DB5
:101730006DE209958C0144275527BA014C195D09C2
:101740006E097F09CE012AE00E94E20A9801280F63
:10175000391F04C02AE00E94E20A9C01C901DF91FE
:10176000CF911F910F91FF90EF90DF90CF90089550
:10177000EF92FF920F931F937B019A010027F7FCD2
:101780000095102FB801A7010E94780B1F910F91AF
:10179000FF90EF9008950E94C60A08957F928F925D
:1017A0009F92AF92BF92CF92DF92EF92FF920F93F0
:1017B0001F93CF93DF934C017A018B01722ECB01E3
:1017C000BA01A80197010E943112882321F0C401B7
:1017D0006CEA71E021C0C0E0D0E057016801E894F4
:1017E000D7F8C601B5012FEF3FEF4FE75FE70E9443
:1017F0003112882351F4C601B5012FEF3FEF4FE7B7
:101800005FE70E947B10181614F0C1E0D0E021972A
:1018100039F0C40160EB71E00E94C60AEC0193C08C
:10182000C801B7012FEF3FEF4FE75FE40E94CA11F5
:10183000181654F0C801B7012FEF3FEF4FE75FECE8
:101840000E947B10882324F4C40164EB71E0E4CF90
:10185000C801B70120E030E040E050E00E947B107A
:1018600087FD03C0C0E0D0E00EC0D401ED91FC9133
:101870000190F081E02DC4016DE20995EC0117FBA8
:10188000109517F9109520E030E040E05FE3DD248B
:101890000BC0CA01B90120E030E040E251E40E94EF
:1018A0007F109B01AC01D394D71498F3C801B70102
:1018B0000E9417105B016C010E94EC107B018C01EF
:1018C000C401B801A7012AE030E00E94460BC80F0E
:1018D000D91F772039F0C40168EB71E00E94C60A75
:1018E000C80FD91FC801B7010E9418119B01AC0194
:1018F000C601B5010E94161024C020E030E040E28D
:1019000051E40E94CE117B018C010E94E7105B0123
:101910006C01CC24B7FCC094DC2CC401B601A50139
:101920002AE030E00E94780BC80FD91FC601B5012C
:101930000E941A119B01AC01C801B7010E94161048
:101940007A947720D1F6CE01DF91CF911F910F913C
:10195000FF90EF90DF90CF90BF90AF909F908F90CF
:101960007F9008950E94CE0B0895AF92BF92CF92C0
:10197000DF92EF92FF920F931F93CF93DF935C015F
:101980006B01EE24FF24C0E0D0E010C0D501ED9142
:10199000FC9100811181C601BE010E94E60E682FF4
:1019A000C501F8010995E80EF91E2196F60184811A
:1019B0009581C817D90750F3C701DF91CF911F91C7
:1019C0000F91FF90EF90DF90CF90BF90AF90089570
:1019D0001F920F920FB60F9211242F933F938F9364
:1019E0009F93AF93BF938091C3029091C402A09143
:1019F000C502B091C6023091C7020196A11DB11D6A
:101A0000232F2D5F2D3720F02D570196A11DB11DDD
:101A10002093C7028093C3029093C402A093C5028F
:101A2000B093C6028091BF029091C002A091C10202
:101A3000B091C2020196A11DB11D8093BF02909387
:101A4000C002A093C102B093C202BF91AF919F9117
:101A50008F913F912F910F900FBE0F901F9018956F
:101A60008FB7F8942091C3023091C4024091C5020F
:101A70005091C6028FBFB901CA0108959FB7F8946B
:101A80002091BF023091C0024091C1025091C20228
:101A900086B5A89B06C08F3F21F02F5F3F4F4F4F69
:101AA0005F4F9FBF542F432F322F2227280F311D06
:101AB000411D511D82E0220F331F441F551F8A957F
:101AC000D1F7B901CA010895019739F0880F991F1C
:101AD000880F991F02970197F1F70895789484B5BC
:101AE000826084BD84B5816084BD85B5826085BD1A
:101AF00085B5816085BDEEE6F0E080818160808300
:101B0000E1E8F0E0108280818260808380818160E2
:101B10008083E0E8F0E0808181608083E1EBF0E0A9
:101B2000808184608083E0EBF0E08081816080834D
:101B3000EAE7F0E080818460808380818260808336
:101B40008081816080838081806880831092C10061
:101B500008958093CA010895982F8E3008F09E5002
:101B600097708091CA018295880F880F807C892B9D
:101B700080937C0080917A00806480937A008091C9
:101B80007A0086FDFCCF2091780040917900942F57
:101B900080E030E0282B392BC9010895CF93DF93E3
:101BA000482F50E0CA0186569F4FFC0134914A5796
:101BB0005F4FFA018491882369F190E0880F991FA3
:101BC000FC01E859FF4FA591B491FC01EE58FF4F7D
:101BD000C591D491662351F42FB7F8948C91932F2B
:101BE000909589238C93888189230BC0623061F49E
:101BF0002FB7F8948C91932F909589238C9388819B
:101C0000832B88832FBF06C09FB7F8948C91832BBA
:101C10008C939FBFDF91CF910895833071F0843012
:101C200028F48130A1F0823021F514C08630B1F063
:101C30008730D1F08430E9F404C0809180008F7740
:101C400003C0809180008F7D80938000089584B5CB
:101C50008F7702C084B58F7D84BD08958091B000D8
:101C60008F778093B00008958091B0008F7D80932E
:101C7000B0000895FF920F931F93F62E482F50E067
:101C8000CA0182559F4FFC012491CA0186569F4F7D
:101C9000FC0114914A575F4FFA0104910023C9F0E7
:101CA000222319F0822F0E940D0EE02FF0E0EE0F9C
:101CB000FF1FEE58FF4FA591B4919FB7F894FF20F6
:101CC00021F48C911095812302C08C91812B8C93EF
:101CD0009FBF1F910F91FF9008950F931F93482F5F
:101CE00050E0CA0182559F4FFC012491CA018656DB
:101CF0009F4FFC0104914A575F4FFA011491112341
:101D000019F420E030E015C0222319F0822F0E9440
:101D10000D0E812F90E0880F991F84589F4FFC0172
:101D2000A591B4918C9120E030E0802311F021E066
:101D300030E0C9011F910F9108952F923F924F9269
:101D40005F926F927F928F929F92AF92BF92CF924B
:101D5000DF92EF92FF920F931F93DF93CF93CDB754
:101D6000DEB73B014C0119012A016D897E898F89FB
:101D7000988D6A197B098C099D09621A730A840A75
:101D8000950AA40193010E943512E218F308040990
:101D90001509A80197010E948A122A0D3B1D4C1DAE
:101DA0005D1DB901CA01CF91DF911F910F91FF9085
:101DB000EF90DF90CF90BF90AF909F908F907F90EB
:101DC0006F905F904F903F902F900895FC01848119
:101DD00095816817790748F40190F081E02D3097DC
:101DE00021F0E60FF71F8081089580E00895DC015F
:101DF000FB0114968D919C911597892B31F46115F7
:101E00007105A9F090E0808108C00D90BC91A02DD3
:101E10006115710529F490E08C91882349F407C07D
:101E2000CD010E946C029C0190E0232B09F491E00B
:101E3000892F0895CF93DF939C01FB01EC01A881CA
:101E4000B981109729F06081718161157105D1F414
:101E5000C081D181209759F084819581892B39F0F7
:101E6000888190E022273327281B390B12C0109756
:101E700071F0F90184819581892B49F08C91282F8B
:101E800030E007C0CD010E946C029C0102C020E03E
:101E900030E0C901DF91CF9108950F931F93CF9345
:101EA000DF93EC018B016F5F7F4F888199810E94E6
:101EB0008E01009711F480E005C0998388831B830D
:101EC0000A8381E0DF91CF911F910F910895CF9305
:101ED000DF93EC0188819981892B29F08A819B818C
:101EE0008617970760F4CE010E944D0F882341F0BA
:101EF0008C819D81892B19F4E881F981108281E020
:101F0000DF91CF910895EF92FF920F931F93CF939C
:101F1000DF93EC017B016C817D81E114F104C1F060
:101F20004115510599F08A01060F171FB8010E944B
:101F3000670F882369F0888199812C813D81820F08
:101F4000931FB7010E9475021D830C8381E001C0BD
:101F500080E0DF91CF911F910F91FF90EF90089556
:101F6000DF93CF9300D0CDB7DEB769831A82BE016D
:101F70006F5F7F4F41E050E00E94830F0F900F9002
:101F8000CF91DF910895CF93DF93EC018881998100
:101F9000009711F00E943601198218821D821C825E
:101FA0001B821A82DF91CF910895EF92FF920F93D7
:101FB0001F93CF93DF93EC017B018A01BA010E944A
:101FC000670F882321F4CE010E94C30F07C01D8331
:101FD0000C8388819981B7010E947502CE01DF913F
:101FE000CF911F910F91FF90EF900895CF93DF93C2
:101FF000EC01198218821B821A821D821C821E82A9
:102000006115710551F0DB010D900020E9F7119782
:10201000A61BB70BAD010E94D50FDF91CF9108959C
:10202000FC01808191810E94360108955058BB27A0
:10203000AA270ED075C166D130F06BD120F031F4F3
:102040009F3F11F41EF45BC10EF4E095E7FB51C114
:10205000E92F77D180F3BA176207730784079507D2
:1020600018F071F49EF58FC10EF4E0950B2EBA2F87
:10207000A02D0B01B90190010C01CA01A00111248E
:10208000FF27591B99F0593F50F4503E68F11A163A
:10209000F040A22F232F342F4427585FF3CF4695CB
:1020A00037952795A795F0405395C9F77EF41F16ED
:1020B000BA0B620B730B840BBAF09150A1F0FF0FB7
:1020C000BB1F661F771F881FC2F70EC0BA0F621FA3
:1020D000731F841F48F4879577956795B795F79593
:1020E0009E3F08F0B3CF9395880F08F09927EE0F25
:1020F000979587950895D9D008F481E008950CD07C
:102100000FC107D140F0FED030F021F45F3F19F04D
:10211000F0C0511139C1F3C014D198F39923C9F318
:102120005523B1F3951B550BBB27AA2762177307DD
:10213000840738F09F5F5F4F220F331F441FAA1F91
:10214000A9F333D00E2E3AF0E0E830D09150504051
:10215000E695001CCAF729D0FE2F27D0660F771FFF
:10216000881FBB1F261737074807AB07B0E809F0E1
:10217000BB0B802DBF01FF2793585F4F2AF09E3F76
:10218000510568F0B6C000C15F3FECF3983EDCF348
:10219000869577956795B795F7959F5FC9F7880FEF
:1021A000911D9695879597F90895E1E0660F771F41
:1021B000881FBB1F621773078407BA0720F0621BD2
:1021C000730B840BBA0BEE1F88F7E095089504D0CB
:1021D0006894B111D9C00895BCD088F09F5790F091
:1021E000B92F9927B751A0F0D1F0660F771F881F3C
:1021F000991F1AF0BA95C9F712C0B13081F0C3D057
:10220000B1E00895C0C0672F782F8827B85F39F0F4
:10221000B93FCCF3869577956795B395D9F73EF49A
:1022200090958095709561957F4F8F4F9F4F089542
:10223000E89409C097FB3EF4909580957095619560
:102240007F4F8F4F9F4F9923A9F0F92F96E9BB2716
:102250009395F695879577956795B795F111F8CF92
:10226000FAF4BB0F11F460FF1BC06F5F7F4F8F4FFD
:102270009F4F16C0882311F096E911C0772321F0F3
:102280009EE8872F762F05C0662371F096E8862F8B
:1022900070E060E02AF09A95660F771F881FDAF7E2
:1022A000880F9695879597F90895990F0008550F0F
:1022B000AA0BE0E8FEEF16161706E807F907C0F0CC
:1022C00012161306E407F50798F0621B730B840BD4
:1022D000950B39F40A2661F0232B242B252B21F4AE
:1022E00008950A2609F4A140A6958FEF811D811D4E
:1022F000089597F99F6780E870E060E008959FEF88
:1023000080EC089500240A9416161706180609068C
:10231000089500240A94121613061406050608955B
:10232000092E0394000C11F4882352F0BB0F40F4E3
:10233000BF2B11F460FF04C06F5F7F4F8F4F9F4F23
:10234000089557FD9058440F551F59F05F3F71F0A5
:102350004795880F97FB991F61F09F3F79F087950C
:102360000895121613061406551FF2CF4695F1DF95
:1023700008C0161617061806991FF1CF8695710525
:10238000610508940895E894BB2766277727CB0159
:1023900097F908958ADF08F48FEF08950BD0C0CF26
:1023A000B1DF28F0B6DF18F0952309F0A2CFA7CF50
:1023B0001124EACFC6DFA0F3959FD1F3950F50E02B
:1023C000551F629FF001729FBB27F00DB11D639FE7
:1023D000AA27F00DB11DAA1F649F6627B00DA11D8D
:1023E000661F829F2227B00DA11D621F739FB00D33
:1023F000A11D621F839FA00D611D221F749F3327A3
:10240000A00D611D231F849F600D211D822F762F3B
:102410006A2F11249F5750408AF0E1F088234AF038
:10242000EE0FFF1FBB1F661F771F881F9150504084
:10243000A9F79E3F510570F05CCFA6CF5F3FECF34C
:10244000983EDCF3869577956795B795F795E79570
:102450009F5FC1F7FE2B880F911D9695879597F981
:10246000089523DF880B990B0895629FD001739F15
:10247000F001829FE00DF11D649FE00DF11D929F20
:10248000F00D839FF00D749FF00D659FF00D99275F
:10249000729FB00DE11DF91F639FB00DE11DF91F83
:1024A000BD01CF0111240895AA1BBB1B51E107C038
:1024B000AA1FBB1FA617B70710F0A61BB70B881FD4
:1024C000991F5A95A9F780959095BC01CD01089563
:1024D000A1E21A2EAA1BBB1BFD010DC0AA1FBB1F28
:1024E000EE1FFF1FA217B307E407F50720F0A21B9A
:1024F000B30BE40BF50B661F771F881F991F1A9407
:1025000069F760957095809590959B01AC01BD0130
:10251000CF01089597FB092E05260ED057FD04D054
:10252000D7DF0AD0001C38F450954095309521959E
:102530003F4F4F4F5F4F0895F6F7909580957095F8
:1025400061957F4F8F4F9F4F0895EE0FFF1F0590AE
:10255000F491E02D09942F923F924F925F926F92E7
:102560007F928F929F92AF92BF92CF92DF92EF9223
:10257000FF920F931F93CF93DF93CDB7DEB7CA1BA4
:10258000DB0B0FB6F894DEBF0FBECDBF09942A88CF
:10259000398848885F846E847D848C849B84AA8477
:1025A000B984C884DF80EE80FD800C811B81AA8104
:1025B000B981CE0FD11D0FB6F894DEBF0FBECDBFCF
:0825C000ED010895F894FFCF2E
:1025C80025002C005B005D0D00005249474854006F
:1025D80052002045452D524541442D2121205B00C4
:1025E8004C454654004C0057002045452D5752494C
:1025F80054452D2121205B0044000D005500530057
:1026080053544F50004900446972656374696F6E92
:1026180020004F004100500046000D2053706564B3
:1026280020666163746F723D3D3E003C00200D00E2
:102638000D206D6F742073706565643A00203A73DD
:1026480070642000203A200D0075504C207C0075E5
:102658004445207C0064653A006D735D00503A0083
:1026680020202020006D6D2F6D6920006E616E00A6
:10267800696E66006F7666002E002000CC020000AE
:1026880001002003F4014A0101000100000000EFED
:0C26980009940A8509B6099609DF0900BB
:00000001FF
