:100000000C9462000C948A000C948A000C948A0070
:100010000C948A000C948A000C948A000C948A0038
:100020000C948A000C948A000C948A000C948A0028
:100030000C948A000C948A000C948A000C948A0018
:100040000C94870C0C948A000C9447080C94950827
:100050000C948A000C948A000C948A000C948A00F8
:100060000C948A000C948A000000000024002700F1
:100070002A0000000000250028002B0000000000DE
:1000800023002600290004040404040404040202DA
:100090000202020203030303030301020408102007
:1000A0004080010204081020010204081020000012
:1000B0000007000201000003040600000000000029
:1000C0000000010A11241FBECFEFD8E0DEBFCDBF74
:1000D00011E0A0E0B1E0E6EBF4E202C005900D9281
:1000E000A43CB107D9F712E0A4ECB1E001C01D9225
:1000F000A73BB107E1F710E0C4ECD0E004C02297C1
:10010000FE010E941E12C23CD107C9F70E94570A85
:100110000C9459120C940000CF93DF93BC018230F1
:10012000910510F462E070E0A091B502B091B602C2
:10013000ED01E0E0F0E040E050E021C088819981ED
:100140008617970769F48A819B81309719F093830A
:10015000828304C09093B6028093B502FE0134C03E
:100160006817790738F44115510519F08417950778
:1001700008F4AC01FE018A819B819C01E901209772
:10018000E9F641155105A9F1CA01861B970B0497A1
:1001900008F4BA01E0E0F0E02AC08D919C9111973B
:1001A00084179507F9F46417750781F412968D91F9
:1001B0009C911397309719F09383828304C0909396
:1001C000B6028093B502FD0132964CC0CA01861B6F
:1001D000970BFD01E80FF91F6193719302978D93BF
:1001E0009C9340C0FD01828193819C01D9011097AD
:1001F000A1F68091B3029091B402892B41F48091D1
:10020000A4019091A5019093B4028093B302409110
:10021000A6015091A7014115510541F44DB75EB7B4
:100220008091A2019091A301481B590B2091B30228
:100230003091B402CA01821B930B8617970780F096
:10024000AB014E5F5F4F8417950750F0420F531F6D
:100250005093B4024093B302F9016193719302C0C9
:10026000E0E0F0E0CF01DF91CF910895CF93DF93ED
:10027000009709F450C0EC0122971B821A82A091CA
:10028000B502B091B602109709F140E050E0AC170A
:10029000BD0708F1BB83AA83FE0121913191E20FD2
:1002A000F31FAE17BF0779F48D919C911197280F1A
:1002B000391F2E5F3F4F3983288312968D919C9171
:1002C00013979B838A834115510571F4D093B6022D
:1002D000C093B50220C012968D919C911397AD01E9
:1002E000009711F0DC01D3CFFA01D383C2832191AF
:1002F0003191E20FF31FCE17DF0769F488819981EE
:10030000280F391F2E5F3F4FFA01318320838A81E6
:100310009B8193838283DF91CF910895A0E0B0E029
:10032000E4E9F1E00C9424126C01009729F4CB016C
:100330000E948C006C01C1C08EEF882E8FEF982E2A
:100340008C0C9D1C8601060F171F0815190508F453
:10035000B2C0F401A081B181A617B707B8F0A530EB
:10036000B10508F4AAC0CD0104978617970708F4D1
:10037000A4C01297A61BB70BF801A193B193D401A7
:100380006D937C93CF010E94360197C07B01EA1ADE
:10039000FB0AEEEFFFEFEE0EFF1E36016A0E7B1E2C
:1003A000C091B502D091B60244245524AA24BB249E
:1003B0004AC0C615D705E1F5488159814E155F053C
:1003C000B8F1CA0104978E159F05B0F41296A40FD8
:1003D000B51FF401B183A0832A813B8141145104EC
:1003E00031F0D20113963C932E93129766C030934E
:1003F000B6022093B50261C08A819B81F801938384
:100400008283425050404E195F095183408341140A
:10041000510431F0D20113961C930E93129704C02D
:100420001093B6020093B502F4017183608345C056
:1004300088819981A816B90608F45C012E018A8189
:100440009B819C01E901209709F0B3CF8091B30211
:100450009091B40286159705E9F4A616B706D0F474
:100460002091A6013091A7012115310541F42DB746
:100470003EB78091A2019091A301281B390B02176E
:100480001307C8F41093B4020093B302D4016D9320
:100490007C9313C0CB010E948C00EC01009759F0B3
:1004A000F40140815181B6010E946302C6010E949D
:1004B00036016E0102C0CC24DD24C601CDB7DEB703
:1004C000E0E10C944012FB01DC0102C001900D92AE
:1004D00041505040D8F70895FB01DC018D91019007
:1004E00080190110D9F3990B0895FB01DC010190EB
:1004F0000D920020E1F708955F926F927F928F92A4
:100500009F92AF92BF92CF92DF92EF92FF920F93A2
:100510001F93582E79018A010E94DD0C3B014C018A
:100520008091C8019091C901A091CA01B091CB01FD
:1005300064015301A81AB90ACA0ADB0AC801B70143
:1005400024E630E040E050E00E94C0116A157B05CF
:100550008C059D0510F080E028C0852D61E00E948B
:10056000D60D82E090E00E94030D852D60E00E9490
:10057000D60D8091F6019091F701A091F801B0910C
:10058000F9010196A11DB11D8093F6019093F70129
:10059000A093F801B093F9016092C8017092C9016B
:1005A0008092CA019092CB0181E01F910F91FF9040
:1005B000EF90DF90CF90BF90AF909F908F907F9003
:1005C0006F905F900895CF92DF92EF92FF920F931A
:1005D0001F9308E812E0C80160E071E00E949D0BE3
:1005E0009FEFE92E91E0F92EC70161E070E00E94D3
:1005F0003308682F70E068537F4FC8014AE050E02D
:100600000E948A0B82E0C82E81E0D82EC801B60174
:100610000E949D0BC70162E070E00E943308682FC2
:10062000C8014AE050E00E94380BC801B6010E94A0
:100630009D0BC70163E070E00E943308682FC8017A
:100640004AE050E00E94380BC80164E071E00E946B
:100650009D0B1F910F91FF90EF90DF90CF90089529
:100660006F927F928F929F92AF92BF92CF92DF92C2
:10067000EF92FF920F931F93DF93CF93CDB7DEB727
:10068000C956D0400FB6F894DEBF0FBECDBF0E9452
:10069000CF0C3B014C0189E060E00E94D60D8091B7
:1006A000D0019091D101A091D201B091D301A401C8
:1006B0009301281B390B4A0B5B0B25313105410592
:1006C000510508F46EC26092D0017092D1018092FF
:1006D000D2019092D3018E010F5F1F4FC80167E0D6
:1006E00071E00E94810FF02EE12E09C088E892E0AF
:1006F0000E948809682F8F2D9E2D0E943B0F88E84D
:1007000092E00E945709892B89F78F2D9E2D67E073
:1007100071E00E94820E8E01085F1F4FC80168E0E1
:1007200071E00E94810F8F2D9E2DB8010E94A50EB1
:10073000892B11F411E02AC08E01015F1F4FC801FF
:100740006DE071E00E94810F8F2D9E2DB8010E94F7
:10075000A50E892B11F411E015C08E010A5E1F4F02
:10076000C8016DE071E00E94810F8F2D9E2DB801B0
:100770000E94A50E10E0892B09F411E0CE014696E7
:100780000E949B0FCE010F960E949B0FCE010896F0
:100790000E949B0F1123B1F188E892E06FE071E0B5
:1007A0000E949D0B8FEF91E061E070E00E943308A2
:1007B00090E088539F4F9093AF018093AE018FEFED
:1007C00091E062E070E00E94330890E0A0E0B0E0C9
:1007D0008093F2019093F301A093F401B093F5019B
:1007E0008FEF91E063E070E00E9433088093A801EE
:1007F0001092A9010E94E30288E892E064E071E0AF
:100800000E949D0B8E01035E1F4FC8016DE171E0D8
:100810000E94810F7E010894E11CF11CC701B80100
:100820000E94A50E892B11F411E028C08E010C5DE9
:100830001F4FC80163E271E00E94810FC701B80138
:100840000E94A50E892B11F411E014C08E01055DE4
:100850001F4FC80165E271E00E94810FC701B80116
:100860000E94A50E10E0892B09F411E0CE018B96B1
:100870000E949B0FCE0184960E949B0FCE014D9645
:100880000E949B0F112339F188E892E067E271E042
:100890000E949D0B4091AE01485C8FEF91E061E0BA
:1008A00070E00E943A088FEF91E062E070E04091C2
:1008B000F2010E943A088FEF91E063E070E040910E
:1008C000A8010E943A080E94E30288E892E064E0EE
:1008D00071E00E949D0B8E010E5C1F4FC80166E304
:1008E00071E00E94810FCE010196B8010E94A50E11
:1008F0007C01C8010E949B0FEF2861F58091AE0139
:100900009091AF012091B0013091B101821B930B06
:100910009093AF018093AE018536910530F484E663
:1009200090E09093AF018093AE0188E892E06CE094
:100930000E94900A6091AE017091AF0188E892E048
:100940004AE050E00E94270B88E892E068E371E0FB
:100950000E949D0B8E01075C1F4FC8016AE371E086
:100960000E94810FCE010196B8010E94A50E7C0164
:10097000C8010E949B0FEF2861F58091B001909112
:10098000B1012091AE013091AF01820F931F90937E
:10099000AF018093AE01885E934030F088EE93E023
:1009A0009093AF018093AE0188E892E06CE00E94E2
:1009B000900A6091AE017091AF0188E892E04AE040
:1009C00050E00E94270B88E892E068E371E00E9403
:1009D0009D0B8E01005C1F4FC8016CE371E00E940B
:1009E000810FCE010196B8010E94A50E7C01C801BD
:1009F0000E949B0FEF2871F588E892E06EE371E0AA
:100A00000E949D0B90E08091FE01882309F491E003
:100A10009093FE01992331F480EA9FE09093AB011B
:100A20008093AA018091FE01813021F41092AB01E4
:100A30001092AA0185E00E94090E60E0892B09F45A
:100A400061E085E00E94D60D88E892E068E371E0FD
:100A50000E949D0B8E01095B1F4FC80163E471E08A
:100A60000E94810FCE010196B8010E94A50E7C0163
:100A7000C8010E949B0FEF2801F58091A801909179
:100A8000A9018130910539F41092A9011092A801B1
:100A900084E061E00AC0892B51F481E090E09093FA
:100AA000A9018093A80184E060E00E94D60D88E847
:100AB00092E068E371E00E949D0B8E01025B1F4F84
:100AC000C80165E471E00E94810FCE010196B80172
:100AD0000E94A50E7C01C8010E949B0FEF2811F413
:100AE0000E94E3028E010B5A1F4FC80167E471E0B8
:100AF0000E94810FCE010196B8010E94A50E7C01D3
:100B0000C8010E949B0FEF2819F481E08093F10146
:100B10008E01045A1F4FC80169E471E00E94810FE1
:100B2000CE010196B8010E94A50E7C01C8010E9469
:100B30009B0FEF2831F48091F00191E08927809399
:100B4000F0018E010D591F4FC8016BE471E00E9446
:100B5000810FCE010196B8010E94A50E7C01C8014B
:100B60000E949B0FEF28C9F48091B0019091B101D0
:100B7000019719F48AE090E002C081E090E0909340
:100B8000B1018093B0016091B0017091B10188E82A
:100B900092E04AE050E00E94270BCE0101960E94AD
:100BA0009B0F8091F001882309F47DC08091CC01D6
:100BB0009091CD01A091CE01B091CF01A4019301FC
:100BC000281B390B4A0B5B0BDA01C901895592408E
:100BD000A040B04008F467C08FE00E94480D9C011F
:100BE0009093AD018093AC0100D000D040E050E084
:100BF00082E390E0A0E0B0E0EDB7FEB7818392839E
:100C0000A383B483CA01B90121E030E040E050E0A1
:100C1000FFEFEF2EF3E0FF2E012D112DE1E0AE2EC0
:100C2000B12CC12CD12C0E94390E6093EC01709331
:100C3000ED018093EE019093EF010F900F900F90D4
:100C40000F9088E892E06DE471E00E949D0B409166
:100C5000EC015091ED016091EE017091EF0188E897
:100C600092E02AE030E00E94180B88E892E066E506
:100C700071E00E949D0B6091AC017091AD0188E81C
:100C800092E04AE050E00E94270B88E892E068E595
:100C900071E00E949D0B6092CC017092CD01809218
:100CA000CE019092CF016091AE017091AF0180E0D2
:100CB00090E00E94A31020E030E040E752E40E9460
:100CC0000A1023E137ED4AE65DE30E940A109B011A
:100CD000AC0160E070E08AE794E40E940A106B01C6
:100CE0007C010E94DD0C2091D8013091D901409106
:100CF000DA015091DB01621B730B840B950B60933F
:100D0000DC017093DD018093DE019093DF010E948E
:100D1000DD0C6093D4017093D5018093D60190933C
:100D2000D701C701B6010E9477109B01AC01009169
:100D3000A8011091A90183E090E064E070E00E94B6
:100D40007C02182F0E94DD0C2091D4013091D50136
:100D50004091D6015091D701621B730B840B950B08
:100D60006093E0017093E1018093E2019093E301CD
:100D7000112309F463C00E94DD0C6093D8017093C5
:100D8000D9018093DA019093DB018091F1018823EE
:100D900009F454C088E892E06BE571E00E949D0B75
:100DA00088E892E0B701A60122E030E00E94840CBE
:100DB00088E892E068E671E00E949D0B6091AE01C8
:100DC0007091AF0188E892E04AE050E00E94270B62
:100DD00088E892E06FE671E00E949D0B4091E0018F
:100DE0005091E1016091E2017091E30188E892E0A5
:100DF0002AE030E00E94180B88E892E064E771E096
:100E00000E949D0B4091DC015091DD016091DE015B
:100E10007091DF0188E892E02AE030E00E94180B30
:100E200088E892E06AE771E00E949D0B88E892E012
:100E300068E371E00E949D0B1092F1018091C40162
:100E40009091C501A091C601B091C701A401930181
:100E5000281B390B4A0B5B0BDA01C9018A5E9340F0
:100E6000A040B04008F481C089E061E00E94D60D46
:100E700088E892E060E871E00E949D0B88E892E0CB
:100E8000B701A60120E030E00E94840C88E892E0DF
:100E900064E871E00E949D0B8091F6019091F7014A
:100EA000A091F801B091F9012091FA013091FB0174
:100EB0007C01E21AF30A8093FA019093FB01A0935C
:100EC000FC01B093FD0188E892E068E871E00E94BF
:100ED0009D0B88E892E0B7014AE050E00E94270BA2
:100EE00088E892E067E071E00E949D0B88E892E05C
:100EF0006CE00E94900A88E892E06BE871E00E9442
:100F00009D0B00E010E0C801B7010E94A31023E18F
:100F100037ED4AE65DE30E94591120E030E040E7FA
:100F200052E40E94591120E030E048EC52E40E9463
:100F30000A10AB01BC0188E892E021E030E00E9499
:100F4000840C88E892E06DE871E00E949D0B88E8CF
:100F500092E068E371E00E949D0B6092C401709280
:100F6000C5018092C6019092C701C759DF4F0FB6E5
:100F7000F894DEBF0FBECDBFCF91DF911F910F91CF
:100F8000FF90EF90DF90CF90BF90AF909F908F90A9
:100F90007F906F9008950F931F9383E061E00E940C
:100FA0006A0D84E061E00E946A0D85E061E00E94C4
:100FB0006A0D89E061E00E946A0D82E061E00E94B2
:100FC0006A0D87E060E00E946A0D88E060E00E94A0
:100FD0006A0D85E060E00E94D60D88E892E040E06E
:100FE00052EC61E070E00E94D0080E94CF0C609348
:100FF000E4017093E5018093E6019093E70110927C
:10100000E8011092E9011092EA011092EB010FEF52
:1010100011E0C80161E070E00E94330890E088535D
:101020009F4F9093AF018093AE01C80162E070E0E2
:101030000E94330890E0A0E0B0E08093F20190932A
:10104000F301A093F401B093F501C80163E070E0EF
:101050000E9433088093A8011092A9010E94E30224
:101060001F910F910895F999FECF72BD61BDF89A55
:1010700080B50895F999FECF1FBA72BD61BD40BD1C
:101080000FB6F894FA9AF99A0FBE089508951F9230
:101090000F920FB60F9211242F933F934F938F937C
:1010A0009F93EF93FF938091C00082FD1DC04091FC
:1010B000C60020914002309141022F5F3F4F2F73B5
:1010C000307080914202909143022817390771F0E5
:1010D000E0914002F0914102E050FE4F4083309396
:1010E00041022093400202C08091C600FF91EF911F
:1010F0009F918F914F913F912F910F900FBE0F9025
:101100001F901895E0919402F0919502E05CFF4FDA
:101110008191919120813181821B930B8F7390700B
:10112000892B11F00E94460808951F920F920FB666
:101130000F9211242F933F938F939F93EF93FF93DD
:1011400020918402309185028091860290918702DD
:101150002817390731F48091C1008F7D8093C10039
:1011600014C0E0918602F0918702EC5BFD4F208174
:10117000809186029091870201968F739070909370
:101180008702809386022093C600FF91EF919F9182
:101190008F913F912F910F900FBE0F901F90189538
:1011A000AF92BF92DF92EF92FF920F931F93CF9374
:1011B000DF93EC017A018B01DD24403081EE58078A
:1011C00080E0680780E0780711F0DD24D39491E097
:1011D000A92EB12CEC89FD89DD2069F0C50108A09C
:1011E00002C0880F991F0A94E2F7808360E079E0DB
:1011F0008DE390E005C0108260E874E88EE190E035
:10120000A80197010E94DF1121503040404050401A
:10121000569547953795279580E12030380720F07F
:10122000DD2011F0DD24D6CFE889F9893083EA8901
:10123000FB89208319A2EE89FF89408121E030E0FB
:10124000C9010C8C02C0880F991F0A94E2F7482B41
:101250004083EE89FF894081C9010D8C02C0880F4F
:10126000991F0A94E2F7482B4083EE89FF89408159
:10127000C9010E8C02C0880F991F0A94E2F7482B0F
:101280004083EE89FF8980810F8C02C0220F331FBB
:101290000A94E2F7209528232083DF91CF911F91B4
:1012A0000F91FF90EF90DF90BF90AF900895DC0119
:1012B0001C96ED91FC911D97E05CFF4F21913191BF
:1012C00080819181281B390B2F733070C9010895DB
:1012D000DC011C96ED91FC911D97E05CFF4F208195
:1012E0003181E054F040DF01AE5BBF4F8D919C91A6
:1012F00011972817390719F42FEF3FEF07C08D9189
:101300009C91E80FF91F8081282F30E0C9010895D2
:10131000DC011C96ED91FC911D97E05CFF4F208154
:101320003181E054F040DF01AE5BBF4F8D919C9165
:1013300011972817390719F42FEF3FEF10C08D913F
:101340009C911197E80FF91F20818D919C91119725
:1013500001968F73907011969C938E9330E0C90123
:101360000895DC0191968C919197882339F05496D9
:10137000ED91FC915597808186FFF9CF91961C9253
:101380000895CF93DF93EC01EE85FF85E05CFF4F7E
:1013900020813181E054F0402F5F3F4F2F73307038
:1013A000DF01AE5BBF4F8D919C91119728173907D4
:1013B000D1F3E05CFF4F80819181E054F040E80F71
:1013C000F91F6083EE85FF85E05CFF4F318320834A
:1013D000EE89FF89208181E090E00F8C02C0880FA8
:1013E000991F0A94E2F7282B208381E089A3EC89D6
:1013F000FD8980818064808381E090E0DF91CF91DE
:10140000089510928B0210928A0288EE93E0A0E079
:10141000B0E080938C0290938D02A0938E02B093E3
:101420008F0287EB91E0909389028093880280E09D
:1014300092E0909395028093940284E492E09093DA
:1014400097028093960285EC90E0909399028093A6
:10145000980284EC90E090939B0280939A0280EC37
:1014600090E090939D0280939C0281EC90E0909399
:101470009F0280939E0282EC90E09093A102809361
:10148000A00286EC90E09093A3028093A20284E0F5
:101490008093A40283E08093A50287E08093A60254
:1014A00085E08093A70281E08093A8020895CF93FE
:1014B000DF930E940D0D0E94CB07C2E8D8E00E9486
:1014C00030032097E1F30E948208F9CFCF92DF9298
:1014D000EF92FF920F931F93CF93DF937C016B01E9
:1014E0008A01C0E0D0E00FC0D6016D916D01D70137
:1014F000ED91FC910190F081E02DC7010995C80F95
:10150000D91F015010400115110571F7CE01DF916F
:10151000CF911F910F91FF90EF90DF90CF900895A2
:10152000DC01ED91FC910190F081E02D0995089589
:10153000CF93DF93EC016115710519F420E030E0E1
:101540000FC0DB010D900020E9F71197A61BB70B28
:10155000E881F9810280F381E02DAD0109959C01BC
:10156000C901DF91CF9108954F925F927F928F9240
:101570009F92AF92BF92CF92DF92EF92FF920F9322
:101580001F93DF93CF93CDB7DEB7A1970FB6F89433
:10159000DEBF0FBECDBF2C01742ECB01223008F46C
:1015A0002AE019A231E2C32ED12CCC0EDD1E822EF0
:1015B0009924AA24BB24672D752FA50194010E94AC
:1015C000DF1179018A01C801B701A50194010E94C8
:1015D000C011472D461B0894C108D1084A3014F4A5
:1015E000405D01C0495CF6014083E114F10401054E
:1015F000110521F07E2C5F2DC801DDCFC201B6019F
:101600000E94980AA1960FB6F894DEBF0FBECDBF18
:10161000CF91DF911F910F91FF90EF90DF90CF90CE
:10162000BF90AF909F908F907F905F904F90089564
:10163000DC012115310541F4ED91FC910190F0811F
:10164000E02D642F099508950E94B40A0895EF9241
:10165000FF920F931F939A017B0100E010E0B80105
:10166000A7010E94180B1F910F91FF90EF90089512
:10167000EF92FF920F931F939A01E62EFF2400E052
:1016800010E0B801A7010E94180B1F910F91FF9065
:10169000EF900895CF92DF92EF92FF920F931F93F6
:1016A000CF93DF93EC016A017B012115310541F4F1
:1016B000E881F9810190F081E02D642F09951FC028
:1016C0002A303105D1F477FF17C0E881F981019004
:1016D000F081E02D6DE209958C0144275527BA0170
:1016E0004C195D096E097F09CE012AE00E94B40AF7
:1016F0009801280F391F04C02AE00E94B40A9C01F7
:10170000C901DF91CF911F910F91FF90EF90DF9072
:10171000CF900895EF92FF920F931F937B019A0150
:101720000027F7FC0095102FB801A7010E944A0B73
:101730001F910F91FF90EF9008950E94980A0895CD
:101740007F928F929F92AF92BF92CF92DF92EF9251
:10175000FF920F931F93CF93DF934C017A018B017C
:10176000722ECB01BA01A80197010E94BC118823F7
:1017700021F0C40164E971E021C0C0E0D0E057016C
:101780006801E894D7F8C601B5012FEF3FEF4FE7A6
:101790005FE70E94BC11882351F4C601B5012FEF09
:1017A0003FEF4FE75FE70E940610181614F0C1E004
:1017B000D0E0219739F0C40168E971E00E94980AED
:1017C000EC0193C0C801B7012FEF3FEF4FE75FE493
:1017D0000E945511181654F0C801B7012FEF3FEFC2
:1017E0004FE75FEC0E940610882324F4C4016CE9E3
:1017F00071E0E4CFC801B70120E030E040E050E004
:101800000E94061087FD03C0C0E0D0E00EC0D401E6
:10181000ED91FC910190F081E02DC4016DE20995FC
:10182000EC0117FB109517F9109520E030E040E02F
:101830005FE3DD240BC0CA01B90120E030E040E2E3
:1018400051E40E940A109B01AC01D394D71498F381
:10185000C801B7010E94A20F5B016C010E947710C2
:101860007B018C01C401B801A7012AE030E00E948D
:10187000180BC80FD91F772039F0C40160EA71E056
:101880000E94980AC80FD91FC801B7010E94A3106F
:101890009B01AC01C601B5010E94A10F24C020E04C
:1018A00030E040E251E40E9459117B018C010E941A
:1018B00072105B016C01CC24B7FCC094DC2CC40119
:1018C000B601A5012AE030E00E944A0BC80FD91FDB
:1018D000C601B5010E94A5109B01AC01C801B7016A
:1018E0000E94A10F7A947720D1F6CE01DF91CF919B
:1018F0001F910F91FF90EF90DF90CF90BF90AF902E
:101900009F908F907F9008950E94A00B08951F9242
:101910000F920FB60F9211242F933F938F939F93A3
:10192000AF93BF938091AE029091AF02A091B002AD
:10193000B091B1023091B2020196A11DB11D232FC9
:101940002D5F2D3720F02D570196A11DB11D20933D
:10195000B2028093AE029093AF02A093B002B09314
:10196000B1028091AA029091AB02A091AC02B09119
:10197000AD020196A11DB11D8093AA029093AB0206
:10198000A093AC02B093AD02BF91AF919F918F91A4
:101990003F912F910F900FBE0F901F9018958FB70A
:1019A000F8942091AE023091AF024091B002509174
:1019B000B1028FBFB901CA0108959FB7F894209171
:1019C000AA023091AB024091AC025091AD0286B5B3
:1019D000A89B06C08F3F21F02F5F3F4F4F4F5F4FB7
:1019E0009FBF542F432F322F2227280F311D411D17
:1019F000511D82E0220F331F441F551F8A95D1F7D6
:101A0000B901CA010895019739F0880F991F880F0D
:101A1000991F02970197F1F70895789484B5826031
:101A200084BD84B5816084BD85B5826085BD85B582
:101A3000816085BDEEE6F0E0808181608083E1E831
:101A4000F0E0108280818260808380818160808369
:101A5000E0E8F0E0808181608083E1EBF0E080816C
:101A600084608083E0EBF0E0808181608083EAE73E
:101A7000F0E08081846080838081826080838081C7
:101A8000816080838081806880831092C100089586
:101A9000982F8E3008F09E5097708091B2018295F9
:101AA000880F880F807C892B80937C0080917A003E
:101AB000806480937A0080917A0086FDFCCF20912B
:101AC000780040917900942F80E030E0282B392B6A
:101AD000C9010895CF93DF93482F50E0CA0186567D
:101AE0009F4FFC0134914A575F4FFA01849188233C
:101AF00069F190E0880F991FFC01E859FF4FA5910B
:101B0000B491FC01EE58FF4FC591D491662351F476
:101B10002FB7F8948C91932F909589238C9388817B
:101B200089230BC0623061F42FB7F8948C91932F06
:101B3000909589238C938881832B88832FBF06C03F
:101B40009FB7F8948C91832B8C939FBFDF91CF919B
:101B50000895833071F0843028F48130A1F0823010
:101B600021F514C08630B1F08730D1F08430E9F42B
:101B700004C0809180008F7703C0809180008F7DAA
:101B800080938000089584B58F7702C084B58F7DDF
:101B900084BD08958091B0008F778093B000089540
:101BA0008091B0008F7D8093B0000895FF920F93D5
:101BB0001F93F62E482F50E0CA0182559F4FFC011B
:101BC0002491CA0186569F4FFC0114914A575F4FDA
:101BD000FA0104910023C9F0222319F0822F0E94F8
:101BE000A90DE02FF0E0EE0FFF1FEE58FF4FA5917B
:101BF000B4919FB7F894FF2021F48C911095812324
:101C000002C08C91812B8C939FBF1F910F91FF90ED
:101C100008950F931F93482F50E0CA0182559F4F9C
:101C2000FC012491CA0186569F4FFC0104914A573A
:101C30005F4FFA011491112319F420E030E015C030
:101C4000222319F0822F0E94A90D812F90E0880F86
:101C5000991F84589F4FFC01A591B4918C9120E06D
:101C600030E0802311F021E030E0C9011F910F9195
:101C700008952F923F924F925F926F927F928F9230
:101C80009F92AF92BF92CF92DF92EF92FF920F930B
:101C90001F93DF93CF93CDB7DEB73B014C01190102
:101CA0002A016D897E898F89988D6A197B098C0933
:101CB0009D09621A730A840A950AA40193010E947D
:101CC000C011E218F30804091509A80197010E9440
:101CD00001122A0D3B1D4C1D5D1DB901CA01CF919A
:101CE000DF911F910F91FF90EF90DF90CF90BF9009
:101CF000AF909F908F907F906F905F904F903F90AC
:101D00002F900895DC01FB0114968D919C911597FD
:101D1000892B31F461157105A9F090E0808108C02C
:101D20000D90BC91A02D6115710529F490E08C9166
:101D3000882349F407C0CD010E946C029C0190E009
:101D4000232B09F491E0892F0895CF93DF939C0111
:101D5000FB01EC01A881B981109729F060817181A4
:101D600061157105D1F4C081D181209759F084812A
:101D70009581892B39F0888190E022273327281B11
:101D8000390B12C0109771F0F90184819581892B6C
:101D900049F08C91282F30E007C0CD010E946C02E1
:101DA0009C0102C020E030E0C901DF91CF9108958D
:101DB0000F931F93CF93DF93EC018B016F5F7F4FE6
:101DC000888199810E948E01009711F480E005C0FE
:101DD000998388831B830A8381E0DF91CF911F91D0
:101DE0000F910895CF93DF93EC0188819981892B1E
:101DF00029F08A819B818617970760F4CE010E94A3
:101E0000D80E882341F08C819D81892B19F4E881BB
:101E1000F981108281E0DF91CF910895EF92FF92D6
:101E20000F931F93CF93DF93EC017B016C817D8136
:101E3000E114F104C1F04115510599F08A01060F32
:101E4000171FB8010E94F20E882369F088819981DA
:101E50002C813D81820F931FB7010E9475021D8363
:101E60000C8381E001C080E0DF91CF911F910F9141
:101E7000FF90EF900895DF93CF9300D0CDB7DEB7FA
:101E800069831A82BE016F5F7F4F41E050E00E947C
:101E90000E0F0F900F90CF91DF910895CF93DF93A6
:101EA000EC0188819981009711F00E943601198216
:101EB00018821D821C821B821A82DF91CF910895A5
:101EC000EF92FF920F931F93CF93DF93EC017B016F
:101ED0008A01BA010E94F20E882321F4CE010E94E9
:101EE0004E0F07C01D830C8388819981B7010E9422
:101EF0007502CE01DF91CF911F910F91FF90EF906E
:101F00000895CF93DF93EC01198218821B821A8205
:101F10001D821C821E826115710551F0DB010D903E
:101F20000020E9F71197A61BB70BAD010E94600FC7
:101F3000DF91CF910895FC01808191810E9436014B
:101F400008955058BB27AA270ED075C166D130F02E
:101F50006BD120F031F49F3F11F41EF45BC10EF4FD
:101F6000E095E7FB51C1E92F77D180F3BA176207FB
:101F700073078407950718F071F49EF58FC10EF46E
:101F8000E0950B2EBA2FA02D0B01B90190010C0189
:101F9000CA01A0011124FF27591B99F0593F50F4A1
:101FA000503E68F11A16F040A22F232F342F4427F9
:101FB000585FF3CF469537952795A795F0405395F1
:101FC000C9F77EF41F16BA0B620B730B840BBAF0C1
:101FD0009150A1F0FF0FBB1F661F771F881FC2F72C
:101FE0000EC0BA0F621F731F841F48F48795779540
:101FF0006795B795F7959E3F08F0B3CF9395880FF7
:1020000008F09927EE0F979587950895D9D008F491
:1020100081E008950CD00FC107D140F0FED030F020
:1020200021F45F3F19F0F0C0511139C1F3C014D150
:1020300098F39923C9F35523B1F3951B550BBB278F
:10204000AA2762177307840738F09F5F5F4F220F3C
:10205000331F441FAA1FA9F333D00E2E3AF0E0E835
:1020600030D091505040E695001CCAF729D0FE2F81
:1020700027D0660F771F881FBB1F26173707480713
:10208000AB07B0E809F0BB0B802DBF01FF279358C9
:102090005F4F2AF09E3F510568F0B6C000C15F3F18
:1020A000ECF3983EDCF3869577956795B795F795B1
:1020B0009F5FC9F7880F911D9695879597F90895A9
:1020C000E1E0660F771F881FBB1F62177307840745
:1020D000BA0720F0621B730B840BBA0BEE1F88F754
:1020E000E095089504D06894B111D9C00895BCD08A
:1020F00088F09F5790F0B92F9927B751A0F0D1F0F1
:10210000660F771F881F991F1AF0BA95C9F712C07A
:10211000B13081F0C3D0B1E00895C0C0672F782FEF
:102120008827B85F39F0B93FCCF3869577956795E6
:10213000B395D9F73EF490958095709561957F4F52
:102140008F4F9F4F0895E89409C097FB3EF49095F8
:102150008095709561957F4F8F4F9F4F9923A9F080
:10216000F92F96E9BB279395F6958795779567950F
:10217000B795F111F8CFFAF4BB0F11F460FF1BC053
:102180006F5F7F4F8F4F9F4F16C0882311F096E9E6
:1021900011C0772321F09EE8872F762F05C0662394
:1021A00071F096E8862F70E060E02AF09A95660F4D
:1021B000771F881FDAF7880F9695879597F9089506
:1021C000990F0008550FAA0BE0E8FEEF1616170648
:1021D000E807F907C0F012161306E407F50798F0B0
:1021E000621B730B840B950B39F40A2661F0232BC9
:1021F000242B252B21F408950A2609F4A140A69545
:102200008FEF811D811D089597F99F6780E870E029
:1022100060E008959FEF80EC089500240A9416165C
:10222000170618060906089500240A9412161306C4
:10223000140605060895092E0394000C11F4882352
:1022400052F0BB0F40F4BF2B11F460FF04C06F5F6E
:102250007F4F8F4F9F4F089557FD9058440F551F44
:1022600059F05F3F71F04795880F97FB991F61F018
:102270009F3F79F087950895121613061406551F8F
:10228000F2CF4695F1DF08C0161617061806991FFB
:10229000F1CF86957105610508940895E894BB27F0
:1022A00066277727CB0197F908958ADF08F48FEF27
:1022B00008950BD0C0CFB1DF28F0B6DF18F095231A
:1022C00009F0A2CFA7CF1124EACFC6DFA0F3959FD4
:1022D000D1F3950F50E0551F629FF001729FBB270D
:1022E000F00DB11D639FAA27F00DB11DAA1F649FB9
:1022F0006627B00DA11D661F829F2227B00DA11D6C
:10230000621F739FB00DA11D621F839FA00D611DF1
:10231000221F749F3327A00D611D231F849F600D12
:10232000211D822F762F6A2F11249F5750408AF04B
:10233000E1F088234AF0EE0FFF1FBB1F661F771FD7
:10234000881F91505040A9F79E3F510570F05CCF17
:10235000A6CF5F3FECF3983EDCF3869577956795C3
:10236000B795F795E7959F5FC1F7FE2B880F911DF5
:102370009695879597F9089523DF880B990B089513
:10238000629FD001739FF001829FE00DF11D649F59
:10239000E00DF11D929FF00D839FF00D749FF00DE5
:1023A000659FF00D9927729FB00DE11DF91F639F86
:1023B000B00DE11DF91FBD01CF0111240895A1E267
:1023C0001A2EAA1BBB1BFD010DC0AA1FBB1FEE1FAF
:1023D000FF1FA217B307E407F50720F0A21BB30BFA
:1023E000E40BF50B661F771F881F991F1A9469F776
:1023F00060957095809590959B01AC01BD01CF01D2
:10240000089597FB092E05260ED057FD04D0D7DF7F
:102410000AD0001C38F450954095309521953F4FD7
:102420004F4F5F4F0895F6F79095809570956195A1
:102430007F4F8F4F9F4F0895EE0FFF1F0590F49130
:10244000E02D09942F923F924F925F926F927F926C
:102450008F929F92AF92BF92CF92DF92EF92FF92B4
:102460000F931F93CF93DF93CDB7DEB7CA1BDB0B60
:102470000FB6F894DEBF0FBECDBF09942A88398805
:1024800048885F846E847D848C849B84AA84B9840C
:10249000C884DF80EE80FD800C811B81AA81B98118
:1024A000CE0FD11D0FB6F894DEBF0FBECDBFED012C
:0624B0000895F894FFCF2F
:1024B6005B002C005D0D00004C454654004C00208E
:1024C60045452D524541442D2121205B0052494767
:1024D600485400520057002045452D57524954454F
:1024E6002D2121205B0044000D005500530053545C
:1024F6004F500049004F004100500046000D20702B
:102506006F743D3D3E003C00200D000D206D6F7444
:102516002073706565643A00203A73706420002069
:102526003A200D0075504C207C00754445207C00F7
:1025360064653A006D735D00503A0020006D6D2FA2
:102546006D6920006E616E00696E66006F766600CA
:102556002E002000B70200000100A00FF4014A017E
:1025660001000100000000C109660A5709880968D0
:0425760009B109009E
:00000001FF
