:100000000C9462000C948A000C948A000C948A0070
:100010000C948A000C948A000C948A000C948A0038
:100020000C948A000C948A000C948A000C948A0028
:100030000C948A000C948A000C948A000C948A0018
:100040000C94E10C0C948A000C946E080C94BC087F
:100050000C948A000C948A000C948A000C948A00F8
:100060000C948A000C948A000000000024002700F1
:100070002A0000000000250028002B0000000000DE
:1000800023002600290004040404040404040202DA
:100090000202020203030303030301020408102007
:1000A0004080010204081020010204081020000012
:1000B0000007000201000003040600000000000029
:1000C0000000280A11241FBECFEFD8E0DEBFCDBF4D
:1000D00011E0A0E0B1E0EAEBF5E202C005900D927C
:1000E000AC3DB107D9F712E0ACEDB1E001C01D9213
:1000F000AB3CB107E1F710E0C4ECD0E004C02297BC
:10010000FE010E94A012C23CD107C9F70E947E0ADC
:100110000C94DB120C940000CF93DF93BC0182306F
:10012000910510F462E070E0A091C902B091CA029A
:10013000ED01E0E0F0E040E050E021C088819981ED
:100140008617970769F48A819B81309719F093830A
:10015000828304C09093CA028093C902FE0134C016
:100160006817790738F44115510519F08417950778
:1001700008F4AC01FE018A819B819C01E901209772
:10018000E9F641155105A9F1CA01861B970B0497A1
:1001900008F4BA01E0E0F0E02AC08D919C9111973B
:1001A00084179507F9F46417750781F412968D91F9
:1001B0009C911397309719F09383828304C0909396
:1001C000CA028093C902FD0132964CC0CA01861B47
:1001D000970BFD01E80FF91F6193719302978D93BF
:1001E0009C9340C0FD01828193819C01D9011097AD
:1001F000A1F68091C7029091C802892B41F48091A9
:10020000BC019091BD019093C8028093C7024091B8
:10021000BE015091BF014115510541F44DB75EB784
:100220008091BA019091BB01481B590B2091C702E4
:100230003091C802CA01821B930B8617970780F082
:10024000AB014E5F5F4F8417950750F0420F531F6D
:100250005093C8024093C702F9016193719302C0A1
:10026000E0E0F0E0CF01DF91CF910895CF93DF93ED
:10027000009709F450C0EC0122971B821A82A091CA
:10028000C902B091CA02109709F140E050E0AC17E2
:10029000BD0708F1BB83AA83FE0121913191E20FD2
:1002A000F31FAE17BF0779F48D919C911197280F1A
:1002B000391F2E5F3F4F3983288312968D919C9171
:1002C00013979B838A834115510571F4D093CA0219
:1002D000C093C90220C012968D919C911397AD01D5
:1002E000009711F0DC01D3CFFA01D383C2832191AF
:1002F0003191E20FF31FCE17DF0769F488819981EE
:10030000280F391F2E5F3F4FFA01318320838A81E6
:100310009B8193838283DF91CF910895A0E0B0E029
:10032000E4E9F1E00C94A6126C01009729F4CB01EA
:100330000E948C006C01C1C08EEF882E8FEF982E2A
:100340008C0C9D1C8601060F171F0815190508F453
:10035000B2C0F401A081B181A617B707B8F0A530EB
:10036000B10508F4AAC0CD0104978617970708F4D1
:10037000A4C01297A61BB70BF801A193B193D401A7
:100380006D937C93CF010E94360197C07B01EA1ADE
:10039000FB0AEEEFFFEFEE0EFF1E36016A0E7B1E2C
:1003A000C091C902D091CA0244245524AA24BB2476
:1003B0004AC0C615D705E1F5488159814E155F053C
:1003C000B8F1CA0104978E159F05B0F41296A40FD8
:1003D000B51FF401B183A0832A813B8141145104EC
:1003E00031F0D20113963C932E93129766C030934E
:1003F000CA022093C90261C08A819B81F80193835C
:100400008283425050404E195F095183408341140A
:10041000510431F0D20113961C930E93129704C02D
:100420001093CA020093C902F4017183608345C02E
:1004300088819981A816B90608F45C012E018A8189
:100440009B819C01E901209709F0B3CF8091C702FD
:100450009091C80286159705E9F4A616B706D0F460
:100460002091BE013091BF012115310541F42DB716
:100470003EB78091BA019091BB01281B390B02173E
:100480001307C8F41093C8020093C702D4016D93F8
:100490007C9313C0CB010E948C00EC01009759F0B3
:1004A000F40140815181B6010E946302C6010E949D
:1004B00036016E0102C0CC24DD24C601CDB7DEB703
:1004C000E0E10C94C212FB01DC0102C001900D922C
:1004D00041505040D8F70895FB01DC018D91019007
:1004E00080190110D9F3990B0895FB01DC010190EB
:1004F0000D920020E1F708955F926F927F928F92A4
:100500009F92AF92BF92CF92DF92EF92FF920F93A2
:100510001F93582E79018A010E94370D3B014C012F
:100520008091E0019091E101A091E201B091E3019D
:1005300064015301A81AB90ACA0ADB0AC801B70143
:1005400024E630E040E050E00E942E126A157B0560
:100550008C059D0510F080E028C0852D61E00E948B
:10056000330E82E090E00E945D0D852D60E00E94D8
:10057000330E80910A0290910B02A0910C02B0916F
:100580000D020196A11DB11D80930A0290930B02EA
:10059000A0930C02B0930D026092E0017092E10111
:1005A0008092E2019092E30181E01F910F91FF9010
:1005B000EF90DF90CF90BF90AF909F908F907F9003
:1005C0006F905F900895EF92FF920F931F930091A9
:1005D000C6011091C70183E1E82E82E0F82EC80120
:1005E0006FEF70E00E944D12462FC70161E070E08E
:1005F0000E946108C8016FEF70E00E944D12482F01
:10060000C70162E070E00E946108C70163E070E02A
:100610004091C0010E946108C70161E070E00E9442
:100620005A08682F0CE912E0C8014AE050E00E9425
:100630005F0BC80160E071E00E94C40BC70162E07B
:1006400070E00E945A08682FC8014AE050E00E94FA
:100650005F0BC80162E071E00E94C40BC70163E058
:1006600070E00E945A08682FC8014AE050E00E94DA
:100670005F0B1F910F91FF90EF900895CF92DF9243
:10068000EF92FF920F931F930CE912E0C80164E010
:1006900071E00E94C40B6091C6017091C701C8014E
:1006A0004AE050E00E944E0B22E0E22E21E0F22EC2
:1006B000C801B7010E94C40B93E1C92E92E0D92E64
:1006C000C60161E070E00E945A08682FC8014AE044
:1006D00050E00E945F0BC801B7010E94C40BC60125
:1006E00062E070E00E945A08682FC8014AE050E0BA
:1006F0000E945F0BC801B7010E94C40BC60163E0F2
:1007000070E00E945A08682FC8014AE050E00E9439
:100710005F0BC80166E071E00E94C40BC60161E096
:1007200070E00E945A08082FC60162E070E00E9443
:100730005A089FEF099F80011124080F111D109383
:10074000C7010093C601C60163E070E00E945A0829
:10075000682F8093C0011092C10184E00E94330E83
:100760001F910F91FF90EF90DF90CF9008956F92BF
:100770007F928F929F92AF92BF92CF92DF92EF9231
:10078000FF920F931F93DF93CF93CDB7DEB7C2567F
:10079000D0400FB6F894DEBF0FBECDBF0E94290D2A
:1007A0003B014C0189E060E00E94330E8091E8013A
:1007B0009091E901A091EA01B091EB01A4019301AC
:1007C000281B390B4A0B5B0B2531310541055105BF
:1007D00008F431C26092E8017092E9018092EA0166
:1007E0009092EB018E010F5F1F4FC80169E071E02D
:1007F0000E94EF0F08C08CE992E00E94AF09682FB9
:10080000C8010E94A90F8CE992E00E947E09892B01
:1008100091F7C80169E071E00E94F00E882329F485
:100820008CE992E0B8010E94AE0C8E01085F1F4F68
:10083000C8016AE071E00E94EF0F7E010894E11C9C
:10084000F11CC701B8010E94130F892B11F411E0AC
:1008500014C08E01015F1F4FC80160E171E00E946A
:10086000EF0FC701B8010E94130F10E0892B09F4A4
:1008700011E0CE010F960E940910CE0108960E9449
:100880000910112381F08CE992E062E171E00E948D
:10089000C40B0E943E03109208028CE992E066E0CD
:1008A00071E00E94C40B8E010A5E1F4FC80160E216
:1008B00071E00E94EF0F7E010894E11CF11CC7015A
:1008C000B8010E94130F892B11F411E028C08E018A
:1008D000035E1F4FC80165E271E00E94EF0FC70180
:1008E000B8010E94130F892B11F411E014C08E017E
:1008F0000C5D1F4FC80167E271E00E94EF0FC70156
:10090000B8010E94130F10E0892B09F411E0CE0109
:1009100084960E940910CE014D960E940910CE01C6
:1009200046960E940910112389F08CE992E069E251
:1009300071E00E94C40B0E94E30281E080930802F0
:100940008CE992E066E071E00E94C40B8E01055DC7
:100950001F4FC80168E371E00E94EF0FCE010196BE
:10096000B8010E94130F7C01C8010E940910EF28F2
:1009700059F58091C6019091C7012091C80130912D
:10098000C901821B930B9093C7018093C601069700
:1009900030F485E090E09093C7018093C6018CE924
:1009A00092E06CE00E94B70A6091C6017091C701A5
:1009B0008CE992E04AE050E00E944E0B8CE992E014
:1009C0006AE371E00E94C40B8E010E5C1F4FC801E8
:1009D0006CE371E00E94EF0FCE010196B8010E9416
:1009E000130F7C01C8010E940910EF2861F5809166
:1009F000C8019091C9012091C6013091C701820FB1
:100A0000931F9093C7018093C6018051974230F0A5
:100A100088EE93E09093C7018093C6018CE992E041
:100A20006CE00E94B70A6091C6017091C7018CE921
:100A300092E04AE050E00E944E0B8CE992E06AE3BB
:100A400071E00E94C40B8E01075C1F4FC8016EE36A
:100A500071E00E94EF0FCE010196B8010E94130FC2
:100A60007C01C8010E940910EF2871F58CE992E021
:100A700060E471E00E94C40B90E080911202882330
:100A800009F491E090931202992331F480E293E00B
:100A90009093C3018093C20180911202813021F4AE
:100AA0001092C3011092C20185E00E94660E60E0C0
:100AB000892B09F461E085E00E94330E8CE992E015
:100AC0006AE371E00E94C40B8E01005C1F4FC801F5
:100AD00065E471E00E94EF0FCE010196B8010E941B
:100AE000130F7C01C8010E940910EF2881F5809145
:100AF000C0019091C1018130910539F41092C1017A
:100B00001092C00184E060E00AC0892B51F481E0BA
:100B100090E09093C1018093C00184E061E00E9465
:100B2000330E8CE992E067E471E00E94C40B60919F
:100B3000C0017091C1018CE992E04AE050E00E944E
:100B4000B10B8CE992E06AE371E00E94C40B8E0164
:100B5000095B1F4FC80162E571E00E94EF0FCE01F3
:100B60000196B8010E94130F7C01C8010E94091070
:100B7000EF2811F40E943E038E01025B1F4FC80153
:100B800064E571E00E94EF0FCE010196B8010E946A
:100B9000130F7C01C8010E940910EF2819F481E0AD
:100BA000809309028E010B5A1F4FC80166E571E060
:100BB0000E94EF0FCE010196B8010E94130F7C0135
:100BC000C8010E940910EF2831F48091080291E0D9
:100BD0008927809308028E01045A1F4FC80168E5D7
:100BE00071E00E94EF0FCE010196B8010E94130F31
:100BF0007C01C8010E940910EF28C9F48091C80146
:100C00009091C901019719F48AE090E002C081E057
:100C100090E09093C9018093C8016091C8017091E0
:100C2000C9018CE992E04AE050E00E944E0BCE01EF
:100C300001960E94091080910802882309F485C05A
:100C40008091E4019091E501A091E601B091E70166
:100C5000A4019301281B390B4A0B5B0BDA01C90174
:100C600089559240A040B04008F46FC081E00E94D6
:100C7000A20D8FE00E94A50D9C019093C501809369
:100C8000C40100D000D040E050E085E090E0A0E05A
:100C9000B0E0EDB7FEB781839283A383B483CA012A
:100CA000B90120E030E040E050E0FFEFEF2EF3E04C
:100CB000FF2E012D112DE1E0AE2EB12CC12CD12C37
:100CC0000E94960E9B01AC01209304023093050212
:100CD0004093060250930702DA01C90162E0880FCF
:100CE000991FAA1FBB1F6A95D1F7820F931FA41FDC
:100CF000B51F9093C9018093C8010F900F900F907A
:100D00000F908CE992E06AE571E00E94C40B60915B
:100D1000C8017091C9018CE992E04AE050E00E945C
:100D20004E0B8CE992E06BE671E00E94C40B8CE9FB
:100D300092E06DE671E00E94C40B6092E401709253
:100D4000E5018092E6019092E7016091C601709101
:100D5000C70180E090E00E94111120E030E040E700
:100D600052E40E9478102CE636EC42E95EE30E94E1
:100D700078109B01AC0160E070E48CE196E40E9485
:100D800078106B017C010E94370D2091F0013091A9
:100D9000F1014091F2015091F301621B730B840B3E
:100DA000950B6093F4017093F5018093F601909395
:100DB000F7010E94370D6093EC017093ED01809371
:100DC000EE019093EF01C701B6010E94E5109B016F
:100DD000AC010091C0011091C10183E090E064E09A
:100DE00070E00E947C02182F0E94370D2091EC01C8
:100DF0003091ED014091EE015091EF01621B730BB8
:100E0000840B950B6093F8017093F9018093FA01BC
:100E10009093FB01112309F463C00E94370D609386
:100E2000F0017093F1018093F2019093F3018091AE
:100E30000902882309F454C08CE992E060E771E06C
:100E40000E94C40B8CE992E0B701A60122E030E0D9
:100E50000E94AB0C8CE992E06DE771E00E94C40B3C
:100E60006091C6017091C7018CE992E04AE050E0C0
:100E70000E944E0B8CE992E064E871E00E94C40B82
:100E80004091F8015091F9016091FA017091FB01D4
:100E90008CE992E02AE030E00E943F0B8CE992E07E
:100EA00069E871E00E94C40B4091F4015091F50192
:100EB0006091F6017091F7018CE992E02AE030E050
:100EC0000E943F0B8CE992E06FE871E00E94C40B36
:100ED0008CE992E06AE371E00E94C40B109209026F
:100EE0008091DC019091DD01A091DE01B091DF01E4
:100EF000A4019301281B390B4A0B5B0BDA01C901D2
:100F00008A5E9340A040B04008F481C089E061E06F
:100F10000E94330E8CE992E065E971E00E94C40BF7
:100F20008CE992E0B701A60120E030E00E94AB0C12
:100F30008CE992E069E971E00E94C40B80910A0299
:100F400090910B02A0910C02B0910D0220910E0223
:100F500030910F027C01E21AF30A80930E02909303
:100F60000F02A0931002B09311028CE992E06DE998
:100F700071E00E94C40B8CE992E0B7014AE050E0B6
:100F80000E944E0B8CE992E069E071E00E94C40B74
:100F90008CE992E06CE00E94B70A8CE992E060EA8A
:100FA00071E00E94C40B00E010E0C801B7010E948C
:100FB00011112CE636EC42E95EE30E94C71120E0F5
:100FC00030E040E752E40E94C71120E030E040E208
:100FD00051E40E947810AB01BC018CE992E021E061
:100FE00030E00E94AB0C8CE992E065EA71E00E946F
:100FF000C40B8CE992E06AE371E00E94C40B60923A
:10100000DC017092DD018092DE019092DF01CE5909
:10101000DF4F0FB6F894DEBF0FBECDBFCF91DF918B
:101020001F910F91FF90EF90DF90CF90BF90AF9006
:101030009F908F907F906F90089583E061E00E9471
:10104000C70D84E061E00E94C70D85E061E00E9469
:10105000C70D89E061E00E94C70D82E061E00E9457
:10106000C70D87E060E00E94C70D88E060E00E9445
:10107000C70D85E060E00E94330E8CE992E040E00D
:1010800052EC61E070E00E94F7080E94290D609325
:10109000FC017093FD018093FE019093FF0110927B
:1010A00000021092010210920202109203020E94AA
:1010B0003E030895F999FECF72BD61BDF89A80B5DF
:1010C0000895F999FECF1FBA72BD61BD40BD0FB63C
:1010D000F894FA9AF99A0FBE089508951F920F9204
:1010E0000FB60F9211242F933F934F938F939F939B
:1010F000EF93FF938091C00082FD1DC04091C60018
:1011000020915402309155022F5F3F4F2F73307062
:1011100080915602909157022817390771F0E0919B
:101120005402F0915502EC5EFD4F4083309355021E
:101130002093540202C08091C600FF91EF919F91CD
:101140008F914F913F912F910F900FBE0F901F9055
:101150001895E091A802F091A902E05CFF4F8191FF
:10116000919120813181821B930B8F739070892B19
:1011700011F00E946D0808951F920F920FB60F9202
:1011800011242F933F938F939F93EF93FF9320917D
:1011900098023091990280919A0290919B022817AF
:1011A000390731F48091C1008F7D8093C10014C054
:1011B000E0919A02F0919B02E85AFD4F20818091C4
:1011C0009A0290919B0201968F73907090939B026C
:1011D00080939A022093C600FF91EF919F918F9187
:1011E0003F912F910F900FBE0F901F901895AF92C7
:1011F000BF92DF92EF92FF920F931F93CF93DF93F3
:10120000EC017A018B01DD24403081EE580780E04B
:10121000680780E0780711F0DD24D39491E0A92ECF
:10122000B12CEC89FD89DD2069F0C50108A002C060
:10123000880F991F0A94E2F7808360E079E08DE3DC
:1012400090E005C0108260E874E88EE190E0A801AB
:1012500097010E9461122150304040405040569505
:1012600047953795279580E12030380720F0DD201D
:1012700011F0DD24D6CFE889F9893083EA89FB892A
:10128000208319A2EE89FF89408121E030E0C90165
:101290000C8C02C0880F991F0A94E2F7482B4083F8
:1012A000EE89FF894081C9010D8C02C0880F991F0A
:1012B0000A94E2F7482B4083EE89FF894081C901F7
:1012C0000E8C02C0880F991F0A94E2F7482B4083C6
:1012D000EE89FF8980810F8C02C0220F331F0A9490
:1012E000E2F7209528232083DF91CF911F910F9162
:1012F000FF90EF90DF90BF90AF900895DC011C96B7
:10130000ED91FC911D97E05CFF4F2191319180811F
:101310009181281B390B2F733070C9010895DC01AE
:101320001C96ED91FC911D97E05CFF4F208131816F
:10133000E054F040DF01AE5BBF4F8D919C9111975F
:101340002817390719F42FEF3FEF07C08D919C91B3
:10135000E80FF91F8081282F30E0C9010895DC01D2
:101360001C96ED91FC911D97E05CFF4F208131812F
:10137000E054F040DF01AE5BBF4F8D919C9111971F
:101380002817390719F42FEF3FEF10C08D919C916A
:101390001197E80FF91F20818D919C91119701966B
:1013A0008F73907011969C938E9330E0C9010895CD
:1013B000DC0191968C919197882339F05496ED91A8
:1013C000FC915597808186FFF9CF91961C920895E4
:1013D000CF93DF93EC01EE85FF85E05CFF4F20812A
:1013E0003181E054F0402F5F3F4F2F733070DF01A9
:1013F000AE5BBF4F8D919C91119728173907D1F3A0
:10140000E05CFF4F80819181E054F040E80FF91FCC
:101410006083EE85FF85E05CFF4F31832083EE899A
:10142000FF89208181E090E00F8C02C0880F991F16
:101430000A94E2F7282B208381E089A3EC89FD89B7
:1014400080818064808381E090E0DF91CF91089576
:1014500010929F0210929E0288EE93E0A0E0B0E00E
:101460008093A0029093A102A093A202B093A30242
:101470008FEC91E090939D0280939C0284E192E036
:101480009093A9028093A80288E592E09093AB0222
:101490008093AA0285EC90E09093AD028093AC0219
:1014A00084EC90E09093AF028093AE0280EC90E0E9
:1014B0009093B1028093B00281EC90E09093B302DC
:1014C0008093B20282EC90E09093B5028093B402D4
:1014D00086EC90E09093B7028093B60284E080930C
:1014E000B80283E08093B90287E08093BA0285E076
:1014F0008093BB0281E08093BC020895CF93DF9379
:101500000E94670D0E941D08C9EAD8E00E94B70337
:101510002097E1F30E94A908F9CFCF92DF92EF92D2
:10152000FF920F931F93CF93DF937C016B018A018E
:10153000C0E0D0E00FC0D6016D916D01D701ED91F3
:10154000FC910190F081E02DC7010995C80FD91FCA
:10155000015010400115110571F7CE01DF91CF91B7
:101560001F910F91FF90EF90DF90CF900895DC01D5
:10157000ED91FC910190F081E02D09950895CF93B4
:10158000DF93EC016115710519F420E030E00FC024
:10159000DB010D900020E9F71197A61BB70BE8813E
:1015A000F9810280F381E02DAD0109959C01C9010B
:1015B000DF91CF9108954F925F927F928F929F9289
:1015C000AF92BF92CF92DF92EF92FF920F931F9351
:1015D000DF93CF93CDB7DEB7A1970FB6F894DEBFF8
:1015E0000FBECDBF2C01742ECB01223008F42AE0AF
:1015F00019A231E2C32ED12CCC0EDD1E822E9924ED
:10160000AA24BB24672D752FA50194010E946112A5
:1016100079018A01C801B701A50194010E942E1227
:10162000472D461B0894C108D1084A3014F4405D88
:1016300001C0495CF6014083E114F1040105110584
:1016400021F07E2C5F2DC801DDCFC201B6010E94C2
:10165000BF0AA1960FB6F894DEBF0FBECDBFCF91E3
:10166000DF911F910F91FF90EF90DF90CF90BF908F
:10167000AF909F908F907F905F904F900895DC0186
:101680002115310541F4ED91FC910190F081E02D9F
:10169000642F099508950E94DB0A0895EF92FF9246
:1016A0000F931F939A017B0100E010E0B801A7019E
:1016B0000E943F0B1F910F91FF90EF900895EF92C2
:1016C000FF920F931F939A01E62EFF2400E010E093
:1016D000B801A7010E943F0B1F910F91FF90EF905F
:1016E0000895CF92DF92EF92FF920F931F93CF93C3
:1016F000DF93EC016A017B012115310541F4E8819A
:10170000F9810190F081E02D642F09951FC02A30E6
:101710003105D1F477FF17C0E881F9810190F0819C
:10172000E02D6DE209958C0144275527BA014C192B
:101730005D096E097F09CE012AE00E94DB0A98014B
:10174000280F391F04C02AE00E94DB0A9C01C9014E
:10175000DF91CF911F910F91FF90EF90DF90CF908D
:101760000895EF92FF920F931F937B019A01002738
:10177000F7FC0095102FB801A7010E94710B1F9173
:101780000F91FF90EF9008950E94BF0A08957F92F5
:101790008F929F92AF92BF92CF92DF92EF92FF9281
:1017A0000F931F93CF93DF934C017A018B01722E1D
:1017B000CB01BA01A80197010E942A12882321F0C7
:1017C000C4016CEA71E021C0C0E0D0E057016801BB
:1017D000E894D7F8C601B5012FEF3FEF4FE75FE779
:1017E0000E942A12882351F4C601B5012FEF3FEF62
:1017F0004FE75FE70E947410181614F0C1E0D0E0C4
:10180000219739F0C40160EB71E00E94BF0AEC013E
:1018100093C0C801B7012FEF3FEF4FE75FE40E948D
:10182000C311181654F0C801B7012FEF3FEF4FE76F
:101830005FEC0E947410882324F4C40164EB71E00F
:10184000E4CFC801B70120E030E040E050E00E9462
:10185000741087FD03C0C0E0D0E00EC0D401ED914C
:10186000FC910190F081E02DC4016DE20995EC013D
:1018700017FB109517F9109520E030E040E05FE38A
:10188000DD240BC0CA01B90120E030E040E251E4A0
:101890000E9478109B01AC01D394D71498F3C8012F
:1018A000B7010E9410105B016C010E94E5107B01E2
:1018B0008C01C401B801A7012AE030E00E943F0B6F
:1018C000C80FD91F772039F0C40168EB71E00E947E
:1018D000BF0AC80FD91FC801B7010E9411119B018F
:1018E000AC01C601B5010E940F1024C020E030E019
:1018F00040E251E40E94C7117B018C010E94E0107C
:101900005B016C01CC24B7FCC094DC2CC401B60193
:10191000A5012AE030E00E94710BC80FD91FC60153
:10192000B5010E9413119B01AC01C801B7010E94CF
:101930000F107A947720D1F6CE01DF91CF911F91CD
:101940000F91FF90EF90DF90CF90BF90AF909F905E
:101950008F907F9008950E94C70B0895AF92BF9219
:10196000CF92DF92EF92FF920F931F93CF93DF936B
:101970005C016B01EE24FF24C0E0D0E010C0D50173
:10198000ED91FC9100811181C601BE010E94DF0E24
:10199000682FC501F8010995E80EF91E2196F60198
:1019A00084819581C817D90750F3C701DF91CF9182
:1019B0001F910F91FF90EF90DF90CF90BF90AF906D
:1019C00008951F920F920FB60F9211242F933F93F9
:1019D0008F939F93AF93BF938091C2029091C30264
:1019E000A091C402B091C5023091C6020196A11D1A
:1019F000B11D232F2D5F2D3720F02D570196A11DEE
:101A0000B11D2093C6028093C2029093C302A0939B
:101A1000C402B093C5028091BE029091BF02A09112
:101A2000C002B091C1020196A11DB11D8093BE02FA
:101A30009093BF02A093C002B093C102BF91AF9137
:101A40009F918F913F912F910F900FBE0F901F90FC
:101A500018958FB7F8942091C2023091C30240913B
:101A6000C4025091C5028FBFB901CA0108959FB742
:101A7000F8942091BE023091BF024091C002509173
:101A8000C10286B5A89B06C08F3F21F02F5F3F4F54
:101A90004F4F5F4F9FBF542F432F322F2227280FC6
:101AA000311D411D511D82E0220F331F441F551F60
:101AB0008A95D1F7B901CA010895019739F0880FC5
:101AC000991F880F991F02970197F1F7089578944D
:101AD00084B5826084BD84B5816084BD85B5826033
:101AE00085BD85B5816085BDEEE6F0E080818160D1
:101AF0008083E1E8F0E010828081826080838081D1
:101B000081608083E0E8F0E0808181608083E1EBA8
:101B1000F0E0808184608083E0EBF0E08081816090
:101B20008083EAE7F0E08081846080838081826046
:101B3000808380818160808380818068808310922F
:101B4000C10008958093CA010895982F8E3008F03F
:101B50009E5097708091CA018295880F880F807C73
:101B6000892B80937C0080917A00806480937A0036
:101B700080917A0086FDFCCF209178004091790019
:101B8000942F80E030E0282B392BC9010895CF93A2
:101B9000DF93482F50E0CA0186569F4FFC013491D5
:101BA0004A575F4FFA018491882369F190E0880FCA
:101BB000991FFC01E859FF4FA591B491FC01EE5823
:101BC000FF4FC591D491662351F42FB7F8948C91AF
:101BD000932F909589238C93888189230BC0623041
:101BE00061F42FB7F8948C91932F909589238C935F
:101BF0008881832B88832FBF06C09FB7F8948C9170
:101C0000832B8C939FBFDF91CF910895833071F028
:101C1000843028F48130A1F0823021F514C0863060
:101C2000B1F08730D1F08430E9F404C080918000B5
:101C30008F7703C0809180008F7D8093800008950E
:101C400084B58F7702C084B58F7D84BD089580915F
:101C5000B0008F778093B00008958091B0008F7DA1
:101C60008093B0000895FF920F931F93F62E482F94
:101C700050E0CA0182559F4FFC012491CA0186564B
:101C80009F4FFC0114914A575F4FFA0104910023C2
:101C9000C9F0222319F0822F0E94060EE02FF0E0F7
:101CA000EE0FFF1FEE58FF4FA591B4919FB7F89428
:101CB000FF2021F48C911095812302C08C91812BFF
:101CC0008C939FBF1F910F91FF9008950F931F93C7
:101CD000482F50E0CA0182559F4FFC012491CA0150
:101CE00086569F4FFC0104914A575F4FFA011491A9
:101CF000112319F420E030E015C0222319F0822FBF
:101D00000E94060E812F90E0880F991F84589F4FE4
:101D1000FC01A591B4918C9120E030E0802311F07A
:101D200021E030E0C9011F910F9108952F923F9259
:101D30004F925F926F927F928F929F92AF92BF92DB
:101D4000CF92DF92EF92FF920F931F93DF93CF9387
:101D5000CDB7DEB73B014C0119012A016D897E899F
:101D60008F89988D6A197B098C099D09621A730AFB
:101D7000840A950AA40193010E942E12E218F30826
:101D800004091509A80197010E9483122A0D3B1D21
:101D90004C1D5D1DB901CA01CF91DF911F910F91BB
:101DA000FF90EF90DF90CF90BF90AF909F908F907B
:101DB0007F906F905F904F903F902F900895FC011F
:101DC000848195816817790748F40190F081E02DAE
:101DD000309721F0E60FF71F8081089580E0089585
:101DE000DC01FB0114968D919C911597892B31F4A0
:101DF00061157105A9F090E0808108C00D90BC913B
:101E0000A02D6115710529F490E08C91882349F487
:101E100007C0CD010E946C029C0190E0232B09F4C5
:101E200091E0892F0895CF93DF939C01FB01EC0192
:101E3000A881B981109729F06081718161157105C0
:101E4000D1F4C081D181209759F084819581892B6B
:101E500039F0888190E022273327281B390B12C0E4
:101E6000109771F0F90184819581892B49F08C914B
:101E7000282F30E007C0CD010E946C029C0102C0F7
:101E800020E030E0C901DF91CF9108950F931F93B7
:101E9000CF93DF93EC018B016F5F7F4F8881998136
:101EA0000E948E01009711F480E005C09983888319
:101EB0001B830A8381E0DF91CF911F910F910895D9
:101EC000CF93DF93EC0188819981892B29F08A8156
:101ED0009B818617970760F4CE010E94460F8823E6
:101EE00041F08C819D81892B19F4E881F981108260
:101EF00081E0DF91CF910895EF92FF920F931F93AE
:101F0000CF93DF93EC017B016C817D81E114F104BF
:101F1000C1F04115510599F08A01060F171FB8014C
:101F20000E94600F882369F0888199812C813D810E
:101F3000820F931FB7010E9475021D830C8381E0FD
:101F400001C080E0DF91CF911F910F91FF90EF9042
:101F50000895DF93CF9300D0CDB7DEB769831A829F
:101F6000BE016F5F7F4F41E050E00E947C0F0F90F9
:101F70000F90CF91DF910895CF93DF93EC0188818B
:101F80009981009711F00E943601198218821D82F2
:101F90001C821B821A82DF91CF910895EF92FF92EB
:101FA0000F931F93CF93DF93EC017B018A01BA015A
:101FB0000E94600F882321F4CE010E94BC0F07C04D
:101FC0001D830C8388819981B7010E947502CE011F
:101FD000DF91CF911F910F91FF90EF900895CF93D4
:101FE000DF93EC01198218821B821A821D821C82E7
:101FF0001E826115710551F0DB010D900020E9F79B
:102000001197A61BB70BAD010E94CE0FDF91CF91A8
:102010000895FC01808191810E94360108955058F5
:10202000BB27AA270ED075C166D130F06BD120F046
:1020300031F49F3F11F41EF45BC10EF4E095E7FB11
:1020400051C1E92F77D180F3BA176207730784076C
:10205000950718F071F49EF58FC10EF4E0950B2EE4
:10206000BA2FA02D0B01B90190010C01CA01A001EA
:102070001124FF27591B99F0593F50F4503E68F145
:102080001A16F040A22F232F342F4427585FF3CF86
:10209000469537952795A795F0405395C9F77EF457
:1020A0001F16BA0B620B730B840BBAF09150A1F0A0
:1020B000FF0FBB1F661F771F881FC2F70EC0BA0F26
:1020C000621F731F841F48F4879577956795B795AE
:1020D000F7959E3F08F0B3CF9395880F08F09927A6
:1020E000EE0F979587950895D9D008F481E008956B
:1020F0000CD00FC107D140F0FED030F021F45F3F8B
:1021000019F0F0C0511139C1F3C014D198F39923DB
:10211000C9F35523B1F3951B550BBB27AA276217AB
:102120007307840738F09F5F5F4F220F331F441FF0
:10213000AA1FA9F333D00E2E3AF0E0E830D0915028
:102140005040E695001CCAF729D0FE2F27D0660F15
:10215000771F881FBB1F261737074807AB07B0E854
:1021600009F0BB0B802DBF01FF2793585F4F2AF06A
:102170009E3F510568F0B6C000C15F3FECF3983E4A
:10218000DCF3869577956795B795F7959F5FC9F7C7
:10219000880F911D9695879597F90895E1E0660F50
:1021A000771F881FBB1F621773078407BA0720F0C9
:1021B000621B730B840BBA0BEE1F88F7E095089532
:1021C00004D06894B111D9C00895BCD088F09F574D
:1021D00090F0B92F9927B751A0F0D1F0660F771F73
:1021E000881F991F1AF0BA95C9F712C0B13081F053
:1021F000C3D0B1E00895C0C0672F782F8827B85F9B
:1022000039F0B93FCCF3869577956795B395D9F7B3
:102210003EF490958095709561957F4F8F4F9F4FBD
:102220000895E89409C097FB3EF4909580957095C9
:1022300061957F4F8F4F9F4F9923A9F0F92F96E912
:10224000BB279395F695879577956795B795F11187
:10225000F8CFFAF4BB0F11F460FF1BC06F5F7F4F24
:102260008F4F9F4F16C0882311F096E911C0772336
:1022700021F09EE8872F762F05C0662371F096E83F
:10228000862F70E060E02AF09A95660F771F881F0E
:10229000DAF7880F9695879597F90895990F0008B2
:1022A000550FAA0BE0E8FEEF16161706E807F90728
:1022B000C0F012161306E407F50798F0621B730BC3
:1022C000840B950B39F40A2661F0232B242B252B44
:1022D00021F408950A2609F4A140A6958FEF811DE7
:1022E000811D089597F99F6780E870E060E0089588
:1022F0009FEF80EC089500240A941616170618061E
:102300000906089500240A941216130614060506F9
:102310000895092E0394000C11F4882352F0BB0F8A
:1023200040F4BF2B11F460FF04C06F5F7F4F8F4FED
:102330009F4F089557FD9058440F551F59F05F3F28
:1023400071F04795880F97FB991F61F09F3F79F0D7
:1023500087950895121613061406551FF2CF469559
:10236000F1DF08C0161617061806991FF1CF8695DB
:102370007105610508940895E894BB2766277727BF
:10238000CB0197F908958ADF08F48FEF08950BD0F9
:10239000C0CFB1DF28F0B6DF18F0952309F0A2CF47
:1023A000A7CF1124EACFC6DFA0F3959FD1F3950FF5
:1023B00050E0551F629FF001729FBB27F00DB11DC9
:1023C000639FAA27F00DB11DAA1F649F6627B00D59
:1023D000A11D661F829F2227B00DA11D621F739F42
:1023E000B00DA11D621F839FA00D611D221F749F50
:1023F0003327A00D611D231F849F600D211D822F97
:10240000762F6A2F11249F5750408AF0E1F08823DD
:102410004AF0EE0FFF1FBB1F661F771F881F9150EA
:102420005040A9F79E3F510570F05CCFA6CF5F3FAB
:10243000ECF3983EDCF3869577956795B795F7951D
:10244000E7959F5FC1F7FE2B880F911D96958795A5
:1024500097F9089523DF880B990B0895629FD001A7
:10246000739FF001829FE00DF11D649FE00DF11D4F
:10247000929FF00D839FF00D749FF00D659FF00DFE
:102480009927729FB00DE11DF91F639FB00DE11DEB
:10249000F91FBD01CF0111240895AA1BBB1B51E1F7
:1024A00007C0AA1FBB1FA617B70710F0A61BB70BC4
:1024B000881F991F5A95A9F780959095BC01CD0169
:1024C0000895A1E21A2EAA1BBB1BFD010DC0AA1F75
:1024D000BB1FEE1FFF1FA217B307E407F50720F08D
:1024E000A21BB30BE40BF50B661F771F881F991F08
:1024F0001A9469F760957095809590959B01AC0151
:10250000BD01CF01089597FB092E05260ED057FD7A
:1025100004D0D7DF0AD0001C38F450954095309590
:1025200021953F4F4F4F5F4F0895F6F79095809557
:10253000709561957F4F8F4F9F4F0895EE0FFF1F4E
:102540000590F491E02D09942F923F924F925F9263
:102550006F927F928F929F92AF92BF92CF92DF92B3
:10256000EF92FF920F931F93CF93DF93CDB7DEB718
:10257000CA1BDB0B0FB6F894DEBF0FBECDBF0994AC
:102580002A88398848885F846E847D848C849B8403
:10259000AA84B984C884DF80EE80FD800C811B8111
:1025A000AA81B981CE0FD11D0FB6F894DEBF0FBE40
:0A25B000CDBFED010895F894FFCFB0
:1025BA0025002C005B005D0D00005249474854007D
:1025CA0052002045452D524541442D2121205B00D2
:1025DA004C454654004C0057002045452D5752495A
:1025EA0054452D2121205B0044000D005500530065
:1025FA0053544F50004900446972656374696F6EA1
:10260A0020004F004100500046000D2053706564C1
:10261A0020666163746F723D3D3E003C00200D00F0
:10262A000D206D6F742073706565643A00203A73EB
:10263A0070642000203A200D0075504C207C0075F3
:10264A004445207C0064653A006D735D00503A0091
:10265A0020202020006D6D2F6D6920006E616E00B4
:10266A00696E66006F7666002E002000CB020000BD
:10267A0001002003F4014A0101000100000000E802
:0C268A00098D0A7E09AF098F09D80900EC
:00000001FF
