:100000000C9462000C948A000C948A000C948A0070
:100010000C948A000C948A000C948A000C948A0038
:100020000C948A000C948A000C948A000C948A0028
:100030000C948A000C948A000C948A000C948A0018
:100040000C94DF0C0C948A000C946C080C94BA0885
:100050000C948A000C948A000C948A000C948A00F8
:100060000C948A000C948A000000000024002700F1
:100070002A0000000000250028002B0000000000DE
:1000800023002600290004040404040404040202DA
:100090000202020203030303030301020408102007
:1000A0004080010204081020010204081020000012
:1000B0000007000201000003040600000000000029
:1000C0000000260A11241FBECFEFD8E0DEBFCDBF4F
:1000D00011E0A0E0B1E0E8E8F5E202C005900D9281
:1000E000AE3CB107D9F712E0AEECB1E001C01D9211
:1000F000A13CB107E1F710E0C4ECD0E004C02297C6
:10010000FE010E948712C23CD107C9F70E947C0AF7
:100110000C94C2120C940000CF93DF93BC01823088
:10012000910510F462E070E0A091BF02B091C002AE
:10013000ED01E0E0F0E040E050E021C088819981ED
:100140008617970769F48A819B81309719F093830A
:10015000828304C09093C0028093BF02FE0134C02A
:100160006817790738F44115510519F08417950778
:1001700008F4AC01FE018A819B819C01E901209772
:10018000E9F641155105A9F1CA01861B970B0497A1
:1001900008F4BA01E0E0F0E02AC08D919C9111973B
:1001A00084179507F9F46417750781F412968D91F9
:1001B0009C911397309719F09383828304C0909396
:1001C000C0028093BF02FD0132964CC0CA01861B5B
:1001D000970BFD01E80FF91F6193719302978D93BF
:1001E0009C9340C0FD01828193819C01D9011097AD
:1001F000A1F68091BD029091BE02892B41F48091BD
:10020000AF019091B0019093BE028093BD024091E6
:10021000B1015091B2014115510541F44DB75EB79E
:100220008091AD019091AE01481B590B2091BD0208
:100230003091BE02CA01821B930B8617970780F08C
:10024000AB014E5F5F4F8417950750F0420F531F6D
:100250005093BE024093BD02F9016193719302C0B5
:10026000E0E0F0E0CF01DF91CF910895CF93DF93ED
:10027000009709F450C0EC0122971B821A82A091CA
:10028000BF02B091C002109709F140E050E0AC17F6
:10029000BD0708F1BB83AA83FE0121913191E20FD2
:1002A000F31FAE17BF0779F48D919C911197280F1A
:1002B000391F2E5F3F4F3983288312968D919C9171
:1002C00013979B838A834115510571F4D093C00223
:1002D000C093BF0220C012968D919C911397AD01DF
:1002E000009711F0DC01D3CFFA01D383C2832191AF
:1002F0003191E20FF31FCE17DF0769F488819981EE
:10030000280F391F2E5F3F4FFA01318320838A81E6
:100310009B8193838283DF91CF910895A0E0B0E029
:10032000E4E9F1E00C948D126C01009729F4CB0103
:100330000E948C006C01C1C08EEF882E8FEF982E2A
:100340008C0C9D1C8601060F171F0815190508F453
:10035000B2C0F401A081B181A617B707B8F0A530EB
:10036000B10508F4AAC0CD0104978617970708F4D1
:10037000A4C01297A61BB70BF801A193B193D401A7
:100380006D937C93CF010E94360197C07B01EA1ADE
:10039000FB0AEEEFFFEFEE0EFF1E36016A0E7B1E2C
:1003A000C091BF02D091C00244245524AA24BB248A
:1003B0004AC0C615D705E1F5488159814E155F053C
:1003C000B8F1CA0104978E159F05B0F41296A40FD8
:1003D000B51FF401B183A0832A813B8141145104EC
:1003E00031F0D20113963C932E93129766C030934E
:1003F000C0022093BF0261C08A819B81F801938370
:100400008283425050404E195F095183408341140A
:10041000510431F0D20113961C930E93129704C02D
:100420001093C0020093BF02F4017183608345C042
:1004300088819981A816B90608F45C012E018A8189
:100440009B819C01E901209709F0B3CF8091BD0207
:100450009091BE0286159705E9F4A616B706D0F46A
:100460002091B1013091B2012115310541F42DB730
:100470003EB78091AD019091AE01281B390B021758
:100480001307C8F41093BE020093BD02D4016D930C
:100490007C9313C0CB010E948C00EC01009759F0B3
:1004A000F40140815181B6010E946302C6010E949D
:1004B00036016E0102C0CC24DD24C601CDB7DEB703
:1004C000E0E10C94A912FB01DC0102C001900D9245
:1004D00041505040D8F70895FB01DC018D91019007
:1004E00080190110D9F3990B0895FB01DC010190EB
:1004F0000D920020E1F708955F926F927F928F92A4
:100500009F92AF92BF92CF92DF92EF92FF920F93A2
:100510001F93582E79018A010E94350D3B014C0131
:100520008091D2019091D301A091D401B091D501D5
:1005300064015301A81AB90ACA0ADB0AC801B70143
:1005400024E630E040E050E00E9429126A157B0565
:100550008C059D0510F080E028C0852D61E00E948B
:100560002E0E82E090E00E945B0D852D60E00E94DF
:100570002E0E8091000290910102A0910202B09192
:1005800003020196A11DB11D809300029093010208
:10059000A0930202B09303026092D2017092D30141
:1005A0008092D4019092D50181E01F910F91FF902C
:1005B000EF90DF90CF90BF90AF909F908F907F9003
:1005C0006F905F900895CF92DF92EF92FF920F931A
:1005D0001F9302E912E0C80160E071E00E94C20BC3
:1005E00099E0E92E92E0F92EC70161E070E00E94E7
:1005F0005808682F70E068537F4FC8014AE050E008
:100600000E94AF0B82E0C82E81E0D82EC801B6014F
:100610000E94C20BC70162E070E00E945808682F78
:10062000C8014AE050E00E945D0BC801B6010E947B
:10063000C20BC70163E070E00E945808682FC80130
:100640004AE050E00E945D0BC80164E071E00E9446
:10065000C20B1F910F91FF90EF90DF90CF90089504
:100660006F927F928F929F92AF92BF92CF92DF92C2
:10067000EF92FF920F931F93DF93CF93CDB7DEB727
:10068000C256D0400FB6F894DEBF0FBECDBF0E9459
:10069000270D3B014C0189E060E00E942E0E809105
:1006A000DA019091DB01A091DC01B091DD01A401A0
:1006B0009301281B390B4A0B5B0B25313105410592
:1006C000510508F480C26092DA017092DB018092D9
:1006D000DC019092DD018E010F5F1F4FC80167E0C2
:1006E00071E00E94EA0F08C082E992E00E94AD0921
:1006F000682FC8010E94A40F82E992E00E947C0941
:10070000892B91F7C80167E071E00E94EB0E882306
:1007100029F482E992E0B8010E94AC0C8E01085FD6
:100720001F4FC80168E071E00E94EA0F7E01089443
:10073000E11CF11CC701B8010E940E0F892B11F4B6
:1007400011E014C08E01015F1F4FC8016EE071E01F
:100750000E94EA0FC701B8010E940E0F10E0892B1A
:1007600009F411E0CE010F960E940410CE01089604
:100770000E940410112309F447C082E992E060E16D
:1007800071E00E94C20B89E092E061E070E00E949B
:10079000580890E088539F4F9093BA018093B90115
:1007A00089E092E062E070E00E94580890E0A0E0EA
:1007B000B0E08093FC019093FD01A093FE01B09303
:1007C000FF0189E092E063E070E00E94580890E049
:1007D0009093B4018093B301019721F484E061E028
:1007E0000E942E0E8091B3019091B401892B21F4C7
:1007F00084E060E00E942E0E0E94E30282E992E013
:1008000064E071E00E94C20B8E010A5E1F4FC801B6
:100810006EE171E00E94EA0F7E010894E11CF11C78
:10082000C701B8010E940E0F892B11F411E028C0F6
:100830008E01035E1F4FC80163E271E00E94EA0F60
:10084000C701B8010E940E0F892B11F411E014C0EA
:100850008E010C5D1F4FC80165E271E00E94EA0F36
:10086000C701B8010E940E0F10E0892B09F411E0B6
:10087000CE0184960E940410CE014D960E94041071
:10088000CE0146960E940410112339F182E992E0CC
:1008900067E271E00E94C20B4091B901485C89E0B7
:1008A00092E061E070E00E945F0889E092E062E01F
:1008B00070E04091FC010E945F0889E092E063E0F3
:1008C00070E04091B3010E945F080E94E30282E958
:1008D00092E064E071E00E94C20B8E01055D1F4F43
:1008E000C80166E371E00E94EA0FCE010196B801EB
:1008F0000E940E0F7C01C8010E940410EF2861F5D0
:100900008091B9019091BA012091BB013091BC0155
:10091000821B930B9093BA018093B90185369105A0
:1009200030F484E690E09093BA018093B90182E9B3
:1009300092E06CE00E94B50A6091B9017091BA0131
:1009400082E992E04AE050E00E944C0B82E992E09A
:1009500068E371E00E94C20B8E010E5C1F4FC8015C
:100960006AE371E00E94EA0FCE010196B8010E948D
:100970000E0F7C01C8010E940410EF2861F58091E0
:10098000BB019091BC012091B9013091BA01820F55
:10099000931F9093BA018093B901885E934030F021
:1009A00088EE93E09093BA018093B90182E992E0D6
:1009B0006CE00E94B50A6091B9017091BA0182E9B8
:1009C00092E04AE050E00E944C0B82E992E068E33A
:1009D00071E00E94C20B8E01075C1F4FC8016CE3DF
:1009E00071E00E94EA0FCE010196B8010E940E0F3D
:1009F0007C01C8010E940410EF2871F582E992E0A1
:100A00006EE371E00E94C20B90E08091080288239F
:100A100009F491E090930802992331F480E293E085
:100A20009093B6018093B50180910802813021F442
:100A30001092B6011092B50185E00E94610E60E04F
:100A4000892B09F461E085E00E942E0E82E992E094
:100A500068E371E00E94C20B8E01005C1F4FC80169
:100A600063E471E00E94EA0FCE010196B8010E9492
:100A70000E0F7C01C8010E940410EF2881F58091BF
:100A8000B3019091B4018130910539F41092B40111
:100A90001092B30184E060E00AC0892B51F481E038
:100AA00090E09093B4018093B30184E061E00E94F0
:100AB0002E0E82E992E065E471E00E94C20B609123
:100AC000B3017091B40182E992E04AE050E00E94E3
:100AD000AF0B82E992E068E371E00E94C20B8E01E5
:100AE000095B1F4FC80160E571E00E94EA0FCE016B
:100AF0000196B8010E940E0F7C01C8010E940410EB
:100B0000EF2811F40E94E3028E01025B1F4FC8011F
:100B100062E571E00E94EA0FCE010196B8010E94E1
:100B20000E0F7C01C8010E940410EF2819F481E027
:100B30008093FB018E010B5A1F4FC80164E571E0E1
:100B40000E94EA0FCE010196B8010E940E0F7C01AF
:100B5000C8010E940410EF2831F48091FA0191E05D
:100B600089278093FA018E01045A1F4FC80166E558
:100B700071E00E94EA0FCE010196B8010E940E0FAB
:100B80007C01C8010E940410EF28C9F48091BB01C8
:100B90009091BC01019719F48AE090E002C081E0D5
:100BA00090E09093BC018093BB016091BB01709178
:100BB000BC0182E992E04AE050E00E944C0BCE0179
:100BC00001960E9404108091FA01882309F47DC0E7
:100BD0008091D6019091D701A091D801B091D9010F
:100BE000A4019301281B390B4A0B5B0BDA01C901E5
:100BF00089559240A040B04008F467C08FE00E9441
:100C0000A00D9C019093B8018093B70100D000D053
:100C100040E050E082E390E0A0E0B0E0EDB7FEB746
:100C200081839283A383B483CA01B90121E030E0B8
:100C300040E050E0FFEFEF2EF3E0FF2E012D112DED
:100C4000E1E0AE2EB12CC12CD12C0E94910E60930C
:100C5000F6017093F7018093F8019093F9010F90DA
:100C60000F900F900F9082E992E068E571E00E948A
:100C7000C20B4091F6015091F7016091F80170911B
:100C8000F90182E992E02AE030E00E943D0B82E91E
:100C900092E061E671E00E94C20B6091B701709131
:100CA000B80182E992E04AE050E00E944C0B82E9F0
:100CB00092E063E671E00E94C20B6092D6017092EE
:100CC000D7018092D8019092D9016091B9017091B9
:100CD000BA0180E090E00E940C1120E030E040E793
:100CE00052E40E9473102CE636EC42E95EE30E9467
:100CF00073109B01AC0160E070E08AE794E40E940D
:100D000073106B017C010E94350D2091E20130913E
:100D1000E3014091E4015091E501621B730B840BE8
:100D2000950B6093E6017093E7018093E80190933F
:100D3000E9010E94350D6093DE017093DF0180931D
:100D4000E0019093E101C701B6010E94E0109B0110
:100D5000AC010091B3011091B40183E090E064E034
:100D600070E00E947C02182F0E94350D2091DE0158
:100D70003091DF014091E0015091E101621B730B62
:100D8000840B950B6093EA017093EB018093EC0167
:100D90009093ED01112309F463C00E94350D609317
:100DA000E2017093E3018093E4019093E501809167
:100DB000FB01882309F454C082E992E066E671E001
:100DC0000E94C20B82E992E0B701A60122E030E066
:100DD0000E94A90C82E992E063E771E00E94C20BD5
:100DE0006091B9017091BA0182E992E04AE050E065
:100DF0000E944C0B82E992E06AE771E00E94C20B0C
:100E00004091EA015091EB016091EC017091ED018C
:100E100082E992E02AE030E00E943D0B82E992E014
:100E20006FE771E00E94C20B4091E6015091E7012B
:100E30006091E8017091E90182E992E02AE030E0F6
:100E40000E943D0B82E992E065E871E00E94C20BCE
:100E500082E992E068E371E00E94C20B1092FB010C
:100E60008091CE019091CF01A091D001B091D1019C
:100E7000A4019301281B390B4A0B5B0BDA01C90152
:100E80008A5E9340A040B04008F481C089E061E0F0
:100E90000E942E0E82E992E06BE871E00E94C20B84
:100EA00082E992E0B701A60120E030E00E94A90C9F
:100EB00082E992E06FE871E00E94C20B809100022B
:100EC00090910102A0910202B091030220910402CC
:100ED000309105027C01E21AF30A80930402909398
:100EE0000502A0930602B093070282E992E063E94B
:100EF00071E00E94C20B82E992E0B7014AE050E043
:100F00000E944C0B82E992E067E071E00E94C20B04
:100F100082E992E06CE00E94B50A82E992E066E91B
:100F200071E00E94C20B00E010E0C801B7010E940E
:100F30000C112CE636EC42E95EE30E94C21120E07F
:100F400030E040E752E40E94C21120E030E040E28D
:100F500051E40E947310AB01BC0182E992E021E0F0
:100F600030E00E94A90C82E992E068E971E00E94F9
:100F7000C20B82E992E068E371E00E94C20B6092CA
:100F8000CE017092CF018092D0019092D101CE59C2
:100F9000DF4F0FB6F894DEBF0FBECDBFCF91DF910C
:100FA0001F910F91FF90EF90DF90CF90BF90AF9087
:100FB0009F908F907F906F90089583E061E00E94F2
:100FC000C20D84E061E00E94C20D85E061E00E94F4
:100FD000C20D89E061E00E94C20D82E061E00E94E2
:100FE000C20D87E060E00E94C20D88E060E00E94D0
:100FF000C20D85E060E00E942E0E82E992E040E0A2
:1010000052EC61E070E00E94F5080E94270D6093A9
:10101000EE017093EF018093F0019093F101109233
:10102000F2011092F3011092F4011092F50189E09F
:1010300092E061E070E00E94580890E088539F4F72
:101040009093BA018093B90189E092E062E070E088
:101050000E94580890E0A0E0B0E08093FC019093DB
:10106000FD01A093FE01B093FF0189E092E063E0EF
:1010700070E00E94580890E09093B4018093B3010F
:10108000019721F484E061E00E942E0E8091B3016B
:101090009091B401892B21F484E060E00E942E0E2F
:1010A00084E06091B3010E942E0E0E94E302089535
:1010B000F999FECF72BD61BDF89A80B50895F9998E
:1010C000FECF1FBA72BD61BD40BD0FB6F894FA9A4B
:1010D000F99A0FBE089508951F920F920FB60F92BE
:1010E00011242F933F934F938F939F93EF93FF93ED
:1010F0008091C00082FD1DC04091C60020914A022F
:1011000030914B022F5F3F4F2F73307080914C0214
:1011100090914D022817390771F0E0914A02F09141
:101120004B02E65FFD4F408330934B0220934A020F
:1011300002C08091C600FF91EF919F918F914F91D6
:101140003F912F910F900FBE0F901F901895E09137
:101150009E02F0919F02E05CFF4F8191919120816E
:101160003181821B930B8F739070892B11F00E9439
:101170006B0808951F920F920FB60F9211242F93B0
:101180003F938F939F93EF93FF9320918E02309123
:101190008F0280919002909191022817390731F4C3
:1011A0008091C1008F7D8093C10014C0E0919002B6
:1011B000F0919102E25BFD4F20818091900290912D
:1011C000910201968F739070909391028093900298
:1011D0002093C600FF91EF919F918F913F912F91A6
:1011E0000F900FBE0F901F901895AF92BF92DF9295
:1011F000EF92FF920F931F93CF93DF93EC017A014D
:101200008B01DD24403081EE580780E0680780E0E4
:10121000780711F0DD24D39491E0A92EB12CEC894C
:10122000FD89DD2069F0C50108A002C0880F991F63
:101230000A94E2F7808360E079E08DE390E005C0F6
:10124000108260E874E88EE190E0A80197010E94A6
:1012500048122150304040405040569547953795B0
:10126000279580E12030380720F0DD2011F0DD24C3
:10127000D6CFE889F9893083EA89FB89208319A2CE
:10128000EE89FF89408121E030E0C9010C8C02C069
:10129000880F991F0A94E2F7482B4083EE89FF8953
:1012A0004081C9010D8C02C0880F991F0A94E2F792
:1012B000482B4083EE89FF894081C9010E8C02C012
:1012C000880F991F0A94E2F7482B4083EE89FF8923
:1012D00080810F8C02C0220F331F0A94E2F7209501
:1012E00028232083DF91CF911F910F91FF90EF90E2
:1012F000DF90BF90AF900895DC011C96ED91FC91BA
:101300001D97E05CFF4F2191319180819181281BD5
:10131000390B2F733070C9010895DC011C96ED91D3
:10132000FC911D97E05CFF4F20813181E054F0403B
:10133000DF01AE5BBF4F8D919C9111972817390744
:1013400019F42FEF3FEF07C08D919C91E80FF91F23
:101350008081282F30E0C9010895DC011C96ED91B1
:10136000FC911D97E05CFF4F20813181E054F040FB
:10137000DF01AE5BBF4F8D919C9111972817390704
:1013800019F42FEF3FEF10C08D919C911197E80F4A
:10139000F91F20818D919C91119701968F73907008
:1013A00011969C938E9330E0C9010895DC019196CB
:1013B0008C919197882339F05496ED91FC91559733
:1013C000808186FFF9CF91961C920895CF93DF9389
:1013D000EC01EE85FF85E05CFF4F20813181E05418
:1013E000F0402F5F3F4F2F733070DF01AE5BBF4F78
:1013F0008D919C91119728173907D1F3E05CFF4F2D
:1014000080819181E054F040E80FF91F6083EE8500
:10141000FF85E05CFF4F31832083EE89FF892081C7
:1014200081E090E00F8C02C0880F991F0A94E2F7C8
:10143000282B208381E089A3EC89FD898081806449
:10144000808381E090E0DF91CF9108951092950222
:101450001092940288EE93E0A0E0B0E080939602B0
:1014600090939702A0939802B093990282EC91E036
:1014700090939302809392028AE092E090939F026D
:1014800080939E028EE492E09093A1028093A0024A
:1014900085EC90E09093A3028093A20284EC90E00C
:1014A0009093A5028093A40280EC90E09093A70211
:1014B0008093A60281EC90E09093A9028093A80209
:1014C00082EC90E09093AB028093AA0286EC90E0CD
:1014D0009093AD028093AC0284E08093AE0283E0EF
:1014E0008093AF0287E08093B00285E08093B102E1
:1014F00081E08093B2020895CF93DF930E94650D3F
:101500000E94DD07C7EAD8E00E9430032097E1F38C
:101510000E94A708F9CFCF92DF92EF92FF920F932C
:101520001F93CF93DF937C016B018A01C0E0D0E071
:101530000FC0D6016D916D01D701ED91FC91019025
:10154000F081E02DC7010995C80FD91F0150104047
:101550000115110571F7CE01DF91CF911F910F9108
:10156000FF90EF90DF90CF900895DC01ED91FC911A
:101570000190F081E02D09950895CF93DF93EC0160
:101580006115710519F420E030E00FC0DB010D900A
:101590000020E9F71197A61BB70BE881F9810280BB
:1015A000F381E02DAD0109959C01C901DF91CF9137
:1015B00008954F925F927F928F929F92AF92BF92C7
:1015C000CF92DF92EF92FF920F931F93DF93CF930F
:1015D000CDB7DEB7A1970FB6F894DEBF0FBECDBF73
:1015E0002C01742ECB01223008F42AE019A231E23A
:1015F000C32ED12CCC0EDD1E822E9924AA24BB240E
:10160000672D752FA50194010E94481279018A0166
:10161000C801B701A50194010E942912472D461B5C
:101620000894C108D1084A3014F4405D01C0495CF7
:10163000F6014083E114F1040105110521F07E2C2F
:101640005F2DC801DDCFC201B6010E94BD0AA1967F
:101650000FB6F894DEBF0FBECDBFCF91DF911F91C3
:101660000F91FF90EF90DF90CF90BF90AF909F9041
:101670008F907F905F904F900895DC012115310588
:1016800041F4ED91FC910190F081E02D642F0995DA
:1016900008950E94D90A0895EF92FF920F931F9325
:1016A0009A017B0100E010E0B801A7010E943D0B08
:1016B0001F910F91FF90EF900895EF92FF920F937B
:1016C0001F939A01E62EFF2400E010E0B801A70165
:1016D0000E943D0B1F910F91FF90EF900895CF92C4
:1016E000DF92EF92FF920F931F93CF93DF93EC0162
:1016F0006A017B012115310541F4E881F9810190EE
:10170000F081E02D642F09951FC02A303105D1F4F6
:1017100077FF17C0E881F9810190F081E02D6DE23B
:1017200009958C0144275527BA014C195D096E09AA
:101730007F09CE012AE00E94D90A9801280F391F9B
:1017400004C02AE00E94D90A9C01C901DF91CF910F
:101750001F910F91FF90EF90DF90CF900895EF923F
:10176000FF920F931F937B019A010027F7FC0095CE
:10177000102FB801A7010E946F0B1F910F91FF90CE
:10178000EF9008950E94BD0A08957F928F929F92D4
:10179000AF92BF92CF92DF92EF92FF920F931F937F
:1017A000CF93DF934C017A018B01722ECB01BA01EA
:1017B000A80197010E942512882321F0C4016FE936
:1017C00071E021C0C0E0D0E057016801E894D7F88B
:1017D000C601B5012FEF3FEF4FE75FE70E942512EB
:1017E000882351F4C601B5012FEF3FEF4FE75FE7C4
:1017F0000E946F10181614F0C1E0D0E0219739F064
:10180000C40163EA71E00E94BD0AEC0193C0C80103
:10181000B7012FEF3FEF4FE75FE40E94BE111816AC
:1018200054F0C801B7012FEF3FEF4FE75FEC0E9484
:101830006F10882324F4C40167EA71E0E4CFC80183
:10184000B70120E030E040E050E00E946F1087FDDB
:1018500003C0C0E0D0E00EC0D401ED91FC91019036
:10186000F081E02DC4016DE20995EC0117FB1095A4
:1018700017F9109520E030E040E05FE3DD240BC075
:10188000CA01B90120E030E040E251E40E94731047
:101890009B01AC01D394D71498F3C801B7010E94FF
:1018A0000B105B016C010E94E0107B018C01C401F4
:1018B000B801A7012AE030E00E943D0BC80FD91FF4
:1018C000772039F0C4016BEA71E00E94BD0AC80FAD
:1018D000D91FC801B7010E940C119B01AC01C601C0
:1018E000B5010E940A1024C020E030E040E251E43B
:1018F0000E94C2117B018C010E94DB105B016C0114
:10190000CC24B7FCC094DC2CC401B601A5012AE0AC
:1019100030E00E946F0BC80FD91FC601B5010E94AD
:101920000E119B01AC01C801B7010E940A107A9404
:101930007720D1F6CE01DF91CF911F910F91FF90CB
:10194000EF90DF90CF90BF90AF909F908F907F905F
:1019500008950E94C50B0895AF92BF92CF92DF9277
:10196000EF92FF920F931F93CF93DF935C016B0174
:10197000EE24FF24C0E0D0E010C0D501ED91FC9131
:1019800000811181C601BE010E94DA0E682FC501D7
:10199000F8010995E80EF91E2196F60184819581DA
:1019A000C817D90750F3C701DF91CF911F910F914D
:1019B000FF90EF90DF90CF90BF90AF9008951F926F
:1019C0000F920FB60F9211242F933F938F939F93F3
:1019D000AF93BF938091B8029091B902A091BA02DF
:1019E000B091BB023091BC020196A11DB11D232F05
:1019F0002D5F2D3720F02D570196A11DB11D20938D
:101A0000BC028093B8029093B902A093BA02B0933B
:101A1000BB028091B4029091B502A091B602B09140
:101A2000B7020196A11DB11D8093B4029093B50237
:101A3000A093B602B093B702BF91AF919F918F91DF
:101A40003F912F910F900FBE0F901F9018958FB759
:101A5000F8942091B8023091B9024091BA025091A5
:101A6000BB028FBFB901CA0108959FB7F8942091B6
:101A7000B4023091B5024091B6025091B70286B5DA
:101A8000A89B06C08F3F21F02F5F3F4F4F4F5F4F06
:101A90009FBF542F432F322F2227280F311D411D66
:101AA000511D82E0220F331F441F551F8A95D1F725
:101AB000B901CA010895019739F0880F991F880F5D
:101AC000991F02970197F1F70895789484B5826081
:101AD00084BD84B5816084BD85B5826085BD85B5D2
:101AE000816085BDEEE6F0E0808181608083E1E881
:101AF000F0E01082808182608083808181608083B9
:101B0000E0E8F0E0808181608083E1EBF0E08081BB
:101B100084608083E0EBF0E0808181608083EAE78D
:101B2000F0E0808184608083808182608083808116
:101B3000816080838081806880831092C1000895D5
:101B4000982F8E3008F09E5097708091BD0182953D
:101B5000880F880F807C892B80937C0080917A008D
:101B6000806480937A0080917A0086FDFCCF20917A
:101B7000780040917900942F80E030E0282B392BB9
:101B8000C9010895CF93DF93482F50E0CA018656CC
:101B90009F4FFC0134914A575F4FFA01849188238B
:101BA00069F190E0880F991FFC01E859FF4FA5915A
:101BB000B491FC01EE58FF4FC591D491662351F4C6
:101BC0002FB7F8948C91932F909589238C938881CB
:101BD00089230BC0623061F42FB7F8948C91932F56
:101BE000909589238C938881832B88832FBF06C08F
:101BF0009FB7F8948C91832B8C939FBFDF91CF91EB
:101C00000895833071F0843028F48130A1F082305F
:101C100021F514C08630B1F08730D1F08430E9F47A
:101C200004C0809180008F7703C0809180008F7DF9
:101C300080938000089584B58F7702C084B58F7D2E
:101C400084BD08958091B0008F778093B00008958F
:101C50008091B0008F7D8093B0000895FF920F9324
:101C60001F93F62E482F50E0CA0182559F4FFC016A
:101C70002491CA0186569F4FFC0114914A575F4F29
:101C8000FA0104910023C9F0222319F0822F0E9447
:101C9000010EE02FF0E0EE0FFF1FEE58FF4FA59171
:101CA000B4919FB7F894FF2021F48C911095812373
:101CB00002C08C91812B8C939FBF1F910F91FF903D
:101CC00008950F931F93482F50E0CA0182559F4FEC
:101CD000FC012491CA0186569F4FFC0104914A578A
:101CE0005F4FFA011491112319F420E030E015C080
:101CF000222319F0822F0E94010E812F90E0880F7D
:101D0000991F84589F4FFC01A591B4918C9120E0BC
:101D100030E0802311F021E030E0C9011F910F91E4
:101D200008952F923F924F925F926F927F928F927F
:101D30009F92AF92BF92CF92DF92EF92FF920F935A
:101D40001F93DF93CF93CDB7DEB73B014C01190151
:101D50002A016D897E898F89988D6A197B098C0982
:101D60009D09621A730A840A950AA40193010E94CC
:101D70002912E218F30804091509A80197010E9425
:101D80006A122A0D3B1D4C1D5D1DB901CA01CF9180
:101D9000DF911F910F91FF90EF90DF90CF90BF9058
:101DA000AF909F908F907F906F905F904F903F90FB
:101DB0002F900895FC01848195816817790748F474
:101DC0000190F081E02D309721F0E60FF71F808120
:101DD000089580E00895DC01FB0114968D919C919B
:101DE0001597892B31F461157105A9F090E0808178
:101DF00008C00D90BC91A02D6115710529F490E0EB
:101E00008C91882349F407C0CD010E946C029C018B
:101E100090E0232B09F491E0892F0895CF93DF936D
:101E20009C01FB01EC01A881B981109729F0608128
:101E3000718161157105D1F4C081D181209759F06C
:101E400084819581892B39F0888190E0222733277E
:101E5000281B390B12C0109771F0F901848195810C
:101E6000892B49F08C91282F30E007C0CD010E94CA
:101E70006C029C0102C020E030E0C901DF91CF91EB
:101E800008950F931F93CF93DF93EC018B016F5F46
:101E90007F4F888199810E948E01009711F480E024
:101EA00005C0998388831B830A8381E0DF91CF91EA
:101EB0001F910F910895CF93DF93EC018881998151
:101EC000892B29F08A819B818617970760F4CE01C0
:101ED0000E94410F882341F08C819D81892B19F448
:101EE000E881F981108281E0DF91CF910895EF922E
:101EF000FF920F931F93CF93DF93EC017B016C81D3
:101F00007D81E114F104C1F04115510599F08A0178
:101F1000060F171FB8010E945B0F882369F08881A4
:101F200099812C813D81820F931FB7010E94750218
:101F30001D830C8381E001C080E0DF91CF911F9170
:101F40000F91FF90EF900895DF93CF9300D0CDB71E
:101F5000DEB769831A82BE016F5F7F4F41E050E0B8
:101F60000E94770F0F900F90CF91DF910895CF933C
:101F7000DF93EC0188819981009711F00E9436016E
:101F8000198218821D821C821B821A82DF91CF91D6
:101F90000895EF92FF920F931F93CF93DF93EC017D
:101FA0007B018A01BA010E945B0F882321F4CE01D4
:101FB0000E94B70F07C01D830C8388819981B701E8
:101FC0000E947502CE01DF91CF911F910F91FF907A
:101FD000EF900895CF93DF93EC01198218821B8252
:101FE0001A821D821C821E826115710551F0DB016F
:101FF0000D900020E9F71197A61BB70BAD010E94C9
:10200000C90FDF91CF910895FC01808191810E94D9
:10201000360108955058BB27AA270ED075C166D146
:1020200030F06BD120F031F49F3F11F41EF45BC10E
:102030000EF4E095E7FB51C1E92F77D180F3BA1791
:10204000620773078407950718F071F49EF58FC136
:102050000EF4E0950B2EBA2FA02D0B01B9019001C3
:102060000C01CA01A0011124FF27591B99F0593F07
:1020700050F4503E68F11A16F040A22F232F342F4F
:102080004427585FF3CF469537952795A795F0409D
:102090005395C9F77EF41F16BA0B620B730B840BB2
:1020A000BAF09150A1F0FF0FBB1F661F771F881F6A
:1020B000C2F70EC0BA0F621F731F841F48F48795C2
:1020C00077956795B795F7959E3F08F0B3CF9395B1
:1020D000880F08F09927EE0F979587950895D9D026
:1020E00008F481E008950CD00FC107D140F0FED074
:1020F00030F021F45F3F19F0F0C0511139C1F3C045
:1021000014D198F39923C9F35523B1F3951B550BBB
:10211000BB27AA2762177307840738F09F5F5F4FBA
:10212000220F331F441FAA1FA9F333D00E2E3AF0FB
:10213000E0E830D091505040E695001CCAF729D015
:10214000FE2F27D0660F771F881FBB1F2617370764
:102150004807AB07B0E809F0BB0B802DBF01FF2794
:1021600093585F4F2AF09E3F510568F0B6C000C1FA
:102170005F3FECF3983EDCF3869577956795B795CE
:10218000F7959F5FC9F7880F911D9695879597F9E9
:102190000895E1E0660F771F881FBB1F6217730762
:1021A0008407BA0720F0621B730B840BBA0BEE1F77
:1021B00088F7E095089504D06894B111D9C00895C6
:1021C000BCD088F09F5790F0B92F9927B751A0F055
:1021D000D1F0660F771F881F991F1AF0BA95C9F7BB
:1021E00012C0B13081F0C3D0B1E00895C0C0672FF4
:1021F000782F8827B85F39F0B93FCCF3869577956B
:102200006795B395D9F73EF4909580957095619553
:102210007F4F8F4F9F4F0895E89409C097FB3EF47E
:1022200090958095709561957F4F8F4F9F4F992323
:10223000A9F0F92F96E9BB279395F69587957795A1
:102240006795B795F111F8CFFAF4BB0F11F460FF61
:102250001BC06F5F7F4F8F4F9F4F16C0882311F0B9
:1022600096E911C0772321F09EE8872F762F05C0CD
:10227000662371F096E8862F70E060E02AF09A9568
:10228000660F771F881FDAF7880F9695879597F95D
:102290000895990F0008550FAA0BE0E8FEEF1616F7
:1022A0001706E807F907C0F012161306E407F5074A
:1022B00098F0621B730B840B950B39F40A2661F0BE
:1022C000232B242B252B21F408950A2609F4A14061
:1022D000A6958FEF811D811D089597F99F6780E86E
:1022E00070E060E008959FEF80EC089500240A9468
:1022F0001616170618060906089500240A941216E1
:102300001306140605060895092E0394000C11F413
:10231000882352F0BB0F40F4BF2B11F460FF04C0C0
:102320006F5F7F4F8F4F9F4F089557FD9058440F19
:10233000551F59F05F3F71F04795880F97FB991F24
:1023400061F09F3F79F087950895121613061406E1
:10235000551FF2CF4695F1DF08C01616170618066E
:10236000991FF1CF86957105610508940895E89449
:10237000BB2766277727CB0197F908958ADF08F4F2
:102380008FEF08950BD0C0CFB1DF28F0B6DF18F083
:10239000952309F0A2CFA7CF1124EACFC6DFA0F37F
:1023A000959FD1F3950F50E0551F629FF001729FEA
:1023B000BB27F00DB11D639FAA27F00DB11DAA1F09
:1023C000649F6627B00DA11D661F829F2227B00D56
:1023D000A11D621F739FB00DA11D621F839FA00DE1
:1023E000611D221F749F3327A00D611D231F849F31
:1023F000600D211D822F762F6A2F11249F57504088
:102400008AF0E1F088234AF0EE0FFF1FBB1F661F22
:10241000771F881F91505040A9F79E3F510570F0DB
:102420005CCFA6CF5F3FECF3983EDCF386957795C3
:102430006795B795F795E7959F5FC1F7FE2B880FD6
:10244000911D9695879597F9089523DF880B990B31
:102450000895629FD001739FF001829FE00DF11DEE
:10246000649FE00DF11D929FF00D839FF00D749F0E
:10247000F00D659FF00D9927729FB00DE11DF91FBA
:10248000639FB00DE11DF91FBD01CF011124089517
:10249000A1E21A2EAA1BBB1BFD010DC0AA1FBB1F68
:1024A000EE1FFF1FA217B307E407F50720F0A21BDA
:1024B000B30BE40BF50B661F771F881F991F1A9447
:1024C00069F760957095809590959B01AC01BD0171
:1024D000CF01089597FB092E05260ED057FD04D095
:1024E000D7DF0AD0001C38F45095409530952195DF
:1024F0003F4F4F4F5F4F0895F6F790958095709539
:1025000061957F4F8F4F9F4F0895EE0FFF1F0590EE
:10251000F491E02D09942F923F924F925F926F9227
:102520007F928F929F92AF92BF92CF92DF92EF9263
:10253000FF920F931F93CF93DF93CDB7DEB7CA1BE4
:10254000DB0B0FB6F894DEBF0FBECDBF09942A880F
:10255000398848885F846E847D848C849B84AA84B7
:10256000B984C884DF80EE80FD800C811B81AA8144
:10257000B981CE0FD11D0FB6F894DEBF0FBECDBF0F
:08258000ED010895F894FFCF6E
:102588005B002C005D0D0000524947485400520082
:102598002045452D524541442D2121205B004C45C5
:1025A8004654004C0057002045452D575249544584
:1025B8002D2121205B0044000D0055005300535489
:1025C8004F50004900446972656374696F6E20005A
:1025D8004F004100500046000D20706F743D3D3E95
:1025E800003C00200D000D206D6F74207370656530
:1025F800643A00203A7370642000203A200D007578
:10260800504C207C00754445207C0064653A006D80
:10261800735D00503A0020006D6D2F6D6920006ECB
:10262800616E00696E66006F7666002E002000C13C
:1026380002000001002003F4014A0101000100002A
:0E2648000000E6098B0A7C09AD098D09D60950
:00000001FF
