:100000000C9462000C948A000C948A000C948A0070
:100010000C948A000C948A000C948A000C948A0038
:100020000C948A000C948A000C948A000C948A0028
:100030000C948A000C948A000C948A000C948A0018
:100040000C94560B0C948A000C9493060C94E106C5
:100050000C948A000C948A000C948A000C948A00F8
:100060000C948A000C948A000000000024002700F1
:100070002A0000000000250028002B0000000000DE
:1000800023002600290004040404040404040202DA
:100090000202020203030303030301020408102007
:1000A0004080010204081020010204081020000012
:1000B0000007000201000003040600000000000029
:1000C00000004D0811241FBECFEFD8E0DEBFCDBF2A
:1000D00011E0A0E0B1E0EAE8F2E202C005900D9282
:1000E000A23AB107D9F712E0A2EAB1E001C01D922D
:1000F000AD37B107E1F710E0C4ECD0E004C02297BF
:10010000FE010E940811C23CD107C9F70E94A30852
:100110000C9443110C940000CF93DF93BC01823008
:10012000910510F462E070E0A0917B02B0917C0236
:10013000ED01E0E0F0E040E050E021C088819981ED
:100140008617970769F48A819B81309719F093830A
:10015000828304C090937C0280937B02FE0134C0B2
:100160006817790738F44115510519F08417950778
:1001700008F4AC01FE018A819B819C01E901209772
:10018000E9F641155105A9F1CA01861B970B0497A1
:1001900008F4BA01E0E0F0E02AC08D919C9111973B
:1001A00084179507F9F46417750781F412968D91F9
:1001B0009C911397309719F09383828304C0909396
:1001C0007C0280937B02FD0132964CC0CA01861BE3
:1001D000970BFD01E80FF91F6193719302978D93BF
:1001E0009C9340C0FD01828193819C01D9011097AD
:1001F000A1F68091790290917A02892B41F4809145
:1002000081019091820190937A02809379024091CA
:100210008301509184014115510541F44DB75EB7FA
:1002200080917F0190918001481B590B20917902A8
:1002300030917A02CA01821B930B8617970780F0D0
:10024000AB014E5F5F4F8417950750F0420F531F6D
:1002500050937A0240937902F9016193719302C03D
:10026000E0E0F0E0CF01DF91CF910895CF93DF93ED
:10027000009709F450C0EC0122971B821A82A091CA
:100280007B02B0917C02109709F140E050E0AC177E
:10029000BD0708F1BB83AA83FE0121913191E20FD2
:1002A000F31FAE17BF0779F48D919C911197280F1A
:1002B000391F2E5F3F4F3983288312968D919C9171
:1002C00013979B838A834115510571F4D0937C0267
:1002D000C0937B0220C012968D919C911397AD0123
:1002E000009711F0DC01D3CFFA01D383C2832191AF
:1002F0003191E20FF31FCE17DF0769F488819981EE
:10030000280F391F2E5F3F4FFA01318320838A81E6
:100310009B8193838283DF91CF910895A0E0B0E029
:10032000E4E9F1E00C940E116C01009729F4CB0183
:100330000E948C006C01C1C08EEF882E8FEF982E2A
:100340008C0C9D1C8601060F171F0815190508F453
:10035000B2C0F401A081B181A617B707B8F0A530EB
:10036000B10508F4AAC0CD0104978617970708F4D1
:10037000A4C01297A61BB70BF801A193B193D401A7
:100380006D937C93CF010E94360197C07B01EA1ADE
:10039000FB0AEEEFFFEFEE0EFF1E36016A0E7B1E2C
:1003A000C0917B02D0917C0244245524AA24BB2412
:1003B0004AC0C615D705E1F5488159814E155F053C
:1003C000B8F1CA0104978E159F05B0F41296A40FD8
:1003D000B51FF401B183A0832A813B8141145104EC
:1003E00031F0D20113963C932E93129766C030934E
:1003F0007C0220937B0261C08A819B81F8019383F8
:100400008283425050404E195F095183408341140A
:10041000510431F0D20113961C930E93129704C02D
:1004200010937C0200937B02F4017183608345C0CA
:1004300088819981A816B90608F45C012E018A8189
:100440009B819C01E901209709F0B3CF809179024B
:1004500090917A0286159705E9F4A616B706D0F4AE
:1004600020918301309184012115310541F42DB78C
:100470003EB780917F0190918001281B390B0217B4
:100480001307C8F410937A0200937902D4016D9394
:100490007C9313C0CB010E948C00EC01009759F0B3
:1004A000F40140815181B6010E946302C6010E949D
:1004B00036016E0102C0CC24DD24C601CDB7DEB703
:1004C000E0E10C942A11FB01DC0102C001900D92C5
:1004D00041505040D8F70895FB01DC018D91019007
:1004E00080190110D9F3990B0895FB01DC010190EB
:1004F0000D920020E1F70895DF92EF92FF920F93A3
:100500001F93CF93DF93F82E062FE42ED52EE9010B
:10051000C90160E071E00E94580D882321F0802F0E
:1005200061E00E94CB0CCE0168E071E00E94580DA2
:10053000882321F0802F60E00E94CB0C8F2D60E09B
:100540000E94CB0C0E2D1D2D80918E0190918F015C
:100550009C01029FC001039F900D129F900D1124DA
:100560000E94F80B8F2D61E00E94CB0C80918E01D0
:1005700090918F019C01029FC001039F900D129FDB
:10058000900D11240E94F80B8F2D60E00E94CB0C7F
:10059000DF91CF911F910F91FF90EF90DF90089521
:1005A0004F925F926F927F928F929F92AF92BF9283
:1005B000CF92DF92EF92FF920F931F93DF93CF932F
:1005C000CDB7DEB7EF970FB6F894DEBF0FBECDBF45
:1005D0008E010F5F1F4FC80161E171E00E94570E4D
:1005E00008C08EE492E00E94D407682FC8010E94E0
:1005F000110E8EE492E00E94A307892B91F7C801A7
:1006000061E171E00E94580D882389F48EE492E044
:1006100062E171E00E94260A8EE492E0B8010E9435
:10062000230B8EE492E062E171E00E94260A8E01C3
:10063000085F1F4FC80164E171E00E94570E7E0100
:100640000894E11CF11CC701B8010E947B0D892BA5
:1006500011F411E014C08E01015F1F4FC80169E160
:1006600071E00E94570EC701B8010E947B0D10E097
:10067000892B09F411E0CE010F960E94710ECE0174
:1006800008960E94710E112339F18EE492E06BE11D
:1006900071E00E94260A81E080938D0185EC91E053
:1006A00061E070E00E947F0680938B0110928C01C4
:1006B00085EC91E062E070E00E947F0680938E01FD
:1006C00010928F0160918B0170918C018EE492E009
:1006D0004AE050E00E94130A8E010A5E1F4FC801D3
:1006E00060E271E00E94570E7E010894E11CF11C4B
:1006F000C701B8010E947B0D892B11F411E014C0D1
:100700008E01035E1F4FC80166E271E00E94570E22
:10071000C701B8010E947B0D10E0892B09F411E09C
:10072000CE014D960E94710ECE0146960E94710E2A
:100730001123B9F18EE492E068E271E00E94260A8A
:1007400085EC91E061E070E040918B010E948606AB
:1007500085EC91E062E070E040918E010E94860697
:1007600085EC91E061E070E00E947F06682F8EE4E6
:1007700092E04AE050E00E94C1098EE492E06CE011
:100780000E94DC0885EC91E062E070E00E947F0648
:10079000682F8EE492E04AE050E00E94C109109276
:1007A0008D018E010C5D1F4FC8016DE271E00E944A
:1007B000570ECE010196B8010E947B0D7C01C80145
:1007C0000E94710EEF2829F580918E0190918F0182
:1007D0008456904090938F0180938E0184369105CA
:1007E00030F484E690E090938F0180938E0181E055
:1007F00080938D018EE492E06CE00E94DC086091B1
:100800008E0170918F018EE492E04AE050E00E94E8
:1008100093098E01055D1F4FC8016FE271E00E94D0
:10082000570ECE010196B8010E947B0D7C01C801D4
:100830000E94710EEF28E1F480918E0190918F015A
:100840008C599F4F90938F0180938E0181E080930C
:100850008D018EE492E06CE00E94DC0860918E01D4
:1008600070918F018EE492E04AE050E00E9493097B
:100870008E010E5C1F4FC80161E371E00E94570EAC
:10088000CE010196B8010E947B0D7C01C8010E9437
:10089000710EEF28E9F48EE492E063E371E00E94C8
:1008A000260A90E08091C401882309F491E0909396
:1008B000C401992339F480E991E0909386018093F3
:1008C000850104C0109286011092850110928D015D
:1008D0000E949E0B89E060E00E94CB0C8091850114
:1008E00090918601892B31F464E670E080E090E01D
:1008F0000E94D20BB1E06B2E712C812C912CA9E3BC
:100900004A2E512C4C0E5D1E9CC0C401B3012AE03E
:1009100030E040E050E00E94C9106115710581058A
:10092000910509F062C080918D01882309F05DC0B6
:100930008FE00E943D0C90938A018093890100D042
:1009400000D0AA2797FDA095BA2F22E330E040E01F
:1009500050E0EDB7FEB72183328343835483BC015B
:10096000CD0121E030E040E050E0FFEFEF2EF3E07A
:10097000FF2E012D112DE1E0AE2EB12CC12CD12C7A
:100980000E94FE0C9B0170938C0160938B0140913F
:10099000C0015091C1015093BF014093BE017093BB
:1009A000C1016093C001241B350B3093C301209318
:1009B000C2010F900F900F900F9012161306ACF417
:1009C0008EE492E068E371E00E94100B8EE492E006
:1009D0006CE00E94DC0860918B0170918C018EE4C8
:1009E00092E04AE050E00E94130A00918B011091BE
:1009F0008C01C20160E071E00E94570E83E090E03C
:100A000064E070E0A80192010E947C02C2010E9491
:100A1000710E8091AE019091AF01A091B001B091A3
:100A2000B1010196A11DB11D8093AE019093AF015C
:100A3000A093B001B093B1010894611C711C811C9A
:100A4000911C8091850190918601A0E0B0E086150F
:100A50009705A805B90508F058CF89E061E00E9424
:100A6000CB0C8091AA019091AB01A091AC01B09107
:100A7000AD018093A6019093A701A093A801B09324
:100A8000A9018091BA019091BB01A091BC01B091E4
:100A9000BD018093B6019093B701A093B801B093C4
:100AA000B9010E949E0B6093AA017093AB018093E1
:100AB000AC019093AD012091AE013091AF01409116
:100AC000B0015091B1012093BA013093BB01409322
:100AD000BC015093BD012091A6013091A701409126
:100AE000A8015091A901621B730B840B950B0E9406
:100AF000790F20E030E04AE754E40E94E00E9B01C9
:100B0000AC0160E070E080E792E40E94E00E3B01FF
:100B10004C018EE492E069E571E00E94260A809122
:100B20008E0190918F0168EE73E00E94B5108EE403
:100B300092E04AE050E00E9493098EE492E06DE575
:100B400071E00E94260A8EE492E06FE571E00E9457
:100B5000260A60918B0170918C018EE492E04AE04C
:100B600050E00E94130A8EE492E063E671E00E9476
:100B7000260A609187017091880180E090E00E94D0
:100B8000790F28E83EE94BE653E40E942F107B01E1
:100B90008C018EE492E06CE00E94DC088EE492E02E
:100BA00067E671E00E94260A2091BA013091BB01EC
:100BB0004091BC015091BD018091B6019091B70167
:100BC000A091B801B091B901281B390B4A0B5B0BFE
:100BD0006091AE017091AF018091B0019091B1012F
:100BE0000E94C91059016A01C801B701A40193010B
:100BF0000E942F1020E030E040E251E40E94E00E1D
:100C0000AB01BC018EE492E021E030E00E940D0BCC
:100C10008EE492E06BE671E00E94260A8EE492E098
:100C2000B5014AE050E00E94A409CE0101960E945D
:100C3000710EEF960FB6F894DEBF0FBECDBFCF9109
:100C4000DF911F910F91FF90EF90DF90CF90BF90B9
:100C5000AF909F908F907F906F905F904F9008958E
:100C60000F931F9383E061E00E945F0C84E061E0DA
:100C70000E945F0C85E061E00E945F0C89E061E00A
:100C80000E945F0C82E061E00E945F0C87E060E000
:100C90000E945F0C88E060E00E945F0C8EE492E0AE
:100CA00040E051EE60E070E00E941C070E949E0B45
:100CB0006093A2017093A3018093A4019093A50176
:100CC0001092B2011092B3011092B4011092B501CA
:100CD00005EC11E0C80161E070E00E947F0680939E
:100CE0008B0110928C01C80162E070E00E947F06C7
:100CF00080938E0110928F011F910F910895F999A1
:100D0000FECF72BD61BDF89A80B50895F999FECF06
:100D10001FBA72BD61BD40BD0FB6F894FA9AF99A38
:100D20000FBE089508951F920F920FB60F921124CF
:100D30002F933F934F938F939F93EF93FF938091C4
:100D4000C00082FD1DC04091C60020910602309176
:100D500007022F5F3F4F2F733070809108029091F0
:100D600009022817390771F0E0910602F091070295
:100D7000EA53FE4F4083309307022093060202C0DD
:100D80008091C600FF91EF919F918F914F913F917C
:100D90002F910F900FBE0F901F901895E0915A025F
:100DA000F0915B02E05CFF4F819191912081318154
:100DB000821B930B8F739070892B11F00E94920607
:100DC00008951F920F920FB60F9211242F933F9305
:100DD0008F939F93EF93FF9320914A0230914B02A0
:100DE00080914C0290914D022817390731F480917F
:100DF000C1008F7D8093C10014C0E0914C02F0913E
:100E00004D02E65FFD4F208180914C0290914D0292
:100E100001968F73907090934D0280934C022093B3
:100E2000C600FF91EF919F918F913F912F910F906D
:100E30000FBE0F901F901895AF92BF92DF92EF9266
:100E4000FF920F931F93CF93DF93EC017A018B01F5
:100E5000DD24403081EE580780E0680780E07807A5
:100E600011F0DD24D39491E0A92EB12CEC89FD89F9
:100E7000DD2069F0C50108A002C0880F991F0A94FF
:100E8000E2F7808360E079E08DE390E005C01082B6
:100E900060E874E88EE190E0A80197010E94C91013
:100EA0002150304040405040569547953795279502
:100EB00080E12030380720F0DD2011F0DD24D6CF8E
:100EC000E889F9893083EA89FB89208319A2EE89B0
:100ED000FF89408121E030E0C9010C8C02C0880FFD
:100EE000991F0A94E2F7482B4083EE89FF894081DD
:100EF000C9010D8C02C0880F991F0A94E2F7482B94
:100F00004083EE89FF894081C9010E8C02C0880FA1
:100F1000991F0A94E2F7482B4083EE89FF8980816C
:100F20000F8C02C0220F331F0A94E2F7209528236A
:100F30002083DF91CF911F910F91FF90EF90DF9071
:100F4000BF90AF900895DC011C96ED91FC911D9728
:100F5000E05CFF4F2191319180819181281B390BF9
:100F60002F733070C9010895DC011C96ED91FC913E
:100F70001D97E05CFF4F20813181E054F040DF019C
:100F8000AE5BBF4F8D919C9111972817390719F4CB
:100F90002FEF3FEF07C08D919C91E80FF91F8081E3
:100FA000282F30E0C9010895DC011C96ED91FC91D9
:100FB0001D97E05CFF4F20813181E054F040DF015C
:100FC000AE5BBF4F8D919C9111972817390719F48B
:100FD0002FEF3FEF10C08D919C911197E80FF91FF3
:100FE00020818D919C91119701968F73907011962D
:100FF0009C938E9330E0C9010895DC0191968C9109
:101000009197882339F05496ED91FC915597808102
:1010100086FFF9CF91961C920895CF93DF93EC0150
:10102000EE85FF85E05CFF4F20813181E054F04088
:101030002F5F3F4F2F733070DF01AE5BBF4F8D913D
:101040009C91119728173907D1F3E05CFF4F8081FD
:101050009181E054F040E80FF91F6083EE85FF8531
:10106000E05CFF4F31832083EE89FF89208181E09E
:1010700090E00F8C02C0880F991F0A94E2F7282B8A
:10108000208381E089A3EC89FD898081806480834D
:1010900081E090E0DF91CF9108951092510210927B
:1010A000500288EE93E0A0E0B0E08093520290936B
:1010B0005302A0935402B093550285E991E09093B6
:1010C0004F0280934E0286EC91E090935B028093F6
:1010D0005A028AE092E090935D0280935C0285EC74
:1010E00090E090935F0280935E0284EC90E0909396
:1010F00061028093600280EC90E0909363028093A1
:10110000620281EC90E0909365028093640282EC2D
:1011100090E0909367028093660286EC90E0909353
:1011200069028093680284E080936A0283E080937E
:101130006B0287E080936C0285E080936D0281E012
:1011400080936E020895CF93DF930E94020C0E9459
:101150003006CEECD6E00E94D0022097E1F30E9448
:10116000CE06F9CFCF92DF92EF92FF920F931F93AB
:10117000CF93DF937C016B018A01C0E0D0E00FC008
:10118000D6016D916D01D701ED91FC910190F08137
:10119000E02DC7010995C80FD91F01501040011556
:1011A000110571F7CE01DF91CF911F910F91FF9043
:1011B000EF90DF90CF900895DC01ED91FC910190CC
:1011C000F081E02D09950895EF92FF920F931F9300
:1011D0008C01DC01ED91FC910190F081E02D6DE03E
:1011E00009957C01D801ED91FC910190F081E02DF1
:1011F000C8016AE009959C012E0D3F1DC9011F9190
:101200000F91FF90EF900895CF93DF93EC0161155C
:10121000710519F420E030E00FC0DB010D900020D3
:10122000E9F71197A61BB70BE881F9810280F381DA
:10123000E02DAD0109959C01C901DF91CF91089581
:101240004F925F927F928F929F92AF92BF92CF9276
:10125000DF92EF92FF920F931F93DF93CF93CDB75F
:10126000DEB7A1970FB6F894DEBF0FBECDBF2C013D
:10127000742ECB01223008F42AE019A231E2C32EE9
:10128000D12CCC0EDD1E822E9924AA24BB24672DDE
:10129000752FA50194010E94C91079018A01C80126
:1012A000B701A50194010E949610472D461B089492
:1012B000C108D1084A3014F4405D01C0495CF60110
:1012C0004083E114F1040105110521F07E2C5F2D0E
:1012D000C801DDCFC201B6010E940409A1960FB674
:1012E000F894DEBF0FBECDBFCF91DF911F910F915C
:1012F000FF90EF90DF90CF90BF90AF909F908F9036
:101300007F905F904F900895DC012115310541F4E5
:10131000ED91FC910190F081E02D642F09950895E5
:101320000E9420090895EF92FF920F931F939A0154
:101330007B0100E010E0B801A7010E9484091F9121
:101340000F91FF90EF900895CF92DF92EF92FF926E
:101350000F931F936C017B019A0100E010E0B8012C
:10136000A7010E9484098C01C6010E94E408080FAD
:10137000191FC8011F910F91FF90EF90DF90CF9040
:101380000895EF92FF920F931F939A01E62EFF2488
:1013900000E010E0B801A7010E9484091F910F919D
:1013A000FF90EF900895CF92DF92EF92FF920F930C
:1013B0001F93CF93DF93EC016A017B012115310567
:1013C00041F4E881F9810190F081E02D642F0995C5
:1013D0001FC02A303105D1F477FF17C0E881F981A9
:1013E0000190F081E02D6DE209958C01442755278D
:1013F000BA014C195D096E097F09CE012AE00E94ED
:1014000020099801280F391F04C02AE00E942009F2
:101410009C01C901DF91CF911F910F91FF90EF9037
:10142000DF90CF900895EF92FF920F931F937B016F
:101430009A010027F7FC0095102FB801A7010E9420
:10144000D3091F910F91FF90EF9008950E94040916
:1014500008957F928F929F92AF92BF92CF92DF9228
:10146000EF92FF920F931F93CF93DF934C017A017A
:101470008B01722ECB01BA01A80197010E94921034
:10148000882321F0C40161E771E021C0C0E0D0E011
:1014900057016801E894D7F8C601B5012FEF3FEF77
:1014A0004FE75FE70E949210882351F4C601B5010F
:1014B0002FEF3FEF4FE75FE70E94DC0E181614F0A6
:1014C000C1E0D0E0219739F0C40165E771E00E94E6
:1014D0000409EC0193C0C801B7012FEF3FEF4FE7BC
:1014E0005FE40E942B10181654F0C801B7012FEFCB
:1014F0003FEF4FE75FEC0E94DC0E882324F4C40129
:1015000069E771E0E4CFC801B70120E030E040E0D6
:1015100050E00E94DC0E87FD03C0C0E0D0E00EC0AA
:10152000D401ED91FC910190F081E02DC4016DE2B8
:101530000995EC0117FB109517F9109520E030E0A4
:1015400040E05FE3DD240BC0CA01B90120E030E0D8
:1015500040E251E40E94E00E9B01AC01D394D71409
:1015600098F3C801B7010E94780E5B016C010E94DC
:101570004D0F7B018C01C401B801A7012AE030E0C6
:101580000E948409C80FD91F772039F0C4016DE784
:1015900071E00E940409C80FD91FC801B7010E9459
:1015A000790F9B01AC01C601B5010E94770E24C0E2
:1015B00020E030E040E251E40E942F107B018C01DA
:1015C0000E94480F5B016C01CC24B7FCC094DC2C5A
:1015D000C401B601A5012AE030E00E94D309C80F7A
:1015E000D91FC601B5010E947B0F9B01AC01C80148
:1015F000B7010E94770E7A947720D1F6CE01DF9161
:10160000CF911F910F91FF90EF90DF90CF90BF90FF
:10161000AF909F908F907F9008950E94290A08951F
:10162000EF92FF920F931F937C010E9404098C019B
:10163000C7010E94E408080F191FC8011F910F91EC
:10164000FF90EF900895AF92BF92CF92DF92EF920A
:10165000FF920F931F93CF93DF935C016B01EE24F6
:10166000FF24C0E0D0E010C0D501ED91FC910081D5
:101670001181C601BE010E94470D682FC501F80106
:101680000995E80EF91E2196F60184819581C81707
:10169000D90750F3C701DF91CF911F910F91FF90B0
:1016A000EF90DF90CF90BF90AF9008951F920F9270
:1016B0000FB60F9211242F933F938F939F93AF9365
:1016C000BF938091740290917502A0917602B091BF
:1016D0007702309178020196A11DB11D232F2D5F55
:1016E0002D3720F02D570196A11DB11D20937802B2
:1016F0008093740290937502A0937602B093770260
:101700008091700290917102A0917202B091730267
:101710000196A11DB11D8093700290937102A09358
:101720007202B0937302BF91AF919F918F913F91DD
:101730002F910F900FBE0F901F9018958FB7F894B0
:101740002091740230917502409176025091770297
:101750008FBFB901CA0108959FB7F8942091700214
:1017600030917102409172025091730286B5A89B2C
:1017700006C08F3F21F02F5F3F4F4F4F5F4F9FBFFE
:10178000542F432F322F2227280F311D411D511D69
:1017900082E0220F331F441F551F8A95D1F7B901EC
:1017A000CA010895EF92FF920F931F93CF93DF9397
:1017B0007B018C010E94AC0BEB010EC00E94AC0BB4
:1017C0006C1B7D0B685E7340C8F30894E108F10858
:1017D00001091109C851DC4FE114F104010511059B
:1017E00069F7DF91CF911F910F91FF90EF900895CE
:1017F000019739F0880F991F880F991F0297019759
:10180000F1F70895789484B5826084BD84B58160D1
:1018100084BD85B5826085BD85B5816085BDEEE6F8
:10182000F0E0808181608083E1E8F0E010828081D7
:1018300082608083808181608083E0E8F0E0808145
:1018400081608083E1EBF0E0808184608083E0EB65
:10185000F0E0808181608083EAE7F0E0808184604D
:1018600080838081826080838081816080838081A9
:10187000806880831092C1000895982F8E3008F000
:101880009E509770809190018295880F880F807C80
:10189000892B80937C0080917A00806480937A0009
:1018A00080917A0086FDFCCF2091780040917900EC
:1018B000942F80E030E0282B392BC9010895CF9375
:1018C000DF93482F50E0CA0186569F4FFC013491A8
:1018D0004A575F4FFA018491882369F190E0880F9D
:1018E000991FFC01E859FF4FA591B491FC01EE58F6
:1018F000FF4FC591D491662351F42FB7F8948C9182
:10190000932F909589238C93888189230BC0623013
:1019100061F42FB7F8948C91932F909589238C9331
:101920008881832B88832FBF06C09FB7F8948C9142
:10193000832B8C939FBFDF91CF910895833071F0FB
:10194000843028F48130A1F0823021F514C0863033
:10195000B1F08730D1F08430E9F404C08091800088
:101960008F7703C0809180008F7D809380000895E1
:1019700084B58F7702C084B58F7D84BD0895809132
:10198000B0008F778093B00008958091B0008F7D74
:101990008093B0000895FF920F931F93F62E482F67
:1019A00050E0CA0182559F4FFC012491CA0186561E
:1019B0009F4FFC0114914A575F4FFA010491002395
:1019C000C9F0222319F0822F0E949E0CE02FF0E034
:1019D000EE0FFF1FEE58FF4FA591B4919FB7F894FB
:1019E000FF2021F48C911095812302C08C91812BD2
:1019F0008C939FBF1F910F91FF9008952F923F925C
:101A00004F925F926F927F928F929F92AF92BF920E
:101A1000CF92DF92EF92FF920F931F93DF93CF93BA
:101A2000CDB7DEB73B014C0119012A016D897E89D2
:101A30008F89988D6A197B098C099D09621A730A2E
:101A4000840A950AA40193010E949610E218F308F3
:101A500004091509A80197010E94EB102A0D3B1DEE
:101A60004C1D5D1DB901CA01CF91DF911F910F91EE
:101A7000FF90EF90DF90CF90BF90AF909F908F90AE
:101A80007F906F905F904F903F902F900895FC0152
:101A9000848195816817790748F40190F081E02DE1
:101AA000309721F0E60FF71F8081089580E00895B8
:101AB000DC01FB0114968D919C911597892B31F4D3
:101AC00061157105A9F090E0808108C00D90BC916E
:101AD000A02D6115710529F490E08C91882349F4BB
:101AE00007C0CD010E946C029C0190E0232B09F4F9
:101AF00091E0892F0895CF93DF939C01FB01EC01C6
:101B0000A881B981109729F06081718161157105F3
:101B1000D1F4C081D181209759F084819581892B9E
:101B200039F0888190E022273327281B390B12C017
:101B3000109771F0F90184819581892B49F08C917E
:101B4000282F30E007C0CD010E946C029C0102C02A
:101B500020E030E0C901DF91CF9108950F931F93EA
:101B6000CF93DF93EC018B016F5F7F4F8881998169
:101B70000E948E01009711F480E005C0998388834C
:101B80001B830A8381E0DF91CF911F910F9108950C
:101B9000CF93DF93EC0188819981892B29F08A8189
:101BA0009B818617970760F4CE010E94AE0D8823B3
:101BB00041F08C819D81892B19F4E881F981108293
:101BC00081E0DF91CF910895EF92FF920F931F93E1
:101BD000CF93DF93EC017B016C817D81E114F104F3
:101BE000C1F04115510599F08A01060F171FB80180
:101BF0000E94C80D882369F0888199812C813D81DC
:101C0000820F931FB7010E9475021D830C8381E030
:101C100001C080E0DF91CF911F910F91FF90EF9075
:101C20000895DF93CF9300D0CDB7DEB769831A82D2
:101C3000BE016F5F7F4F41E050E00E94E40D0F90C6
:101C40000F90CF91DF910895CF93DF93EC018881BE
:101C50009981009711F00E943601198218821D8225
:101C60001C821B821A82DF91CF910895EF92FF921E
:101C70000F931F93CF93DF93EC017B018A01BA018D
:101C80000E94C80D882321F4CE010E94240E07C0B3
:101C90001D830C8388819981B7010E947502CE0152
:101CA000DF91CF911F910F91FF90EF900895CF9307
:101CB000DF93EC01198218821B821A821D821C821A
:101CC0001E826115710551F0DB010D900020E9F7CE
:101CD0001197A61BB70BAD010E94360EDF91CF9175
:101CE0000895FC01808191810E9436010895505829
:101CF000BB27AA270ED075C166D130F06BD120F07A
:101D000031F49F3F11F41EF45BC10EF4E095E7FB44
:101D100051C1E92F77D180F3BA176207730784079F
:101D2000950718F071F49EF58FC10EF4E0950B2E17
:101D3000BA2FA02D0B01B90190010C01CA01A0011D
:101D40001124FF27591B99F0593F50F4503E68F178
:101D50001A16F040A22F232F342F4427585FF3CFB9
:101D6000469537952795A795F0405395C9F77EF48A
:101D70001F16BA0B620B730B840BBAF09150A1F0D3
:101D8000FF0FBB1F661F771F881FC2F70EC0BA0F59
:101D9000621F731F841F48F4879577956795B795E1
:101DA000F7959E3F08F0B3CF9395880F08F09927D9
:101DB000EE0F979587950895D9D008F481E008959E
:101DC0000CD00FC107D140F0FED030F021F45F3FBE
:101DD00019F0F0C0511139C1F3C014D198F399230F
:101DE000C9F35523B1F3951B550BBB27AA276217DF
:101DF0007307840738F09F5F5F4F220F331F441F24
:101E0000AA1FA9F333D00E2E3AF0E0E830D091505B
:101E10005040E695001CCAF729D0FE2F27D0660F48
:101E2000771F881FBB1F261737074807AB07B0E887
:101E300009F0BB0B802DBF01FF2793585F4F2AF09D
:101E40009E3F510568F0B6C000C15F3FECF3983E7D
:101E5000DCF3869577956795B795F7959F5FC9F7FA
:101E6000880F911D9695879597F90895E1E0660F83
:101E7000771F881FBB1F621773078407BA0720F0FC
:101E8000621B730B840BBA0BEE1F88F7E095089565
:101E900004D06894B111D9C00895BCD088F09F5780
:101EA00090F0B92F9927B751A0F0D1F0660F771FA6
:101EB000881F991F1AF0BA95C9F712C0B13081F086
:101EC000C3D0B1E00895C0C0672F782F8827B85FCE
:101ED00039F0B93FCCF3869577956795B395D9F7E7
:101EE0003EF490958095709561957F4F8F4F9F4FF1
:101EF0000895E89409C097FB3EF4909580957095FD
:101F000061957F4F8F4F9F4F9923A9F0F92F96E945
:101F1000BB279395F695879577956795B795F111BA
:101F2000F8CFFAF4BB0F11F460FF1BC06F5F7F4F57
:101F30008F4F9F4F16C0882311F096E911C0772369
:101F400021F09EE8872F762F05C0662371F096E872
:101F5000862F70E060E02AF09A95660F771F881F41
:101F6000DAF7880F9695879597F90895990F0008E5
:101F7000550FAA0BE0E8FEEF16161706E807F9075B
:101F8000C0F012161306E407F50798F0621B730BF6
:101F9000840B950B39F40A2661F0232B242B252B77
:101FA00021F408950A2609F4A140A6958FEF811D1A
:101FB000811D089597F99F6780E870E060E00895BB
:101FC0009FEF80EC089500240A9416161706180651
:101FD0000906089500240A9412161306140605062D
:101FE0000895092E0394000C11F4882352F0BB0FBE
:101FF00040F4BF2B11F460FF04C06F5F7F4F8F4F21
:102000009F4F089557FD9058440F551F59F05F3F5B
:1020100071F04795880F97FB991F61F09F3F79F00A
:1020200087950895121613061406551FF2CF46958C
:10203000F1DF08C0161617061806991FF1CF86950E
:102040007105610508940895E894BB2766277727F2
:10205000CB0197F908958ADF08F48FEF08950BD02C
:10206000C0CFB1DF28F0B6DF18F0952309F0A2CF7A
:10207000A7CF1124EACFC6DFA0F3959FD1F3950F28
:1020800050E0551F629FF001729FBB27F00DB11DFC
:10209000639FAA27F00DB11DAA1F649F6627B00D8C
:1020A000A11D661F829F2227B00DA11D621F739F75
:1020B000B00DA11D621F839FA00D611D221F749F83
:1020C0003327A00D611D231F849F600D211D822FCA
:1020D000762F6A2F11249F5750408AF0E1F0882311
:1020E0004AF0EE0FFF1FBB1F661F771F881F91501E
:1020F0005040A9F79E3F510570F05CCFA6CF5F3FDF
:10210000ECF3983EDCF3869577956795B795F79550
:10211000E7959F5FC1F7FE2B880F911D96958795D8
:1021200097F9089523DF880B990B0895629FD001DA
:10213000739FF001829FE00DF11D649FE00DF11D82
:10214000929FF00D839FF00D749FF00D659FF00D31
:102150009927729FB00DE11DF91F639FB00DE11D1E
:10216000F91FBD01CF0111240895AA1BBB1B51E12A
:1021700007C0AA1FBB1FA617B70710F0A61BB70BF7
:10218000881F991F5A95A9F780959095BC01CD019C
:102190000895A1E21A2EAA1BBB1BFD010DC0AA1FA8
:1021A000BB1FEE1FFF1FA217B307E407F50720F0C0
:1021B000A21BB30BE40BF50B661F771F881F991F3B
:1021C0001A9469F760957095809590959B01AC0184
:1021D000BD01CF01089597FB092E05260ED057FDAE
:1021E00004D0D7DF0AD0001C38F4509540953095C4
:1021F00021953F4F4F4F5F4F0895F6F7909580958B
:10220000709561957F4F8F4F9F4F0895EE0FFF1F81
:102210000590F491E02D09942F923F924F925F9296
:102220006F927F928F929F92AF92BF92CF92DF92E6
:10223000EF92FF920F931F93CF93DF93CDB7DEB74B
:10224000CA1BDB0B0FB6F894DEBF0FBECDBF0994DF
:102250002A88398848885F846E847D848C849B8436
:10226000AA84B984C884DF80EE80FD800C811B8144
:10227000AA81B981CE0FD11D0FB6F894DEBF0FBE73
:0A228000CDBFED010895F894FFCFE3
:10228A00666F7277617264006261636B7761726410
:10229A0000002D004C454654004C0045452D520087
:1022AA00524947485400520045452D5300550044B1
:1022BA0000530053544F500020202020202020207B
:1022CA002020202020202020202020202020202004
:1022DA0020202020202020200075533A005D006431
:1022EA00653A006D735D0073703A00636D2F6D235C
:1022FA00006E616E00696E66006F7666002E0020C1
:10230A00007D02000090010100F401050001E803CC
:10231A0001000000000D08B208A307D407B407FDA6
:02232A000700AA
:00000001FF
