:100000000C9462000C948A000C948A000C948A0070
:100010000C948A000C948A000C948A000C948A0038
:100020000C948A000C948A000C948A000C948A0028
:100030000C948A000C948A000C948A000C948A0018
:100040000C9419040C948A000C94FA000C94480146
:100050000C948A000C948A000C948A000C948A00F8
:100060000C948A000C948A000000000024002700F1
:100070002A0000000000250028002B0000000000DE
:1000800023002600290004040404040404040202DA
:100090000202020203030303030301020408102007
:1000A0004080010204081020010204081020000012
:1000B0000007000201000003040600000000000029
:1000C0000000B40211241FBECFEFD8E0DEBFCDBFC9
:1000D00011E0A0E0B1E0E4E2FBE002C005900D9287
:1000E000A232B107D9F711E0A2E2B1E001C01D923E
:1000F000AA3DB107E1F710E0C4ECD0E004C02297BC
:10010000FE010E948C05C23CD107C9F70E940A0378
:100110000C9490050C940000EF92FF920F931F93A4
:100120000E9461047B018C01809122019091230146
:10013000A0912401B0912501A8019701281B390B3A
:100140004A0B5B0B253631054105510530F1809195
:100150000F0161E00E941605609126018FEA91E08F
:1001600070E04AE050E00E9403048FEA91E060E012
:1001700071E00E9416046091260181E06827609377
:100180002601809109010E941605E0922201F09259
:100190002301009324011093250180910F0160E059
:1001A0000E9416051F910F91FF90EF900895809186
:1001B000090161E00E94AA0480910B0161E00E94A4
:1001C000AA0480910F0161E00E94AA0480910D01B0
:1001D00061E00E94AA0480910D0160E00E94160572
:1001E0008FEA91E040E052EC61E070E00E94830110
:1001F000089508951F920F920FB60F9211242F9316
:100200003F934F938F939F93EF93FF938091C00001
:1002100082FD1DC04091C6002091670130916801A8
:100220002F5F3F4F2F7330708091690190916A0169
:100230002817390771F0E0916701F0916801E95DD5
:10024000FE4F4083309368012093670102C0809184
:10025000C600FF91EF919F918F914F913F912F9108
:100260000F900FBE0F901F901895E091BB01F09179
:10027000BC01E05CFF4F8191919120813181821B13
:10028000930B8F739070892B11F00E94F9000895E1
:100290001F920F920FB60F9211242F933F938F93BB
:1002A0009F93EF93FF932091AB013091AC0180912C
:1002B000AD019091AE012817390731F48091C1004A
:1002C0008F7D8093C10014C0E091AD01F091AE012B
:1002D000E559FE4F20818091AD019091AE010196CC
:1002E0008F7390709093AE018093AD012093C60000
:1002F000FF91EF919F918F913F912F910F900FBEA2
:100300000F901F901895AF92BF92DF92EF92FF92DD
:100310000F931F93CF93DF93EC017A018B01DD24C0
:10032000403081EE580780E0680780E0780711F0E0
:10033000DD24D39491E0A92EB12CEC89FD89DD2038
:1003400069F0C50108A002C0880F991F0A94E2F75E
:10035000808360E079E08DE390E005C0108260E882
:1003600074E88EE190E0A80197010E946805215091
:10037000304040405040569547953795279580E14D
:100380002030380720F0DD2011F0DD24D6CFE889B9
:10039000F9893083EA89FB89208319A2EE89FF89D4
:1003A000408121E030E0C9010C8C02C0880F991F08
:1003B0000A94E2F7482B4083EE89FF894081C90106
:1003C0000D8C02C0880F991F0A94E2F7482B4083D6
:1003D000EE89FF894081C9010E8C02C0880F991FE8
:1003E0000A94E2F7482B4083EE89FF8980810F8CC5
:1003F00002C0220F331F0A94E2F72095282320839E
:10040000DF91CF911F910F91FF90EF90DF90BF9000
:10041000AF900895DC011C96ED91FC911D97E05C76
:10042000FF4F2191319180819181281B390B2F73CE
:100430003070C9010895DC011C96ED91FC911D9767
:10044000E05CFF4F20813181E054F040DF01AE5B82
:10045000BF4F8D919C9111972817390719F42FEFF1
:100460003FEF07C08D919C91E80FF91F8081282FE5
:1004700030E0C9010895DC011C96ED91FC911D97B7
:10048000E05CFF4F20813181E054F040DF01AE5B42
:10049000BF4F8D919C9111972817390719F42FEFB1
:1004A0003FEF10C08D919C911197E80FF91F2081AB
:1004B0008D919C91119701968F73907011969C93DA
:1004C0008E9330E0C9010895DC0191968C9191974B
:1004D000882339F05496ED91FC915597808186FFE1
:1004E000F9CF91961C920895CF93DF93EC01EE859E
:1004F000FF85E05CFF4F20813181E054F0402F5FA9
:100500003F4F2F733070DF01AE5BBF4F8D919C91D9
:10051000119728173907D1F3E05CFF4F8081918153
:10052000E054F040E80FF91F6083EE85FF85E05C42
:10053000FF4F31832083EE89FF89208181E090E0A5
:100540000F8C02C0880F991F0A94E2F7282B208392
:1005500081E089A3EC89FD8980818064808381E0CA
:1005600090E0DF91CF9108951092B2011092B10105
:1005700088EE93E0A0E0B0E08093B3019093B401E3
:10058000A093B501B093B60185E191E09093B001DD
:100590008093AF0187E291E09093BC018093BB010F
:1005A0008BE691E09093BE018093BD0185EC90E0D5
:1005B0009093C0018093BF0184EC90E09093C201BE
:1005C0008093C10180EC90E09093C4018093C301BB
:1005D00081EC90E09093C6018093C50182EC90E09D
:1005E0009093C8018093C70186EC90E09093CA0174
:1005F0008093C90184E08093CB0183E08093CC0198
:1006000087E08093CD0185E08093CE0181E08093E7
:10061000CF010895CF93DF930E946F040E94D7000B
:10062000C5E3D1E00E948C002097E1F30E943501E0
:10063000F9CFCF92DF92EF92FF920F931F93CF9358
:10064000DF937C016B018A01C0E0D0E00FC0D601CE
:100650006D916D01D701ED91FC910190F081E02D3C
:10066000C7010995C80FD91F015010400115110588
:1006700071F7CE01DF91CF911F910F91FF90EF9015
:10068000DF90CF900895CF93DF93EC016115710552
:1006900019F420E030E00FC0DB010D900020E9F7F5
:1006A0001197A61BB70BE881F9810280F381E02D39
:1006B000AD0109959C01C901DF91CF9108954F9239
:1006C0005F927F928F929F92AF92BF92CF92DF9272
:1006D000EF92FF920F931F93DF93CF93CDB7DEB7C7
:1006E000A1970FB6F894DEBF0FBECDBF2C01742EBC
:1006F000CB01223008F42AE019A231E2C32ED12C1A
:10070000CC0EDD1E822E9924AA24BB24672D752FC2
:10071000A50194010E94680579018A01C801B70109
:10072000A50194010E944905472D461B0894C10864
:10073000D1084A3014F4405D01C0495CF6014083A1
:10074000E114F1040105110521F07E2C5F2DC80193
:10075000DDCFC201B6010E944303A1960FB6F89403
:10076000DEBF0FBECDBFCF91DF911F910F91FF90E4
:10077000EF90DF90CF90BF90AF909F908F907F9041
:100780005F904F900895CF92DF92EF92FF920F9378
:100790001F93CF93DF93EC016A017B012115310593
:1007A00041F4E881F9810190F081E02D642F0995F1
:1007B0001FC02A303105D1F477FF17C0E881F981D5
:1007C0000190F081E02D6DE209958C0144275527B9
:1007D000BA014C195D096E097F09CE012AE00E9419
:1007E0005F039801280F391F04C02AE00E945F03AD
:1007F0009C01C901DF91CF911F910F91FF90EF9064
:10080000DF90CF900895EF92FF920F931F937B019B
:100810009A010027F7FC0095102FB801A7010E944C
:10082000C3031F910F91FF90EF9008950E9443031F
:1008300008951F920F920FB60F9211242F933F939A
:100840008F939F93AF93BF938091D5019091D601E1
:10085000A091D701B091D8013091D9010196A11D85
:10086000B11D232F2D5F2D3720F02D570196A11D8F
:10087000B11D2093D9018093D5019093D601A09307
:10088000D701B093D8018091D1019091D201A0916C
:10089000D301B091D4010196A11DB11D8093D10166
:1008A0009093D201A093D301B093D401BF91AF91A3
:1008B0009F918F913F912F910F900FBE0F901F909E
:1008C00018958FB7F8942091D5013091D6014091B9
:1008D000D7015091D8018FBFB901CA01089578940A
:1008E00084B5826084BD84B5816084BD85B5826035
:1008F00085BD85B5816085BDEEE6F0E080818160D3
:100900008083E1E8F0E010828081826080838081D2
:1009100081608083E0E8F0E0808181608083E1EBAA
:10092000F0E0808184608083E0EBF0E08081816092
:100930008083EAE7F0E08081846080838081826048
:100940008083808181608083808180688083109231
:10095000C1000895CF93DF93482F50E0CA01865617
:100960009F4FFC0134914A575F4FFA0184918823CD
:1009700069F190E0880F991FFC01E859FF4FA5919C
:10098000B491FC01EE58FF4FC591D491662351F408
:100990002FB7F8948C91932F909589238C9388810D
:1009A00089230BC0623061F42FB7F8948C91932F98
:1009B000909589238C938881832B88832FBF06C0D1
:1009C0009FB7F8948C91832B8C939FBFDF91CF912D
:1009D0000895833071F0843028F48130A1F08230A2
:1009E00021F514C08630B1F08730D1F08430E9F4BD
:1009F00004C0809180008F7703C0809180008F7D3C
:100A000080938000089584B58F7702C084B58F7D70
:100A100084BD08958091B0008F778093B0000895D1
:100A20008091B0008F7D8093B0000895FF920F9366
:100A30001F93F62E482F50E0CA0182559F4FFC01AC
:100A40002491CA0186569F4FFC0114914A575F4F6B
:100A5000FA0104910023C9F0222319F0822F0E9489
:100A6000E904E02FF0E0EE0FFF1FEE58FF4FA591D5
:100A7000B4919FB7F894FF2021F48C9110958123B5
:100A800002C08C91812B8C939FBF1F910F91FF907F
:100A90000895629FD001739FF001829FE00DF11DC8
:100AA000649FE00DF11D929FF00D839FF00D749FE8
:100AB000F00D659FF00D9927729FB00DE11DF91F94
:100AC000639FB00DE11DF91FBD01CF0111240895F1
:100AD000A1E21A2EAA1BBB1BFD010DC0AA1FBB1F42
:100AE000EE1FFF1FA217B307E407F50720F0A21BB4
:100AF000B30BE40BF50B661F771F881F991F1A9421
:100B000069F760957095809590959B01AC01BD014A
:100B1000CF010895EE0FFF1F0590F491E02D099489
:040B2000F894FFCF77
:100B24002D7469636B0A0D20000300040005000D99
:100B34000000000000740219030A023B021B026455
:020B44000200AD
:00000001FF
