:100000000C9463000C94B3070C94E0070C948B00E1
:100010000C948B000C948B000C948B000C941E059C
:100020000C948B000C948B000C948B000C948B0024
:100030000C948B000C948B000C948B000C948B0014
:100040000C940D080C948B000C94BA010C940802CB
:100050000C948B000C948B000C948B000C948B00F4
:100060000C948B000C948B000200000000240027ED
:10007000002A0000000000250028002B00000000DE
:1000800000230026002900040404040404040402DC
:100090000202020202030303030303010204081025
:1000A00020408001020408102001020408102000F2
:1000B0000000070002010000030406000000000029
:1000C00000000000740311241FBECFEFD8E0DEBF94
:1000D000CDBF12E0A0E0B1E0ECE6F6E102C0059091
:1000E0000D92A035B107D9F713E0A0E5B2E001C049
:1000F0001D92A332B107E1F710E0C6ECD0E004C0D6
:100100002297FE010E94300BC43CD107C9F70E9420
:10011000CA030C94340B0C9400000F931F930FED43
:1001200012E0C80160E071E00E94D304C8016BE0F6
:1001300071E00E94D00460915002C8014AE050E092
:100140000E94B204C8010E94240383B7817F8460A7
:1001500083BF83B7816083BF83B7816083BF889586
:1001600083B78E7F83BF0FED12E0C8010E94240386
:10017000C8010E940304C8016FE171E00E94D0042D
:1001800060915002C8014AE050E00E94B2041F9101
:100190000F910895CF92DF92EF92FF920F931F93EA
:1001A000CF93DF938FED92E061E371E00E94D3047F
:1001B0008FED92E067E371E00E94D00460915002FD
:1001C0008FED92E04AE050E00E94B2048FED92E0A1
:1001D00063E471E00E94D30481E0C82ED12C53C0A7
:1001E0008091390261E00E945609609150028FEDC2
:1001F00092E04AE050E00E94B2048FED92E069E4A0
:1002000071E00E94D304C0E0D0E0FE01EB58FE4F45
:100210006081718188EE93E00E94CA0A7B01FE0131
:10022000E959FE4F608171810027F7FC0095102F7E
:1002300080913B02A80197010E947A05C801B7018D
:100240000E94BC0926E636E646EA5FE30E94480AB9
:100250000E948909882777FD8095982F0E94890838
:100260002296CE30D10589F68FED92E064E571E0FB
:100270000E94D304D0925202C09251028091500247
:1002800081508093500280915002882309F0A8CFBA
:100290008091510290915202019721F410925202E2
:1002A000109251028091390260E00E9456090E942A
:1002B0008D00DF91CF911F910F91FF90EF90DF9014
:1002C000CF9008950F931F930FED12E0C80160E6E1
:1002D00071E00E94D3048091390261E00E94EA0833
:1002E00080913B0261E00E94EA0880913D0260E05B
:1002F0000E94EA08C80140E855E260E070E00E9410
:10030000430280E06BE871E040E050E00E9490071B
:100310001F910F910895EF92FF920F931F930E94E8
:1003200055089B01AC018091530290915402A09119
:100330005502B091560279018A01E81AF90A0A0BAE
:100340001B0BD801C7014597A105B10528F0809185
:1003500050028F5F809350022093530230935402D7
:1003600040935502509356021F910F91FF90EF90CA
:10037000089508951F920F920FB60F9211242F9394
:100380003F934F938F939F93EF93FF938091C00080
:1003900082FD1DC04091C6002091970230919802C5
:1003A0002F5F3F4F2F7330708091990290919A0286
:1003B0002817390771F0E0919702F0919802E95AF5
:1003C000FD4F4083309398022093970202C08091A2
:1003D000C600FF91EF919F918F914F913F912F9187
:1003E0000F900FBE0F901F901895E091EB02F091C7
:1003F000EC02E05CFF4F8191919120813181821B61
:10040000930B8F739070892B11F00E94B90108959E
:100410001F920F920FB60F9211242F933F938F9339
:100420009F93EF93FF932091DB023091DC02809148
:10043000DD029091DE022817390731F48091C10066
:100440008F7D8093C10014C0E091DD02F091DE0247
:10045000E556FD4F20818091DD029091DE020196EC
:100460008F7390709093DE028093DD022093C6001C
:10047000FF91EF919F918F913F912F910F900FBE20
:100480000F901F901895AF92BF92DF92EF92FF925C
:100490000F931F93CF93DF93EC017A018B01DD243F
:1004A000403081EE580780E0680780E0780711F05F
:1004B000DD24D39491E0A92EB12CEC89FD89DD20B7
:1004C00069F0C50108A002C0880F991F0A94E2F7DD
:1004D000808360E079E08DE390E005C0108260E801
:1004E00074E88EE190E0A80197010E94DD0A215096
:1004F000304040405040569547953795279580E1CC
:100500002030380720F0DD2011F0DD24D6CFE88937
:10051000F9893083EA89FB89208319A2EE89FF8952
:10052000408121E030E0C9010C8C02C0880F991F86
:100530000A94E2F7482B4083EE89FF894081C90184
:100540000D8C02C0880F991F0A94E2F7482B408354
:10055000EE89FF894081C9010E8C02C0880F991F66
:100560000A94E2F7482B4083EE89FF8980810F8C43
:1005700002C0220F331F0A94E2F72095282320831C
:10058000DF91CF911F910F91FF90EF90DF90BF907F
:10059000AF900895DC011C96ED91FC911D97E05CF5
:1005A000FF4F2191319180819181281B390B2F734D
:1005B0003070C9010895DC011C96ED91FC911D97E6
:1005C000E05CFF4F20813181E054F040DF01AE5B01
:1005D000BF4F8D919C9111972817390719F42FEF70
:1005E0003FEF07C08D919C91E80FF91F8081282F64
:1005F00030E0C9010895DC011C96ED91FC911D9736
:10060000E05CFF4F20813181E054F040DF01AE5BC0
:10061000BF4F8D919C9111972817390719F42FEF2F
:100620003FEF10C08D919C911197E80FF91F208129
:100630008D919C91119701968F73907011969C9358
:100640008E9330E0C9010895DC0191968C919197C9
:10065000882339F05496ED91FC915597808186FF5F
:10066000F9CF91961C920895CF93DF93EC01EE851C
:10067000FF85E05CFF4F20813181E054F0402F5F27
:100680003F4F2F733070DF01AE5BBF4F8D919C9158
:10069000119728173907D1F3E05CFF4F80819181D2
:1006A000E054F040E80FF91F6083EE85FF85E05CC1
:1006B000FF4F31832083EE89FF89208181E090E024
:1006C0000F8C02C0880F991F0A94E2F7282B208311
:1006D00081E089A3EC89FD8980818064808381E049
:1006E00090E0DF91CF9108951092E2021092E10222
:1006F00088EE93E0A0E0B0E08093E3029093E40200
:10070000A093E502B093E60284E492E09093E002C5
:100710008093DF0287E592E09093EC028093EB02F6
:100720008BE992E09093EE028093ED0285EC90E0ED
:100730009093F0028093EF0284EC90E09093F202A9
:100740008093F10280EC90E09093F4028093F302A6
:1007500081EC90E09093F6028093F50282EC90E0B9
:100760009093F8028093F70286EC90E09093FA025F
:100770008093F90284E08093FB0283E08093FC0283
:1007800087E08093FD0285E08093FE0281E0809304
:10079000FF020895CF93DF930E94AF080E94620189
:1007A000C5EFD1E00E94CA002097E1F30E94F50155
:1007B000F9CFCF92DF92EF92FF920F931F93CF93D7
:1007C000DF937C016B018A01C0E0D0E00FC0D6014D
:1007D0006D916D01D701ED91FC910190F081E02DBB
:1007E000C7010995C80FD91F015010400115110507
:1007F00071F7CE01DF91CF911F910F91FF90EF9094
:10080000DF90CF900895EF92FF920F931F938C018A
:10081000DC01ED91FC910190F081E02D6DE00995F6
:100820007C01D801ED91FC910190F081E02DC8018F
:100830006AE009959C012E0D3F1DC9011F910F9182
:10084000FF90EF900895CF93DF93EC016115710550
:1008500019F420E030E00FC0DB010D900020E9F733
:100860001197A61BB70BE881F9810280F381E02D77
:10087000AD0109959C01C901DF91CF9108954F9277
:100880005F927F928F929F92AF92BF92CF92DF92B0
:10089000EF92FF920F931F93DF93CF93CDB7DEB705
:1008A000A1970FB6F894DEBF0FBECDBF2C01742EFA
:1008B000CB01223008F42AE019A231E2C32ED12C58
:1008C000CC0EDD1E822E9924AA24BB24672D752F01
:1008D000A50194010E94DD0A79018A01C801B701CE
:1008E000A50194010E94AB0A472D461B0894C1083C
:1008F000D1084A3014F4405D01C0495CF6014083E0
:10090000E114F1040105110521F07E2C5F2DC801D1
:10091000DDCFC201B6010E942304A1960FB6F89460
:10092000DEBF0FBECDBFCF91DF911F910F91FF9022
:10093000EF90DF90CF90BF90AF909F908F907F907F
:100940005F904F900895DC012115310541F4ED9140
:10095000FC910190F081E02D642F099508950E948B
:100960003F040895CF92DF92EF92FF920F931F936F
:100970006C01E62E9A01FF2400E010E0B801A70107
:100980000E94A3048C01C6010E940304080F191FD2
:10099000C8011F910F91FF90EF90DF90CF900895C5
:1009A0000E9423040895EF92FF920F931F937C01FE
:1009B0000E9423048C01C7010E940304080F191F21
:1009C000C8011F910F91FF90EF900895813041F081
:1009D000813018F08230D1F409C010926E00089571
:1009E00080916F008D7F80936F00089580917000DB
:1009F0008D7F8093700081E08093B0008091B10082
:100A0000887F84608093B1001092B30008951F9393
:100A1000182F80913F02811711F09FEF06C0E8E682
:100A2000F0E094918FEF80933F02892F0E94E604BB
:100A3000812F60E00E9456091F9108951F920F9226
:100A40000FB60F9211242F933F934F935F936F93A1
:100A50007F938F939F93AF93BF93EF93FF93809177
:100A60000F0390911003A0911103B091120300970E
:100A7000A105B10551F1E0911303F09114038081B8
:100A8000909115038927808380910F039091100323
:100A9000A0911103B0911203181619061A061B062D
:100AA000C4F480910F0390911003A0911103B091B1
:100AB00012030197A109B10980930F0390931003CA
:100AC000A0931103B093120304C080913F020E94CF
:100AD0000705FF91EF91BF91AF919F918F917F910A
:100AE0006F915F914F913F912F910F900FBE0F909B
:100AF0001F9018952F923F925F926F927F928F92E4
:100B00009F92AF92BF92CF92DF92EF92FF920F939C
:100B10001F93DF93CF9300D000D0CDB7DEB7A82FBF
:100B20001B0129833A834B835C8380913F028A17A0
:100B300021F4E8E6F0E0549082C08F3F09F0DAC17A
:100B4000A0933F02E8E6F0E054902FEF521609F42C
:100B5000D1C181E0581639F192E0591609F449C023
:100B6000552009F06CC014BC15BC84B5826084BDEE
:100B700085B5816085BD2A2F30E0F901E957FF4F27
:100B8000E491F0E0EE0FFF1FED58FF4F8591949137
:100B9000909306038093050325563F4FF9018491F6
:100BA000809307034EC010928000109281008091C4
:100BB00081008860809381008091810081608093B2
:100BC00081002A2F30E0F901E957FF4FE491F0E06E
:100BD000EE0FFF1FED58FF4F8591949190930D03F9
:100BE00080930C0325563F4FF901849180930E03A7
:100BF00028C01092B0001092B1008091B0008260C5
:100C00008093B0008091B10081608093B1002A2F61
:100C100030E0F901E957FF4FE491F0E0EE0FFF1FDC
:100C2000ED58FF4F85919491909314038093130393
:100C300025563F4FF90184918093150302C057FC5C
:100C400059C18A2F61E00E94EA08552021F0F2E0A4
:100C50005F1609F0BEC031018824992460E072E17A
:100C60008AE790E0A40193010E94FF0A59016A01FA
:100C7000860175010894E108F108010911092FEFB7
:100C8000E216F1040105110509F008F499C060E4C9
:100C900072E48FE090E0A40193010E94FF0A7901C1
:100CA0008A010894E108F1080109110982E0581647
:100CB000C1F49FEFE916F1040105110509F008F4EC
:100CC00084C060E970ED83E090E0A40193010E948C
:100CD000FF0A79018A010894E108F1080109110964
:100CE00083E0AFEFEA16F1040105110509F008F4FD
:100CF00068C068E478EE81E090E0A40193010E946E
:100D0000FF0A79018A010894E108F1080109110933
:100D1000552011F483E01DC0B2E05B1611F084E0B1
:100D200018C0EFEFEE16F1040105110509F008F403
:100D3000DFC064E274EF80E090E0A40193010E94C0
:100D4000FF0A79018A010894E108F10801091109F3
:100D500085E0FFEFEF16F1040105110591F188F12F
:100D600062E17AE780E090E0A40193010E94FF0A2B
:100D700079018A010894E108F10801091109552057
:100D800011F086E001C084E02FEFE216F1040105C6
:100D90001105B9F0B0F0C601B50120E034E040E043
:100DA00050E00E94FF0A79018A010894E108F108E5
:100DB00001091109552011F087E008C085E003C042
:100DC00081E0552019F485BD3AC082E08093B100DE
:100DD00036C05101CC24DD2460E072E18AE790E066
:100DE000A60195010E94FF0A79018A010894E10891
:100DF000F1080109110980E0E81680E0F80681E0B9
:100E0000080780E0180710F491E010C068E478EE5D
:100E100081E090E0A60195010E94FF0A79018A0114
:100E20000894E108F1080109110993E0A1E05A16BC
:100E300031F480918100887F982B90938100898183
:100E40009A81AB81BC810097A105B10529F48FEF90
:100E50009FEFAFEFBFEF13C0220C331CB10180E056
:100E600090E029813A814B815C810E94AB0A28EE97
:100E700033E040E050E00E94DD0AC901DA01E1E020
:100E80005E16A1F0F2E05F1619F1552099F5E7BC66
:100E90008093010390930203A0930303B093040390
:100EA00080916E00826080936E0024C0F092890071
:100EB000E09288008093080390930903A0930A03AB
:100EC000B0930B0380916F00826080936F0012C01B
:100ED000E092B30080930F0390931003A09311034B
:100EE000B09312038091700082608093700002C002
:100EF00084E06CCF0F900F900F900F90CF91DF9107
:100F00001F910F91FF90EF90DF90CF90BF90AF9027
:100F10009F908F907F906F905F903F902F9008955B
:100F2000823000F5E82FF0E0EE0FFF1FEA5EFC4F85
:100F300071836083882319F08130A1F408C0809107
:100F400069008C7F842B80936900E89A08958091D2
:100F50006900440F551F440F551F837F842B8093D6
:100F60006900E99A08951F920F920FB60F9211240B
:100F70002F933F934F935F936F937F938F939F93A1
:100F8000AF93BF93EF93FF93809116039091170354
:100F9000892B29F0E0911603F09117030995FF9131
:100FA000EF91BF91AF919F918F917F916F915F91E1
:100FB0004F913F912F910F900FBE0F901F9018955A
:100FC0001F920F920FB60F9211242F933F934F93BE
:100FD0005F936F937F938F939F93AF93BF93EF93A1
:100FE000FF938091180390911903892B29F0E091C8
:100FF0001803F09119030995FF91EF91BF91AF91FB
:101000009F918F917F916F915F914F913F912F9120
:101010000F900FBE0F901F9018951F920F920FB652
:101020000F9211242F933F938F939F93AF93BF936E
:1010300080911E0390911F03A0912003B091210382
:10104000309122030196A11DB11D232F2D5F2D3755
:1010500020F02D570196A11DB11D209322038093EE
:101060001E0390931F03A0932003B093210380914C
:101070001A0390911B03A0911C03B0911D030196CC
:10108000A11DB11D80931A0390931B03A0931C0311
:10109000B0931D03BF91AF919F918F913F912F917D
:1010A0000F900FBE0F901F9018958FB7F894209156
:1010B0001E0330911F0340912003509121038FBFE5
:1010C000B901CA0108959FB7F89420911A0330918D
:1010D0001B0340911C0350911D0386B5A89B06C0BD
:1010E0008F3F21F02F5F3F4F4F4F5F4F9FBF542FD8
:1010F000432F322F2227280F311D411D511D82E021
:10110000220F331F441F551F8A95D1F7B901CA0119
:101110000895EF92FF920F931F93CF93DF937B017C
:101120008C010E946308EB010EC00E9463086C1BD7
:101130007D0B685E7340C8F30894E108F10801096B
:101140001109C851DC4FE114F1040105110569F7DB
:10115000DF91CF911F910F91FF90EF9008957894B8
:1011600084B5826084BD84B5816084BD85B58260AC
:1011700085BD85B5816085BDEEE6F0E0808181604A
:101180008083E1E8F0E0108280818260808380814A
:1011900081608083E0E8F0E0808181608083E1EB22
:1011A000F0E0808184608083E0EBF0E0808181600A
:1011B0008083EAE7F0E080818460808380818260C0
:1011C00080838081816080838081806880831092A9
:1011D000C1000895CF93DF93482F50E0CA01855690
:1011E0009F4FFC01349149575F4FFA018491882346
:1011F00069F190E0880F991FFC01E759FF4FA59115
:10120000B491FC01ED58FF4FC591D491662351F480
:101210002FB7F8948C91932F909589238C93888184
:1012200089230BC0623061F42FB7F8948C91932F0F
:10123000909589238C938881832B88832FBF06C048
:101240009FB7F8948C91832B8C939FBFDF91CF91A4
:101250000895833071F0843028F48130A1F0823019
:1012600021F514C08630B1F08730D1F08430E9F434
:1012700004C0809180008F7703C0809180008F7DB3
:1012800080938000089584B58F7702C084B58F7DE8
:1012900084BD08958091B0008F778093B000089549
:1012A0008091B0008F7D8093B0000895FF920F93DE
:1012B0001F93F62E482F50E0CA0181559F4FFC0125
:1012C0002491CA0185569F4FFC01149149575F4FE5
:1012D000FA0104910023C9F0222319F0822F0E9401
:1012E0002909E02FF0E0EE0FFF1FED58FF4FA59109
:1012F000B4919FB7F894FF2021F48C91109581232D
:1013000002C08C91812B8C939FBF1F910F91FF90F6
:10131000089504D06894B111B5C0089598D088F0AC
:101320009F5790F0B92F9927B751A0F0D1F0660FD1
:10133000771F881F991F1AF0BA95C9F712C0B130EC
:1013400081F09FD0B1E008959CC0672F782F882747
:10135000B85F39F0B93FCCF3869577956795B3952B
:10136000D9F73EF490958095709561957F4F8F4F9A
:101370009F4F0895E89409C097FB3EF4909580959F
:10138000709561957F4F8F4F9F4F9923A9F0F92F4B
:1013900096E9BB279395F695879577956795B795C9
:1013A000F111F8CFFAF4BB0F11F460FF1BC06F5FAF
:1013B0007F4F8F4F9F4F16C0882311F096E911C0C1
:1013C000772321F09EE8872F762F05C0662371F0E2
:1013D00096E8862F70E060E02AF09A95660F771FF6
:1013E000881FDAF7880F9695879597F9089597F9EA
:1013F0009F6780E870E060E008959FEF80EC0895BB
:1014000000240A94161617061806090608950024E3
:101410000A9412161306140605060895092E03945D
:10142000000C11F4882352F0BB0F40F4BF2B11F4D1
:1014300060FF04C06F5F7F4F8F4F9F4F089557FD30
:101440009058440F551F59F05F3F71F04795880F32
:1014500097FB991F61F09F3F79F0879508951216C9
:1014600013061406551FF2CF4695F1DF08C0161675
:1014700017061806991FF1CF869571056105089426
:101480000895E894BB2766277727CB0197F908953D
:101490000BD0C4CFB5DF28F0BADF18F0952309F0E0
:1014A000A6CFABCF1124EECFCADFA0F3959FD1F327
:1014B000950F50E0551F629FF001729FBB27F00D02
:1014C000B11D639FAA27F00DB11DAA1F649F662757
:1014D000B00DA11D661F829F2227B00DA11D621FA6
:1014E000739FB00DA11D621F839FA00D611D221F60
:1014F000749F3327A00D611D231F849F600D211D44
:10150000822F762F6A2F11249F5750408AF0E1F0E6
:1015100088234AF0EE0FFF1FBB1F661F771F881F2F
:1015200091505040A9F79E3F510570F060CFAACF6F
:101530005F3FECF3983EDCF3869577956795B7951A
:10154000F795E7959F5FC1F7FE2B880F911D969544
:10155000879597F90895629FD001739FF001829F4C
:10156000E00DF11D649FE00DF11D929FF00D839F32
:10157000F00D749FF00D659FF00D9927729FB00DCF
:10158000E11DF91F639FB00DE11DF91FBD01CF01E2
:101590001124089597FB092E07260AD077FD04D061
:1015A00049D006D000201AF4709561957F4F0895B8
:1015B000F6F7909581959F4F0895A1E21A2EAA1BE8
:1015C000BB1BFD010DC0AA1FBB1FEE1FFF1FA217F3
:1015D000B307E407F50720F0A21BB30BE40BF50BF0
:1015E000661F771F881F991F1A9469F76095709579
:1015F000809590959B01AC01BD01CF01089597FBAB
:10160000092E05260ED057FD04D0D7DF0AD0001CC6
:1016100038F450954095309521953F4F4F4F5F4F8F
:101620000895F6F790958095709561957F4F8F4F4F
:101630009F4F0895AA1BBB1B51E107C0AA1FBB1FE8
:10164000A617B70710F0A61BB70B881F991F5A954E
:10165000A9F780959095BC01CD010895EE0FFF1F6D
:0C1660000590F491E02D0994F894FFCF60
:10166C00736C656570206E6F772000504C4159206B
:10167C006265666F726520736C6565703A20005008
:10168C004C4159206F6E2077616B652075703A2044
:10169C00006C6F6F702000504C4159206C6F6F7054
:1016AC003A200072696E672000506C6179204D758C
:1016BC0073696300204D7573696320656E642E0039
:1016CC0073657475702000880193024B020B0288BD
:1016DC0001880193020800080008000800020008B5
:1016EC0000080008000800020008000800080008B4
:1016FC0000020008000800080008000200080008AA
:10170C000008000800020008000800080008000299
:10171C000008000800080008000800080008001075
:10172C00001000080008000800080004000400086D
:10173C000008000400080008000400080008000865
:10174C000008000200080008000800100010000843
:10175C00000800080010001000080008000800082D
:10176C00000400040008000800040008000800043D
:10177C000008000800080008000200080008000823
:10178C0000100010000800080008001000100008ED
:10179C00000800080008000200040003000200FF1B
:1017AC00000000003403D903CA02FB02DB0224034D
:00000001FF
